{
  "contractName": "AddPool",
  "abi": [
    {
      "inputs": [
        {
          "internalType": "bytes",
          "name": "",
          "type": "bytes"
        },
        {
          "internalType": "uint256",
          "name": "",
          "type": "uint256"
        }
      ],
      "name": "sideEffect",
      "outputs": [
        {
          "internalType": "uint256[]",
          "name": "",
          "type": "uint256[]"
        }
      ],
      "stateMutability": "pure",
      "type": "function",
      "constant": true
    }
  ],
  "bytecode": "0x608060405234801561001057600080fd5b506102ff806100206000396000f3fe608060405234801561001057600080fd5b506004361061002b5760003560e01c80634ab51c0314610030575b600080fd5b61004a6004803603810190610045919061015a565b610060565b6040516100579190610278565b60405180910390f35b6060600067ffffffffffffffff81111561007d5761007c61029a565b5b6040519080825280602002602001820160405280156100ab5781602001602082028036833780820191505090505b5090509392505050565b600080fd5b600080fd5b600080fd5b600080fd5b600080fd5b60008083601f8401126100e4576100e36100bf565b5b8235905067ffffffffffffffff811115610101576101006100c4565b5b60208301915083600182028301111561011d5761011c6100c9565b5b9250929050565b6000819050919050565b61013781610124565b811461014257600080fd5b50565b6000813590506101548161012e565b92915050565b600080600060408486031215610173576101726100b5565b5b600084013567ffffffffffffffff811115610191576101906100ba565b5b61019d868287016100ce565b935093505060206101b086828701610145565b9150509250925092565b600081519050919050565b600082825260208201905092915050565b6000819050602082019050919050565b6101ef81610124565b82525050565b600061020183836101e6565b60208301905092915050565b6000602082019050919050565b6000610225826101ba565b61022f81856101c5565b935061023a836101d6565b8060005b8381101561026b57815161025288826101f5565b975061025d8361020d565b92505060018101905061023e565b5085935050505092915050565b60006020820190508181036000830152610292818461021a565b905092915050565b7f4e487b7100000000000000000000000000000000000000000000000000000000600052604160045260246000fdfea2646970667358221220fc44ccfe320a740cc77b34a3b916c2a94de4a9632a18007c3364b0ea4d7becee64736f6c63430008090033",
  "immutableReferences": {},
  "source": "// SPDX-License-Identifier: UNLICENSED\npragma solidity ^0.8.0;\nimport \"./Transaction.sol\";\ncontract AddPool is Transaction{\n\n  function sideEffect(bytes calldata, uint) public pure override\n    returns (uint256[] memory) {\n    return new uint256[](0);\n  }\n}\n",
  "sourcePath": "/home/xgao/delphinus-lerna/packages/solidity/contracts/AddPool.sol",
  "compiler": {
    "name": "solc",
    "version": "0.8.9+commit.e5eed63a.Linux.g++"
  },
  "schemaVersion": "3.4.4",
  "updatedAt": "2022-01-05T11:05:36.562Z",
  "networkType": "ethereum",
  "devdoc": {
    "kind": "dev",
    "methods": {},
    "version": 1
  },
  "userdoc": {
    "kind": "user",
    "methods": {},
    "version": 1
  }
}