{
  "contractName": "Bidding",
  "abi": [
    {
      "inputs": [
        {
          "internalType": "address",
          "name": "token",
          "type": "address"
        },
        {
          "internalType": "address",
          "name": "nft",
          "type": "address"
        }
      ],
      "stateMutability": "nonpayable",
      "type": "constructor"
    },
    {
      "anonymous": false,
      "inputs": [
        {
          "indexed": false,
          "internalType": "uint256",
          "name": "tokenId",
          "type": "uint256"
        },
        {
          "indexed": false,
          "internalType": "uint256",
          "name": "price",
          "type": "uint256"
        }
      ],
      "name": "Bid",
      "type": "event"
    },
    {
      "anonymous": false,
      "inputs": [
        {
          "indexed": false,
          "internalType": "uint256",
          "name": "tokenId",
          "type": "uint256"
        },
        {
          "indexed": false,
          "internalType": "uint256",
          "name": "price",
          "type": "uint256"
        }
      ],
      "name": "Finalize",
      "type": "event"
    },
    {
      "inputs": [],
      "name": "brand",
      "outputs": [
        {
          "internalType": "string",
          "name": "",
          "type": "string"
        }
      ],
      "stateMutability": "view",
      "type": "function"
    },
    {
      "inputs": [],
      "name": "myString",
      "outputs": [
        {
          "internalType": "string",
          "name": "",
          "type": "string"
        }
      ],
      "stateMutability": "view",
      "type": "function"
    },
    {
      "inputs": [
        {
          "internalType": "uint256",
          "name": "tokenId",
          "type": "uint256"
        },
        {
          "internalType": "uint256",
          "name": "start_price",
          "type": "uint256"
        }
      ],
      "name": "auction",
      "outputs": [],
      "stateMutability": "nonpayable",
      "type": "function"
    },
    {
      "inputs": [
        {
          "internalType": "uint256",
          "name": "tokenId",
          "type": "uint256"
        }
      ],
      "name": "getAuctionInfo",
      "outputs": [
        {
          "components": [
            {
              "internalType": "address",
              "name": "owner",
              "type": "address"
            },
            {
              "internalType": "address",
              "name": "winner",
              "type": "address"
            },
            {
              "internalType": "uint256",
              "name": "price",
              "type": "uint256"
            }
          ],
          "internalType": "struct Bidding.BiddingInfo",
          "name": "bi",
          "type": "tuple"
        }
      ],
      "stateMutability": "view",
      "type": "function"
    },
    {
      "inputs": [
        {
          "internalType": "uint256",
          "name": "tokenId",
          "type": "uint256"
        },
        {
          "internalType": "uint256",
          "name": "price",
          "type": "uint256"
        }
      ],
      "name": "bidding",
      "outputs": [],
      "stateMutability": "nonpayable",
      "type": "function"
    },
    {
      "inputs": [
        {
          "internalType": "uint256",
          "name": "tokenId",
          "type": "uint256"
        }
      ],
      "name": "finalize",
      "outputs": [],
      "stateMutability": "nonpayable",
      "type": "function"
    }
  ],
  "bytecode": "0x60806040526040518060400160405280601081526020017f4e46542042696420436f6e747261637400000000000000000000000000000000815250600090816200004a9190620003ad565b50604051806060016040528060258152602001620016a06025913960019081620000759190620003ad565b503480156200008357600080fd5b50604051620016c5380380620016c58339818101604052810190620000a99190620004fe565b81600260006101000a81548173ffffffffffffffffffffffffffffffffffffffff021916908373ffffffffffffffffffffffffffffffffffffffff16021790555080600360006101000a81548173ffffffffffffffffffffffffffffffffffffffff021916908373ffffffffffffffffffffffffffffffffffffffff160217905550505062000545565b600081519050919050565b7f4e487b7100000000000000000000000000000000000000000000000000000000600052604160045260246000fd5b7f4e487b7100000000000000000000000000000000000000000000000000000000600052602260045260246000fd5b60006002820490506001821680620001b557607f821691505b602082108103620001cb57620001ca6200016d565b5b50919050565b60008190508160005260206000209050919050565b60006020601f8301049050919050565b600082821b905092915050565b600060088302620002357fffffffffffffffffffffffffffffffffffffffffffffffffffffffffffffffff82620001f6565b620002418683620001f6565b95508019841693508086168417925050509392505050565b6000819050919050565b6000819050919050565b60006200028e62000288620002828462000259565b62000263565b62000259565b9050919050565b6000819050919050565b620002aa836200026d565b620002c2620002b98262000295565b84845462000203565b825550505050565b600090565b620002d9620002ca565b620002e68184846200029f565b505050565b5b818110156200030e5762000302600082620002cf565b600181019050620002ec565b5050565b601f8211156200035d576200032781620001d1565b6200033284620001e6565b8101602085101562000342578190505b6200035a6200035185620001e6565b830182620002eb565b50505b505050565b600082821c905092915050565b6000620003826000198460080262000362565b1980831691505092915050565b60006200039d83836200036f565b9150826002028217905092915050565b620003b88262000133565b67ffffffffffffffff811115620003d457620003d36200013e565b5b620003e082546200019c565b620003ed82828562000312565b600060209050601f83116001811462000425576000841562000410578287015190505b6200041c85826200038f565b8655506200048c565b601f1984166200043586620001d1565b60005b828110156200045f5784890151825560018201915060208501945060208101905062000438565b868310156200047f57848901516200047b601f8916826200036f565b8355505b6001600288020188555050505b505050505050565b600080fd5b600073ffffffffffffffffffffffffffffffffffffffff82169050919050565b6000620004c68262000499565b9050919050565b620004d881620004b9565b8114620004e457600080fd5b50565b600081519050620004f881620004cd565b92915050565b6000806040838503121562000518576200051762000494565b5b60006200052885828601620004e7565b92505060206200053b85828601620004e7565b9150509250929050565b61114b80620005556000396000f3fe608060405234801561001057600080fd5b50600436106100625760003560e01c806305261aea146100675780632d9fff0114610083578063492bfa18146100a157806387fe412c146100bf5780638ea14bfe146100db578063fc3fc4ed146100f7575b600080fd5b610081600480360381019061007c9190610c9c565b610127565b005b61008b61042e565b6040516100989190610d59565b60405180910390f35b6100a96104bc565b6040516100b69190610d59565b60405180910390f35b6100d960048036038101906100d49190610d7b565b61054a565b005b6100f560048036038101906100f09190610d7b565b6108e7565b005b610111600480360381019061010c9190610c9c565b610ad9565b60405161011e9190610e4d565b60405180910390f35b6000600460008381526020019081526020016000206040518060600160405290816000820160009054906101000a900473ffffffffffffffffffffffffffffffffffffffff1673ffffffffffffffffffffffffffffffffffffffff1673ffffffffffffffffffffffffffffffffffffffff1681526020016001820160009054906101000a900473ffffffffffffffffffffffffffffffffffffffff1673ffffffffffffffffffffffffffffffffffffffff1673ffffffffffffffffffffffffffffffffffffffff1681526020016002820154815250509050600081602001519050600082600001519050600083604001519050600073ffffffffffffffffffffffffffffffffffffffff168373ffffffffffffffffffffffffffffffffffffffff1603610289576040517f08c379a000000000000000000000000000000000000000000000000000000000815260040161028090610eda565b60405180910390fd5b60046000868152602001908152602001600020600080820160006101000a81549073ffffffffffffffffffffffffffffffffffffffff02191690556001820160006101000a81549073ffffffffffffffffffffffffffffffffffffffff021916905560028201600090555050600360009054906101000a900473ffffffffffffffffffffffffffffffffffffffff1673ffffffffffffffffffffffffffffffffffffffff166323b872dd3085886040518463ffffffff1660e01b815260040161035493929190610f18565b600060405180830381600087803b15801561036e57600080fd5b505af1158015610382573d6000803e3d6000fd5b50505050600260009054906101000a900473ffffffffffffffffffffffffffffffffffffffff1673ffffffffffffffffffffffffffffffffffffffff1663a9059cbb83836040518363ffffffff1660e01b81526004016103e3929190610f4f565b6020604051808303816000875af1158015610402573d6000803e3d6000fd5b505050506040513d601f19601f820116820180604052508101906104269190610fb0565b505050505050565b6000805461043b9061100c565b80601f01602080910402602001604051908101604052809291908181526020018280546104679061100c565b80156104b45780601f10610489576101008083540402835291602001916104b4565b820191906000526020600020905b81548152906001019060200180831161049757829003601f168201915b505050505081565b600180546104c99061100c565b80601f01602080910402602001604051908101604052809291908181526020018280546104f59061100c565b80156105425780601f1061051757610100808354040283529160200191610542565b820191906000526020600020905b81548152906001019060200180831161052557829003601f168201915b505050505081565b6000600460008481526020019081526020016000206040518060600160405290816000820160009054906101000a900473ffffffffffffffffffffffffffffffffffffffff1673ffffffffffffffffffffffffffffffffffffffff1673ffffffffffffffffffffffffffffffffffffffff1681526020016001820160009054906101000a900473ffffffffffffffffffffffffffffffffffffffff1673ffffffffffffffffffffffffffffffffffffffff1673ffffffffffffffffffffffffffffffffffffffff1681526020016002820154815250509050600081602001519050600082604001519050808411610676576040517f08c379a000000000000000000000000000000000000000000000000000000000815260040161066d90611089565b60405180910390fd5b600260009054906101000a900473ffffffffffffffffffffffffffffffffffffffff1673ffffffffffffffffffffffffffffffffffffffff166323b872dd3330876040518463ffffffff1660e01b81526004016106d593929190610f18565b6020604051808303816000875af11580156106f4573d6000803e3d6000fd5b505050506040513d601f19601f820116820180604052508101906107189190610fb0565b50600073ffffffffffffffffffffffffffffffffffffffff168273ffffffffffffffffffffffffffffffffffffffff16146107ef57600260009054906101000a900473ffffffffffffffffffffffffffffffffffffffff1673ffffffffffffffffffffffffffffffffffffffff1663a9059cbb83836040518363ffffffff1660e01b81526004016107aa929190610f4f565b6020604051808303816000875af11580156107c9573d6000803e3d6000fd5b505050506040513d601f19601f820116820180604052508101906107ed9190610fb0565b505b33836020019073ffffffffffffffffffffffffffffffffffffffff16908173ffffffffffffffffffffffffffffffffffffffff168152505083836040018181525050826004600087815260200190815260200160002060008201518160000160006101000a81548173ffffffffffffffffffffffffffffffffffffffff021916908373ffffffffffffffffffffffffffffffffffffffff16021790555060208201518160010160006101000a81548173ffffffffffffffffffffffffffffffffffffffff021916908373ffffffffffffffffffffffffffffffffffffffff160217905550604082015181600201559050505050505050565b600073ffffffffffffffffffffffffffffffffffffffff166004600084815260200190815260200160002060000160009054906101000a900473ffffffffffffffffffffffffffffffffffffffff1673ffffffffffffffffffffffffffffffffffffffff161461098c576040517f08c379a0000000000000000000000000000000000000000000000000000000008152600401610983906110f5565b60405180910390fd5b600360009054906101000a900473ffffffffffffffffffffffffffffffffffffffff1673ffffffffffffffffffffffffffffffffffffffff166323b872dd3330856040518463ffffffff1660e01b81526004016109eb93929190610f18565b600060405180830381600087803b158015610a0557600080fd5b505af1158015610a19573d6000803e3d6000fd5b50505050610a273382610bbc565b6004600084815260200190815260200160002060008201518160000160006101000a81548173ffffffffffffffffffffffffffffffffffffffff021916908373ffffffffffffffffffffffffffffffffffffffff16021790555060208201518160010160006101000a81548173ffffffffffffffffffffffffffffffffffffffff021916908373ffffffffffffffffffffffffffffffffffffffff160217905550604082015181600201559050505050565b610ae1610c14565b600460008381526020019081526020016000206040518060600160405290816000820160009054906101000a900473ffffffffffffffffffffffffffffffffffffffff1673ffffffffffffffffffffffffffffffffffffffff1673ffffffffffffffffffffffffffffffffffffffff1681526020016001820160009054906101000a900473ffffffffffffffffffffffffffffffffffffffff1673ffffffffffffffffffffffffffffffffffffffff1673ffffffffffffffffffffffffffffffffffffffff1681526020016002820154815250509050919050565b610bc4610c14565b60405180606001604052808473ffffffffffffffffffffffffffffffffffffffff168152602001600073ffffffffffffffffffffffffffffffffffffffff16815260200183815250905092915050565b6040518060600160405280600073ffffffffffffffffffffffffffffffffffffffff168152602001600073ffffffffffffffffffffffffffffffffffffffff168152602001600081525090565b600080fd5b6000819050919050565b610c7981610c66565b8114610c8457600080fd5b50565b600081359050610c9681610c70565b92915050565b600060208284031215610cb257610cb1610c61565b5b6000610cc084828501610c87565b91505092915050565b600081519050919050565b600082825260208201905092915050565b60005b83811015610d03578082015181840152602081019050610ce8565b60008484015250505050565b6000601f19601f8301169050919050565b6000610d2b82610cc9565b610d358185610cd4565b9350610d45818560208601610ce5565b610d4e81610d0f565b840191505092915050565b60006020820190508181036000830152610d738184610d20565b905092915050565b60008060408385031215610d9257610d91610c61565b5b6000610da085828601610c87565b9250506020610db185828601610c87565b9150509250929050565b600073ffffffffffffffffffffffffffffffffffffffff82169050919050565b6000610de682610dbb565b9050919050565b610df681610ddb565b82525050565b610e0581610c66565b82525050565b606082016000820151610e216000850182610ded565b506020820151610e346020850182610ded565b506040820151610e476040850182610dfc565b50505050565b6000606082019050610e626000830184610e0b565b92915050565b7f5468652062696464696e6720617373657420646f6573206e6f7420657869737460008201527f7300000000000000000000000000000000000000000000000000000000000000602082015250565b6000610ec4602183610cd4565b9150610ecf82610e68565b604082019050919050565b60006020820190508181036000830152610ef381610eb7565b9050919050565b610f0381610ddb565b82525050565b610f1281610c66565b82525050565b6000606082019050610f2d6000830186610efa565b610f3a6020830185610efa565b610f476040830184610f09565b949350505050565b6000604082019050610f646000830185610efa565b610f716020830184610f09565b9392505050565b60008115159050919050565b610f8d81610f78565b8114610f9857600080fd5b50565b600081519050610faa81610f84565b92915050565b600060208284031215610fc657610fc5610c61565b5b6000610fd484828501610f9b565b91505092915050565b7f4e487b7100000000000000000000000000000000000000000000000000000000600052602260045260246000fd5b6000600282049050600182168061102457607f821691505b60208210810361103757611036610fdd565b5b50919050565b7f4269642061742061206c6f776572207072696365000000000000000000000000600082015250565b6000611073601483610cd4565b915061107e8261103d565b602082019050919050565b600060208201905081810360008301526110a281611066565b9050919050565b7f5468652062696e6464696e6720616c7265616479206578697374730000000000600082015250565b60006110df601b83610cd4565b91506110ea826110a9565b602082019050919050565b6000602082019050818103600083015261110e816110d2565b905091905056fea264697066735822122010ca8d7e93fb6c303cf8a3aaeb0714e20ae316adb21c4fb9a8563f0001bae0e064736f6c6343000810003357696e6420466f6c6c6f77696e6720446f6727732042696464696e6720436f6e7472616374",
  "immutableReferences": {},
  "source": "// SPDX-License-Identifier: UNLICENSED\npragma solidity ^0.8.0;\nimport \"@openzeppelin/contracts/token/ERC721/IERC721.sol\";\nimport \"@openzeppelin/contracts/token/ERC20/IERC20.sol\";\n\ncontract Bidding {\n  string public brand = \"NFT Bid Contract\";\n  string public myString = \"Wind Following Dog's Bidding Contract\";\n  IERC20 private underlying_token;\n  IERC721 private underlying_nft;\n\n  event Bid(uint256 tokenId, uint256 price);\n  event Finalize(uint256 tokenId, uint256 price);\n\n  struct BiddingInfo {\n    address owner;\n    address winner;\n    uint256 price;\n  }\n\n  mapping (uint256 => BiddingInfo) private _assets;\n\n  constructor(address token, address nft) {\n    underlying_token = IERC20(token);\n    underlying_nft = IERC721(nft);\n  }\n\n  function _bid_entry(address owner, uint256 price) pure private returns (BiddingInfo memory bi) {\n    return BiddingInfo(owner, address(0), price);\n  }\n\n  function auction(uint256 tokenId, uint256 start_price) public {\n    require(_assets[tokenId].owner == address(0), \"The bindding already exists\");\n    underlying_nft.transferFrom(msg.sender, address(this), tokenId);\n    _assets[tokenId] = _bid_entry(msg.sender, start_price);\n  }\n\n  function getAuctionInfo(uint256 tokenId) public view returns (BiddingInfo memory bi) {\n    return _assets[tokenId];\n  }\n\n  function bidding(uint256 tokenId, uint256 price) public {\n    BiddingInfo memory winner = _assets[tokenId];\n    address winner_address = winner.winner;\n    uint256 final_price = winner.price;\n    require (price > final_price, \"Bid at a lower price\");\n\n    // we first have to make sure the sender has enough token to bid\n    underlying_token.transferFrom(msg.sender, address(this), price);\n\n    // return back the final price to the laster bidder *)\n    if (winner_address != address(0)) {\n      // Not the first bidder, return token back to the last bidder\n      underlying_token.transfer(winner_address, final_price);\n    }\n    winner.winner = msg.sender;\n    winner.price = price;\n    _assets[tokenId] = winner;\n  }\n\n\n  function finalize(uint256 tokenId) public {\n    BiddingInfo memory winner = _assets[tokenId];\n    address winner_address = winner.winner;\n    address owner_address = winner.owner;\n    uint256 final_price = winner.price;\n    require (winner_address != address(0), \"The bidding asset does not exists\");\n    delete _assets[tokenId];\n    underlying_nft.transferFrom(address(this), winner_address, tokenId);\n    underlying_token.transfer(owner_address, final_price);\n  }\n}\n",
  "sourcePath": "/home/frank/zkcross-backend-lerna/packages/solidity/contracts/Bidding.sol",
  "compiler": {
    "name": "solc",
    "version": "0.8.16+commit.07a7930e.Linux.g++"
  },
  "schemaVersion": "3.4.11",
  "updatedAt": "2023-02-15T06:18:29.890Z",
  "devdoc": {
    "kind": "dev",
    "methods": {},
    "version": 1
  },
  "userdoc": {
    "kind": "user",
    "methods": {},
    "version": 1
  }
}