{
  "contractName": "Bidding",
  "abi": [
    {
      "inputs": [
        {
          "internalType": "address",
          "name": "token",
          "type": "address"
        },
        {
          "internalType": "address",
          "name": "nft",
          "type": "address"
        }
      ],
      "stateMutability": "nonpayable",
      "type": "constructor"
    },
    {
      "anonymous": false,
      "inputs": [
        {
          "indexed": false,
          "internalType": "uint256",
          "name": "tokenId",
          "type": "uint256"
        },
        {
          "indexed": false,
          "internalType": "uint256",
          "name": "price",
          "type": "uint256"
        }
      ],
      "name": "Bid",
      "type": "event"
    },
    {
      "anonymous": false,
      "inputs": [
        {
          "indexed": false,
          "internalType": "uint256",
          "name": "tokenId",
          "type": "uint256"
        },
        {
          "indexed": false,
          "internalType": "uint256",
          "name": "price",
          "type": "uint256"
        }
      ],
      "name": "Finalize",
      "type": "event"
    },
    {
      "inputs": [],
      "name": "brand",
      "outputs": [
        {
          "internalType": "string",
          "name": "",
          "type": "string"
        }
      ],
      "stateMutability": "view",
      "type": "function",
      "constant": true
    },
    {
      "inputs": [],
      "name": "myString",
      "outputs": [
        {
          "internalType": "string",
          "name": "",
          "type": "string"
        }
      ],
      "stateMutability": "view",
      "type": "function",
      "constant": true
    },
    {
      "inputs": [
        {
          "internalType": "uint256",
          "name": "tokenId",
          "type": "uint256"
        },
        {
          "internalType": "uint256",
          "name": "start_price",
          "type": "uint256"
        }
      ],
      "name": "auction",
      "outputs": [],
      "stateMutability": "nonpayable",
      "type": "function"
    },
    {
      "inputs": [
        {
          "internalType": "uint256",
          "name": "tokenId",
          "type": "uint256"
        }
      ],
      "name": "getAuctionInfo",
      "outputs": [
        {
          "components": [
            {
              "internalType": "address",
              "name": "owner",
              "type": "address"
            },
            {
              "internalType": "address",
              "name": "winner",
              "type": "address"
            },
            {
              "internalType": "uint256",
              "name": "price",
              "type": "uint256"
            }
          ],
          "internalType": "struct Bidding.BiddingInfo",
          "name": "bi",
          "type": "tuple"
        }
      ],
      "stateMutability": "view",
      "type": "function",
      "constant": true
    },
    {
      "inputs": [
        {
          "internalType": "uint256",
          "name": "tokenId",
          "type": "uint256"
        },
        {
          "internalType": "uint256",
          "name": "price",
          "type": "uint256"
        }
      ],
      "name": "bidding",
      "outputs": [],
      "stateMutability": "nonpayable",
      "type": "function"
    },
    {
      "inputs": [
        {
          "internalType": "uint256",
          "name": "tokenId",
          "type": "uint256"
        }
      ],
      "name": "finalize",
      "outputs": [],
      "stateMutability": "nonpayable",
      "type": "function"
    }
  ],
  "bytecode": "0x60806040526040518060400160405280601081526020017f4e46542042696420436f6e747261637400000000000000000000000000000000815250600090805190602001906200005192919062000141565b506040518060600160405280602581526020016200147e60259139600190805190602001906200008392919062000141565b503480156200009157600080fd5b50604051620014a3380380620014a38339818101604052810190620000b7919062000208565b81600260006101000a81548173ffffffffffffffffffffffffffffffffffffffff021916908373ffffffffffffffffffffffffffffffffffffffff16021790555080600360006101000a81548173ffffffffffffffffffffffffffffffffffffffff021916908373ffffffffffffffffffffffffffffffffffffffff1602179055505050620002fc565b8280546200014f906200027d565b90600052602060002090601f016020900481019282620001735760008555620001bf565b82601f106200018e57805160ff1916838001178555620001bf565b82800160010185558215620001bf579182015b82811115620001be578251825591602001919060010190620001a1565b5b509050620001ce9190620001d2565b5090565b5b80821115620001ed576000816000905550600101620001d3565b5090565b6000815190506200020281620002e2565b92915050565b600080604083850312156200021c57600080fd5b60006200022c85828601620001f1565b92505060206200023f85828601620001f1565b9150509250929050565b600062000256826200025d565b9050919050565b600073ffffffffffffffffffffffffffffffffffffffff82169050919050565b600060028204905060018216806200029657607f821691505b60208210811415620002ad57620002ac620002b3565b5b50919050565b7f4e487b7100000000000000000000000000000000000000000000000000000000600052602260045260246000fd5b620002ed8162000249565b8114620002f957600080fd5b50565b611172806200030c6000396000f3fe608060405234801561001057600080fd5b50600436106100625760003560e01c806305261aea146100675780632d9fff0114610083578063492bfa18146100a157806387fe412c146100bf5780638ea14bfe146100db578063fc3fc4ed146100f7575b600080fd5b610081600480360381019061007c9190610ce2565b610127565b005b61008b61043e565b6040516100989190610ec7565b60405180910390f35b6100a96104cc565b6040516100b69190610ec7565b60405180910390f35b6100d960048036038101906100d49190610d0b565b61055a565b005b6100f560048036038101906100f09190610d0b565b610915565b005b610111600480360381019061010c9190610ce2565b610b07565b60405161011e9190610f49565b60405180910390f35b6000600460008381526020019081526020016000206040518060600160405290816000820160009054906101000a900473ffffffffffffffffffffffffffffffffffffffff1673ffffffffffffffffffffffffffffffffffffffff1673ffffffffffffffffffffffffffffffffffffffff1681526020016001820160009054906101000a900473ffffffffffffffffffffffffffffffffffffffff1673ffffffffffffffffffffffffffffffffffffffff1673ffffffffffffffffffffffffffffffffffffffff1681526020016002820154815250509050600081602001519050600082600001519050600083604001519050600073ffffffffffffffffffffffffffffffffffffffff168373ffffffffffffffffffffffffffffffffffffffff16141561028a576040517f08c379a000000000000000000000000000000000000000000000000000000000815260040161028190610f09565b60405180910390fd5b60046000868152602001908152602001600020600080820160006101000a81549073ffffffffffffffffffffffffffffffffffffffff02191690556001820160006101000a81549073ffffffffffffffffffffffffffffffffffffffff021916905560028201600090555050600360009054906101000a900473ffffffffffffffffffffffffffffffffffffffff1673ffffffffffffffffffffffffffffffffffffffff166323b872dd3085886040518463ffffffff1660e01b815260040161035593929190610e67565b600060405180830381600087803b15801561036f57600080fd5b505af1158015610383573d6000803e3d6000fd5b50505050600260009054906101000a900473ffffffffffffffffffffffffffffffffffffffff1673ffffffffffffffffffffffffffffffffffffffff1663a9059cbb83836040518363ffffffff1660e01b81526004016103e4929190610e9e565b602060405180830381600087803b1580156103fe57600080fd5b505af1158015610412573d6000803e3d6000fd5b505050506040513d601f19601f820116820180604052508101906104369190610cb9565b505050505050565b6000805461044b90610ffb565b80601f016020809104026020016040519081016040528092919081815260200182805461047790610ffb565b80156104c45780601f10610499576101008083540402835291602001916104c4565b820191906000526020600020905b8154815290600101906020018083116104a757829003601f168201915b505050505081565b600180546104d990610ffb565b80601f016020809104026020016040519081016040528092919081815260200182805461050590610ffb565b80156105525780601f1061052757610100808354040283529160200191610552565b820191906000526020600020905b81548152906001019060200180831161053557829003601f168201915b505050505081565b6000600460008481526020019081526020016000206040518060600160405290816000820160009054906101000a900473ffffffffffffffffffffffffffffffffffffffff1673ffffffffffffffffffffffffffffffffffffffff1673ffffffffffffffffffffffffffffffffffffffff1681526020016001820160009054906101000a900473ffffffffffffffffffffffffffffffffffffffff1673ffffffffffffffffffffffffffffffffffffffff1673ffffffffffffffffffffffffffffffffffffffff1681526020016002820154815250509050600081602001519050600082604001519050808411610686576040517f08c379a000000000000000000000000000000000000000000000000000000000815260040161067d90610f29565b60405180910390fd5b600260009054906101000a900473ffffffffffffffffffffffffffffffffffffffff1673ffffffffffffffffffffffffffffffffffffffff166323b872dd3330876040518463ffffffff1660e01b81526004016106e593929190610e67565b602060405180830381600087803b1580156106ff57600080fd5b505af1158015610713573d6000803e3d6000fd5b505050506040513d601f19601f820116820180604052508101906107379190610cb9565b50600073ffffffffffffffffffffffffffffffffffffffff168273ffffffffffffffffffffffffffffffffffffffff161461081d57600260009054906101000a900473ffffffffffffffffffffffffffffffffffffffff1673ffffffffffffffffffffffffffffffffffffffff1663a9059cbb83836040518363ffffffff1660e01b81526004016107c9929190610e9e565b602060405180830381600087803b1580156107e357600080fd5b505af11580156107f7573d6000803e3d6000fd5b505050506040513d601f19601f8201168201806040525081019061081b9190610cb9565b505b33836020019073ffffffffffffffffffffffffffffffffffffffff16908173ffffffffffffffffffffffffffffffffffffffff168152505083836040018181525050826004600087815260200190815260200160002060008201518160000160006101000a81548173ffffffffffffffffffffffffffffffffffffffff021916908373ffffffffffffffffffffffffffffffffffffffff16021790555060208201518160010160006101000a81548173ffffffffffffffffffffffffffffffffffffffff021916908373ffffffffffffffffffffffffffffffffffffffff160217905550604082015181600201559050505050505050565b600073ffffffffffffffffffffffffffffffffffffffff166004600084815260200190815260200160002060000160009054906101000a900473ffffffffffffffffffffffffffffffffffffffff1673ffffffffffffffffffffffffffffffffffffffff16146109ba576040517f08c379a00000000000000000000000000000000000000000000000000000000081526004016109b190610ee9565b60405180910390fd5b600360009054906101000a900473ffffffffffffffffffffffffffffffffffffffff1673ffffffffffffffffffffffffffffffffffffffff166323b872dd3330856040518463ffffffff1660e01b8152600401610a1993929190610e67565b600060405180830381600087803b158015610a3357600080fd5b505af1158015610a47573d6000803e3d6000fd5b50505050610a553382610bea565b6004600084815260200190815260200160002060008201518160000160006101000a81548173ffffffffffffffffffffffffffffffffffffffff021916908373ffffffffffffffffffffffffffffffffffffffff16021790555060208201518160010160006101000a81548173ffffffffffffffffffffffffffffffffffffffff021916908373ffffffffffffffffffffffffffffffffffffffff160217905550604082015181600201559050505050565b610b0f610c42565b600460008381526020019081526020016000206040518060600160405290816000820160009054906101000a900473ffffffffffffffffffffffffffffffffffffffff1673ffffffffffffffffffffffffffffffffffffffff1673ffffffffffffffffffffffffffffffffffffffff1681526020016001820160009054906101000a900473ffffffffffffffffffffffffffffffffffffffff1673ffffffffffffffffffffffffffffffffffffffff1673ffffffffffffffffffffffffffffffffffffffff1681526020016002820154815250509050919050565b610bf2610c42565b60405180606001604052808473ffffffffffffffffffffffffffffffffffffffff168152602001600073ffffffffffffffffffffffffffffffffffffffff16815260200183815250905092915050565b6040518060600160405280600073ffffffffffffffffffffffffffffffffffffffff168152602001600073ffffffffffffffffffffffffffffffffffffffff168152602001600081525090565b600081519050610c9e8161110e565b92915050565b600081359050610cb381611125565b92915050565b600060208284031215610ccb57600080fd5b6000610cd984828501610c8f565b91505092915050565b600060208284031215610cf457600080fd5b6000610d0284828501610ca4565b91505092915050565b60008060408385031215610d1e57600080fd5b6000610d2c85828601610ca4565b9250506020610d3d85828601610ca4565b9150509250929050565b610d5081610f80565b82525050565b610d5f81610f80565b82525050565b6000610d7082610f64565b610d7a8185610f6f565b9350610d8a818560208601610fc8565b610d938161105c565b840191505092915050565b6000610dab601b83610f6f565b9150610db68261106d565b602082019050919050565b6000610dce602183610f6f565b9150610dd982611096565b604082019050919050565b6000610df1601483610f6f565b9150610dfc826110e5565b602082019050919050565b606082016000820151610e1d6000850182610d47565b506020820151610e306020850182610d47565b506040820151610e436040850182610e49565b50505050565b610e5281610fbe565b82525050565b610e6181610fbe565b82525050565b6000606082019050610e7c6000830186610d56565b610e896020830185610d56565b610e966040830184610e58565b949350505050565b6000604082019050610eb36000830185610d56565b610ec06020830184610e58565b9392505050565b60006020820190508181036000830152610ee18184610d65565b905092915050565b60006020820190508181036000830152610f0281610d9e565b9050919050565b60006020820190508181036000830152610f2281610dc1565b9050919050565b60006020820190508181036000830152610f4281610de4565b9050919050565b6000606082019050610f5e6000830184610e07565b92915050565b600081519050919050565b600082825260208201905092915050565b6000610f8b82610f9e565b9050919050565b60008115159050919050565b600073ffffffffffffffffffffffffffffffffffffffff82169050919050565b6000819050919050565b60005b83811015610fe6578082015181840152602081019050610fcb565b83811115610ff5576000848401525b50505050565b6000600282049050600182168061101357607f821691505b602082108114156110275761102661102d565b5b50919050565b7f4e487b7100000000000000000000000000000000000000000000000000000000600052602260045260246000fd5b6000601f19601f8301169050919050565b7f5468652062696e6464696e6720616c7265616479206578697374730000000000600082015250565b7f5468652062696464696e6720617373657420646f6573206e6f7420657869737460008201527f7300000000000000000000000000000000000000000000000000000000000000602082015250565b7f4269642061742061206c6f776572207072696365000000000000000000000000600082015250565b61111781610f92565b811461112257600080fd5b50565b61112e81610fbe565b811461113957600080fd5b5056fea2646970667358221220063b4b6faf0b2342b6376243dd82c85e307760231033cd413dbc0d955d9f8ffe64736f6c6343000804003357696e6420466f6c6c6f77696e6720446f6727732042696464696e6720436f6e7472616374",
  "immutableReferences": {},
  "source": "// SPDX-License-Identifier: UNLICENSED\npragma solidity ^0.8.0;\nimport \"@openzeppelin/contracts/token/ERC721/IERC721.sol\";\nimport \"@openzeppelin/contracts/token/ERC20/IERC20.sol\";\n\ncontract Bidding {\n  string public brand = \"NFT Bid Contract\";\n  string public myString = \"Wind Following Dog's Bidding Contract\";\n  IERC20 private underlying_token;\n  IERC721 private underlying_nft;\n\n  event Bid(uint256 tokenId, uint256 price);\n  event Finalize(uint256 tokenId, uint256 price);\n\n  struct BiddingInfo {\n    address owner;\n    address winner;\n    uint256 price;\n  }\n\n  mapping (uint256 => BiddingInfo) private _assets;\n\n  constructor(address token, address nft) {\n    underlying_token = IERC20(token);\n    underlying_nft = IERC721(nft);\n  }\n\n  function _bid_entry(address owner, uint256 price) pure private returns (BiddingInfo memory bi) {\n    return BiddingInfo(owner, address(0), price);\n  }\n\n  function auction(uint256 tokenId, uint256 start_price) public {\n    require(_assets[tokenId].owner == address(0), \"The bindding already exists\");\n    underlying_nft.transferFrom(msg.sender, address(this), tokenId);\n    _assets[tokenId] = _bid_entry(msg.sender, start_price);\n  }\n\n  function getAuctionInfo(uint256 tokenId) public view returns (BiddingInfo memory bi) {\n    return _assets[tokenId];\n  }\n\n  function bidding(uint256 tokenId, uint256 price) public {\n    BiddingInfo memory winner = _assets[tokenId];\n    address winner_address = winner.winner;\n    uint256 final_price = winner.price;\n    require (price > final_price, \"Bid at a lower price\");\n\n    // we first have to make sure the sender has enough token to bid\n    underlying_token.transferFrom(msg.sender, address(this), price);\n\n    // return back the final price to the laster bidder *)\n    if (winner_address != address(0)) {\n      // Not the first bidder, return token back to the last bidder\n      underlying_token.transfer(winner_address, final_price);\n    }\n    winner.winner = msg.sender;\n    winner.price = price;\n    _assets[tokenId] = winner;\n  }\n\n\n  function finalize(uint256 tokenId) public {\n    BiddingInfo memory winner = _assets[tokenId];\n    address winner_address = winner.winner;\n    address owner_address = winner.owner;\n    uint256 final_price = winner.price;\n    require (winner_address != address(0), \"The bidding asset does not exists\");\n    delete _assets[tokenId];\n    underlying_nft.transferFrom(address(this), winner_address, tokenId);\n    underlying_token.transfer(owner_address, final_price);\n  }\n}\n",
  "sourcePath": "/Users/leyingan/delphinus/playground/solidity/contracts/bidding.sol",
  "compiler": {
    "name": "solc",
    "version": "0.8.4+commit.c7e474f2.Darwin.appleclang"
  },
  "schemaVersion": "3.4.1",
  "updatedAt": "2021-07-25T09:17:49.379Z",
  "networkType": "ethereum",
  "devdoc": {
    "kind": "dev",
    "methods": {},
    "version": 1
  },
  "userdoc": {
    "kind": "user",
    "methods": {},
    "version": 1
  }
}