{
  "contractName": "BN256G2",
  "abi": [
    {
      "inputs": [
        {
          "internalType": "uint256",
          "name": "pt1xx",
          "type": "uint256"
        },
        {
          "internalType": "uint256",
          "name": "pt1xy",
          "type": "uint256"
        },
        {
          "internalType": "uint256",
          "name": "pt1yx",
          "type": "uint256"
        },
        {
          "internalType": "uint256",
          "name": "pt1yy",
          "type": "uint256"
        },
        {
          "internalType": "uint256",
          "name": "pt2xx",
          "type": "uint256"
        },
        {
          "internalType": "uint256",
          "name": "pt2xy",
          "type": "uint256"
        },
        {
          "internalType": "uint256",
          "name": "pt2yx",
          "type": "uint256"
        },
        {
          "internalType": "uint256",
          "name": "pt2yy",
          "type": "uint256"
        }
      ],
      "name": "ECTwistAdd",
      "outputs": [
        {
          "internalType": "uint256",
          "name": "",
          "type": "uint256"
        },
        {
          "internalType": "uint256",
          "name": "",
          "type": "uint256"
        },
        {
          "internalType": "uint256",
          "name": "",
          "type": "uint256"
        },
        {
          "internalType": "uint256",
          "name": "",
          "type": "uint256"
        }
      ],
      "stateMutability": "view",
      "type": "function"
    },
    {
      "inputs": [
        {
          "internalType": "uint256",
          "name": "s",
          "type": "uint256"
        },
        {
          "internalType": "uint256",
          "name": "pt1xx",
          "type": "uint256"
        },
        {
          "internalType": "uint256",
          "name": "pt1xy",
          "type": "uint256"
        },
        {
          "internalType": "uint256",
          "name": "pt1yx",
          "type": "uint256"
        },
        {
          "internalType": "uint256",
          "name": "pt1yy",
          "type": "uint256"
        }
      ],
      "name": "ECTwistMul",
      "outputs": [
        {
          "internalType": "uint256",
          "name": "",
          "type": "uint256"
        },
        {
          "internalType": "uint256",
          "name": "",
          "type": "uint256"
        },
        {
          "internalType": "uint256",
          "name": "",
          "type": "uint256"
        },
        {
          "internalType": "uint256",
          "name": "",
          "type": "uint256"
        }
      ],
      "stateMutability": "view",
      "type": "function"
    },
    {
      "inputs": [],
      "name": "GetFieldModulus",
      "outputs": [
        {
          "internalType": "uint256",
          "name": "",
          "type": "uint256"
        }
      ],
      "stateMutability": "pure",
      "type": "function"
    }
  ],
  "bytecode": "0x6121e9610053600b82828239805160001a607314610046577f4e487b7100000000000000000000000000000000000000000000000000000000600052600060045260246000fd5b30600052607381538281f3fe730000000000000000000000000000000000000000301460806040526004361061004b5760003560e01c806355a3e90f1461005057806361a931ec1461006e578063b73ab75d146100a1575b600080fd5b6100586100d4565b604051610065919061206f565b60405180910390f35b61008860048036038101906100839190611fae565b6100fc565b604051610098949392919061208a565b60405180910390f35b6100bb60048036038101906100b69190611f37565b61045e565b6040516100cb949392919061208a565b60405180910390f35b60007f30644e72e131a029b85045b68181585d97816a916871ca8d3c208c16d87cfd47905090565b60008060008060008c148015610112575060008b145b801561011e575060008a145b801561012a5750600089145b156101ac5760008814801561013f5750600087145b801561014b5750600086145b80156101575750600085145b61019b5761016788888888610694565b61019a577f4e487b7100000000000000000000000000000000000000000000000000000000600052600160045260246000fd5b5b87878787935093509350935061044f565b6000881480156101bc5750600087145b80156101c85750600086145b80156101d45750600085145b15610229576101e58c8c8c8c610694565b610218577f4e487b7100000000000000000000000000000000000000000000000000000000600052600160045260246000fd5b8b8b8b8b935093509350935061044f565b6102358c8c8c8c610694565b610268577f4e487b7100000000000000000000000000000000000000000000000000000000600052600160045260246000fd5b61027488888888610694565b6102a7577f4e487b7100000000000000000000000000000000000000000000000000000000600052600160045260246000fd5b60006102c18d8d8d8d600160008f8f8f8f6001600061075d565b905061044581600060068110610300577f4e487b7100000000000000000000000000000000000000000000000000000000600052603260045260246000fd5b60200201518260016006811061033f577f4e487b7100000000000000000000000000000000000000000000000000000000600052603260045260246000fd5b60200201518360026006811061037e577f4e487b7100000000000000000000000000000000000000000000000000000000600052603260045260246000fd5b6020020151846003600681106103bd577f4e487b7100000000000000000000000000000000000000000000000000000000600052603260045260246000fd5b6020020151856004600681106103fc577f4e487b7100000000000000000000000000000000000000000000000000000000600052603260045260246000fd5b60200201518660056006811061043b577f4e487b7100000000000000000000000000000000000000000000000000000000600052603260045260246000fd5b6020020151611549565b9450945094509450505b98509850985098945050505050565b60008060008060006001905060008914801561047a5750600088145b80156104865750600087145b80156104925750600086145b156104a8576001985060019650600090506104e8565b6104b489898989610694565b6104e7577f4e487b7100000000000000000000000000000000000000000000000000000000600052600160045260246000fd5b5b60006104fa8b8b8b8b8b87600061159b565b905061067e81600060068110610539577f4e487b7100000000000000000000000000000000000000000000000000000000600052603260045260246000fd5b602002015182600160068110610578577f4e487b7100000000000000000000000000000000000000000000000000000000600052603260045260246000fd5b6020020151836002600681106105b7577f4e487b7100000000000000000000000000000000000000000000000000000000600052603260045260246000fd5b6020020151846003600681106105f6577f4e487b7100000000000000000000000000000000000000000000000000000000600052603260045260246000fd5b602002015185600460068110610635577f4e487b7100000000000000000000000000000000000000000000000000000000600052603260045260246000fd5b602002015186600560068110610674577f4e487b7100000000000000000000000000000000000000000000000000000000600052603260045260246000fd5b6020020151611549565b9550955095509550505095509550955095915050565b60008060008060006106a887878989611787565b80945081955050506106bc89898b8b611787565b80925081935050506106d082828b8b611787565b80925081935050506106e484848484611976565b809450819550505061073784847f2b149d40ceb8aaae81be18991be06ac3b5b4c5e559dbefa33267e6dc24a138e57e9713b03af0fed4cd2cafadeed8fdf4a74fa084e52d1852e4a2bd0685c315d2611976565b809450819550505060008414801561074f5750600083145b945050505050949350505050565b610765611f00565b6000891480156107755750600088145b1561091757868686868686866000600681106107ba577f4e487b7100000000000000000000000000000000000000000000000000000000600052603260045260246000fd5b60200201876001600681106107f8577f4e487b7100000000000000000000000000000000000000000000000000000000600052603260045260246000fd5b6020020188600260068110610836577f4e487b7100000000000000000000000000000000000000000000000000000000600052603260045260246000fd5b6020020189600360068110610874577f4e487b7100000000000000000000000000000000000000000000000000000000600052603260045260246000fd5b602002018a6004600681106108b2577f4e487b7100000000000000000000000000000000000000000000000000000000600052603260045260246000fd5b602002018b6005600681106108f0577f4e487b7100000000000000000000000000000000000000000000000000000000600052603260045260246000fd5b60200201868152508681525086815250868152508681525086815250505050505050611539565b6000831480156109275750600082145b15610ac9578c8c8c8c8c8c8660006006811061096c577f4e487b7100000000000000000000000000000000000000000000000000000000600052603260045260246000fd5b60200201876001600681106109aa577f4e487b7100000000000000000000000000000000000000000000000000000000600052603260045260246000fd5b60200201886002600681106109e8577f4e487b7100000000000000000000000000000000000000000000000000000000600052603260045260246000fd5b6020020189600360068110610a26577f4e487b7100000000000000000000000000000000000000000000000000000000600052603260045260246000fd5b602002018a600460068110610a64577f4e487b7100000000000000000000000000000000000000000000000000000000600052603260045260246000fd5b602002018b600560068110610aa2577f4e487b7100000000000000000000000000000000000000000000000000000000600052603260045260246000fd5b60200201868152508681525086815250868152508681525086815250505050505050611539565b610ad585858b8b611787565b8095508196505050610ae98b8b8585611787565b82600260068110610b23577f4e487b7100000000000000000000000000000000000000000000000000000000600052603260045260246000fd5b6020020183600360068110610b61577f4e487b7100000000000000000000000000000000000000000000000000000000600052603260045260246000fd5b6020020182815250828152505050610b7b87878b8b611787565b8097508198505050610b8f8d8d8585611787565b82600460068110610bc9577f4e487b7100000000000000000000000000000000000000000000000000000000600052603260045260246000fd5b6020020183600560068110610c07577f4e487b7100000000000000000000000000000000000000000000000000000000600052603260045260246000fd5b602002018281525082815250505080600460068110610c4f577f4e487b7100000000000000000000000000000000000000000000000000000000600052603260045260246000fd5b602002015187148015610c9f575080600560068110610c97577f4e487b7100000000000000000000000000000000000000000000000000000000600052603260045260246000fd5b602002015186145b1561107a5780600260068110610cde577f4e487b7100000000000000000000000000000000000000000000000000000000600052603260045260246000fd5b602002015185148015610d2e575080600360068110610d26577f4e487b7100000000000000000000000000000000000000000000000000000000600052603260045260246000fd5b602002015184145b15610ed857610d418d8d8d8d8d8d6119dc565b86600060068110610d7b577f4e487b7100000000000000000000000000000000000000000000000000000000600052603260045260246000fd5b6020020187600160068110610db9577f4e487b7100000000000000000000000000000000000000000000000000000000600052603260045260246000fd5b6020020188600260068110610df7577f4e487b7100000000000000000000000000000000000000000000000000000000600052603260045260246000fd5b6020020189600360068110610e35577f4e487b7100000000000000000000000000000000000000000000000000000000600052603260045260246000fd5b602002018a600460068110610e73577f4e487b7100000000000000000000000000000000000000000000000000000000600052603260045260246000fd5b602002018b600560068110610eb1577f4e487b7100000000000000000000000000000000000000000000000000000000600052603260045260246000fd5b60200201868152508681525086815250868152508681525086815250505050505050611539565b600160006001600080600086600060068110610f1d577f4e487b7100000000000000000000000000000000000000000000000000000000600052603260045260246000fd5b6020020187600160068110610f5b577f4e487b7100000000000000000000000000000000000000000000000000000000600052603260045260246000fd5b6020020188600260068110610f99577f4e487b7100000000000000000000000000000000000000000000000000000000600052603260045260246000fd5b6020020189600360068110610fd7577f4e487b7100000000000000000000000000000000000000000000000000000000600052603260045260246000fd5b602002018a600460068110611015577f4e487b7100000000000000000000000000000000000000000000000000000000600052603260045260246000fd5b602002018b600560068110611053577f4e487b7100000000000000000000000000000000000000000000000000000000600052603260045260246000fd5b60200201868152508681525086815250868152508681525086815250505050505050611539565b61108689898585611787565b80935081945050506111168585836002600681106110cd577f4e487b7100000000000000000000000000000000000000000000000000000000600052603260045260246000fd5b60200201518460036006811061110c577f4e487b7100000000000000000000000000000000000000000000000000000000600052603260045260246000fd5b6020020151611976565b809d50819e5050506111a687878360046006811061115d577f4e487b7100000000000000000000000000000000000000000000000000000000600052603260045260246000fd5b60200201518460056006811061119c577f4e487b7100000000000000000000000000000000000000000000000000000000600052603260045260246000fd5b6020020151611976565b809b50819c5050506111ba8b8b8d8d611787565b809950819a50505061124a898983600460068110611201577f4e487b7100000000000000000000000000000000000000000000000000000000600052603260045260246000fd5b602002015184600560068110611240577f4e487b7100000000000000000000000000000000000000000000000000000000600052603260045260246000fd5b6020020151611787565b809550819650505061125e89898d8d611787565b809950819a50505061127289898585611787565b826004600681106112ac577f4e487b7100000000000000000000000000000000000000000000000000000000600052603260045260246000fd5b60200201836005600681106112ea577f4e487b7100000000000000000000000000000000000000000000000000000000600052603260045260246000fd5b60200201828152508281525050506113048d8d8f8f611787565b809750819850505061131887878585611787565b809750819850505061132c87878b8b611976565b809750819850505061134085856002611b84565b809350819450505061135487878585611976565b80975081985050506113688b8b8989611787565b826000600681106113a2577f4e487b7100000000000000000000000000000000000000000000000000000000600052603260045260246000fd5b60200201836001600681106113e0577f4e487b7100000000000000000000000000000000000000000000000000000000600052603260045260246000fd5b60200201828152508281525050506113fa85858989611976565b809b50819c50505061140e8d8d8d8d611787565b809b50819c50505061149e898983600260068110611455577f4e487b7100000000000000000000000000000000000000000000000000000000600052603260045260246000fd5b602002015184600360068110611494577f4e487b7100000000000000000000000000000000000000000000000000000000600052603260045260246000fd5b6020020151611787565b809d50819e5050506114b28b8b8f8f611976565b826002600681106114ec577f4e487b7100000000000000000000000000000000000000000000000000000000600052603260045260246000fd5b602002018360036006811061152a577f4e487b7100000000000000000000000000000000000000000000000000000000600052603260045260246000fd5b60200201828152508281525050505b9c9b505050505050505050505050565b60008060008060008061155c8888611c43565b80925081935050506115708c8c8484611787565b80965081975050506115848a8a8484611787565b809450819550505050509650965096509692505050565b6115a3611f00565b5b6000881461177c57600060018916146117425761173f816000600681106115f4577f4e487b7100000000000000000000000000000000000000000000000000000000600052603260045260246000fd5b602002015182600160068110611633577f4e487b7100000000000000000000000000000000000000000000000000000000600052603260045260246000fd5b602002015183600260068110611672577f4e487b7100000000000000000000000000000000000000000000000000000000600052603260045260246000fd5b6020020151846003600681106116b1577f4e487b7100000000000000000000000000000000000000000000000000000000600052603260045260246000fd5b6020020151856004600681106116f0577f4e487b7100000000000000000000000000000000000000000000000000000000600052603260045260246000fd5b60200201518660056006811061172f577f4e487b7100000000000000000000000000000000000000000000000000000000600052603260045260246000fd5b60200201518d8d8d8d8d8d61075d565b90505b6117508787878787876119dc565b809750819850829950839a50849b50859c5050505050505060028861177591906120cf565b97506115a4565b979650505050505050565b6000806118637f30644e72e131a029b85045b68181585d97816a916871ca8d3c208c16d87cfd47806117e2577f4e487b7100000000000000000000000000000000000000000000000000000000600052601260045260246000fd5b8588097f30644e72e131a029b85045b68181585d97816a916871ca8d3c208c16d87cfd478061183a577f4e487b7100000000000000000000000000000000000000000000000000000000600052601260045260246000fd5b8588097f30644e72e131a029b85045b68181585d97816a916871ca8d3c208c16d87cfd47611e60565b7f30644e72e131a029b85045b68181585d97816a916871ca8d3c208c16d87cfd47806118b8577f4e487b7100000000000000000000000000000000000000000000000000000000600052601260045260246000fd5b7f30644e72e131a029b85045b68181585d97816a916871ca8d3c208c16d87cfd478061190d577f4e487b7100000000000000000000000000000000000000000000000000000000600052601260045260246000fd5b8688097f30644e72e131a029b85045b68181585d97816a916871ca8d3c208c16d87cfd4780611965577f4e487b7100000000000000000000000000000000000000000000000000000000600052601260045260246000fd5b868a09089150915094509492505050565b6000806119a486857f30644e72e131a029b85045b68181585d97816a916871ca8d3c208c16d87cfd47611e60565b6119cf86857f30644e72e131a029b85045b68181585d97816a916871ca8d3c208c16d87cfd47611e60565b9150915094509492505050565b6000806000806000806119f18c8c6003611b84565b8096508197505050611a0586868e8e611787565b8096508197505050611a198a8a8a8a611787565b8098508199505050611a2d8c8c8c8c611787565b8094508195505050611a4184848a8a611787565b8094508195505050611a5586868888611787565b809c50819d505050611a6984846008611b84565b8092508193505050611a7d8c8c8484611976565b809c50819d505050611a9188888a8a611787565b8092508193505050611aa584846004611b84565b8094508195505050611ab984848e8e611976565b8094508195505050611acd84848888611787565b8094508195505050611ae18a8a6008611b84565b8096508197505050611af586868c8c611787565b8096508197505050611b0986868484611787565b8096508197505050611b1d84848888611976565b8094508195505050611b318c8c6002611b84565b8096508197505050611b4586868a8a611787565b8096508197505050611b5988888484611787565b8092508193505050611b6d82826008611b84565b809250819350505096509650965096509650969050565b6000807f30644e72e131a029b85045b68181585d97816a916871ca8d3c208c16d87cfd4780611bdc577f4e487b7100000000000000000000000000000000000000000000000000000000600052601260045260246000fd5b8386097f30644e72e131a029b85045b68181585d97816a916871ca8d3c208c16d87cfd4780611c34577f4e487b7100000000000000000000000000000000000000000000000000000000600052601260045260246000fd5b84860991509150935093915050565b6000806000611d777f30644e72e131a029b85045b68181585d97816a916871ca8d3c208c16d87cfd4780611ca0577f4e487b7100000000000000000000000000000000000000000000000000000000600052601260045260246000fd5b7f30644e72e131a029b85045b68181585d97816a916871ca8d3c208c16d87cfd4780611cf5577f4e487b7100000000000000000000000000000000000000000000000000000000600052601260045260246000fd5b8788097f30644e72e131a029b85045b68181585d97816a916871ca8d3c208c16d87cfd4780611d4d577f4e487b7100000000000000000000000000000000000000000000000000000000600052601260045260246000fd5b878809087f30644e72e131a029b85045b68181585d97816a916871ca8d3c208c16d87cfd47611eae565b90507f30644e72e131a029b85045b68181585d97816a916871ca8d3c208c16d87cfd4780611dce577f4e487b7100000000000000000000000000000000000000000000000000000000600052601260045260246000fd5b8186097f30644e72e131a029b85045b68181585d97816a916871ca8d3c208c16d87cfd4780611e26577f4e487b7100000000000000000000000000000000000000000000000000000000600052601260045260246000fd5b8286097f30644e72e131a029b85045b68181585d97816a916871ca8d3c208c16d87cfd47611e549190612100565b92509250509250929050565b60008180611e97577f4e487b7100000000000000000000000000000000000000000000000000000000600052601260045260246000fd5b8383611ea39190612100565b850890509392505050565b60008060405160208152602080820152602060408201528460608201526002840360808201528360a082015260208160c08360056107d05a03fa9150805192505080611ef957600080fd5b5092915050565b6040518060c00160405280600690602082028036833780820191505090505090565b600081359050611f318161219c565b92915050565b600080600080600060a08688031215611f4f57600080fd5b6000611f5d88828901611f22565b9550506020611f6e88828901611f22565b9450506040611f7f88828901611f22565b9350506060611f9088828901611f22565b9250506080611fa188828901611f22565b9150509295509295909350565b600080600080600080600080610100898b031215611fcb57600080fd5b6000611fd98b828c01611f22565b9850506020611fea8b828c01611f22565b9750506040611ffb8b828c01611f22565b965050606061200c8b828c01611f22565b955050608061201d8b828c01611f22565b94505060a061202e8b828c01611f22565b93505060c061203f8b828c01611f22565b92505060e06120508b828c01611f22565b9150509295985092959890939650565b61206981612134565b82525050565b60006020820190506120846000830184612060565b92915050565b600060808201905061209f6000830187612060565b6120ac6020830186612060565b6120b96040830185612060565b6120c66060830184612060565b95945050505050565b60006120da82612134565b91506120e583612134565b9250826120f5576120f461216d565b5b828204905092915050565b600061210b82612134565b915061211683612134565b9250828210156121295761212861213e565b5b828203905092915050565b6000819050919050565b7f4e487b7100000000000000000000000000000000000000000000000000000000600052601160045260246000fd5b7f4e487b7100000000000000000000000000000000000000000000000000000000600052601260045260246000fd5b6121a581612134565b81146121b057600080fd5b5056fea26469706673582212202bad64b16666ce9c8d16635a4d53dae7f2fa63f45d5a4e2b80b754301a60d78064736f6c63430008040033",
  "immutableReferences": {},
  "source": "// SPDX-License-Identifier: LGPL-3.0-only\n// This file is LGPL3 Licensed\npragma solidity ^0.8.0;\n\n/**\n * @title Elliptic curve operations on twist points for alt_bn128\n * @author Mustafa Al-Bassam (mus@musalbas.com)\n * @dev Homepage: https://github.com/musalbas/solidity-BN256G2\n */\n\nlibrary BN256G2 {\n    uint256 internal constant FIELD_MODULUS = 0x30644e72e131a029b85045b68181585d97816a916871ca8d3c208c16d87cfd47;\n    uint256 internal constant TWISTBX = 0x2b149d40ceb8aaae81be18991be06ac3b5b4c5e559dbefa33267e6dc24a138e5;\n    uint256 internal constant TWISTBY = 0x9713b03af0fed4cd2cafadeed8fdf4a74fa084e52d1852e4a2bd0685c315d2;\n    uint internal constant PTXX = 0;\n    uint internal constant PTXY = 1;\n    uint internal constant PTYX = 2;\n    uint internal constant PTYY = 3;\n    uint internal constant PTZX = 4;\n    uint internal constant PTZY = 5;\n\n    /**\n     * @notice Add two twist points\n     * @param pt1xx Coefficient 1 of x on point 1\n     * @param pt1xy Coefficient 2 of x on point 1\n     * @param pt1yx Coefficient 1 of y on point 1\n     * @param pt1yy Coefficient 2 of y on point 1\n     * @param pt2xx Coefficient 1 of x on point 2\n     * @param pt2xy Coefficient 2 of x on point 2\n     * @param pt2yx Coefficient 1 of y on point 2\n     * @param pt2yy Coefficient 2 of y on point 2\n     * @return (pt3xx, pt3xy, pt3yx, pt3yy)\n     */\n    function ECTwistAdd(\n        uint256 pt1xx, uint256 pt1xy,\n        uint256 pt1yx, uint256 pt1yy,\n        uint256 pt2xx, uint256 pt2xy,\n        uint256 pt2yx, uint256 pt2yy\n    ) public view returns (\n        uint256, uint256,\n        uint256, uint256\n    ) {\n        if (\n            pt1xx == 0 && pt1xy == 0 &&\n            pt1yx == 0 && pt1yy == 0\n        ) {\n            if (!(\n                pt2xx == 0 && pt2xy == 0 &&\n                pt2yx == 0 && pt2yy == 0\n            )) {\n                assert(_isOnCurve(\n                    pt2xx, pt2xy,\n                    pt2yx, pt2yy\n                ));\n            }\n            return (\n                pt2xx, pt2xy,\n                pt2yx, pt2yy\n            );\n        } else if (\n            pt2xx == 0 && pt2xy == 0 &&\n            pt2yx == 0 && pt2yy == 0\n        ) {\n            assert(_isOnCurve(\n                pt1xx, pt1xy,\n                pt1yx, pt1yy\n            ));\n            return (\n                pt1xx, pt1xy,\n                pt1yx, pt1yy\n            );\n        }\n\n        assert(_isOnCurve(\n            pt1xx, pt1xy,\n            pt1yx, pt1yy\n        ));\n        assert(_isOnCurve(\n            pt2xx, pt2xy,\n            pt2yx, pt2yy\n        ));\n\n        uint256[6] memory pt3 = _ECTwistAddJacobian(\n            pt1xx, pt1xy,\n            pt1yx, pt1yy,\n            1,     0,\n            pt2xx, pt2xy,\n            pt2yx, pt2yy,\n            1,     0\n        );\n\n        return _fromJacobian(\n            pt3[PTXX], pt3[PTXY],\n            pt3[PTYX], pt3[PTYY],\n            pt3[PTZX], pt3[PTZY]\n        );\n    }\n\n    /**\n     * @notice Multiply a twist point by a scalar\n     * @param s     Scalar to multiply by\n     * @param pt1xx Coefficient 1 of x\n     * @param pt1xy Coefficient 2 of x\n     * @param pt1yx Coefficient 1 of y\n     * @param pt1yy Coefficient 2 of y\n     * @return (pt2xx, pt2xy, pt2yx, pt2yy)\n     */\n    function ECTwistMul(\n        uint256 s,\n        uint256 pt1xx, uint256 pt1xy,\n        uint256 pt1yx, uint256 pt1yy\n    ) public view returns (\n        uint256, uint256,\n        uint256, uint256\n    ) {\n        uint256 pt1zx = 1;\n        if (\n            pt1xx == 0 && pt1xy == 0 &&\n            pt1yx == 0 && pt1yy == 0\n        ) {\n            pt1xx = 1;\n            pt1yx = 1;\n            pt1zx = 0;\n        } else {\n            assert(_isOnCurve(\n                pt1xx, pt1xy,\n                pt1yx, pt1yy\n            ));\n        }\n\n        uint256[6] memory pt2 = _ECTwistMulJacobian(\n            s,\n            pt1xx, pt1xy,\n            pt1yx, pt1yy,\n            pt1zx, 0\n        );\n\n        return _fromJacobian(\n            pt2[PTXX], pt2[PTXY],\n            pt2[PTYX], pt2[PTYY],\n            pt2[PTZX], pt2[PTZY]\n        );\n    }\n\n    /**\n     * @notice Get the field modulus\n     * @return The field modulus\n     */\n    function GetFieldModulus() public pure returns (uint256) {\n        return FIELD_MODULUS;\n    }\n\n    function submod(uint256 a, uint256 b, uint256 n) internal pure returns (uint256) {\n        return addmod(a, n - b, n);\n    }\n\n    function _FQ2Mul(\n        uint256 xx, uint256 xy,\n        uint256 yx, uint256 yy\n    ) internal pure returns (uint256, uint256) {\n        return (\n            submod(mulmod(xx, yx, FIELD_MODULUS), mulmod(xy, yy, FIELD_MODULUS), FIELD_MODULUS),\n            addmod(mulmod(xx, yy, FIELD_MODULUS), mulmod(xy, yx, FIELD_MODULUS), FIELD_MODULUS)\n        );\n    }\n\n    function _FQ2Muc(\n        uint256 xx, uint256 xy,\n        uint256 c\n    ) internal pure returns (uint256, uint256) {\n        return (\n            mulmod(xx, c, FIELD_MODULUS),\n            mulmod(xy, c, FIELD_MODULUS)\n        );\n    }\n\n    function _FQ2Add(\n        uint256 xx, uint256 xy,\n        uint256 yx, uint256 yy\n    ) internal pure returns (uint256, uint256) {\n        return (\n            addmod(xx, yx, FIELD_MODULUS),\n            addmod(xy, yy, FIELD_MODULUS)\n        );\n    }\n\n    function _FQ2Sub(\n        uint256 xx, uint256 xy,\n        uint256 yx, uint256 yy\n    ) internal pure returns (uint256 rx, uint256 ry) {\n        return (\n            submod(xx, yx, FIELD_MODULUS),\n            submod(xy, yy, FIELD_MODULUS)\n        );\n    }\n\n    function _FQ2Div(\n        uint256 xx, uint256 xy,\n        uint256 yx, uint256 yy\n    ) internal view returns (uint256, uint256) {\n        (yx, yy) = _FQ2Inv(yx, yy);\n        return _FQ2Mul(xx, xy, yx, yy);\n    }\n\n    function _FQ2Inv(uint256 x, uint256 y) internal view returns (uint256, uint256) {\n        uint256 inv = _modInv(addmod(mulmod(y, y, FIELD_MODULUS), mulmod(x, x, FIELD_MODULUS), FIELD_MODULUS), FIELD_MODULUS);\n        return (\n            mulmod(x, inv, FIELD_MODULUS),\n            FIELD_MODULUS - mulmod(y, inv, FIELD_MODULUS)\n        );\n    }\n\n    function _isOnCurve(\n        uint256 xx, uint256 xy,\n        uint256 yx, uint256 yy\n    ) internal pure returns (bool) {\n        uint256 yyx;\n        uint256 yyy;\n        uint256 xxxx;\n        uint256 xxxy;\n        (yyx, yyy) = _FQ2Mul(yx, yy, yx, yy);\n        (xxxx, xxxy) = _FQ2Mul(xx, xy, xx, xy);\n        (xxxx, xxxy) = _FQ2Mul(xxxx, xxxy, xx, xy);\n        (yyx, yyy) = _FQ2Sub(yyx, yyy, xxxx, xxxy);\n        (yyx, yyy) = _FQ2Sub(yyx, yyy, TWISTBX, TWISTBY);\n        return yyx == 0 && yyy == 0;\n    }\n\n    function _modInv(uint256 a, uint256 n) internal view returns (uint256 result) {\n        bool success;\n        assembly {\n            let freemem := mload(0x40)\n            mstore(freemem, 0x20)\n            mstore(add(freemem,0x20), 0x20)\n            mstore(add(freemem,0x40), 0x20)\n            mstore(add(freemem,0x60), a)\n            mstore(add(freemem,0x80), sub(n, 2))\n            mstore(add(freemem,0xA0), n)\n            success := staticcall(sub(gas(), 2000), 5, freemem, 0xC0, freemem, 0x20)\n            result := mload(freemem)\n        }\n        require(success);\n    }\n\n    function _fromJacobian(\n        uint256 pt1xx, uint256 pt1xy,\n        uint256 pt1yx, uint256 pt1yy,\n        uint256 pt1zx, uint256 pt1zy\n    ) internal view returns (\n        uint256 pt2xx, uint256 pt2xy,\n        uint256 pt2yx, uint256 pt2yy\n    ) {\n        uint256 invzx;\n        uint256 invzy;\n        (invzx, invzy) = _FQ2Inv(pt1zx, pt1zy);\n        (pt2xx, pt2xy) = _FQ2Mul(pt1xx, pt1xy, invzx, invzy);\n        (pt2yx, pt2yy) = _FQ2Mul(pt1yx, pt1yy, invzx, invzy);\n    }\n\n    function _ECTwistAddJacobian(\n        uint256 pt1xx, uint256 pt1xy,\n        uint256 pt1yx, uint256 pt1yy,\n        uint256 pt1zx, uint256 pt1zy,\n        uint256 pt2xx, uint256 pt2xy,\n        uint256 pt2yx, uint256 pt2yy,\n        uint256 pt2zx, uint256 pt2zy) internal pure returns (uint256[6] memory pt3) {\n            if (pt1zx == 0 && pt1zy == 0) {\n                (\n                    pt3[PTXX], pt3[PTXY],\n                    pt3[PTYX], pt3[PTYY],\n                    pt3[PTZX], pt3[PTZY]\n                ) = (\n                    pt2xx, pt2xy,\n                    pt2yx, pt2yy,\n                    pt2zx, pt2zy\n                );\n                return pt3;\n            } else if (pt2zx == 0 && pt2zy == 0) {\n                (\n                    pt3[PTXX], pt3[PTXY],\n                    pt3[PTYX], pt3[PTYY],\n                    pt3[PTZX], pt3[PTZY]\n                ) = (\n                    pt1xx, pt1xy,\n                    pt1yx, pt1yy,\n                    pt1zx, pt1zy\n                );\n                return pt3;\n            }\n\n            (pt2yx,     pt2yy)     = _FQ2Mul(pt2yx, pt2yy, pt1zx, pt1zy); // U1 = y2 * z1\n            (pt3[PTYX], pt3[PTYY]) = _FQ2Mul(pt1yx, pt1yy, pt2zx, pt2zy); // U2 = y1 * z2\n            (pt2xx,     pt2xy)     = _FQ2Mul(pt2xx, pt2xy, pt1zx, pt1zy); // V1 = x2 * z1\n            (pt3[PTZX], pt3[PTZY]) = _FQ2Mul(pt1xx, pt1xy, pt2zx, pt2zy); // V2 = x1 * z2\n\n            if (pt2xx == pt3[PTZX] && pt2xy == pt3[PTZY]) {\n                if (pt2yx == pt3[PTYX] && pt2yy == pt3[PTYY]) {\n                    (\n                        pt3[PTXX], pt3[PTXY],\n                        pt3[PTYX], pt3[PTYY],\n                        pt3[PTZX], pt3[PTZY]\n                    ) = _ECTwistDoubleJacobian(pt1xx, pt1xy, pt1yx, pt1yy, pt1zx, pt1zy);\n                    return pt3;\n                }\n                (\n                    pt3[PTXX], pt3[PTXY],\n                    pt3[PTYX], pt3[PTYY],\n                    pt3[PTZX], pt3[PTZY]\n                ) = (\n                    1, 0,\n                    1, 0,\n                    0, 0\n                );\n                return pt3;\n            }\n\n            (pt2zx,     pt2zy)     = _FQ2Mul(pt1zx, pt1zy, pt2zx,     pt2zy);     // W = z1 * z2\n            (pt1xx,     pt1xy)     = _FQ2Sub(pt2yx, pt2yy, pt3[PTYX], pt3[PTYY]); // U = U1 - U2\n            (pt1yx,     pt1yy)     = _FQ2Sub(pt2xx, pt2xy, pt3[PTZX], pt3[PTZY]); // V = V1 - V2\n            (pt1zx,     pt1zy)     = _FQ2Mul(pt1yx, pt1yy, pt1yx,     pt1yy);     // V_squared = V * V\n            (pt2yx,     pt2yy)     = _FQ2Mul(pt1zx, pt1zy, pt3[PTZX], pt3[PTZY]); // V_squared_times_V2 = V_squared * V2\n            (pt1zx,     pt1zy)     = _FQ2Mul(pt1zx, pt1zy, pt1yx,     pt1yy);     // V_cubed = V * V_squared\n            (pt3[PTZX], pt3[PTZY]) = _FQ2Mul(pt1zx, pt1zy, pt2zx,     pt2zy);     // newz = V_cubed * W\n            (pt2xx,     pt2xy)     = _FQ2Mul(pt1xx, pt1xy, pt1xx,     pt1xy);     // U * U\n            (pt2xx,     pt2xy)     = _FQ2Mul(pt2xx, pt2xy, pt2zx,     pt2zy);     // U * U * W\n            (pt2xx,     pt2xy)     = _FQ2Sub(pt2xx, pt2xy, pt1zx,     pt1zy);     // U * U * W - V_cubed\n            (pt2zx,     pt2zy)     = _FQ2Muc(pt2yx, pt2yy, 2);                    // 2 * V_squared_times_V2\n            (pt2xx,     pt2xy)     = _FQ2Sub(pt2xx, pt2xy, pt2zx,     pt2zy);     // A = U * U * W - V_cubed - 2 * V_squared_times_V2\n            (pt3[PTXX], pt3[PTXY]) = _FQ2Mul(pt1yx, pt1yy, pt2xx,     pt2xy);     // newx = V * A\n            (pt1yx,     pt1yy)     = _FQ2Sub(pt2yx, pt2yy, pt2xx,     pt2xy);     // V_squared_times_V2 - A\n            (pt1yx,     pt1yy)     = _FQ2Mul(pt1xx, pt1xy, pt1yx,     pt1yy);     // U * (V_squared_times_V2 - A)\n            (pt1xx,     pt1xy)     = _FQ2Mul(pt1zx, pt1zy, pt3[PTYX], pt3[PTYY]); // V_cubed * U2\n            (pt3[PTYX], pt3[PTYY]) = _FQ2Sub(pt1yx, pt1yy, pt1xx,     pt1xy);     // newy = U * (V_squared_times_V2 - A) - V_cubed * U2\n    }\n\n    function _ECTwistDoubleJacobian(\n        uint256 pt1xx, uint256 pt1xy,\n        uint256 pt1yx, uint256 pt1yy,\n        uint256 pt1zx, uint256 pt1zy\n    ) internal pure returns (\n        uint256 pt2xx, uint256 pt2xy,\n        uint256 pt2yx, uint256 pt2yy,\n        uint256 pt2zx, uint256 pt2zy\n    ) {\n        (pt2xx, pt2xy) = _FQ2Muc(pt1xx, pt1xy, 3);            // 3 * x\n        (pt2xx, pt2xy) = _FQ2Mul(pt2xx, pt2xy, pt1xx, pt1xy); // W = 3 * x * x\n        (pt1zx, pt1zy) = _FQ2Mul(pt1yx, pt1yy, pt1zx, pt1zy); // S = y * z\n        (pt2yx, pt2yy) = _FQ2Mul(pt1xx, pt1xy, pt1yx, pt1yy); // x * y\n        (pt2yx, pt2yy) = _FQ2Mul(pt2yx, pt2yy, pt1zx, pt1zy); // B = x * y * S\n        (pt1xx, pt1xy) = _FQ2Mul(pt2xx, pt2xy, pt2xx, pt2xy); // W * W\n        (pt2zx, pt2zy) = _FQ2Muc(pt2yx, pt2yy, 8);            // 8 * B\n        (pt1xx, pt1xy) = _FQ2Sub(pt1xx, pt1xy, pt2zx, pt2zy); // H = W * W - 8 * B\n        (pt2zx, pt2zy) = _FQ2Mul(pt1zx, pt1zy, pt1zx, pt1zy); // S_squared = S * S\n        (pt2yx, pt2yy) = _FQ2Muc(pt2yx, pt2yy, 4);            // 4 * B\n        (pt2yx, pt2yy) = _FQ2Sub(pt2yx, pt2yy, pt1xx, pt1xy); // 4 * B - H\n        (pt2yx, pt2yy) = _FQ2Mul(pt2yx, pt2yy, pt2xx, pt2xy); // W * (4 * B - H)\n        (pt2xx, pt2xy) = _FQ2Muc(pt1yx, pt1yy, 8);            // 8 * y\n        (pt2xx, pt2xy) = _FQ2Mul(pt2xx, pt2xy, pt1yx, pt1yy); // 8 * y * y\n        (pt2xx, pt2xy) = _FQ2Mul(pt2xx, pt2xy, pt2zx, pt2zy); // 8 * y * y * S_squared\n        (pt2yx, pt2yy) = _FQ2Sub(pt2yx, pt2yy, pt2xx, pt2xy); // newy = W * (4 * B - H) - 8 * y * y * S_squared\n        (pt2xx, pt2xy) = _FQ2Muc(pt1xx, pt1xy, 2);            // 2 * H\n        (pt2xx, pt2xy) = _FQ2Mul(pt2xx, pt2xy, pt1zx, pt1zy); // newx = 2 * H * S\n        (pt2zx, pt2zy) = _FQ2Mul(pt1zx, pt1zy, pt2zx, pt2zy); // S * S_squared\n        (pt2zx, pt2zy) = _FQ2Muc(pt2zx, pt2zy, 8);            // newz = 8 * S * S_squared\n    }\n\n    function _ECTwistMulJacobian(\n        uint256 d,\n        uint256 pt1xx, uint256 pt1xy,\n        uint256 pt1yx, uint256 pt1yy,\n        uint256 pt1zx, uint256 pt1zy\n    ) internal pure returns (uint256[6] memory pt2) {\n        while (d != 0) {\n            if ((d & 1) != 0) {\n                pt2 = _ECTwistAddJacobian(\n                    pt2[PTXX], pt2[PTXY],\n                    pt2[PTYX], pt2[PTYY],\n                    pt2[PTZX], pt2[PTZY],\n                    pt1xx, pt1xy,\n                    pt1yx, pt1yy,\n                    pt1zx, pt1zy);\n            }\n            (\n                pt1xx, pt1xy,\n                pt1yx, pt1yy,\n                pt1zx, pt1zy\n            ) = _ECTwistDoubleJacobian(\n                pt1xx, pt1xy,\n                pt1yx, pt1yy,\n                pt1zx, pt1zy\n            );\n\n            d = d / 2;\n        }\n    }\n}\n",
  "sourcePath": "/Users/leyingan/delphinus/playground/solidity/contracts/BN256.sol",
  "compiler": {
    "name": "solc",
    "version": "0.8.4+commit.c7e474f2.Darwin.appleclang"
  },
  "schemaVersion": "3.4.1",
  "updatedAt": "2021-07-11T08:46:28.599Z",
  "devdoc": {
    "author": "Mustafa Al-Bassam (mus@musalbas.com)",
    "details": "Homepage: https://github.com/musalbas/solidity-BN256G2",
    "kind": "dev",
    "methods": {
      "ECTwistAdd(uint256,uint256,uint256,uint256,uint256,uint256,uint256,uint256)": {
        "params": {
          "pt1xx": "Coefficient 1 of x on point 1",
          "pt1xy": "Coefficient 2 of x on point 1",
          "pt1yx": "Coefficient 1 of y on point 1",
          "pt1yy": "Coefficient 2 of y on point 1",
          "pt2xx": "Coefficient 1 of x on point 2",
          "pt2xy": "Coefficient 2 of x on point 2",
          "pt2yx": "Coefficient 1 of y on point 2",
          "pt2yy": "Coefficient 2 of y on point 2"
        },
        "returns": {
          "_0": "(pt3xx, pt3xy, pt3yx, pt3yy)"
        }
      },
      "ECTwistMul(uint256,uint256,uint256,uint256,uint256)": {
        "params": {
          "pt1xx": "Coefficient 1 of x",
          "pt1xy": "Coefficient 2 of x",
          "pt1yx": "Coefficient 1 of y",
          "pt1yy": "Coefficient 2 of y",
          "s": "Scalar to multiply by"
        },
        "returns": {
          "_0": "(pt2xx, pt2xy, pt2yx, pt2yy)"
        }
      },
      "GetFieldModulus()": {
        "returns": {
          "_0": "The field modulus"
        }
      }
    },
    "title": "Elliptic curve operations on twist points for alt_bn128",
    "version": 1
  },
  "userdoc": {
    "kind": "user",
    "methods": {
      "ECTwistAdd(uint256,uint256,uint256,uint256,uint256,uint256,uint256,uint256)": {
        "notice": "Add two twist points"
      },
      "ECTwistMul(uint256,uint256,uint256,uint256,uint256)": {
        "notice": "Multiply a twist point by a scalar"
      },
      "GetFieldModulus()": {
        "notice": "Get the field modulus"
      }
    },
    "version": 1
  }
}