{
  "contractName": "BN256G2",
  "abi": [
    {
      "inputs": [
        {
          "internalType": "uint256",
          "name": "pt1xx",
          "type": "uint256"
        },
        {
          "internalType": "uint256",
          "name": "pt1xy",
          "type": "uint256"
        },
        {
          "internalType": "uint256",
          "name": "pt1yx",
          "type": "uint256"
        },
        {
          "internalType": "uint256",
          "name": "pt1yy",
          "type": "uint256"
        },
        {
          "internalType": "uint256",
          "name": "pt2xx",
          "type": "uint256"
        },
        {
          "internalType": "uint256",
          "name": "pt2xy",
          "type": "uint256"
        },
        {
          "internalType": "uint256",
          "name": "pt2yx",
          "type": "uint256"
        },
        {
          "internalType": "uint256",
          "name": "pt2yy",
          "type": "uint256"
        }
      ],
      "name": "ECTwistAdd",
      "outputs": [
        {
          "internalType": "uint256",
          "name": "",
          "type": "uint256"
        },
        {
          "internalType": "uint256",
          "name": "",
          "type": "uint256"
        },
        {
          "internalType": "uint256",
          "name": "",
          "type": "uint256"
        },
        {
          "internalType": "uint256",
          "name": "",
          "type": "uint256"
        }
      ],
      "stateMutability": "view",
      "type": "function"
    },
    {
      "inputs": [
        {
          "internalType": "uint256",
          "name": "s",
          "type": "uint256"
        },
        {
          "internalType": "uint256",
          "name": "pt1xx",
          "type": "uint256"
        },
        {
          "internalType": "uint256",
          "name": "pt1xy",
          "type": "uint256"
        },
        {
          "internalType": "uint256",
          "name": "pt1yx",
          "type": "uint256"
        },
        {
          "internalType": "uint256",
          "name": "pt1yy",
          "type": "uint256"
        }
      ],
      "name": "ECTwistMul",
      "outputs": [
        {
          "internalType": "uint256",
          "name": "",
          "type": "uint256"
        },
        {
          "internalType": "uint256",
          "name": "",
          "type": "uint256"
        },
        {
          "internalType": "uint256",
          "name": "",
          "type": "uint256"
        },
        {
          "internalType": "uint256",
          "name": "",
          "type": "uint256"
        }
      ],
      "stateMutability": "view",
      "type": "function"
    },
    {
      "inputs": [],
      "name": "GetFieldModulus",
      "outputs": [
        {
          "internalType": "uint256",
          "name": "",
          "type": "uint256"
        }
      ],
      "stateMutability": "pure",
      "type": "function"
    }
  ],
  "bytecode": "0x611628610053600b82828239805160001a607314610046577f4e487b7100000000000000000000000000000000000000000000000000000000600052600060045260246000fd5b30600052607381538281f3fe730000000000000000000000000000000000000000301460806040526004361061004b5760003560e01c806355a3e90f1461005057806361a931ec1461006e578063b73ab75d146100a1575b600080fd5b6100586100d4565b604051610065919061130f565b60405180910390f35b6100886004803603810190610083919061135b565b6100fc565b6040516100989493929190611411565b60405180910390f35b6100bb60048036038101906100b69190611456565b6102e2565b6040516100cb9493929190611411565b60405180910390f35b60007f30644e72e131a029b85045b68181585d97816a916871ca8d3c208c16d87cfd47905090565b60008060008060008c148015610112575060008b145b801561011e575060008a145b801561012a5750600089145b156101865760008814801561013f5750600087145b801561014b5750600086145b80156101575750600085145b610175576101678888888861040e565b610174576101736114d1565b5b5b8787878793509350935093506102d3565b6000881480156101965750600087145b80156101a25750600086145b80156101ae5750600085145b156101dd576101bf8c8c8c8c61040e565b6101cc576101cb6114d1565b5b8b8b8b8b93509350935093506102d3565b6101e98c8c8c8c61040e565b6101f6576101f56114d1565b5b6102028888888861040e565b61020f5761020e6114d1565b5b60006102298d8d8d8d600160008f8f8f8f600160006104d7565b90506102c98160006006811061024257610241611500565b5b60200201518260016006811061025b5761025a611500565b5b60200201518360026006811061027457610273611500565b5b60200201518460036006811061028d5761028c611500565b5b6020020151856004600681106102a6576102a5611500565b5b6020020151866005600681106102bf576102be611500565b5b6020020151610bef565b9450945094509450505b98509850985098945050505050565b6000806000806000600190506000891480156102fe5750600088145b801561030a5750600087145b80156103165750600086145b1561032c57600198506001965060009050610346565b6103388989898961040e565b610345576103446114d1565b5b5b60006103588b8b8b8b8b876000610c41565b90506103f88160006006811061037157610370611500565b5b60200201518260016006811061038a57610389611500565b5b6020020151836002600681106103a3576103a2611500565b5b6020020151846003600681106103bc576103bb611500565b5b6020020151856004600681106103d5576103d4611500565b5b6020020151866005600681106103ee576103ed611500565b5b6020020151610bef565b9550955095509550505095509550955095915050565b600080600080600061042287878989610d49565b809450819550505061043689898b8b610d49565b809250819350505061044a82828b8b610d49565b809250819350505061045e84848484610e7a565b80945081955050506104b184847f2b149d40ceb8aaae81be18991be06ac3b5b4c5e559dbefa33267e6dc24a138e57e9713b03af0fed4cd2cafadeed8fdf4a74fa084e52d1852e4a2bd0685c315d2610e7a565b80945081955050506000841480156104c95750600083145b945050505050949350505050565b6104df6112d4565b6000891480156104ef5750600088145b156105ad578686868686868660006006811061050e5761050d611500565b5b602002018760016006811061052657610525611500565b5b602002018860026006811061053e5761053d611500565b5b602002018960036006811061055657610555611500565b5b602002018a60046006811061056e5761056d611500565b5b602002018b60056006811061058657610585611500565b5b60200201868152508681525086815250868152508681525086815250505050505050610bdf565b6000831480156105bd5750600082145b1561067b578c8c8c8c8c8c866000600681106105dc576105db611500565b5b60200201876001600681106105f4576105f3611500565b5b602002018860026006811061060c5761060b611500565b5b602002018960036006811061062457610623611500565b5b602002018a60046006811061063c5761063b611500565b5b602002018b60056006811061065457610653611500565b5b60200201868152508681525086815250868152508681525086815250505050505050610bdf565b61068785858b8b610d49565b809550819650505061069b8b8b8585610d49565b826002600681106106af576106ae611500565b5b60200201836003600681106106c7576106c6611500565b5b60200201828152508281525050506106e187878b8b610d49565b80975081985050506106f58d8d8585610d49565b8260046006811061070957610708611500565b5b602002018360056006811061072157610720611500565b5b60200201828152508281525050508060046006811061074357610742611500565b5b60200201518714801561076d57508060056006811061076557610764611500565b5b602002015186145b15610934578060026006811061078657610785611500565b5b6020020151851480156107b05750806003600681106107a8576107a7611500565b5b602002015184145b15610876576107c38d8d8d8d8d8d610ee0565b866000600681106107d7576107d6611500565b5b60200201876001600681106107ef576107ee611500565b5b602002018860026006811061080757610806611500565b5b602002018960036006811061081f5761081e611500565b5b602002018a60046006811061083757610836611500565b5b602002018b60056006811061084f5761084e611500565b5b60200201868152508681525086815250868152508681525086815250505050505050610bdf565b60016000600160008060008660006006811061089557610894611500565b5b60200201876001600681106108ad576108ac611500565b5b60200201886002600681106108c5576108c4611500565b5b60200201896003600681106108dd576108dc611500565b5b602002018a6004600681106108f5576108f4611500565b5b602002018b60056006811061090d5761090c611500565b5b60200201868152508681525086815250868152508681525086815250505050505050610bdf565b61094089898585610d49565b809350819450505061098485858360026006811061096157610960611500565b5b60200201518460036006811061097a57610979611500565b5b6020020151610e7a565b809d50819e5050506109c88787836004600681106109a5576109a4611500565b5b6020020151846005600681106109be576109bd611500565b5b6020020151610e7a565b809b50819c5050506109dc8b8b8d8d610d49565b809950819a505050610a208989836004600681106109fd576109fc611500565b5b602002015184600560068110610a1657610a15611500565b5b6020020151610d49565b8095508196505050610a3489898d8d610d49565b809950819a505050610a4889898585610d49565b82600460068110610a5c57610a5b611500565b5b6020020183600560068110610a7457610a73611500565b5b6020020182815250828152505050610a8e8d8d8f8f610d49565b8097508198505050610aa287878585610d49565b8097508198505050610ab687878b8b610e7a565b8097508198505050610aca85856002611088565b8093508194505050610ade87878585610e7a565b8097508198505050610af28b8b8989610d49565b82600060068110610b0657610b05611500565b5b6020020183600160068110610b1e57610b1d611500565b5b6020020182815250828152505050610b3885858989610e7a565b809b50819c505050610b4c8d8d8d8d610d49565b809b50819c505050610b90898983600260068110610b6d57610b6c611500565b5b602002015184600360068110610b8657610b85611500565b5b6020020151610d49565b809d50819e505050610ba48b8b8f8f610e7a565b82600260068110610bb857610bb7611500565b5b6020020183600360068110610bd057610bcf611500565b5b60200201828152508281525050505b9c9b505050505050505050505050565b600080600080600080610c0288886110fb565b8092508193505050610c168c8c8484610d49565b8096508197505050610c2a8a8a8484610d49565b809450819550505050509650965096509692505050565b610c496112d4565b5b60008814610d3e5760006001891614610d0457610d0181600060068110610c7457610c73611500565b5b602002015182600160068110610c8d57610c8c611500565b5b602002015183600260068110610ca657610ca5611500565b5b602002015184600360068110610cbf57610cbe611500565b5b602002015185600460068110610cd857610cd7611500565b5b602002015186600560068110610cf157610cf0611500565b5b60200201518d8d8d8d8d8d6104d7565b90505b610d12878787878787610ee0565b809750819850829950839a50849b50859c50505050505050600288610d37919061158d565b9750610c4a565b979650505050505050565b600080610dd97f30644e72e131a029b85045b68181585d97816a916871ca8d3c208c16d87cfd4780610d7e57610d7d61152f565b5b8588097f30644e72e131a029b85045b68181585d97816a916871ca8d3c208c16d87cfd4780610db057610daf61152f565b5b8588097f30644e72e131a029b85045b68181585d97816a916871ca8d3c208c16d87cfd4761125a565b7f30644e72e131a029b85045b68181585d97816a916871ca8d3c208c16d87cfd4780610e0857610e0761152f565b5b7f30644e72e131a029b85045b68181585d97816a916871ca8d3c208c16d87cfd4780610e3757610e3661152f565b5b8688097f30644e72e131a029b85045b68181585d97816a916871ca8d3c208c16d87cfd4780610e6957610e6861152f565b5b868a09089150915094509492505050565b600080610ea886857f30644e72e131a029b85045b68181585d97816a916871ca8d3c208c16d87cfd4761125a565b610ed386857f30644e72e131a029b85045b68181585d97816a916871ca8d3c208c16d87cfd4761125a565b9150915094509492505050565b600080600080600080610ef58c8c6003611088565b8096508197505050610f0986868e8e610d49565b8096508197505050610f1d8a8a8a8a610d49565b8098508199505050610f318c8c8c8c610d49565b8094508195505050610f4584848a8a610d49565b8094508195505050610f5986868888610d49565b809c50819d505050610f6d84846008611088565b8092508193505050610f818c8c8484610e7a565b809c50819d505050610f9588888a8a610d49565b8092508193505050610fa984846004611088565b8094508195505050610fbd84848e8e610e7a565b8094508195505050610fd184848888610d49565b8094508195505050610fe58a8a6008611088565b8096508197505050610ff986868c8c610d49565b809650819750505061100d86868484610d49565b809650819750505061102184848888610e7a565b80945081955050506110358c8c6002611088565b809650819750505061104986868a8a610d49565b809650819750505061105d88888484610d49565b809250819350505061107182826008611088565b809250819350505096509650965096509650969050565b6000807f30644e72e131a029b85045b68181585d97816a916871ca8d3c208c16d87cfd47806110ba576110b961152f565b5b8386097f30644e72e131a029b85045b68181585d97816a916871ca8d3c208c16d87cfd47806110ec576110eb61152f565b5b84860991509150935093915050565b60008060006111bd7f30644e72e131a029b85045b68181585d97816a916871ca8d3c208c16d87cfd47806111325761113161152f565b5b7f30644e72e131a029b85045b68181585d97816a916871ca8d3c208c16d87cfd47806111615761116061152f565b5b8788097f30644e72e131a029b85045b68181585d97816a916871ca8d3c208c16d87cfd47806111935761119261152f565b5b878809087f30644e72e131a029b85045b68181585d97816a916871ca8d3c208c16d87cfd47611282565b90507f30644e72e131a029b85045b68181585d97816a916871ca8d3c208c16d87cfd47806111ee576111ed61152f565b5b8186097f30644e72e131a029b85045b68181585d97816a916871ca8d3c208c16d87cfd47806112205761121f61152f565b5b8286097f30644e72e131a029b85045b68181585d97816a916871ca8d3c208c16d87cfd4761124e91906115be565b92509250509250929050565b6000818061126b5761126a61152f565b5b838361127791906115be565b850890509392505050565b60008060405160208152602080820152602060408201528460608201526002840360808201528360a082015260208160c08360056107d05a03fa91508051925050806112cd57600080fd5b5092915050565b6040518060c00160405280600690602082028036833780820191505090505090565b6000819050919050565b611309816112f6565b82525050565b60006020820190506113246000830184611300565b92915050565b600080fd5b611338816112f6565b811461134357600080fd5b50565b6000813590506113558161132f565b92915050565b600080600080600080600080610100898b03121561137c5761137b61132a565b5b600061138a8b828c01611346565b985050602061139b8b828c01611346565b97505060406113ac8b828c01611346565b96505060606113bd8b828c01611346565b95505060806113ce8b828c01611346565b94505060a06113df8b828c01611346565b93505060c06113f08b828c01611346565b92505060e06114018b828c01611346565b9150509295985092959890939650565b60006080820190506114266000830187611300565b6114336020830186611300565b6114406040830185611300565b61144d6060830184611300565b95945050505050565b600080600080600060a086880312156114725761147161132a565b5b600061148088828901611346565b955050602061149188828901611346565b94505060406114a288828901611346565b93505060606114b388828901611346565b92505060806114c488828901611346565b9150509295509295909350565b7f4e487b7100000000000000000000000000000000000000000000000000000000600052600160045260246000fd5b7f4e487b7100000000000000000000000000000000000000000000000000000000600052603260045260246000fd5b7f4e487b7100000000000000000000000000000000000000000000000000000000600052601260045260246000fd5b7f4e487b7100000000000000000000000000000000000000000000000000000000600052601160045260246000fd5b6000611598826112f6565b91506115a3836112f6565b9250826115b3576115b261152f565b5b828204905092915050565b60006115c9826112f6565b91506115d4836112f6565b92508282039050818111156115ec576115eb61155e565b5b9291505056fea2646970667358221220d0fe19275841a9ec524d2d9ad1f8f9c4770e3285cd425b7f08bcc7d89cd5dc7864736f6c63430008110033",
  "immutableReferences": {},
  "source": "// SPDX-License-Identifier: LGPL-3.0-only\n// This file is LGPL3 Licensed\npragma solidity ^0.8.0;\n\n/**\n * @title Elliptic curve operations on twist points for alt_bn128\n * @author Mustafa Al-Bassam (mus@musalbas.com)\n * @dev Homepage: https://github.com/musalbas/solidity-BN256G2\n */\n\nlibrary BN256G2 {\n    uint256 internal constant FIELD_MODULUS = 0x30644e72e131a029b85045b68181585d97816a916871ca8d3c208c16d87cfd47;\n    uint256 internal constant TWISTBX = 0x2b149d40ceb8aaae81be18991be06ac3b5b4c5e559dbefa33267e6dc24a138e5;\n    uint256 internal constant TWISTBY = 0x9713b03af0fed4cd2cafadeed8fdf4a74fa084e52d1852e4a2bd0685c315d2;\n    uint internal constant PTXX = 0;\n    uint internal constant PTXY = 1;\n    uint internal constant PTYX = 2;\n    uint internal constant PTYY = 3;\n    uint internal constant PTZX = 4;\n    uint internal constant PTZY = 5;\n\n    /**\n     * @notice Add two twist points\n     * @param pt1xx Coefficient 1 of x on point 1\n     * @param pt1xy Coefficient 2 of x on point 1\n     * @param pt1yx Coefficient 1 of y on point 1\n     * @param pt1yy Coefficient 2 of y on point 1\n     * @param pt2xx Coefficient 1 of x on point 2\n     * @param pt2xy Coefficient 2 of x on point 2\n     * @param pt2yx Coefficient 1 of y on point 2\n     * @param pt2yy Coefficient 2 of y on point 2\n     * @return (pt3xx, pt3xy, pt3yx, pt3yy)\n     */\n    function ECTwistAdd(\n        uint256 pt1xx, uint256 pt1xy,\n        uint256 pt1yx, uint256 pt1yy,\n        uint256 pt2xx, uint256 pt2xy,\n        uint256 pt2yx, uint256 pt2yy\n    ) public view returns (\n        uint256, uint256,\n        uint256, uint256\n    ) {\n        if (\n            pt1xx == 0 && pt1xy == 0 &&\n            pt1yx == 0 && pt1yy == 0\n        ) {\n            if (!(\n                pt2xx == 0 && pt2xy == 0 &&\n                pt2yx == 0 && pt2yy == 0\n            )) {\n                assert(_isOnCurve(\n                    pt2xx, pt2xy,\n                    pt2yx, pt2yy\n                ));\n            }\n            return (\n                pt2xx, pt2xy,\n                pt2yx, pt2yy\n            );\n        } else if (\n            pt2xx == 0 && pt2xy == 0 &&\n            pt2yx == 0 && pt2yy == 0\n        ) {\n            assert(_isOnCurve(\n                pt1xx, pt1xy,\n                pt1yx, pt1yy\n            ));\n            return (\n                pt1xx, pt1xy,\n                pt1yx, pt1yy\n            );\n        }\n\n        assert(_isOnCurve(\n            pt1xx, pt1xy,\n            pt1yx, pt1yy\n        ));\n        assert(_isOnCurve(\n            pt2xx, pt2xy,\n            pt2yx, pt2yy\n        ));\n\n        uint256[6] memory pt3 = _ECTwistAddJacobian(\n            pt1xx, pt1xy,\n            pt1yx, pt1yy,\n            1,     0,\n            pt2xx, pt2xy,\n            pt2yx, pt2yy,\n            1,     0\n        );\n\n        return _fromJacobian(\n            pt3[PTXX], pt3[PTXY],\n            pt3[PTYX], pt3[PTYY],\n            pt3[PTZX], pt3[PTZY]\n        );\n    }\n\n    /**\n     * @notice Multiply a twist point by a scalar\n     * @param s     Scalar to multiply by\n     * @param pt1xx Coefficient 1 of x\n     * @param pt1xy Coefficient 2 of x\n     * @param pt1yx Coefficient 1 of y\n     * @param pt1yy Coefficient 2 of y\n     * @return (pt2xx, pt2xy, pt2yx, pt2yy)\n     */\n    function ECTwistMul(\n        uint256 s,\n        uint256 pt1xx, uint256 pt1xy,\n        uint256 pt1yx, uint256 pt1yy\n    ) public view returns (\n        uint256, uint256,\n        uint256, uint256\n    ) {\n        uint256 pt1zx = 1;\n        if (\n            pt1xx == 0 && pt1xy == 0 &&\n            pt1yx == 0 && pt1yy == 0\n        ) {\n            pt1xx = 1;\n            pt1yx = 1;\n            pt1zx = 0;\n        } else {\n            assert(_isOnCurve(\n                pt1xx, pt1xy,\n                pt1yx, pt1yy\n            ));\n        }\n\n        uint256[6] memory pt2 = _ECTwistMulJacobian(\n            s,\n            pt1xx, pt1xy,\n            pt1yx, pt1yy,\n            pt1zx, 0\n        );\n\n        return _fromJacobian(\n            pt2[PTXX], pt2[PTXY],\n            pt2[PTYX], pt2[PTYY],\n            pt2[PTZX], pt2[PTZY]\n        );\n    }\n\n    /**\n     * @notice Get the field modulus\n     * @return The field modulus\n     */\n    function GetFieldModulus() public pure returns (uint256) {\n        return FIELD_MODULUS;\n    }\n\n    function submod(uint256 a, uint256 b, uint256 n) internal pure returns (uint256) {\n        return addmod(a, n - b, n);\n    }\n\n    function _FQ2Mul(\n        uint256 xx, uint256 xy,\n        uint256 yx, uint256 yy\n    ) internal pure returns (uint256, uint256) {\n        return (\n            submod(mulmod(xx, yx, FIELD_MODULUS), mulmod(xy, yy, FIELD_MODULUS), FIELD_MODULUS),\n            addmod(mulmod(xx, yy, FIELD_MODULUS), mulmod(xy, yx, FIELD_MODULUS), FIELD_MODULUS)\n        );\n    }\n\n    function _FQ2Muc(\n        uint256 xx, uint256 xy,\n        uint256 c\n    ) internal pure returns (uint256, uint256) {\n        return (\n            mulmod(xx, c, FIELD_MODULUS),\n            mulmod(xy, c, FIELD_MODULUS)\n        );\n    }\n\n    function _FQ2Add(\n        uint256 xx, uint256 xy,\n        uint256 yx, uint256 yy\n    ) internal pure returns (uint256, uint256) {\n        return (\n            addmod(xx, yx, FIELD_MODULUS),\n            addmod(xy, yy, FIELD_MODULUS)\n        );\n    }\n\n    function _FQ2Sub(\n        uint256 xx, uint256 xy,\n        uint256 yx, uint256 yy\n    ) internal pure returns (uint256 rx, uint256 ry) {\n        return (\n            submod(xx, yx, FIELD_MODULUS),\n            submod(xy, yy, FIELD_MODULUS)\n        );\n    }\n\n    function _FQ2Div(\n        uint256 xx, uint256 xy,\n        uint256 yx, uint256 yy\n    ) internal view returns (uint256, uint256) {\n        (yx, yy) = _FQ2Inv(yx, yy);\n        return _FQ2Mul(xx, xy, yx, yy);\n    }\n\n    function _FQ2Inv(uint256 x, uint256 y) internal view returns (uint256, uint256) {\n        uint256 inv = _modInv(addmod(mulmod(y, y, FIELD_MODULUS), mulmod(x, x, FIELD_MODULUS), FIELD_MODULUS), FIELD_MODULUS);\n        return (\n            mulmod(x, inv, FIELD_MODULUS),\n            FIELD_MODULUS - mulmod(y, inv, FIELD_MODULUS)\n        );\n    }\n\n    function _isOnCurve(\n        uint256 xx, uint256 xy,\n        uint256 yx, uint256 yy\n    ) internal pure returns (bool) {\n        uint256 yyx;\n        uint256 yyy;\n        uint256 xxxx;\n        uint256 xxxy;\n        (yyx, yyy) = _FQ2Mul(yx, yy, yx, yy);\n        (xxxx, xxxy) = _FQ2Mul(xx, xy, xx, xy);\n        (xxxx, xxxy) = _FQ2Mul(xxxx, xxxy, xx, xy);\n        (yyx, yyy) = _FQ2Sub(yyx, yyy, xxxx, xxxy);\n        (yyx, yyy) = _FQ2Sub(yyx, yyy, TWISTBX, TWISTBY);\n        return yyx == 0 && yyy == 0;\n    }\n\n    function _modInv(uint256 a, uint256 n) internal view returns (uint256 result) {\n        bool success;\n        assembly {\n            let freemem := mload(0x40)\n            mstore(freemem, 0x20)\n            mstore(add(freemem,0x20), 0x20)\n            mstore(add(freemem,0x40), 0x20)\n            mstore(add(freemem,0x60), a)\n            mstore(add(freemem,0x80), sub(n, 2))\n            mstore(add(freemem,0xA0), n)\n            success := staticcall(sub(gas(), 2000), 5, freemem, 0xC0, freemem, 0x20)\n            result := mload(freemem)\n        }\n        require(success);\n    }\n\n    function _fromJacobian(\n        uint256 pt1xx, uint256 pt1xy,\n        uint256 pt1yx, uint256 pt1yy,\n        uint256 pt1zx, uint256 pt1zy\n    ) internal view returns (\n        uint256 pt2xx, uint256 pt2xy,\n        uint256 pt2yx, uint256 pt2yy\n    ) {\n        uint256 invzx;\n        uint256 invzy;\n        (invzx, invzy) = _FQ2Inv(pt1zx, pt1zy);\n        (pt2xx, pt2xy) = _FQ2Mul(pt1xx, pt1xy, invzx, invzy);\n        (pt2yx, pt2yy) = _FQ2Mul(pt1yx, pt1yy, invzx, invzy);\n    }\n\n    function _ECTwistAddJacobian(\n        uint256 pt1xx, uint256 pt1xy,\n        uint256 pt1yx, uint256 pt1yy,\n        uint256 pt1zx, uint256 pt1zy,\n        uint256 pt2xx, uint256 pt2xy,\n        uint256 pt2yx, uint256 pt2yy,\n        uint256 pt2zx, uint256 pt2zy) internal pure returns (uint256[6] memory pt3) {\n            if (pt1zx == 0 && pt1zy == 0) {\n                (\n                    pt3[PTXX], pt3[PTXY],\n                    pt3[PTYX], pt3[PTYY],\n                    pt3[PTZX], pt3[PTZY]\n                ) = (\n                    pt2xx, pt2xy,\n                    pt2yx, pt2yy,\n                    pt2zx, pt2zy\n                );\n                return pt3;\n            } else if (pt2zx == 0 && pt2zy == 0) {\n                (\n                    pt3[PTXX], pt3[PTXY],\n                    pt3[PTYX], pt3[PTYY],\n                    pt3[PTZX], pt3[PTZY]\n                ) = (\n                    pt1xx, pt1xy,\n                    pt1yx, pt1yy,\n                    pt1zx, pt1zy\n                );\n                return pt3;\n            }\n\n            (pt2yx,     pt2yy)     = _FQ2Mul(pt2yx, pt2yy, pt1zx, pt1zy); // U1 = y2 * z1\n            (pt3[PTYX], pt3[PTYY]) = _FQ2Mul(pt1yx, pt1yy, pt2zx, pt2zy); // U2 = y1 * z2\n            (pt2xx,     pt2xy)     = _FQ2Mul(pt2xx, pt2xy, pt1zx, pt1zy); // V1 = x2 * z1\n            (pt3[PTZX], pt3[PTZY]) = _FQ2Mul(pt1xx, pt1xy, pt2zx, pt2zy); // V2 = x1 * z2\n\n            if (pt2xx == pt3[PTZX] && pt2xy == pt3[PTZY]) {\n                if (pt2yx == pt3[PTYX] && pt2yy == pt3[PTYY]) {\n                    (\n                        pt3[PTXX], pt3[PTXY],\n                        pt3[PTYX], pt3[PTYY],\n                        pt3[PTZX], pt3[PTZY]\n                    ) = _ECTwistDoubleJacobian(pt1xx, pt1xy, pt1yx, pt1yy, pt1zx, pt1zy);\n                    return pt3;\n                }\n                (\n                    pt3[PTXX], pt3[PTXY],\n                    pt3[PTYX], pt3[PTYY],\n                    pt3[PTZX], pt3[PTZY]\n                ) = (\n                    1, 0,\n                    1, 0,\n                    0, 0\n                );\n                return pt3;\n            }\n\n            (pt2zx,     pt2zy)     = _FQ2Mul(pt1zx, pt1zy, pt2zx,     pt2zy);     // W = z1 * z2\n            (pt1xx,     pt1xy)     = _FQ2Sub(pt2yx, pt2yy, pt3[PTYX], pt3[PTYY]); // U = U1 - U2\n            (pt1yx,     pt1yy)     = _FQ2Sub(pt2xx, pt2xy, pt3[PTZX], pt3[PTZY]); // V = V1 - V2\n            (pt1zx,     pt1zy)     = _FQ2Mul(pt1yx, pt1yy, pt1yx,     pt1yy);     // V_squared = V * V\n            (pt2yx,     pt2yy)     = _FQ2Mul(pt1zx, pt1zy, pt3[PTZX], pt3[PTZY]); // V_squared_times_V2 = V_squared * V2\n            (pt1zx,     pt1zy)     = _FQ2Mul(pt1zx, pt1zy, pt1yx,     pt1yy);     // V_cubed = V * V_squared\n            (pt3[PTZX], pt3[PTZY]) = _FQ2Mul(pt1zx, pt1zy, pt2zx,     pt2zy);     // newz = V_cubed * W\n            (pt2xx,     pt2xy)     = _FQ2Mul(pt1xx, pt1xy, pt1xx,     pt1xy);     // U * U\n            (pt2xx,     pt2xy)     = _FQ2Mul(pt2xx, pt2xy, pt2zx,     pt2zy);     // U * U * W\n            (pt2xx,     pt2xy)     = _FQ2Sub(pt2xx, pt2xy, pt1zx,     pt1zy);     // U * U * W - V_cubed\n            (pt2zx,     pt2zy)     = _FQ2Muc(pt2yx, pt2yy, 2);                    // 2 * V_squared_times_V2\n            (pt2xx,     pt2xy)     = _FQ2Sub(pt2xx, pt2xy, pt2zx,     pt2zy);     // A = U * U * W - V_cubed - 2 * V_squared_times_V2\n            (pt3[PTXX], pt3[PTXY]) = _FQ2Mul(pt1yx, pt1yy, pt2xx,     pt2xy);     // newx = V * A\n            (pt1yx,     pt1yy)     = _FQ2Sub(pt2yx, pt2yy, pt2xx,     pt2xy);     // V_squared_times_V2 - A\n            (pt1yx,     pt1yy)     = _FQ2Mul(pt1xx, pt1xy, pt1yx,     pt1yy);     // U * (V_squared_times_V2 - A)\n            (pt1xx,     pt1xy)     = _FQ2Mul(pt1zx, pt1zy, pt3[PTYX], pt3[PTYY]); // V_cubed * U2\n            (pt3[PTYX], pt3[PTYY]) = _FQ2Sub(pt1yx, pt1yy, pt1xx,     pt1xy);     // newy = U * (V_squared_times_V2 - A) - V_cubed * U2\n    }\n\n    function _ECTwistDoubleJacobian(\n        uint256 pt1xx, uint256 pt1xy,\n        uint256 pt1yx, uint256 pt1yy,\n        uint256 pt1zx, uint256 pt1zy\n    ) internal pure returns (\n        uint256 pt2xx, uint256 pt2xy,\n        uint256 pt2yx, uint256 pt2yy,\n        uint256 pt2zx, uint256 pt2zy\n    ) {\n        (pt2xx, pt2xy) = _FQ2Muc(pt1xx, pt1xy, 3);            // 3 * x\n        (pt2xx, pt2xy) = _FQ2Mul(pt2xx, pt2xy, pt1xx, pt1xy); // W = 3 * x * x\n        (pt1zx, pt1zy) = _FQ2Mul(pt1yx, pt1yy, pt1zx, pt1zy); // S = y * z\n        (pt2yx, pt2yy) = _FQ2Mul(pt1xx, pt1xy, pt1yx, pt1yy); // x * y\n        (pt2yx, pt2yy) = _FQ2Mul(pt2yx, pt2yy, pt1zx, pt1zy); // B = x * y * S\n        (pt1xx, pt1xy) = _FQ2Mul(pt2xx, pt2xy, pt2xx, pt2xy); // W * W\n        (pt2zx, pt2zy) = _FQ2Muc(pt2yx, pt2yy, 8);            // 8 * B\n        (pt1xx, pt1xy) = _FQ2Sub(pt1xx, pt1xy, pt2zx, pt2zy); // H = W * W - 8 * B\n        (pt2zx, pt2zy) = _FQ2Mul(pt1zx, pt1zy, pt1zx, pt1zy); // S_squared = S * S\n        (pt2yx, pt2yy) = _FQ2Muc(pt2yx, pt2yy, 4);            // 4 * B\n        (pt2yx, pt2yy) = _FQ2Sub(pt2yx, pt2yy, pt1xx, pt1xy); // 4 * B - H\n        (pt2yx, pt2yy) = _FQ2Mul(pt2yx, pt2yy, pt2xx, pt2xy); // W * (4 * B - H)\n        (pt2xx, pt2xy) = _FQ2Muc(pt1yx, pt1yy, 8);            // 8 * y\n        (pt2xx, pt2xy) = _FQ2Mul(pt2xx, pt2xy, pt1yx, pt1yy); // 8 * y * y\n        (pt2xx, pt2xy) = _FQ2Mul(pt2xx, pt2xy, pt2zx, pt2zy); // 8 * y * y * S_squared\n        (pt2yx, pt2yy) = _FQ2Sub(pt2yx, pt2yy, pt2xx, pt2xy); // newy = W * (4 * B - H) - 8 * y * y * S_squared\n        (pt2xx, pt2xy) = _FQ2Muc(pt1xx, pt1xy, 2);            // 2 * H\n        (pt2xx, pt2xy) = _FQ2Mul(pt2xx, pt2xy, pt1zx, pt1zy); // newx = 2 * H * S\n        (pt2zx, pt2zy) = _FQ2Mul(pt1zx, pt1zy, pt2zx, pt2zy); // S * S_squared\n        (pt2zx, pt2zy) = _FQ2Muc(pt2zx, pt2zy, 8);            // newz = 8 * S * S_squared\n    }\n\n    function _ECTwistMulJacobian(\n        uint256 d,\n        uint256 pt1xx, uint256 pt1xy,\n        uint256 pt1yx, uint256 pt1yy,\n        uint256 pt1zx, uint256 pt1zy\n    ) internal pure returns (uint256[6] memory pt2) {\n        while (d != 0) {\n            if ((d & 1) != 0) {\n                pt2 = _ECTwistAddJacobian(\n                    pt2[PTXX], pt2[PTXY],\n                    pt2[PTYX], pt2[PTYY],\n                    pt2[PTZX], pt2[PTZY],\n                    pt1xx, pt1xy,\n                    pt1yx, pt1yy,\n                    pt1zx, pt1zy);\n            }\n            (\n                pt1xx, pt1xy,\n                pt1yx, pt1yy,\n                pt1zx, pt1zy\n            ) = _ECTwistDoubleJacobian(\n                pt1xx, pt1xy,\n                pt1yx, pt1yy,\n                pt1zx, pt1zy\n            );\n\n            d = d / 2;\n        }\n    }\n}\n",
  "sourcePath": "/volume1/zkcross-backend-lerna/packages/solidity/contracts/BN256.sol",
  "compiler": {
    "name": "solc",
    "version": "0.8.17+commit.8df45f5f.Linux.g++"
  },
  "schemaVersion": "3.4.11",
  "updatedAt": "2022-12-07T11:59:06.752Z",
  "devdoc": {
    "author": "Mustafa Al-Bassam (mus@musalbas.com)",
    "details": "Homepage: https://github.com/musalbas/solidity-BN256G2",
    "kind": "dev",
    "methods": {
      "ECTwistAdd(uint256,uint256,uint256,uint256,uint256,uint256,uint256,uint256)": {
        "params": {
          "pt1xx": "Coefficient 1 of x on point 1",
          "pt1xy": "Coefficient 2 of x on point 1",
          "pt1yx": "Coefficient 1 of y on point 1",
          "pt1yy": "Coefficient 2 of y on point 1",
          "pt2xx": "Coefficient 1 of x on point 2",
          "pt2xy": "Coefficient 2 of x on point 2",
          "pt2yx": "Coefficient 1 of y on point 2",
          "pt2yy": "Coefficient 2 of y on point 2"
        },
        "returns": {
          "_0": "(pt3xx, pt3xy, pt3yx, pt3yy)"
        }
      },
      "ECTwistMul(uint256,uint256,uint256,uint256,uint256)": {
        "params": {
          "pt1xx": "Coefficient 1 of x",
          "pt1xy": "Coefficient 2 of x",
          "pt1yx": "Coefficient 1 of y",
          "pt1yy": "Coefficient 2 of y",
          "s": "Scalar to multiply by"
        },
        "returns": {
          "_0": "(pt2xx, pt2xy, pt2yx, pt2yy)"
        }
      },
      "GetFieldModulus()": {
        "returns": {
          "_0": "The field modulus"
        }
      }
    },
    "title": "Elliptic curve operations on twist points for alt_bn128",
    "version": 1
  },
  "userdoc": {
    "kind": "user",
    "methods": {
      "ECTwistAdd(uint256,uint256,uint256,uint256,uint256,uint256,uint256,uint256)": {
        "notice": "Add two twist points"
      },
      "ECTwistMul(uint256,uint256,uint256,uint256,uint256)": {
        "notice": "Multiply a twist point by a scalar"
      },
      "GetFieldModulus()": {
        "notice": "Get the field modulus"
      }
    },
    "version": 1
  }
}