{
  "contractName": "Bridge",
  "abi": [
    {
      "inputs": [
        {
          "internalType": "uint32",
          "name": "chain_id",
          "type": "uint32"
        }
      ],
      "stateMutability": "nonpayable",
      "type": "constructor"
    },
    {
      "anonymous": false,
      "inputs": [
        {
          "indexed": false,
          "internalType": "uint256",
          "name": "l1token",
          "type": "uint256"
        },
        {
          "indexed": false,
          "internalType": "uint256",
          "name": "l2account",
          "type": "uint256"
        },
        {
          "indexed": false,
          "internalType": "uint256",
          "name": "amount",
          "type": "uint256"
        },
        {
          "indexed": false,
          "internalType": "uint256",
          "name": "nonce",
          "type": "uint256"
        }
      ],
      "name": "Deposit",
      "type": "event"
    },
    {
      "anonymous": false,
      "inputs": [
        {
          "indexed": false,
          "internalType": "uint256",
          "name": "l2account",
          "type": "uint256"
        },
        {
          "indexed": false,
          "internalType": "uint256",
          "name": "rid",
          "type": "uint256"
        }
      ],
      "name": "SwapAck",
      "type": "event"
    },
    {
      "anonymous": false,
      "inputs": [
        {
          "indexed": false,
          "internalType": "uint256",
          "name": "l1account",
          "type": "uint256"
        },
        {
          "indexed": false,
          "internalType": "uint256",
          "name": "l2account",
          "type": "uint256"
        },
        {
          "indexed": false,
          "internalType": "uint256",
          "name": "amount",
          "type": "uint256"
        },
        {
          "indexed": false,
          "internalType": "uint256",
          "name": "nonce",
          "type": "uint256"
        }
      ],
      "name": "WithDraw",
      "type": "event"
    },
    {
      "inputs": [],
      "name": "getBridgeInfo",
      "outputs": [
        {
          "components": [
            {
              "internalType": "uint128",
              "name": "chain_id",
              "type": "uint128"
            },
            {
              "internalType": "uint32",
              "name": "amount_token",
              "type": "uint32"
            },
            {
              "internalType": "uint32",
              "name": "amount_pool",
              "type": "uint32"
            },
            {
              "internalType": "address",
              "name": "owner",
              "type": "address"
            },
            {
              "internalType": "uint256",
              "name": "merkle_root",
              "type": "uint256"
            },
            {
              "internalType": "uint256",
              "name": "rid",
              "type": "uint256"
            }
          ],
          "internalType": "struct BridgeInfo",
          "name": "",
          "type": "tuple"
        }
      ],
      "stateMutability": "view",
      "type": "function",
      "constant": true
    },
    {
      "inputs": [
        {
          "internalType": "uint256",
          "name": "token",
          "type": "uint256"
        }
      ],
      "name": "addToken",
      "outputs": [
        {
          "internalType": "uint32",
          "name": "",
          "type": "uint32"
        }
      ],
      "stateMutability": "nonpayable",
      "type": "function"
    },
    {
      "inputs": [
        {
          "internalType": "uint128",
          "name": "tidx",
          "type": "uint128"
        }
      ],
      "name": "getToken",
      "outputs": [
        {
          "components": [
            {
              "internalType": "uint256",
              "name": "token_uid",
              "type": "uint256"
            }
          ],
          "internalType": "struct TokenInfo",
          "name": "",
          "type": "tuple"
        }
      ],
      "stateMutability": "view",
      "type": "function",
      "constant": true
    },
    {
      "inputs": [],
      "name": "allTokens",
      "outputs": [
        {
          "components": [
            {
              "internalType": "uint256",
              "name": "token_uid",
              "type": "uint256"
            }
          ],
          "internalType": "struct TokenInfo[]",
          "name": "",
          "type": "tuple[]"
        }
      ],
      "stateMutability": "view",
      "type": "function",
      "constant": true
    },
    {
      "inputs": [
        {
          "internalType": "uint128",
          "name": "tidx",
          "type": "uint128"
        },
        {
          "internalType": "uint128",
          "name": "amount",
          "type": "uint128"
        },
        {
          "internalType": "uint256",
          "name": "l1recipent",
          "type": "uint256"
        }
      ],
      "name": "_withdraw",
      "outputs": [],
      "stateMutability": "nonpayable",
      "type": "function"
    },
    {
      "inputs": [
        {
          "internalType": "address",
          "name": "txaddr",
          "type": "address"
        }
      ],
      "name": "addTransaction",
      "outputs": [
        {
          "internalType": "uint256",
          "name": "",
          "type": "uint256"
        }
      ],
      "stateMutability": "nonpayable",
      "type": "function"
    },
    {
      "inputs": [
        {
          "internalType": "address",
          "name": "vaddr",
          "type": "address"
        }
      ],
      "name": "addVerifier",
      "outputs": [
        {
          "internalType": "uint256",
          "name": "",
          "type": "uint256"
        }
      ],
      "stateMutability": "nonpayable",
      "type": "function"
    },
    {
      "inputs": [
        {
          "internalType": "address",
          "name": "token",
          "type": "address"
        },
        {
          "internalType": "uint256",
          "name": "amount",
          "type": "uint256"
        },
        {
          "internalType": "uint256",
          "name": "l2account",
          "type": "uint256"
        }
      ],
      "name": "deposit",
      "outputs": [],
      "stateMutability": "nonpayable",
      "type": "function"
    },
    {
      "inputs": [
        {
          "internalType": "uint256",
          "name": "l2account",
          "type": "uint256"
        }
      ],
      "name": "nonceOf",
      "outputs": [
        {
          "internalType": "uint256",
          "name": "",
          "type": "uint256"
        }
      ],
      "stateMutability": "view",
      "type": "function",
      "constant": true
    },
    {
      "inputs": [
        {
          "internalType": "uint256",
          "name": "l2account",
          "type": "uint256"
        },
        {
          "internalType": "uint256[]",
          "name": "tx_data",
          "type": "uint256[]"
        },
        {
          "internalType": "uint256[]",
          "name": "verify_data",
          "type": "uint256[]"
        },
        {
          "internalType": "uint256",
          "name": "vid",
          "type": "uint256"
        },
        {
          "internalType": "uint256",
          "name": "nonce",
          "type": "uint256"
        },
        {
          "internalType": "uint256",
          "name": "rid",
          "type": "uint256"
        }
      ],
      "name": "verify",
      "outputs": [],
      "stateMutability": "nonpayable",
      "type": "function"
    }
  ],
  "bytecode": "0x60806040523480156200001157600080fd5b5060405162002c0c38038062002c0c8339818101604052810190620000379190620002a6565b8063ffffffff166000800160006101000a8154816fffffffffffffffffffffffffffffffff02191690836fffffffffffffffffffffffffffffffff16021790555033600060010160006101000a81548173ffffffffffffffffffffffffffffffffffffffff021916908373ffffffffffffffffffffffffffffffffffffffff1602179055507f151399c724e17408a7a43cdadba2fc000da9339c56e4d49c6cdee6c4356fbc68600060020181905550620000f860006200013960201b60201c565b506200010b60006200013960201b60201c565b506200011e60006200013960201b60201c565b506200013160006200013960201b60201c565b5050620003cb565b600080600680549050905060066040518060200160405280858152509080600181540180825580915050600190039060005260206000200160009091909190915060008201518160000155505060018162000195919062000307565b6000800160106101000a81548163ffffffff021916908363ffffffff160217905550600015156007600085815260200190815260200160002060009054906101000a900460ff1615151462000221576040517f08c379a00000000000000000000000000000000000000000000000000000000081526004016200021890620003a9565b60405180910390fd5b60008314620002575760016007600085815260200190815260200160002060006101000a81548160ff0219169083151502179055505b80915050919050565b600080fd5b600063ffffffff82169050919050565b620002808162000265565b81146200028c57600080fd5b50565b600081519050620002a08162000275565b92915050565b600060208284031215620002bf57620002be62000260565b5b6000620002cf848285016200028f565b91505092915050565b7f4e487b7100000000000000000000000000000000000000000000000000000000600052601160045260246000fd5b6000620003148262000265565b9150620003218362000265565b92508263ffffffff038211156200033d576200033c620002d8565b5b828201905092915050565b600082825260208201905092915050565b7f416464546f6b656e3a20546f6b656e20416c7265616479204578697374000000600082015250565b600062000391601d8362000348565b91506200039e8262000359565b602082019050919050565b60006020820190508181036000830152620003c48162000382565b9050919050565b61283180620003db6000396000f3fe608060405234801561001057600080fd5b506004361061009e5760003560e01c80636ff97f1d116100665780636ff97f1d1461016b5780639000b3d614610189578063b65ce8d5146101b9578063bcb8afc5146101e9578063ede7cebd146102055761009e565b806307ae1e87146100a35780630efe6a8b146100bf578063179d375c146100db5780634186640d1461010b5780636ccbae5f1461013b575b600080fd5b6100bd60048036038101906100b891906115b3565b610223565b005b6100d960048036038101906100d491906116d6565b610690565b005b6100f560048036038101906100f09190611729565b6108f4565b6040516101029190611775565b60405180910390f35b610125600480360381019061012091906117d8565b610a15565b6040516101329190611830565b60405180910390f35b61015560048036038101906101509190611729565b610a72565b604051610162919061185a565b60405180910390f35b610173610a8f565b6040516101809190611940565b60405180910390f35b6101a3600480360381019061019e9190611962565b610af4565b6040516101b0919061185a565b60405180910390f35b6101d360048036038101906101ce9190611962565b610b74565b6040516101e0919061185a565b60405180910390f35b61020360048036038101906101fe919061198f565b610bf4565b005b61020d610d37565b60405161021a9190611a8a565b60405180910390f35b600085511415610268576040517f08c379a000000000000000000000000000000000000000000000000000000000815260040161025f90611b28565b60405180910390fd5b6001816102759190611b77565b600060030154146102bb576040517f08c379a00000000000000000000000000000000000000000000000000000000081526004016102b290611bf7565b60405180910390fd5b6001600060030160008282546102d19190611c17565b92505081905550600080600201549050600060026000886040516020016102f9929190611d46565b6040516020818303038152906040526040516103159190611de8565b602060405180830381855afa158015610332573d6000803e3d6000fd5b5050506040513d601f19601f820116820180604052508101906103559190611e35565b60001c9050600086600b815181106103705761036f611e62565b5b6020026020010151905086600a8151811061038e5761038d611e62565b5b602002602001015183146103d7576040517f08c379a00000000000000000000000000000000000000000000000000000000081526004016103ce90611edd565b60405180910390fd5b866009815181106103eb576103ea611e62565b5b602002602001015160808860088151811061040957610408611e62565b5b6020026020010151901b61041d9190611c17565b821461045e576040517f08c379a000000000000000000000000000000000000000000000000000000000815260040161045590611f6f565b60405180910390fd5b600061046987610e51565b905060008173ffffffffffffffffffffffffffffffffffffffff1663b91b0b838a6040518263ffffffff1660e01b81526004016104a69190612016565b602060405180830381600087803b1580156104c057600080fd5b505af11580156104d4573d6000803e3d6000fd5b505050506040513d601f19601f820116820180604052508101906104f89190612070565b90506001151581151514610541576040517f08c379a0000000000000000000000000000000000000000000000000000000008152600401610538906120e9565b60405180910390fd5b60005b8a5181101561063f5760008b828151811061056257610561611e62565b5b602002602001015190506001826105799190611c17565b9150600061058682610f4c565b905060008173ffffffffffffffffffffffffffffffffffffffff1663d46e69278f866040518363ffffffff1660e01b81526004016105c5929190612109565b60006040518083038186803b1580156105dd57600080fd5b505afa1580156105f1573d6000803e3d6000fd5b505050506040513d6000823e3d601f19601f8201168201806040525081019061061a91906121e5565b905061062581611047565b600860ff16846106359190611c17565b9350505050610544565b836000600201819055507fbd839b7672235005c35f9c18d40fb67d8a10ebe332a815c4c2f1d1cd5a52b4218c8860405161067a92919061222e565b60405180910390a1505050505050505050505050565b600083905060006106a0856111a4565b9050600115156007600083815260200190815260200160002060009054906101000a900460ff16151514610709576040517f08c379a0000000000000000000000000000000000000000000000000000000008152600401610700906122a3565b60405180910390fd5b60008273ffffffffffffffffffffffffffffffffffffffff166370a08231336040518263ffffffff1660e01b815260040161074491906122d2565b60206040518083038186803b15801561075c57600080fd5b505afa158015610770573d6000803e3d6000fd5b505050506040513d601f19601f8201168201806040525081019061079491906122ed565b9050848110156107d9576040517f08c379a00000000000000000000000000000000000000000000000000000000081526004016107d090612366565b60405180910390fd5b8273ffffffffffffffffffffffffffffffffffffffff166323b872dd3330886040518463ffffffff1660e01b815260040161081693929190612386565b602060405180830381600087803b15801561083057600080fd5b505af1158015610844573d6000803e3d6000fd5b505050506040513d601f19601f820116820180604052508101906108689190612070565b50600160096000868152602001908152602001600020600082825461088d9190611c17565b925050819055507f9b776d199f09c774f5b205c9bc2ac6f40d508c347aaea919867eeaf06ebef0e96108be876111a4565b858760096000898152602001908152602001600020546040516108e494939291906123bd565b60405180910390a1505050505050565b600080600680549050905060066040518060200160405280858152509080600181540180825580915050600190039060005260206000200160009091909190915060008201518160000155505060018161094e9190612402565b6000800160106101000a81548163ffffffff021916908363ffffffff160217905550600015156007600085815260200190815260200160002060009054906101000a900460ff161515146109d7576040517f08c379a00000000000000000000000000000000000000000000000000000000081526004016109ce90612488565b60405180910390fd5b60008314610a0c5760016007600085815260200190815260200160002060006101000a81548160ff0219169083151502179055505b80915050919050565b610a1d611393565b610a2682611205565b6006826fffffffffffffffffffffffffffffffff1681548110610a4c57610a4b611e62565b5b906000526020600020016040518060200160405290816000820154815250509050919050565b600060096000838152602001908152602001600020549050919050565b60606006805480602002602001604051908101604052809291908181526020016000905b82821015610aeb5783829060005260206000200160405180602001604052908160008201548152505081526020019060010190610ab3565b50505050905090565b6000610afe611276565b600060058054905090506005839080600181540180825580915050600190039060005260206000200160009091909190916101000a81548173ffffffffffffffffffffffffffffffffffffffff021916908373ffffffffffffffffffffffffffffffffffffffff16021790555080915050919050565b6000610b7e611276565b600060048054905090506004839080600181540180825580915050600190039060005260206000200160009091909190916101000a81548173ffffffffffffffffffffffffffffffffffffffff021916908373ffffffffffffffffffffffffffffffffffffffff16021790555080915050919050565b6000610bff8461130b565b9050610c0a81611351565b8015610c1b5750610c1a82611351565b5b15610d315760008190506000839050600073ffffffffffffffffffffffffffffffffffffffff168173ffffffffffffffffffffffffffffffffffffffff161415610c9a576040517f08c379a0000000000000000000000000000000000000000000000000000000008152600401610c91906124f4565b60405180910390fd5b60008290508073ffffffffffffffffffffffffffffffffffffffff1663a9059cbb83886040518363ffffffff1660e01b8152600401610cda92919061254f565b602060405180830381600087803b158015610cf457600080fd5b505af1158015610d08573d6000803e3d6000fd5b505050506040513d601f19601f82011682018060405250810190610d2c9190612070565b505050505b50505050565b610d3f6113a6565b60006040518060c00160405290816000820160009054906101000a90046fffffffffffffffffffffffffffffffff166fffffffffffffffffffffffffffffffff166fffffffffffffffffffffffffffffffff1681526020016000820160109054906101000a900463ffffffff1663ffffffff1663ffffffff1681526020016000820160149054906101000a900463ffffffff1663ffffffff1663ffffffff1681526020016001820160009054906101000a900473ffffffffffffffffffffffffffffffffffffffff1673ffffffffffffffffffffffffffffffffffffffff1673ffffffffffffffffffffffffffffffffffffffff16815260200160028201548152602001600382015481525050905090565b60008082604051602001610e659190612578565b604051602081830303815290604052905080601f81518110610e8a57610e89611e62565b5b602001015160f81c60f81b60f81c60ff1660058054905011610ee1576040517f08c379a0000000000000000000000000000000000000000000000000000000008152600401610ed8906125df565b60405180910390fd5b600581601f81518110610ef757610ef6611e62565b5b602001015160f81c60f81b60f81c60ff1681548110610f1957610f18611e62565b5b9060005260206000200160009054906101000a900473ffffffffffffffffffffffffffffffffffffffff16915050919050565b60008082604051602001610f609190612578565b604051602081830303815290604052905080601f81518110610f8557610f84611e62565b5b602001015160f81c60f81b60f81c60ff1660048054905011610fdc576040517f08c379a0000000000000000000000000000000000000000000000000000000008152600401610fd3906125df565b60405180910390fd5b600481601f81518110610ff257610ff1611e62565b5b602001015160f81c60f81b60f81c60ff168154811061101457611013611e62565b5b9060005260206000200160009054906101000a900473ffffffffffffffffffffffffffffffffffffffff16915050919050565b60005b81518110156111a057600082828151811061106857611067611e62565b5b60200260200101519050600160ff1681141561115f5760048261108b9190611c17565b835110156110ce576040517f08c379a00000000000000000000000000000000000000000000000000000000081526004016110c590612671565b60405180910390fd5b61114b836001846110df9190611c17565b815181106110f0576110ef611e62565b5b6020026020010151846002856111069190611c17565b8151811061111757611116611e62565b5b60200260200101518560038661112d9190611c17565b8151811061113e5761113d611e62565b5b6020026020010151610bf4565b6004826111589190611c17565b915061119a565b6040517f08c379a000000000000000000000000000000000000000000000000000000000815260040161119190612703565b60405180910390fd5b5061104a565b5050565b600060a06000800160009054906101000a90046fffffffffffffffffffffffffffffffff166fffffffffffffffffffffffffffffffff16901b8273ffffffffffffffffffffffffffffffffffffffff166111fe9190611c17565b9050919050565b6000800160109054906101000a900463ffffffff1663ffffffff16816fffffffffffffffffffffffffffffffff1610611273576040517f08c379a000000000000000000000000000000000000000000000000000000000815260040161126a9061276f565b60405180910390fd5b50565b3373ffffffffffffffffffffffffffffffffffffffff16600060010160009054906101000a900473ffffffffffffffffffffffffffffffffffffffff1673ffffffffffffffffffffffffffffffffffffffff1614611309576040517f08c379a0000000000000000000000000000000000000000000000000000000008152600401611300906127db565b60405180910390fd5b565b600061131682611205565b6006826fffffffffffffffffffffffffffffffff168154811061133c5761133b611e62565b5b90600052602060002001600001549050919050565b60008060000160009054906101000a90046fffffffffffffffffffffffffffffffff166fffffffffffffffffffffffffffffffff1660a083901c149050919050565b6040518060200160405280600081525090565b6040518060c0016040528060006fffffffffffffffffffffffffffffffff168152602001600063ffffffff168152602001600063ffffffff168152602001600073ffffffffffffffffffffffffffffffffffffffff16815260200160008152602001600081525090565b6000604051905090565b600080fd5b600080fd5b6000819050919050565b61143781611424565b811461144257600080fd5b50565b6000813590506114548161142e565b92915050565b600080fd5b6000601f19601f8301169050919050565b7f4e487b7100000000000000000000000000000000000000000000000000000000600052604160045260246000fd5b6114a88261145f565b810181811067ffffffffffffffff821117156114c7576114c6611470565b5b80604052505050565b60006114da611410565b90506114e6828261149f565b919050565b600067ffffffffffffffff82111561150657611505611470565b5b602082029050602081019050919050565b600080fd5b600061152f61152a846114eb565b6114d0565b9050808382526020820190506020840283018581111561155257611551611517565b5b835b8181101561157b57806115678882611445565b845260208401935050602081019050611554565b5050509392505050565b600082601f83011261159a5761159961145a565b5b81356115aa84826020860161151c565b91505092915050565b60008060008060008060c087890312156115d0576115cf61141a565b5b60006115de89828a01611445565b965050602087013567ffffffffffffffff8111156115ff576115fe61141f565b5b61160b89828a01611585565b955050604087013567ffffffffffffffff81111561162c5761162b61141f565b5b61163889828a01611585565b945050606061164989828a01611445565b935050608061165a89828a01611445565b92505060a061166b89828a01611445565b9150509295509295509295565b600073ffffffffffffffffffffffffffffffffffffffff82169050919050565b60006116a382611678565b9050919050565b6116b381611698565b81146116be57600080fd5b50565b6000813590506116d0816116aa565b92915050565b6000806000606084860312156116ef576116ee61141a565b5b60006116fd868287016116c1565b935050602061170e86828701611445565b925050604061171f86828701611445565b9150509250925092565b60006020828403121561173f5761173e61141a565b5b600061174d84828501611445565b91505092915050565b600063ffffffff82169050919050565b61176f81611756565b82525050565b600060208201905061178a6000830184611766565b92915050565b60006fffffffffffffffffffffffffffffffff82169050919050565b6117b581611790565b81146117c057600080fd5b50565b6000813590506117d2816117ac565b92915050565b6000602082840312156117ee576117ed61141a565b5b60006117fc848285016117c3565b91505092915050565b61180e81611424565b82525050565b60208201600082015161182a6000850182611805565b50505050565b60006020820190506118456000830184611814565b92915050565b61185481611424565b82525050565b600060208201905061186f600083018461184b565b92915050565b600081519050919050565b600082825260208201905092915050565b6000819050602082019050919050565b6020820160008201516118b76000850182611805565b50505050565b60006118c983836118a1565b60208301905092915050565b6000602082019050919050565b60006118ed82611875565b6118f78185611880565b935061190283611891565b8060005b8381101561193357815161191a88826118bd565b9750611925836118d5565b925050600181019050611906565b5085935050505092915050565b6000602082019050818103600083015261195a81846118e2565b905092915050565b6000602082840312156119785761197761141a565b5b6000611986848285016116c1565b91505092915050565b6000806000606084860312156119a8576119a761141a565b5b60006119b6868287016117c3565b93505060206119c7868287016117c3565b92505060406119d886828701611445565b9150509250925092565b6119eb81611790565b82525050565b6119fa81611756565b82525050565b611a0981611698565b82525050565b60c082016000820151611a2560008501826119e2565b506020820151611a3860208501826119f1565b506040820151611a4b60408501826119f1565b506060820151611a5e6060850182611a00565b506080820151611a716080850182611805565b5060a0820151611a8460a0850182611805565b50505050565b600060c082019050611a9f6000830184611a0f565b92915050565b600082825260208201905092915050565b7f5665726966793a20496e73756666696369656e742064656c7461206f7065726160008201527f74696f6e73000000000000000000000000000000000000000000000000000000602082015250565b6000611b12602583611aa5565b9150611b1d82611ab6565b604082019050919050565b60006020820190508181036000830152611b4181611b05565b9050919050565b7f4e487b7100000000000000000000000000000000000000000000000000000000600052601160045260246000fd5b6000611b8282611424565b9150611b8d83611424565b925082821015611ba057611b9f611b48565b5b828203905092915050565b7f5665726966793a20556e65787065637465642052657175657374204964000000600082015250565b6000611be1601d83611aa5565b9150611bec82611bab565b602082019050919050565b60006020820190508181036000830152611c1081611bd4565b9050919050565b6000611c2282611424565b9150611c2d83611424565b9250827fffffffffffffffffffffffffffffffffffffffffffffffffffffffffffffffff03821115611c6257611c61611b48565b5b828201905092915050565b6000819050919050565b611c88611c8382611424565b611c6d565b82525050565b600081519050919050565b600081905092915050565b6000819050602082019050919050565b611cbd81611424565b82525050565b6000611ccf8383611cb4565b60208301905092915050565b6000602082019050919050565b6000611cf382611c8e565b611cfd8185611c99565b9350611d0883611ca4565b8060005b83811015611d39578151611d208882611cc3565b9750611d2b83611cdb565b925050600181019050611d0c565b5085935050505092915050565b6000611d528285611c77565b602082019150611d628284611ce8565b91508190509392505050565b600081519050919050565b600081905092915050565b60005b83811015611da2578082015181840152602081019050611d87565b83811115611db1576000848401525b50505050565b6000611dc282611d6e565b611dcc8185611d79565b9350611ddc818560208601611d84565b80840191505092915050565b6000611df48284611db7565b915081905092915050565b6000819050919050565b611e1281611dff565b8114611e1d57600080fd5b50565b600081519050611e2f81611e09565b92915050565b600060208284031215611e4b57611e4a61141a565b5b6000611e5984828501611e20565b91505092915050565b7f4e487b7100000000000000000000000000000000000000000000000000000000600052603260045260246000fd5b7f496e636f6e7374616e743a204d65726b6c6520726f6f74206469736d61746368600082015250565b6000611ec7602083611aa5565b9150611ed282611e91565b602082019050919050565b60006020820190508181036000830152611ef681611eba565b9050919050565b7f496e636f6e7374616e743a20536861206461746120696e636f6e73697374616e60008201527f7400000000000000000000000000000000000000000000000000000000000000602082015250565b6000611f59602183611aa5565b9150611f6482611efd565b604082019050919050565b60006020820190508181036000830152611f8881611f4c565b9050919050565b600082825260208201905092915050565b6000611fac8383611805565b60208301905092915050565b6000611fc382611c8e565b611fcd8185611f8f565b9350611fd883611ca4565b8060005b83811015612009578151611ff08882611fa0565b9750611ffb83611cdb565b925050600181019050611fdc565b5085935050505092915050565b600060208201905081810360008301526120308184611fb8565b905092915050565b60008115159050919050565b61204d81612038565b811461205857600080fd5b50565b60008151905061206a81612044565b92915050565b6000602082840312156120865761208561141a565b5b60006120948482850161205b565b91505092915050565b7f5a4b5665726966793a207a6b736e61726b20636865636b206661696c65640000600082015250565b60006120d3601e83611aa5565b91506120de8261209d565b602082019050919050565b60006020820190508181036000830152612102816120c6565b9050919050565b600060408201905081810360008301526121238185611fb8565b9050612132602083018461184b565b9392505050565b6000815190506121488161142e565b92915050565b600061216161215c846114eb565b6114d0565b9050808382526020820190506020840283018581111561218457612183611517565b5b835b818110156121ad57806121998882612139565b845260208401935050602081019050612186565b5050509392505050565b600082601f8301126121cc576121cb61145a565b5b81516121dc84826020860161214e565b91505092915050565b6000602082840312156121fb576121fa61141a565b5b600082015167ffffffffffffffff8111156122195761221861141f565b5b612225848285016121b7565b91505092915050565b6000604082019050612243600083018561184b565b612250602083018461184b565b9392505050565b7f4465706f7369743a20556e747261636b656420546f6b656e0000000000000000600082015250565b600061228d601883611aa5565b915061229882612257565b602082019050919050565b600060208201905081810360008301526122bc81612280565b9050919050565b6122cc81611698565b82525050565b60006020820190506122e760008301846122c3565b92915050565b6000602082840312156123035761230261141a565b5b600061231184828501612139565b91505092915050565b7f496e73756666656369656e742042616c616e6365000000000000000000000000600082015250565b6000612350601483611aa5565b915061235b8261231a565b602082019050919050565b6000602082019050818103600083015261237f81612343565b9050919050565b600060608201905061239b60008301866122c3565b6123a860208301856122c3565b6123b5604083018461184b565b949350505050565b60006080820190506123d2600083018761184b565b6123df602083018661184b565b6123ec604083018561184b565b6123f9606083018461184b565b95945050505050565b600061240d82611756565b915061241883611756565b92508263ffffffff0382111561243157612430611b48565b5b828201905092915050565b7f416464546f6b656e3a20546f6b656e20416c7265616479204578697374000000600082015250565b6000612472601d83611aa5565b915061247d8261243c565b602082019050919050565b600060208201905081810360008301526124a181612465565b9050919050565b7f576974686472617720746f20746865207a65726f206164647265737300000000600082015250565b60006124de601c83611aa5565b91506124e9826124a8565b602082019050919050565b6000602082019050818103600083015261250d816124d1565b9050919050565b6000819050919050565b600061253961253461252f84611790565b612514565b611424565b9050919050565b6125498161251e565b82525050565b600060408201905061256460008301856122c3565b6125716020830184612540565b9392505050565b60006125848284611c77565b60208201915081905092915050565b7f43616c6c20496e666f20696e646578206f7574206f6620626f756e6400000000600082015250565b60006125c9601c83611aa5565b91506125d482612593565b602082019050919050565b600060208201905081810360008301526125f8816125bc565b9050919050565b7f57697468647261773a20496e73756666696369656e7420617267206e756d626560008201527f7200000000000000000000000000000000000000000000000000000000000000602082015250565b600061265b602183611aa5565b9150612666826125ff565b604082019050919050565b6000602082019050818103600083015261268a8161264e565b9050919050565b7f536964654566666563743a20556e6b6e6f776e53696465456666656374436f6460008201527f6500000000000000000000000000000000000000000000000000000000000000602082015250565b60006126ed602183611aa5565b91506126f882612691565b604082019050919050565b6000602082019050818103600083015261271c816126e0565b9050919050565b7f4f75744f66426f756e643a20546f6b656e20496e646578000000000000000000600082015250565b6000612759601783611aa5565b915061276482612723565b602082019050919050565b600060208201905081810360008301526127888161274c565b9050919050565b7f417574686f726974793a20526571756972652041646d696e0000000000000000600082015250565b60006127c5601883611aa5565b91506127d08261278f565b602082019050919050565b600060208201905081810360008301526127f4816127b8565b905091905056fea2646970667358221220f99b01508ce0f5cb3f59dcb11f4c1e7774336655b2eb9497c5fdd187198c6ed364736f6c63430008090033",
  "immutableReferences": {},
  "source": "// SPDX-License-Identifier: UNLICENSED\npragma solidity ^0.8.0;\nimport \"@openzeppelin/contracts/token/ERC20/ERC20.sol\";\nimport \"./Verifier.sol\";\nimport \"./Transaction.sol\";\nimport \"./MKT.sol\";\ncontract Bridge {\n\n  event Deposit(uint256 l1token, uint256 l2account, uint256 amount, uint256 nonce);\n  event WithDraw(uint256 l1account, uint256 l2account, uint256 amount, uint256 nonce);\n  event SwapAck(uint256 l2account, uint256 rid);\n\n  BridgeInfo _bridge_info;\n\n  Transaction[] private transactions;\n  DelphinusVerifier[] private verifiers;\n\n  TokenInfo[] private _tokens;\n  mapping (uint256 => bool) private _tmap;\n\n  address private _owner;\n\n  mapping (uint256 => uint256) private _nonce;\n\n\n  constructor(uint32 chain_id) {\n    _bridge_info.chain_id = chain_id;\n    _bridge_info.owner = msg.sender;\n    _bridge_info.merkle_root = 0x151399c724e17408a7a43cdadba2fc000da9339c56e4d49c6cdee6c4356fbc68;\n    addToken(0);\n    addToken(0);\n    addToken(0);\n    addToken(0);\n  }\n\n  /* Make sure token index is sain */\n  function token_index_check(uint128 tidx) private view {\n    require(tidx < _bridge_info.amount_token, \"OutOfBound: Token Index\");\n  }\n\n  /* Make sure token index is sain and return token uid */\n  function get_token_uid(uint128 tidx) private view returns (uint256){\n    token_index_check(tidx);\n    return _tokens[tidx].token_uid;\n  }\n\n  function ensure_admin() private view {\n    require(_bridge_info.owner == msg.sender, \"Authority: Require Admin\");\n  }\n\n  function getBridgeInfo() public view returns (BridgeInfo memory) {\n    return _bridge_info;\n  }\n\n  function addToken(uint256 token) public returns (uint32) {\n    //ensure_admin();\n    uint32 cursor = uint32(_tokens.length);\n    _tokens.push(TokenInfo(token));\n    _bridge_info.amount_token = cursor + 1;\n    require(_tmap[token] == false, \"AddToken: Token Already Exist\");\n    if (token != 0) {\n        _tmap[token] = true;\n    }\n    return cursor;\n  }\n\n  function getToken(uint128 tidx) public view returns (TokenInfo memory) {\n    token_index_check(tidx);\n    return _tokens[tidx];\n  }\n\n  function allTokens() public view returns (TokenInfo[] memory) {\n    return _tokens;\n  }\n\n  function _withdraw(uint128 tidx, uint128 amount, uint256 l1recipent) public {\n    uint256 tokenid = get_token_uid(tidx);\n    if (_is_local(tokenid) && _is_local(l1recipent)) {\n      address token = address(uint160(tokenid));\n      address recipent = address(uint160(l1recipent));\n\n      // Sanitity checks\n      require(recipent!= address(0), \"Withdraw to the zero address\");\n\n      // transfer amount back to recipent\n      IERC20 underlying_token = IERC20(token);\n      underlying_token.transfer(recipent, amount);\n    }\n  }\n\n  function addTransaction(address txaddr) public returns (uint) {\n    ensure_admin();\n    uint cursor = transactions.length;\n    transactions.push(Transaction(txaddr));\n    return cursor;\n  }\n\n  function addVerifier(address vaddr) public returns (uint) {\n    ensure_admin();\n    uint cursor = verifiers.length;\n    verifiers.push(DelphinusVerifier(vaddr));\n    return cursor;\n  }\n\n\n  function _get_transaction(uint256 call_info) private view returns(Transaction) {\n    bytes memory info = abi.encodePacked(call_info);\n    require(transactions.length > uint8(info[31]), \"Call Info index out of bound\");\n    return transactions[uint8(info[31])];\n  }\n\n  function _get_verifier(uint256 call_info) private view returns(DelphinusVerifier) {\n    bytes memory info = abi.encodePacked(call_info);\n    require(verifiers.length > uint8(info[31]), \"Call Info index out of bound\");\n    return verifiers[uint8(info[31])];\n  }\n\n  /* encode the l1 address into token_uid */\n  function _l1_address(address account) private view returns (uint256) {\n    return (uint256(uint160(account))) + (uint256(_bridge_info.chain_id) << 160);\n  }\n\n  function _is_local(uint256 l1address) private view returns (bool) {\n    return ((l1address >> 160) == (uint256(_bridge_info.chain_id)));\n  }\n\n  function _get_delta_code(uint256 call_info) private pure returns(uint8) {\n    bytes memory info = abi.encodePacked(call_info);\n    return uint8(info[0]);\n  }\n\n\n  function deposit(address token, uint256 amount, uint256 l2account) public {\n    IERC20 underlying_token = IERC20(token);\n    uint256 token_uid = _l1_address(token);\n    require(_tmap[token_uid] == true, \"Deposit: Untracked Token\");\n    uint256 balance = underlying_token.balanceOf(msg.sender);\n    require(balance >= amount, \"Insuffecient Balance\");\n    underlying_token.transferFrom(msg.sender, address(this), amount);\n    _nonce[l2account] += 1;\n    emit Deposit(_l1_address(token), l2account, amount , _nonce[l2account]);\n  }\n\n  function nonceOf(uint256 l2account) public view returns(uint256) {\n    return _nonce[l2account];\n  }\n\n  /*\n   * @dev side effect encoded in the update function\n   * deltas = [| opcode; args |]\n   */\n  function _update_state(uint256[] memory deltas) private {\n    uint cursor = 0;\n    while (cursor < deltas.length) {\n      uint delta_code = deltas[cursor];\n      if (delta_code == _WITHDRAW) {\n        require(deltas.length >= cursor + 4, \"Withdraw: Insufficient arg number\");\n        _withdraw(uint128(deltas[cursor+1]), uint128(deltas[cursor+2]), deltas[cursor+3]);\n        cursor = cursor + 4;\n      } else {\n        revert(\"SideEffect: UnknownSideEffectCode\");\n      }\n    }\n  }\n\n  /*\n   * @dev Data encodes the delta functions with there verification in reverse order\n   * data = opcode args; opcode' args'; ....\n   */\n  function verify(uint256 l2account,\n      uint256[] memory tx_data,\n      uint256[] memory verify_data, // [8]: old root, [9]: new root, [10]: sha_low, [11]: sha_high\n      uint256 vid,\n      uint256 nonce,\n      uint256 rid\n    ) public {\n    //require(_nonce[l2account] == nonce, \"Verify: Nonce does not match!\");\n    require (tx_data.length != 0, \"Verify: Insufficient delta operations\");\n    require (_bridge_info.rid == rid-1, \"Verify: Unexpected Request Id\");\n    _bridge_info.rid += 1;\n    uint256 merkle_root = _bridge_info.merkle_root;\n    uint256 sha_pack = uint256(sha256(abi.encodePacked(uint256(0), tx_data)));\n\n    uint256 new_merkle_root = verify_data[11];\n    require(merkle_root == verify_data[10], \"Inconstant: Merkle root dismatch\");\n    require(sha_pack == (verify_data[8] << 128) + verify_data[9], \"Inconstant: Sha data inconsistant\");\n\n    /* Perform zksnark check */\n    DelphinusVerifier verifier = _get_verifier(vid);\n    bool v = verifier.verifyDelphinusTx(verify_data);\n    require(v == true, \"ZKVerify: zksnark check failed\");\n\n    /* Perform transactions (withdraw ...) and update merkle root */\n    uint cursor = 0;\n    while (cursor < tx_data.length) {\n      uint256 op_code = tx_data[cursor];\n      cursor += 1;\n      Transaction transaction = _get_transaction(op_code);\n      uint256[] memory update = transaction.sideEffect(tx_data, cursor);\n      _update_state(update);\n      cursor += _TX_NUM_ARGS;\n    }\n    _bridge_info.merkle_root = new_merkle_root;\n    emit SwapAck(l2account, rid);\n  }\n\n}\n",
  "sourcePath": "/home/xgao/delphinus-lerna/packages/solidity/contracts/Bridge.sol",
  "compiler": {
    "name": "solc",
    "version": "0.8.9+commit.e5eed63a.Linux.g++"
  },
  "schemaVersion": "3.4.3",
  "updatedAt": "2021-11-08T10:20:42.021Z",
  "networkType": "ethereum",
  "devdoc": {
    "kind": "dev",
    "methods": {},
    "version": 1
  },
  "userdoc": {
    "kind": "user",
    "methods": {},
    "version": 1
  }
}