{
  "contractName": "Bridge",
  "abi": [
    {
      "inputs": [
        {
          "internalType": "uint32",
          "name": "chain_id",
          "type": "uint32"
        }
      ],
      "stateMutability": "nonpayable",
      "type": "constructor"
    },
    {
      "anonymous": false,
      "inputs": [
        {
          "indexed": false,
          "internalType": "uint256",
          "name": "l1token",
          "type": "uint256"
        },
        {
          "indexed": false,
          "internalType": "uint256",
          "name": "l2account",
          "type": "uint256"
        },
        {
          "indexed": false,
          "internalType": "uint256",
          "name": "amount",
          "type": "uint256"
        }
      ],
      "name": "Deposit",
      "type": "event"
    },
    {
      "anonymous": false,
      "inputs": [
        {
          "indexed": false,
          "internalType": "uint256",
          "name": "rid",
          "type": "uint256"
        },
        {
          "indexed": false,
          "internalType": "uint256",
          "name": "l2account",
          "type": "uint256"
        }
      ],
      "name": "SwapAck",
      "type": "event"
    },
    {
      "anonymous": false,
      "inputs": [
        {
          "indexed": false,
          "internalType": "uint256",
          "name": "l1account",
          "type": "uint256"
        },
        {
          "indexed": false,
          "internalType": "uint256",
          "name": "l2account",
          "type": "uint256"
        },
        {
          "indexed": false,
          "internalType": "uint256",
          "name": "amount",
          "type": "uint256"
        }
      ],
      "name": "WithDraw",
      "type": "event"
    },
    {
      "inputs": [],
      "name": "getBridgeInfo",
      "outputs": [
        {
          "components": [
            {
              "internalType": "uint128",
              "name": "chain_id",
              "type": "uint128"
            },
            {
              "internalType": "uint32",
              "name": "amount_token",
              "type": "uint32"
            },
            {
              "internalType": "uint32",
              "name": "amount_pool",
              "type": "uint32"
            },
            {
              "internalType": "address",
              "name": "owner",
              "type": "address"
            },
            {
              "internalType": "uint256",
              "name": "merkle_root",
              "type": "uint256"
            },
            {
              "internalType": "uint256",
              "name": "rid",
              "type": "uint256"
            }
          ],
          "internalType": "struct BridgeInfo",
          "name": "",
          "type": "tuple"
        }
      ],
      "stateMutability": "view",
      "type": "function",
      "constant": true
    },
    {
      "inputs": [
        {
          "internalType": "uint256",
          "name": "token",
          "type": "uint256"
        }
      ],
      "name": "addToken",
      "outputs": [
        {
          "internalType": "uint32",
          "name": "",
          "type": "uint32"
        }
      ],
      "stateMutability": "nonpayable",
      "type": "function"
    },
    {
      "inputs": [],
      "name": "allTokens",
      "outputs": [
        {
          "components": [
            {
              "internalType": "uint256",
              "name": "token_uid",
              "type": "uint256"
            }
          ],
          "internalType": "struct TokenInfo[]",
          "name": "",
          "type": "tuple[]"
        }
      ],
      "stateMutability": "view",
      "type": "function",
      "constant": true
    },
    {
      "inputs": [
        {
          "internalType": "uint128",
          "name": "tidx",
          "type": "uint128"
        },
        {
          "internalType": "uint128",
          "name": "amount",
          "type": "uint128"
        },
        {
          "internalType": "uint256",
          "name": "l1recipent",
          "type": "uint256"
        }
      ],
      "name": "_withdraw",
      "outputs": [],
      "stateMutability": "nonpayable",
      "type": "function"
    },
    {
      "inputs": [
        {
          "internalType": "address",
          "name": "txaddr",
          "type": "address"
        },
        {
          "internalType": "bool",
          "name": "sideEffect",
          "type": "bool"
        }
      ],
      "name": "addTransaction",
      "outputs": [
        {
          "internalType": "uint256",
          "name": "",
          "type": "uint256"
        }
      ],
      "stateMutability": "nonpayable",
      "type": "function"
    },
    {
      "inputs": [
        {
          "internalType": "address",
          "name": "vaddr",
          "type": "address"
        }
      ],
      "name": "addVerifier",
      "outputs": [
        {
          "internalType": "uint256",
          "name": "",
          "type": "uint256"
        }
      ],
      "stateMutability": "nonpayable",
      "type": "function"
    },
    {
      "inputs": [
        {
          "internalType": "address",
          "name": "token",
          "type": "address"
        },
        {
          "internalType": "uint256",
          "name": "amount",
          "type": "uint256"
        },
        {
          "internalType": "uint256",
          "name": "l2account",
          "type": "uint256"
        }
      ],
      "name": "deposit",
      "outputs": [],
      "stateMutability": "nonpayable",
      "type": "function"
    },
    {
      "inputs": [
        {
          "internalType": "bytes",
          "name": "tx_data",
          "type": "bytes"
        },
        {
          "internalType": "uint256[]",
          "name": "verify_data",
          "type": "uint256[]"
        },
        {
          "internalType": "uint8",
          "name": "_vid",
          "type": "uint8"
        },
        {
          "internalType": "uint256",
          "name": "_rid",
          "type": "uint256"
        }
      ],
      "name": "verify",
      "outputs": [],
      "stateMutability": "nonpayable",
      "type": "function"
    }
  ],
  "bytecode": "0x60806040523480156200001157600080fd5b5060405162002a8738038062002a87833981810160405281019062000037919062000139565b8063ffffffff16600360000160006101000a8154816fffffffffffffffffffffffffffffffff02191690836fffffffffffffffffffffffffffffffff16021790555033600360010160006101000a81548173ffffffffffffffffffffffffffffffffffffffff021916908373ffffffffffffffffffffffffffffffffffffffff1602179055507f151399c724e17408a7a43cdadba2fc000da9339c56e4d49c6cdee6c4356fbc68600a819055506000600b81905550506200016b565b600080fd5b600063ffffffff82169050919050565b6200011381620000f8565b81146200011f57600080fd5b50565b600081519050620001338162000108565b92915050565b600060208284031215620001525762000151620000f3565b5b6000620001628482850162000122565b91505092915050565b61290c806200017b6000396000f3fe608060405234801561001057600080fd5b50600436106100885760003560e01c80639000b3d61161005b5780639000b3d614610127578063a4b93e3814610157578063bcb8afc514610173578063ede7cebd1461018f57610088565b80630efe6a8b1461008d578063179d375c146100a95780634e5ca59e146100d95780636ff97f1d14610109575b600080fd5b6100a760048036038101906100a29190611509565b6101ad565b005b6100c360048036038101906100be919061155c565b61033e565b6040516100d091906115a8565b60405180910390f35b6100f360048036038101906100ee91906115fb565b610460565b604051610100919061164a565b60405180910390f35b61011161055b565b60405161011e919061173f565b60405180910390f35b610141600480360381019061013c9190611761565b6105c0565b60405161014e919061164a565b60405180910390f35b610171600480360381019061016c9190611882565b610688565b005b61018d60048036038101906101889190611971565b610b2b565b005b610197610bfc565b6040516101a49190611a6c565b60405180910390f35b600083905060006101bd85610cde565b9050600115156007600083815260200190815260200160002060009054906101000a900460ff16151514610226576040517f08c379a000000000000000000000000000000000000000000000000000000000815260040161021d90611ae4565b60405180910390fd5b60008273ffffffffffffffffffffffffffffffffffffffff166370a08231336040518263ffffffff1660e01b81526004016102619190611b13565b602060405180830381865afa15801561027e573d6000803e3d6000fd5b505050506040513d601f19601f820116820180604052508101906102a29190611b43565b9050848110156102e7576040517f08c379a00000000000000000000000000000000000000000000000000000000081526004016102de90611bbc565b60405180910390fd5b6102f383333088610d40565b7f33da4f9b82b3e18a281ca2cabbe2f076925692abb593b7ea3f850009e8ec977061031d87610cde565b858760405161032e93929190611bdc565b60405180910390a1505050505050565b60008060008054905090506000604051806020016040528085815250908060018154018082558091505060019003906000526020600020016000909190919091506000820151816000015550506001816103989190611c42565b600360000160106101000a81548163ffffffff021916908363ffffffff160217905550600015156007600085815260200190815260200160002060009054906101000a900460ff16151514610422576040517f08c379a000000000000000000000000000000000000000000000000000000000815260040161041990611cc6565b60405180910390fd5b600083146104575760016007600085815260200190815260200160002060006101000a81548160ff0219169083151502179055505b80915050919050565b600061046a610e98565b6000600180549050905060ff600180549050106104bc576040517f08c379a00000000000000000000000000000000000000000000000000000000081526004016104b390611d32565b60405180910390fd5b6001849080600181540180825580915050600190039060005260206000200160009091909190916101000a81548173ffffffffffffffffffffffffffffffffffffffff021916908373ffffffffffffffffffffffffffffffffffffffff160217905550821561055157826009600083815260200190815260200160002060006101000a81548160ff0219169083151502179055505b8091505092915050565b60606000805480602002602001604051908101604052809291908181526020016000905b828210156105b7578382906000526020600020016040518060200160405290816000820154815250508152602001906001019061057f565b50505050905090565b60006105ca610e98565b6000600280549050905060ff6002805490501061061c576040517f08c379a000000000000000000000000000000000000000000000000000000000815260040161061390611d9e565b60405180910390fd5b6002839080600181540180825580915050600190039060005260206000200160009091909190916101000a81548173ffffffffffffffffffffffffffffffffffffffff021916908373ffffffffffffffffffffffffffffffffffffffff16021790555080915050919050565b80600b54146106cc576040517f08c379a00000000000000000000000000000000000000000000000000000000081526004016106c390611e0a565b60405180910390fd5b600a60516106da9190611e2a565b868690501461071e576040517f08c379a000000000000000000000000000000000000000000000000000000000815260040161071590611ede565b60405180910390fd5b600060028787604051610732929190611f3d565b602060405180830381855afa15801561074f573d6000803e3d6000fd5b5050506040513d601f19601f820116820180604052508101906107729190611f8c565b60001c90508484600981811061078b5761078a611fb9565b5b905060200201356080868660088181106107a8576107a7611fb9565b5b90506020020135901b6107bb9190611fe8565b81146107fc576040517f08c379a00000000000000000000000000000000000000000000000000000000081526004016107f39061208e565b60405180910390fd5b8484600a8181106108105761080f611fb9565b5b90506020020135600a541461085a576040517f08c379a0000000000000000000000000000000000000000000000000000000008152600401610851906120fa565b60405180910390fd5b600061086584610f2d565b905060008173ffffffffffffffffffffffffffffffffffffffff1663b91b0b8388886040518363ffffffff1660e01b81526004016108a4929190612195565b6020604051808303816000875af11580156108c3573d6000803e3d6000fd5b505050506040513d601f19601f820116820180604052508101906108e791906121ce565b90506001151581151514610930576040517f08c379a000000000000000000000000000000000000000000000000000000000815260040161092790612247565b60405180910390fd5b60005b600a811015610aab5760008a8a60518461094d9190611e2a565b81811061095d5761095c611fb9565b5b9050013560f81c60f81b60f81c90508060ff16600180549050116109b6576040517f08c379a00000000000000000000000000000000000000000000000000000000081526004016109ad90611d32565b60405180910390fd5b600960008260ff16815260200190815260200160002060009054906101000a900460ff1615610a975760006109ea82610fc2565b905060008173ffffffffffffffffffffffffffffffffffffffff16634ab51c038e8e6001605189610a1b9190611e2a565b610a259190611fe8565b6040518463ffffffff1660e01b8152600401610a43939291906122b6565b600060405180830381865afa158015610a60573d6000803e3d6000fd5b505050506040513d6000823e3d601f19601f82011682018060405250810190610a899190612426565b9050610a9481611057565b50505b508080610aa39061246f565b915050610933565b5060008787600b818110610ac257610ac1611fb9565b5b90506020020135905080600a81905550600a85610adf9190611fe8565b600b819055507fbd839b7672235005c35f9c18d40fb67d8a10ebe332a815c4c2f1d1cd5a52b421856000604051610b179291906124fc565b60405180910390a150505050505050505050565b6000610b36846111b3565b9050610b418161125f565b8015610b525750610b518261125f565b5b15610bf65760008190506000839050600073ffffffffffffffffffffffffffffffffffffffff168173ffffffffffffffffffffffffffffffffffffffff1603610bd0576040517f08c379a0000000000000000000000000000000000000000000000000000000008152600401610bc790612571565b60405180910390fd5b6000829050610bf28183886fffffffffffffffffffffffffffffffff166112a2565b5050505b50505050565b610c046113f7565b6040518060c00160405280600360000160009054906101000a90046fffffffffffffffffffffffffffffffff166fffffffffffffffffffffffffffffffff168152602001600360000160109054906101000a900463ffffffff1663ffffffff168152602001600360000160149054906101000a900463ffffffff1663ffffffff168152602001600360010160009054906101000a900473ffffffffffffffffffffffffffffffffffffffff1673ffffffffffffffffffffffffffffffffffffffff168152602001600a548152602001600b54815250905090565b600060a0600360000160009054906101000a90046fffffffffffffffffffffffffffffffff166fffffffffffffffffffffffffffffffff16901b8273ffffffffffffffffffffffffffffffffffffffff16610d399190611fe8565b9050919050565b6000808573ffffffffffffffffffffffffffffffffffffffff166323b872dd60e01b868686604051602401610d7793929190612591565b604051602081830303815290604052907bffffffffffffffffffffffffffffffffffffffffffffffffffffffff19166020820180517bffffffffffffffffffffffffffffffffffffffffffffffffffffffff8381831617835250505050604051610de1919061262e565b6000604051808303816000865af19150503d8060008114610e1e576040519150601f19603f3d011682016040523d82523d6000602084013e610e23565b606091505b5091509150818015610e515750600081511480610e50575080806020019051810190610e4f91906121ce565b5b5b610e90576040517f08c379a0000000000000000000000000000000000000000000000000000000008152600401610e8790612691565b60405180910390fd5b505050505050565b3373ffffffffffffffffffffffffffffffffffffffff16600360010160009054906101000a900473ffffffffffffffffffffffffffffffffffffffff1673ffffffffffffffffffffffffffffffffffffffff1614610f2b576040517f08c379a0000000000000000000000000000000000000000000000000000000008152600401610f22906126fd565b60405180910390fd5b565b60008160ff1660028054905011610f79576040517f08c379a0000000000000000000000000000000000000000000000000000000008152600401610f7090611d9e565b60405180910390fd5b60028260ff1681548110610f9057610f8f611fb9565b5b9060005260206000200160009054906101000a900473ffffffffffffffffffffffffffffffffffffffff169050919050565b60008160ff166001805490501161100e576040517f08c379a000000000000000000000000000000000000000000000000000000000815260040161100590611d32565b60405180910390fd5b60018260ff168154811061102557611024611fb9565b5b9060005260206000200160009054906101000a900473ffffffffffffffffffffffffffffffffffffffff169050919050565b60005b81518110156111af57600082828151811061107857611077611fb9565b5b60200260200101519050600160ff16810361116e5760048261109a9190611fe8565b835110156110dd576040517f08c379a00000000000000000000000000000000000000000000000000000000081526004016110d49061278f565b60405180910390fd5b61115a836001846110ee9190611fe8565b815181106110ff576110fe611fb9565b5b6020026020010151846002856111159190611fe8565b8151811061112657611125611fb9565b5b60200260200101518560038661113c9190611fe8565b8151811061114d5761114c611fb9565b5b6020026020010151610b2b565b6004826111679190611fe8565b91506111a9565b6040517f08c379a00000000000000000000000000000000000000000000000000000000081526004016111a090612821565b60405180910390fd5b5061105a565b5050565b6000600360000160109054906101000a900463ffffffff1663ffffffff16826fffffffffffffffffffffffffffffffff1610611224576040517f08c379a000000000000000000000000000000000000000000000000000000000815260040161121b9061288d565b60405180910390fd5b6000826fffffffffffffffffffffffffffffffff168154811061124a57611249611fb9565b5b90600052602060002001600001549050919050565b6000600360000160009054906101000a90046fffffffffffffffffffffffffffffffff166fffffffffffffffffffffffffffffffff1660a083901c149050919050565b6000808473ffffffffffffffffffffffffffffffffffffffff1663a9059cbb60e01b85856040516024016112d79291906128ad565b604051602081830303815290604052907bffffffffffffffffffffffffffffffffffffffffffffffffffffffff19166020820180517bffffffffffffffffffffffffffffffffffffffffffffffffffffffff8381831617835250505050604051611341919061262e565b6000604051808303816000865af19150503d806000811461137e576040519150601f19603f3d011682016040523d82523d6000602084013e611383565b606091505b50915091508180156113b157506000815114806113b05750808060200190518101906113af91906121ce565b5b5b6113f0576040517f08c379a00000000000000000000000000000000000000000000000000000000081526004016113e790612691565b60405180910390fd5b5050505050565b6040518060c0016040528060006fffffffffffffffffffffffffffffffff168152602001600063ffffffff168152602001600063ffffffff168152602001600073ffffffffffffffffffffffffffffffffffffffff16815260200160008152602001600081525090565b6000604051905090565b600080fd5b600080fd5b600073ffffffffffffffffffffffffffffffffffffffff82169050919050565b60006114a082611475565b9050919050565b6114b081611495565b81146114bb57600080fd5b50565b6000813590506114cd816114a7565b92915050565b6000819050919050565b6114e6816114d3565b81146114f157600080fd5b50565b600081359050611503816114dd565b92915050565b6000806000606084860312156115225761152161146b565b5b6000611530868287016114be565b9350506020611541868287016114f4565b9250506040611552868287016114f4565b9150509250925092565b6000602082840312156115725761157161146b565b5b6000611580848285016114f4565b91505092915050565b600063ffffffff82169050919050565b6115a281611589565b82525050565b60006020820190506115bd6000830184611599565b92915050565b60008115159050919050565b6115d8816115c3565b81146115e357600080fd5b50565b6000813590506115f5816115cf565b92915050565b600080604083850312156116125761161161146b565b5b6000611620858286016114be565b9250506020611631858286016115e6565b9150509250929050565b611644816114d3565b82525050565b600060208201905061165f600083018461163b565b92915050565b600081519050919050565b600082825260208201905092915050565b6000819050602082019050919050565b61169a816114d3565b82525050565b6020820160008201516116b66000850182611691565b50505050565b60006116c883836116a0565b60208301905092915050565b6000602082019050919050565b60006116ec82611665565b6116f68185611670565b935061170183611681565b8060005b8381101561173257815161171988826116bc565b9750611724836116d4565b925050600181019050611705565b5085935050505092915050565b6000602082019050818103600083015261175981846116e1565b905092915050565b6000602082840312156117775761177661146b565b5b6000611785848285016114be565b91505092915050565b600080fd5b600080fd5b600080fd5b60008083601f8401126117b3576117b261178e565b5b8235905067ffffffffffffffff8111156117d0576117cf611793565b5b6020830191508360018202830111156117ec576117eb611798565b5b9250929050565b60008083601f8401126118095761180861178e565b5b8235905067ffffffffffffffff81111561182657611825611793565b5b60208301915083602082028301111561184257611841611798565b5b9250929050565b600060ff82169050919050565b61185f81611849565b811461186a57600080fd5b50565b60008135905061187c81611856565b92915050565b6000806000806000806080878903121561189f5761189e61146b565b5b600087013567ffffffffffffffff8111156118bd576118bc611470565b5b6118c989828a0161179d565b9650965050602087013567ffffffffffffffff8111156118ec576118eb611470565b5b6118f889828a016117f3565b9450945050604061190b89828a0161186d565b925050606061191c89828a016114f4565b9150509295509295509295565b60006fffffffffffffffffffffffffffffffff82169050919050565b61194e81611929565b811461195957600080fd5b50565b60008135905061196b81611945565b92915050565b60008060006060848603121561198a5761198961146b565b5b60006119988682870161195c565b93505060206119a98682870161195c565b92505060406119ba868287016114f4565b9150509250925092565b6119cd81611929565b82525050565b6119dc81611589565b82525050565b6119eb81611495565b82525050565b60c082016000820151611a0760008501826119c4565b506020820151611a1a60208501826119d3565b506040820151611a2d60408501826119d3565b506060820151611a4060608501826119e2565b506080820151611a536080850182611691565b5060a0820151611a6660a0850182611691565b50505050565b600060c082019050611a8160008301846119f1565b92915050565b600082825260208201905092915050565b7f4465706f7369743a20556e747261636b656420546f6b656e0000000000000000600082015250565b6000611ace601883611a87565b9150611ad982611a98565b602082019050919050565b60006020820190508181036000830152611afd81611ac1565b9050919050565b611b0d81611495565b82525050565b6000602082019050611b286000830184611b04565b92915050565b600081519050611b3d816114dd565b92915050565b600060208284031215611b5957611b5861146b565b5b6000611b6784828501611b2e565b91505092915050565b7f496e73756666696369656e742042616c616e6365000000000000000000000000600082015250565b6000611ba6601483611a87565b9150611bb182611b70565b602082019050919050565b60006020820190508181036000830152611bd581611b99565b9050919050565b6000606082019050611bf1600083018661163b565b611bfe602083018561163b565b611c0b604083018461163b565b949350505050565b7f4e487b7100000000000000000000000000000000000000000000000000000000600052601160045260246000fd5b6000611c4d82611589565b9150611c5883611589565b9250828201905063ffffffff811115611c7457611c73611c13565b5b92915050565b7f416464546f6b656e3a20546f6b656e20416c7265616479204578697374000000600082015250565b6000611cb0601d83611a87565b9150611cbb82611c7a565b602082019050919050565b60006020820190508181036000830152611cdf81611ca3565b9050919050565b7f545820696e646578206f7574206f6620626f756e640000000000000000000000600082015250565b6000611d1c601583611a87565b9150611d2782611ce6565b602082019050919050565b60006020820190508181036000830152611d4b81611d0f565b9050919050565b7f566572696669657220696e646578206f7574206f6620626f756e640000000000600082015250565b6000611d88601b83611a87565b9150611d9382611d52565b602082019050919050565b60006020820190508181036000830152611db781611d7b565b9050919050565b7f5665726966793a20556e65787065637465642052657175657374204964000000600082015250565b6000611df4601d83611a87565b9150611dff82611dbe565b602082019050919050565b60006020820190508181036000830152611e2381611de7565b9050919050565b6000611e35826114d3565b9150611e40836114d3565b9250828202611e4e816114d3565b91508282048414831517611e6557611e64611c13565b5b5092915050565b7f5665726966793a20496e73756666696369656e742064656c7461206f7065726160008201527f74696f6e73000000000000000000000000000000000000000000000000000000602082015250565b6000611ec8602583611a87565b9150611ed382611e6c565b604082019050919050565b60006020820190508181036000830152611ef781611ebb565b9050919050565b600081905092915050565b82818337600083830152505050565b6000611f248385611efe565b9350611f31838584611f09565b82840190509392505050565b6000611f4a828486611f18565b91508190509392505050565b6000819050919050565b611f6981611f56565b8114611f7457600080fd5b50565b600081519050611f8681611f60565b92915050565b600060208284031215611fa257611fa161146b565b5b6000611fb084828501611f77565b91505092915050565b7f4e487b7100000000000000000000000000000000000000000000000000000000600052603260045260246000fd5b6000611ff3826114d3565b9150611ffe836114d3565b925082820190508082111561201657612015611c13565b5b92915050565b7f496e636f6e7374616e743a20536861206461746120696e636f6e73697374616e60008201527f7400000000000000000000000000000000000000000000000000000000000000602082015250565b6000612078602183611a87565b91506120838261201c565b604082019050919050565b600060208201905081810360008301526120a78161206b565b9050919050565b7f496e636f6e7374616e743a204d65726b6c6520726f6f74206469736d61746368600082015250565b60006120e4602083611a87565b91506120ef826120ae565b602082019050919050565b60006020820190508181036000830152612113816120d7565b9050919050565b600082825260208201905092915050565b600080fd5b82818337505050565b6000612145838561211a565b93507f07ffffffffffffffffffffffffffffffffffffffffffffffffffffffffffffff8311156121785761217761212b565b5b602083029250612189838584612130565b82840190509392505050565b600060208201905081810360008301526121b0818486612139565b90509392505050565b6000815190506121c8816115cf565b92915050565b6000602082840312156121e4576121e361146b565b5b60006121f2848285016121b9565b91505092915050565b7f5a4b5665726966793a207a6b736e61726b20636865636b206661696c65640000600082015250565b6000612231601e83611a87565b915061223c826121fb565b602082019050919050565b6000602082019050818103600083015261226081612224565b9050919050565b600082825260208201905092915050565b6000601f19601f8301169050919050565b60006122958385612267565b93506122a2838584611f09565b6122ab83612278565b840190509392505050565b600060408201905081810360008301526122d1818587612289565b90506122e0602083018461163b565b949350505050565b7f4e487b7100000000000000000000000000000000000000000000000000000000600052604160045260246000fd5b61232082612278565b810181811067ffffffffffffffff8211171561233f5761233e6122e8565b5b80604052505050565b6000612352611461565b905061235e8282612317565b919050565b600067ffffffffffffffff82111561237e5761237d6122e8565b5b602082029050602081019050919050565b60006123a261239d84612363565b612348565b905080838252602082019050602084028301858111156123c5576123c4611798565b5b835b818110156123ee57806123da8882611b2e565b8452602084019350506020810190506123c7565b5050509392505050565b600082601f83011261240d5761240c61178e565b5b815161241d84826020860161238f565b91505092915050565b60006020828403121561243c5761243b61146b565b5b600082015167ffffffffffffffff81111561245a57612459611470565b5b612466848285016123f8565b91505092915050565b600061247a826114d3565b91507fffffffffffffffffffffffffffffffffffffffffffffffffffffffffffffffff82036124ac576124ab611c13565b5b600182019050919050565b6000819050919050565b6000819050919050565b60006124e66124e16124dc846124b7565b6124c1565b6114d3565b9050919050565b6124f6816124cb565b82525050565b6000604082019050612511600083018561163b565b61251e60208301846124ed565b9392505050565b7f576974686472617720746f20746865207a65726f206164647265737300000000600082015250565b600061255b601c83611a87565b915061256682612525565b602082019050919050565b6000602082019050818103600083015261258a8161254e565b9050919050565b60006060820190506125a66000830186611b04565b6125b36020830185611b04565b6125c0604083018461163b565b949350505050565b600081519050919050565b60005b838110156125f15780820151818401526020810190506125d6565b60008484015250505050565b6000612608826125c8565b6126128185611efe565b93506126228185602086016125d3565b80840191505092915050565b600061263a82846125fd565b915081905092915050565b7f5446000000000000000000000000000000000000000000000000000000000000600082015250565b600061267b600283611a87565b915061268682612645565b602082019050919050565b600060208201905081810360008301526126aa8161266e565b9050919050565b7f417574686f726974793a20526571756972652041646d696e0000000000000000600082015250565b60006126e7601883611a87565b91506126f2826126b1565b602082019050919050565b60006020820190508181036000830152612716816126da565b9050919050565b7f57697468647261773a20496e73756666696369656e7420617267206e756d626560008201527f7200000000000000000000000000000000000000000000000000000000000000602082015250565b6000612779602183611a87565b91506127848261271d565b604082019050919050565b600060208201905081810360008301526127a88161276c565b9050919050565b7f536964654566666563743a20556e6b6e6f776e53696465456666656374436f6460008201527f6500000000000000000000000000000000000000000000000000000000000000602082015250565b600061280b602183611a87565b9150612816826127af565b604082019050919050565b6000602082019050818103600083015261283a816127fe565b9050919050565b7f4f75744f66426f756e643a20546f6b656e20496e646578000000000000000000600082015250565b6000612877601783611a87565b915061288282612841565b602082019050919050565b600060208201905081810360008301526128a68161286a565b9050919050565b60006040820190506128c26000830185611b04565b6128cf602083018461163b565b939250505056fea2646970667358221220bbd3936cb045f6ddb8e06b026ecb394dbf2c060dda54b8116db3432af719b01564736f6c63430008110033",
  "immutableReferences": {},
  "source": "// SPDX-License-Identifier: UNLICENSED\npragma solidity ^0.8.0;\nimport \"@openzeppelin/contracts/token/ERC20/ERC20.sol\";\nimport \"./Verifier.sol\";\nimport \"./Transaction.sol\";\nimport \"./DelphinusBridge.sol\";\nimport \"./MKT.sol\";\nimport \"./TransferHelper.sol\";\n\ncontract Bridge is DelphinusBridge {\n    event Deposit(uint256 l1token, uint256 l2account, uint256 amount);\n    event WithDraw(uint256 l1account, uint256 l2account, uint256 amount);\n    event SwapAck(uint256 rid, uint256 l2account);\n\n    TokenInfo[] private _tokens;\n    Transaction[] private transactions;\n    DelphinusVerifier[] private verifiers;\n    BridgeInfo _bridge_info;\n\n    mapping(uint256 => bool) private _tmap;\n    address private _owner;\n\n    mapping(uint256 => bool) private hasSideEffiect;\n    uint256 merkle_root;\n    uint256 rid;\n\n    constructor(uint32 chain_id) {\n        _bridge_info.chain_id = chain_id;\n        _bridge_info.owner = msg.sender;\n        merkle_root = 0x151399c724e17408a7a43cdadba2fc000da9339c56e4d49c6cdee6c4356fbc68;\n        rid = 0;\n    }\n\n    /* Make sure token index is sain and return token uid */\n    function get_token_uid(uint128 tidx) private view returns (uint256) {\n        require(tidx < _bridge_info.amount_token, \"OutOfBound: Token Index\");\n        return _tokens[tidx].token_uid;\n    }\n\n    function ensure_admin() private view {\n        require(_bridge_info.owner == msg.sender, \"Authority: Require Admin\");\n    }\n\n    function getBridgeInfo() public view returns (BridgeInfo memory) {\n        return\n            BridgeInfo(\n                _bridge_info.chain_id,\n                _bridge_info.amount_token,\n                _bridge_info.amount_pool,\n                _bridge_info.owner,\n                merkle_root,\n                rid\n            );\n    }\n\n    function addToken(uint256 token) public returns (uint32) {\n        //ensure_admin();\n        uint32 cursor = uint32(_tokens.length);\n        _tokens.push(TokenInfo(token));\n        _bridge_info.amount_token = cursor + 1;\n        require(_tmap[token] == false, \"AddToken: Token Already Exist\");\n        if (token != 0) {\n            _tmap[token] = true;\n        }\n        return cursor;\n    }\n\n    function allTokens() public view returns (TokenInfo[] memory) {\n        return _tokens;\n    }\n\n    function _withdraw(\n        uint128 tidx,\n        uint128 amount,\n        uint256 l1recipent\n    ) public {\n        uint256 tokenid = get_token_uid(tidx);\n        if (_is_local(tokenid) && _is_local(l1recipent)) {\n            address token = address(uint160(tokenid));\n            address recipent = address(uint160(l1recipent));\n\n            // Sanitity checks\n            require(recipent != address(0), \"Withdraw to the zero address\");\n\n            // transfer amount back to recipent\n            IERC20 underlying_token = IERC20(token);\n            //underlying_token.transfer(recipent, amount);\n            TransferHelper.safeTransfer(address(underlying_token), recipent, amount);\n        }\n    }\n\n    function addTransaction(address txaddr, bool sideEffect) public returns (uint256) {\n        ensure_admin();\n        uint256 cursor = transactions.length;\n        require(transactions.length < 255, \"TX index out of bound\");\n        transactions.push(Transaction(txaddr));\n        if (sideEffect) {\n          hasSideEffiect[cursor] = sideEffect;\n        }\n        return cursor;\n    }\n\n    function addVerifier(address vaddr) public returns (uint256) {\n        ensure_admin();\n        uint256 cursor = verifiers.length;\n        require(verifiers.length < 255, \"Verifier index out of bound\");\n        verifiers.push(DelphinusVerifier(vaddr));\n        return cursor;\n    }\n\n    function _get_transaction(uint8 tid) private view returns (Transaction) {\n        require(transactions.length > tid, \"TX index out of bound\");\n        return transactions[tid];\n    }\n\n    function _get_verifier(uint8 vid) private view returns (DelphinusVerifier) {\n        require(verifiers.length > vid, \"Verifier index out of bound\");\n        return verifiers[vid];\n    }\n\n    /* encode the l1 address into token_uid */\n    function _l1_address(address account) private view returns (uint256) {\n        return\n            (uint256(uint160(account))) +\n            (uint256(_bridge_info.chain_id) << 160);\n    }\n\n    function _is_local(uint256 l1address) private view returns (bool) {\n        return ((l1address >> 160) == (uint256(_bridge_info.chain_id)));\n    }\n\n    function deposit(\n        address token,\n        uint256 amount,\n        uint256 l2account\n    ) public {\n        IERC20 underlying_token = IERC20(token);\n        uint256 token_uid = _l1_address(token);\n        require(_tmap[token_uid] == true, \"Deposit: Untracked Token\");\n        uint256 balance = underlying_token.balanceOf(msg.sender);\n        require(balance >= amount, \"Insufficient Balance\");\n        //underlying_token.transferFrom(msg.sender, address(this), amount); //USDT does not follow ERC20 interface so have to use other method\n        TransferHelper.safeTransferFrom(address(underlying_token), msg.sender, address(this), amount);\n        emit Deposit(_l1_address(token), l2account, amount);\n    }\n\n    /*\n     * @dev side effect encoded in the update function\n     * deltas = [| opcode; args |]\n     */\n    function _update_state(uint256[] memory deltas) private {\n        uint256 cursor = 0;\n        while (cursor < deltas.length) {\n            uint256 delta_code = deltas[cursor];\n            if (delta_code == _WITHDRAW) {\n                require(\n                    deltas.length >= cursor + 4,\n                    \"Withdraw: Insufficient arg number\"\n                );\n                _withdraw(\n                    uint128(deltas[cursor + 1]),\n                    uint128(deltas[cursor + 2]),\n                    deltas[cursor + 3]\n                );\n                cursor = cursor + 4;\n            } else {\n                revert(\"SideEffect: UnknownSideEffectCode\");\n            }\n        }\n    }\n\n    uint256 constant BATCH_SIZE = 10;\n    uint256 constant OP_SIZE = 81;\n\n    /*\n     * @dev Data encodes the delta functions with there verification in reverse order\n     * data = opcode args; opcode' args'; ....\n     */\n    function verify(\n        bytes calldata tx_data,\n        uint256[] calldata verify_data, // [8]: old root, [9]: new root, [10]: sha_low, [11]: sha_high\n        uint8 _vid,\n        uint256 _rid\n    ) public {\n        require(rid == _rid, \"Verify: Unexpected Request Id\");\n\n        require(\n            tx_data.length == OP_SIZE * BATCH_SIZE,\n            \"Verify: Insufficient delta operations\"\n        );\n\n        uint256 sha_pack = uint256(sha256(tx_data));\n        require(\n            sha_pack == (verify_data[8] << 128) + verify_data[9],\n            \"Inconstant: Sha data inconsistant\"\n        );\n\n        require(\n            merkle_root == verify_data[10],\n            \"Inconstant: Merkle root dismatch\"\n        );\n\n        DelphinusVerifier verifier = _get_verifier(_vid);\n        bool v = verifier.verifyDelphinusTx(verify_data);\n        require(v == true, \"ZKVerify: zksnark check failed\");\n\n        for (uint i = 0; i < BATCH_SIZE; i++) {\n            uint8 op_code = uint8(tx_data[i * OP_SIZE]);\n            require(transactions.length > op_code, \"TX index out of bound\");\n            if (hasSideEffiect[op_code]) {\n                Transaction transaction = _get_transaction(op_code);\n                uint256[] memory update = transaction.sideEffect(tx_data, i * OP_SIZE + 1);\n                _update_state(update);\n            }\n        }\n\n        uint256 new_merkle_root = verify_data[11];\n        merkle_root = new_merkle_root;\n        rid = _rid + BATCH_SIZE;\n\n        emit SwapAck(_rid, 0);\n    }\n}\n",
  "sourcePath": "/volume1/zkcross-backend-lerna/packages/solidity/contracts/Bridge.sol",
  "compiler": {
    "name": "solc",
    "version": "0.8.17+commit.8df45f5f.Linux.g++"
  },
  "schemaVersion": "3.4.11",
  "updatedAt": "2022-12-07T12:05:25.685Z",
  "networkType": "ethereum",
  "devdoc": {
    "kind": "dev",
    "methods": {
      "getBridgeInfo()": {
        "details": "snark verification stub"
      }
    },
    "version": 1
  },
  "userdoc": {
    "kind": "user",
    "methods": {},
    "version": 1
  }
}