{
  "contractName": "Bridge",
  "abi": [
    {
      "inputs": [
        {
          "internalType": "uint32",
          "name": "chain_id",
          "type": "uint32"
        }
      ],
      "stateMutability": "nonpayable",
      "type": "constructor"
    },
    {
      "anonymous": false,
      "inputs": [
        {
          "indexed": false,
          "internalType": "uint256",
          "name": "l1token",
          "type": "uint256"
        },
        {
          "indexed": false,
          "internalType": "uint256",
          "name": "l2account",
          "type": "uint256"
        },
        {
          "indexed": false,
          "internalType": "uint256",
          "name": "amount",
          "type": "uint256"
        },
        {
          "indexed": false,
          "internalType": "uint256",
          "name": "nonce",
          "type": "uint256"
        }
      ],
      "name": "Deposit",
      "type": "event"
    },
    {
      "anonymous": false,
      "inputs": [
        {
          "indexed": false,
          "internalType": "uint256",
          "name": "l2account",
          "type": "uint256"
        },
        {
          "indexed": false,
          "internalType": "uint256",
          "name": "rid",
          "type": "uint256"
        }
      ],
      "name": "SwapAck",
      "type": "event"
    },
    {
      "anonymous": false,
      "inputs": [
        {
          "indexed": false,
          "internalType": "uint256",
          "name": "l1account",
          "type": "uint256"
        },
        {
          "indexed": false,
          "internalType": "uint256",
          "name": "l2account",
          "type": "uint256"
        },
        {
          "indexed": false,
          "internalType": "uint256",
          "name": "amount",
          "type": "uint256"
        },
        {
          "indexed": false,
          "internalType": "uint256",
          "name": "nonce",
          "type": "uint256"
        }
      ],
      "name": "WithDraw",
      "type": "event"
    },
    {
      "inputs": [
        {
          "internalType": "uint256",
          "name": "token0",
          "type": "uint256"
        },
        {
          "internalType": "uint256",
          "name": "token1",
          "type": "uint256"
        }
      ],
      "name": "get_pool",
      "outputs": [
        {
          "components": [
            {
              "internalType": "uint256",
              "name": "token0",
              "type": "uint256"
            },
            {
              "internalType": "uint256",
              "name": "token1",
              "type": "uint256"
            },
            {
              "internalType": "uint256",
              "name": "l0",
              "type": "uint256"
            },
            {
              "internalType": "uint256",
              "name": "l1",
              "type": "uint256"
            }
          ],
          "internalType": "struct Bridge.PoolInfo",
          "name": "",
          "type": "tuple"
        }
      ],
      "stateMutability": "view",
      "type": "function",
      "constant": true
    },
    {
      "inputs": [
        {
          "internalType": "address",
          "name": "verifier",
          "type": "address"
        }
      ],
      "name": "add_verifier",
      "outputs": [
        {
          "internalType": "uint256",
          "name": "",
          "type": "uint256"
        }
      ],
      "stateMutability": "nonpayable",
      "type": "function"
    },
    {
      "inputs": [
        {
          "internalType": "uint256",
          "name": "tokenid",
          "type": "uint256"
        },
        {
          "internalType": "uint256",
          "name": "amount",
          "type": "uint256"
        },
        {
          "internalType": "uint256",
          "name": "l1recipent",
          "type": "uint256"
        }
      ],
      "name": "_withdraw",
      "outputs": [],
      "stateMutability": "nonpayable",
      "type": "function"
    },
    {
      "inputs": [
        {
          "internalType": "uint256",
          "name": "l2account",
          "type": "uint256"
        }
      ],
      "name": "nonceOf",
      "outputs": [
        {
          "internalType": "uint256",
          "name": "",
          "type": "uint256"
        }
      ],
      "stateMutability": "view",
      "type": "function",
      "constant": true
    },
    {
      "inputs": [
        {
          "internalType": "uint256",
          "name": "token1",
          "type": "uint256"
        },
        {
          "internalType": "uint256",
          "name": "token2",
          "type": "uint256"
        }
      ],
      "name": "createPool",
      "outputs": [
        {
          "internalType": "uint256",
          "name": "",
          "type": "uint256"
        }
      ],
      "stateMutability": "nonpayable",
      "type": "function"
    },
    {
      "inputs": [
        {
          "internalType": "address",
          "name": "token",
          "type": "address"
        },
        {
          "internalType": "uint256",
          "name": "amount",
          "type": "uint256"
        },
        {
          "internalType": "uint256",
          "name": "l2account",
          "type": "uint256"
        }
      ],
      "name": "deposit",
      "outputs": [],
      "stateMutability": "nonpayable",
      "type": "function"
    },
    {
      "inputs": [
        {
          "internalType": "uint256",
          "name": "account",
          "type": "uint256"
        },
        {
          "internalType": "uint256",
          "name": "token_id",
          "type": "uint256"
        }
      ],
      "name": "balanceOf",
      "outputs": [
        {
          "internalType": "uint256",
          "name": "",
          "type": "uint256"
        }
      ],
      "stateMutability": "view",
      "type": "function",
      "constant": true
    },
    {
      "inputs": [
        {
          "internalType": "uint256",
          "name": "account",
          "type": "uint256"
        },
        {
          "internalType": "uint256[]",
          "name": "data",
          "type": "uint256[]"
        },
        {
          "internalType": "uint256",
          "name": "nonce",
          "type": "uint256"
        },
        {
          "internalType": "uint256",
          "name": "rid",
          "type": "uint256"
        }
      ],
      "name": "verify",
      "outputs": [],
      "stateMutability": "nonpayable",
      "type": "function"
    },
    {
      "inputs": [
        {
          "internalType": "uint256",
          "name": "index",
          "type": "uint256"
        }
      ],
      "name": "getVerifierInfo",
      "outputs": [
        {
          "components": [
            {
              "internalType": "uint256",
              "name": "nbArgs",
              "type": "uint256"
            }
          ],
          "internalType": "struct VerifierInfo",
          "name": "",
          "type": "tuple"
        }
      ],
      "stateMutability": "view",
      "type": "function",
      "constant": true
    },
    {
      "inputs": [],
      "name": "chainID",
      "outputs": [
        {
          "internalType": "uint256",
          "name": "",
          "type": "uint256"
        }
      ],
      "stateMutability": "view",
      "type": "function",
      "constant": true
    }
  ],
  "bytecode": "0x60806040523480156200001157600080fd5b50604051620026d6380380620026d68339818101604052810190620000379190620000f0565b80600260146101000a81548163ffffffff021916908363ffffffff16021790555060016040518060800160405280600081526020016000815260200160008152602001600081525090806001815401808255809150506001900390600052602060002090600402016000909190919091506000820151816000015560208201518160010155604082015181600201556060820151816003015550505062000146565b600081519050620000ea816200012c565b92915050565b6000602082840312156200010357600080fd5b60006200011384828501620000d9565b91505092915050565b600063ffffffff82169050919050565b62000137816200011c565b81146200014357600080fd5b50565b61258080620001566000396000f3fe608060405234801561001057600080fd5b506004361061009e5760003560e01c8063adc879e911610066578063adc879e91461016b578063c9ed41dd14610189578063e193b33d146101a5578063ea699633146101d5578063f5427838146102055761009e565b806306c32646146100a35780630efe6a8b146100d35780636ccbae5f146100ef578063722566201461011f57806374a110c21461013b575b600080fd5b6100bd60048036038101906100b89190611a51565b610235565b6040516100ca9190611fae565b60405180910390f35b6100ed60048036038101906100e891906118a2565b6102ea565b005b61010960048036038101906101049190611984565b6104d9565b6040516101169190611fe4565b60405180910390f35b61013960048036038101906101349190611a8d565b6104f6565b005b61015560048036038101906101509190611a51565b61062b565b6040516101629190611fe4565b60405180910390f35b6101736106c3565b6040516101809190611fe4565b60405180910390f35b6101a3600480360381019061019e91906119d6565b6106e3565b005b6101bf60048036038101906101ba9190611984565b61090b565b6040516101cc9190611fc9565b60405180910390f35b6101ef60048036038101906101ea9190611a51565b610a01565b6040516101fc9190611fe4565b60405180910390f35b61021f600480360381019061021a9190611879565b610a30565b60405161022c9190611fe4565b60405180910390f35b61023d611686565b6000600460008581526020019081526020016000206000848152602001908152602001600020549050600181815481106102a0577f4e487b7100000000000000000000000000000000000000000000000000000000600052603260045260246000fd5b906000526020600020906004020160405180608001604052908160008201548152602001600182015481526020016002820154815260200160038201548152505091505092915050565b600083905060008173ffffffffffffffffffffffffffffffffffffffff166370a08231336040518263ffffffff1660e01b815260040161032a9190611da3565b60206040518083038186803b15801561034257600080fd5b505afa158015610356573d6000803e3d6000fd5b505050506040513d601f19601f8201168201806040525081019061037a91906119ad565b9050838110156103bf576040517f08c379a00000000000000000000000000000000000000000000000000000000081526004016103b690611e8e565b60405180910390fd5b8173ffffffffffffffffffffffffffffffffffffffff166323b872dd3330876040518463ffffffff1660e01b81526004016103fc93929190611dbe565b602060405180830381600087803b15801561041657600080fd5b505af115801561042a573d6000803e3d6000fd5b505050506040513d601f19601f8201168201806040525081019061044e9190611932565b5060016006600085815260200190815260200160002060008282546104739190612108565b925050819055507f9b776d199f09c774f5b205c9bc2ac6f40d508c347aaea919867eeaf06ebef0e96104a486610aa7565b848660066000888152602001908152602001600020546040516104ca9493929190612028565b60405180910390a15050505050565b600060066000838152602001908152602001600020549050919050565b6104ff83610aee565b8015610510575061050f81610aee565b5b156106265760008390506000829050600073ffffffffffffffffffffffffffffffffffffffff168173ffffffffffffffffffffffffffffffffffffffff16141561058f576040517f08c379a000000000000000000000000000000000000000000000000000000000815260040161058690611eae565b60405180910390fd5b60008290508073ffffffffffffffffffffffffffffffffffffffff1663a9059cbb83876040518363ffffffff1660e01b81526004016105cf929190611df5565b602060405180830381600087803b1580156105e957600080fd5b505af11580156105fd573d6000803e3d6000fd5b505050506040513d601f19601f820116820180604052508101906106219190611932565b505050505b505050565b600080604051806080016040528085815260200160008152602001848152602001600081525090506001819080600181540180825580915050600190039060005260206000209060040201600090919091909150600082015181600001556020820151816001015560408201518160020155606082015181600301555050600180805490506106ba919061215e565b91505092915050565b6000600260149054906101000a900463ffffffff1663ffffffff16905090565b600083511415610728576040517f08c379a000000000000000000000000000000000000000000000000000000000815260040161071f90611f6e565b60405180910390fd5b60005b83518110156108cb57600084828151811061076f577f4e487b7100000000000000000000000000000000000000000000000000000000600052603260045260246000fd5b602002602001015190506001826107869190612108565b9150600061079382610b16565b905060008173ffffffffffffffffffffffffffffffffffffffff16635b2759f288866040518363ffffffff1660e01b81526004016107d2929190611e1e565b600060405180830381600087803b1580156107ec57600080fd5b505af1158015610800573d6000803e3d6000fd5b505050506040513d6000823e3d601f19601f8201168201806040525081019061082991906118f1565b905061083481610c83565b8173ffffffffffffffffffffffffffffffffffffffff1663e215abff6040518163ffffffff1660e01b815260040160206040518083038186803b15801561087a57600080fd5b505afa15801561088e573d6000803e3d6000fd5b505050506040513d601f19601f820116820180604052508101906108b2919061195b565b60000151846108c19190612108565b935050505061072b565b7fbd839b7672235005c35f9c18d40fb67d8a10ebe332a815c4c2f1d1cd5a52b42185836040516108fc929190611fff565b60405180910390a15050505050565b6109136116ae565b600080838154811061094e577f4e487b7100000000000000000000000000000000000000000000000000000000600052603260045260246000fd5b9060005260206000200160009054906101000a900473ffffffffffffffffffffffffffffffffffffffff1690508073ffffffffffffffffffffffffffffffffffffffff1663e215abff6040518163ffffffff1660e01b815260040160206040518083038186803b1580156109c157600080fd5b505afa1580156109d5573d6000803e3d6000fd5b505050506040513d601f19601f820116820180604052508101906109f9919061195b565b915050919050565b600060036000838152602001908152602001600020600084815260200190815260200160002054905092915050565b60008060008054905090506000839080600181540180825580915050600190039060005260206000200160009091909190916101000a81548173ffffffffffffffffffffffffffffffffffffffff021916908373ffffffffffffffffffffffffffffffffffffffff16021790555080915050919050565b600060a0600260149054906101000a900463ffffffff1663ffffffff16901b8273ffffffffffffffffffffffffffffffffffffffff16610ae79190612108565b9050919050565b6000600260149054906101000a900463ffffffff1663ffffffff1660a083901c149050919050565b60008082604051602001610b2a9190611d88565b604051602081830303815290604052905080600081518110610b75577f4e487b7100000000000000000000000000000000000000000000000000000000600052603260045260246000fd5b602001015160f81c60f81b60f81c60ff1660008054905011610bcc576040517f08c379a0000000000000000000000000000000000000000000000000000000008152600401610bc390611e4e565b60405180910390fd5b600081600081518110610c08577f4e487b7100000000000000000000000000000000000000000000000000000000600052603260045260246000fd5b602001015160f81c60f81b60f81c60ff1681548110610c50577f4e487b7100000000000000000000000000000000000000000000000000000000600052603260045260246000fd5b9060005260206000200160009054906101000a900473ffffffffffffffffffffffffffffffffffffffff16915050919050565b60005b8151811015611338576000828281518110610cca577f4e487b7100000000000000000000000000000000000000000000000000000000600052603260045260246000fd5b60200260200101519050600360ff16811415610e3357600482610ced9190612108565b83511015610d30576040517f08c379a0000000000000000000000000000000000000000000000000000000008152600401610d2790611f4e565b60405180910390fd5b610e1f83600184610d419190612108565b81518110610d78577f4e487b7100000000000000000000000000000000000000000000000000000000600052603260045260246000fd5b602002602001015184600285610d8e9190612108565b81518110610dc5577f4e487b7100000000000000000000000000000000000000000000000000000000600052603260045260246000fd5b602002602001015185600386610ddb9190612108565b81518110610e12577f4e487b7100000000000000000000000000000000000000000000000000000000600052603260045260246000fd5b60200260200101516104f6565b600482610e2c9190612108565b9150611332565b600160ff16811415610f9257600482610e4c9190612108565b83511015610e8f576040517f08c379a0000000000000000000000000000000000000000000000000000000008152600401610e8690611e6e565b60405180910390fd5b610f7e83600184610ea09190612108565b81518110610ed7577f4e487b7100000000000000000000000000000000000000000000000000000000600052603260045260246000fd5b602002602001015184600285610eed9190612108565b81518110610f24577f4e487b7100000000000000000000000000000000000000000000000000000000600052603260045260246000fd5b602002602001015185600386610f3a9190612108565b81518110610f71577f4e487b7100000000000000000000000000000000000000000000000000000000600052603260045260246000fd5b602002602001015161133c565b600482610f8b9190612108565b9150611331565b600260ff1681141561113e57600582610fab9190612108565b83511015610fee576040517f08c379a0000000000000000000000000000000000000000000000000000000008152600401610fe590611f2e565b60405180910390fd5b61112a83600184610fff9190612108565b81518110611036577f4e487b7100000000000000000000000000000000000000000000000000000000600052603260045260246000fd5b60200260200101518460028561104c9190612108565b81518110611083577f4e487b7100000000000000000000000000000000000000000000000000000000600052603260045260246000fd5b6020026020010151856003866110999190612108565b815181106110d0577f4e487b7100000000000000000000000000000000000000000000000000000000600052603260045260246000fd5b6020026020010151866004876110e69190612108565b8151811061111d577f4e487b7100000000000000000000000000000000000000000000000000000000600052603260045260246000fd5b602002602001015161136a565b6005826111379190612108565b9150611330565b600460ff168114156112ea576005826111579190612108565b8351101561119a576040517f08c379a000000000000000000000000000000000000000000000000000000000815260040161119190611ece565b60405180910390fd5b6112d6836001846111ab9190612108565b815181106111e2577f4e487b7100000000000000000000000000000000000000000000000000000000600052603260045260246000fd5b6020026020010151846002856111f89190612108565b8151811061122f577f4e487b7100000000000000000000000000000000000000000000000000000000600052603260045260246000fd5b6020026020010151856003866112459190612108565b8151811061127c577f4e487b7100000000000000000000000000000000000000000000000000000000600052603260045260246000fd5b6020026020010151866004876112929190612108565b815181106112c9577f4e487b7100000000000000000000000000000000000000000000000000000000600052603260045260246000fd5b60200260200101516114f0565b6005826112e39190612108565b915061132f565b600260011461132e576040517f08c379a000000000000000000000000000000000000000000000000000000000815260040161132590611eee565b60405180910390fd5b5b5b5b5b50610c86565b5050565b8060036000858152602001908152602001600020600084815260200190815260200160002081905550505050565b600060046000868152602001908152602001600020600085815260200190815260200160002054905060008114156113a9576113a6858561158d565b90505b84600182815481106113e4577f4e487b7100000000000000000000000000000000000000000000000000000000600052603260045260246000fd5b9060005260206000209060040201600001819055508360018281548110611434577f4e487b7100000000000000000000000000000000000000000000000000000000600052603260045260246000fd5b9060005260206000209060040201600101819055508260018281548110611484577f4e487b7100000000000000000000000000000000000000000000000000000000600052603260045260246000fd5b90600052602060002090600402016002018190555081600182815481106114d4577f4e487b7100000000000000000000000000000000000000000000000000000000600052603260045260246000fd5b9060005260206000209060040201600301819055505050505050565b6000600460008681526020019081526020016000206000858152602001908152602001600020549050600081141561155d576040517f08c379a000000000000000000000000000000000000000000000000000000000815260040161155490611f0e565b60405180910390fd5b81600560008381526020019081526020016000206000858152602001908152602001600020819055505050505050565b6000806001805490509050600081116115db576040517f08c379a00000000000000000000000000000000000000000000000000000000081526004016115d290611f8e565b60405180910390fd5b60016040518060800160405280868152602001858152602001600081526020016000815250908060018154018082558091505060019003906000526020600020906004020160009091909190915060008201518160000155602082015181600101556040820151816002015560608201518160030155505080600460008681526020019081526020016000206000858152602001908152602001600020819055508091505092915050565b6040518060800160405280600081526020016000815260200160008152602001600081525090565b6040518060200160405280600081525090565b60006116d46116cf84612092565b61206d565b905080838252602082019050828560208602820111156116f357600080fd5b60005b858110156117235781611709888261184f565b8452602084019350602083019250506001810190506116f6565b5050509392505050565b600061174061173b84612092565b61206d565b9050808382526020820190508285602086028201111561175f57600080fd5b60005b8581101561178f57816117758882611864565b845260208401935060208301925050600181019050611762565b5050509392505050565b6000813590506117a881612505565b92915050565b600082601f8301126117bf57600080fd5b81356117cf8482602086016116c1565b91505092915050565b600082601f8301126117e957600080fd5b81516117f984826020860161172d565b91505092915050565b6000815190506118118161251c565b92915050565b60006020828403121561182957600080fd5b611833602061206d565b9050600061184384828501611864565b60008301525092915050565b60008135905061185e81612533565b92915050565b60008151905061187381612533565b92915050565b60006020828403121561188b57600080fd5b600061189984828501611799565b91505092915050565b6000806000606084860312156118b757600080fd5b60006118c586828701611799565b93505060206118d68682870161184f565b92505060406118e78682870161184f565b9150509250925092565b60006020828403121561190357600080fd5b600082015167ffffffffffffffff81111561191d57600080fd5b611929848285016117d8565b91505092915050565b60006020828403121561194457600080fd5b600061195284828501611802565b91505092915050565b60006020828403121561196d57600080fd5b600061197b84828501611817565b91505092915050565b60006020828403121561199657600080fd5b60006119a48482850161184f565b91505092915050565b6000602082840312156119bf57600080fd5b60006119cd84828501611864565b91505092915050565b600080600080608085870312156119ec57600080fd5b60006119fa8782880161184f565b945050602085013567ffffffffffffffff811115611a1757600080fd5b611a23878288016117ae565b9350506040611a348782880161184f565b9250506060611a458782880161184f565b91505092959194509250565b60008060408385031215611a6457600080fd5b6000611a728582860161184f565b9250506020611a838582860161184f565b9150509250929050565b600080600060608486031215611aa257600080fd5b6000611ab08682870161184f565b9350506020611ac18682870161184f565b9250506040611ad28682870161184f565b9150509250925092565b6000611ae88383611d53565b60208301905092915050565b611afd81612192565b82525050565b6000611b0e826120ce565b611b1881856120e6565b9350611b23836120be565b8060005b83811015611b54578151611b3b8882611adc565b9750611b46836120d9565b925050600181019050611b27565b5085935050505092915050565b6000611b6e601c836120f7565b9150611b7982612284565b602082019050919050565b6000611b916023836120f7565b9150611b9c826122ad565b604082019050919050565b6000611bb46014836120f7565b9150611bbf826122fc565b602082019050919050565b6000611bd7601c836120f7565b9150611be282612325565b602082019050919050565b6000611bfa6021836120f7565b9150611c058261234e565b604082019050919050565b6000611c1d6012836120f7565b9150611c288261239d565b602082019050919050565b6000611c406021836120f7565b9150611c4b826123c6565b604082019050919050565b6000611c636020836120f7565b9150611c6e82612415565b602082019050919050565b6000611c866021836120f7565b9150611c918261243e565b604082019050919050565b6000611ca96025836120f7565b9150611cb48261248d565b604082019050919050565b6000611ccc6017836120f7565b9150611cd7826124dc565b602082019050919050565b608082016000820151611cf86000850182611d53565b506020820151611d0b6020850182611d53565b506040820151611d1e6040850182611d53565b506060820151611d316060850182611d53565b50505050565b602082016000820151611d4d6000850182611d53565b50505050565b611d5c816121d0565b82525050565b611d6b816121d0565b82525050565b611d82611d7d826121d0565b61220b565b82525050565b6000611d948284611d71565b60208201915081905092915050565b6000602082019050611db86000830184611af4565b92915050565b6000606082019050611dd36000830186611af4565b611de06020830185611af4565b611ded6040830184611d62565b949350505050565b6000604082019050611e0a6000830185611af4565b611e176020830184611d62565b9392505050565b60006040820190508181036000830152611e388185611b03565b9050611e476020830184611d62565b9392505050565b60006020820190508181036000830152611e6781611b61565b9050919050565b60006020820190508181036000830152611e8781611b84565b9050919050565b60006020820190508181036000830152611ea781611ba7565b9050919050565b60006020820190508181036000830152611ec781611bca565b9050919050565b60006020820190508181036000830152611ee781611bed565b9050919050565b60006020820190508181036000830152611f0781611c10565b9050919050565b60006020820190508181036000830152611f2781611c33565b9050919050565b60006020820190508181036000830152611f4781611c56565b9050919050565b60006020820190508181036000830152611f6781611c79565b9050919050565b60006020820190508181036000830152611f8781611c9c565b9050919050565b60006020820190508181036000830152611fa781611cbf565b9050919050565b6000608082019050611fc36000830184611ce2565b92915050565b6000602082019050611fde6000830184611d37565b92915050565b6000602082019050611ff96000830184611d62565b92915050565b60006040820190506120146000830185611d62565b6120216020830184611d62565b9392505050565b600060808201905061203d6000830187611d62565b61204a6020830186611d62565b6120576040830185611d62565b6120646060830184611d62565b95945050505050565b6000612077612088565b905061208382826121da565b919050565b6000604051905090565b600067ffffffffffffffff8211156120ad576120ac612244565b5b602082029050602081019050919050565b6000819050602082019050919050565b600081519050919050565b6000602082019050919050565b600082825260208201905092915050565b600082825260208201905092915050565b6000612113826121d0565b915061211e836121d0565b9250827fffffffffffffffffffffffffffffffffffffffffffffffffffffffffffffffff0382111561215357612152612215565b5b828201905092915050565b6000612169826121d0565b9150612174836121d0565b92508282101561218757612186612215565b5b828203905092915050565b600061219d826121b0565b9050919050565b60008115159050919050565b600073ffffffffffffffffffffffffffffffffffffffff82169050919050565b6000819050919050565b6121e382612273565b810181811067ffffffffffffffff8211171561220257612201612244565b5b80604052505050565b6000819050919050565b7f4e487b7100000000000000000000000000000000000000000000000000000000600052601160045260246000fd5b7f4e487b7100000000000000000000000000000000000000000000000000000000600052604160045260246000fd5b6000601f19601f8301169050919050565b7f43616c6c20496e666f20696e646578206f7574206f6620626f756e6400000000600082015250565b7f53657442616c616e63653a20496e73756666696369656e7420617267206e756d60008201527f6265720000000000000000000000000000000000000000000000000000000000602082015250565b7f496e73756666656369656e742042616c616e6365000000000000000000000000600082015250565b7f576974686472617720746f20746865207a65726f206164647265737300000000600082015250565b7f53657453686172653a20496e73756666696369656e7420617267206e756d626560008201527f7200000000000000000000000000000000000000000000000000000000000000602082015250565b7f556e6b6e6f776e2064656c74615f636f64650000000000000000000000000000600082015250565b7f536574536861726520666f72206e6f6e2d657869737420746f6b656e2070616960008201527f7200000000000000000000000000000000000000000000000000000000000000602082015250565b7f536574506f6f6c3a20496e73756666696369656e7420617267206e756d626572600082015250565b7f57697468647261773a20496e73756666696369656e7420617267206e756d626560008201527f7200000000000000000000000000000000000000000000000000000000000000602082015250565b7f5665726966793a20496e73756666696369656e742064656c7461206f7065726160008201527f74696f6e73000000000000000000000000000000000000000000000000000000602082015250565b7f506f6f6c20437572736f7220657175616c73207a65726f000000000000000000600082015250565b61250e81612192565b811461251957600080fd5b50565b612525816121a4565b811461253057600080fd5b50565b61253c816121d0565b811461254757600080fd5b5056fea26469706673582212209f0b64fbc8f1c281418ef436393641d69302a4046967a25e5710250edffadcb064736f6c63430008040033",
  "immutableReferences": {},
  "source": "// SPDX-License-Identifier: UNLICENSED\npragma solidity ^0.8.0;\nimport \"@openzeppelin/contracts/token/ERC20/ERC20.sol\";\nimport \"./Verifier.sol\";\ncontract Bridge {\n\n  event Deposit(uint256 l1token, uint256 l2account, uint256 amount, uint256 nonce);\n  event WithDraw(uint256 l1account, uint256 l2account, uint256 amount, uint256 nonce);\n  event SwapAck(uint256 l2account, uint256 rid);\n\n  Verifier[] private verifiers;\n\n  struct PoolInfo {\n    uint256 token0;\n    uint256 token1;\n    uint256 l0;\n    uint256 l1;\n  }\n\n  PoolInfo[] private _pools;\n\n  address private owner;\n  uint32 private _cid;\n\n  uint8 constant _SET_BALANCE = 0x1;\n  uint8 constant _SET_POOL = 0x2;\n  uint8 constant _WITHDRAW = 0x3;\n  uint8 constant _SET_SHARE = 0x4;\n\n  mapping (uint256 => mapping(uint256 => uint256)) private _balances;\n  mapping (uint256 => mapping(uint256 => uint256)) private _pool_ids;\n  mapping (uint256 => mapping(uint256 => uint256)) private _pool_share; // pid => l1 account => share\n  mapping (uint256 => uint256) private _nonce;\n\n\n  constructor(uint32 chain_id) {\n    _cid = chain_id;\n    _pools.push(PoolInfo(0,0,0,0));\n  }\n\n  function add_pool(uint256 token0, uint256 token1) private returns (uint) {\n    uint cursor = _pools.length;\n    require (cursor >0, \"Pool Cursor equals zero\");\n    _pools.push(PoolInfo(token0, token1, 0, 0));\n    _pool_ids[token0][token1] = cursor;\n    return cursor;\n  }\n\n  function get_pool(uint256 token0, uint256 token1) public view returns (PoolInfo memory) {\n    uint256 _pid = _pool_ids[token0][token1];\n    return _pools[_pid];\n  }\n\n  function _set_pool(uint256 token0, uint256 token1, uint256 amount0, uint256 amount1) private {\n    uint256 _pid = _pool_ids[token0][token1];\n    if (_pid == 0) {\n      _pid = add_pool(token0, token1);\n    }\n    _pools[_pid].token0 = token0;\n    _pools[_pid].token1 = token1;\n    _pools[_pid].l0 = amount0;\n    _pools[_pid].l1 = amount1;\n  }\n\n  function _set_share(uint256 token0, uint256 token1, uint256 l2account, uint256 share) private {\n    uint256 _pid = _pool_ids[token0][token1];\n    require(_pid!= 0, \"SetShare for non-exist token pair\");\n    _pool_share[_pid][l2account] = share;\n  }\n\n  function add_verifier(address verifier) public returns (uint) {\n    uint cursor = verifiers.length;\n    verifiers.push(Verifier(verifier));\n    return cursor;\n  }\n\n  function _l1_address(address account) private view returns (uint256) {\n    return (uint256(uint160(account))) + (uint256(_cid) << 160);\n  }\n\n  function _is_local(uint256 l1address) private view returns (bool) {\n    return ((l1address >> 160) == (uint256(_cid)));\n  }\n\n  function _get_verifier(uint256 call_info) private view returns(Verifier) {\n    bytes memory info = abi.encodePacked(call_info);\n    require(verifiers.length > uint8(info[0]), \"Call Info index out of bound\");\n    return verifiers[uint8(info[0])];\n  }\n\n  function _get_delta_code(uint256 call_info) private pure returns(uint8) {\n    bytes memory info = abi.encodePacked(call_info);\n    return uint8(info[0]);\n  }\n\n  function _set_balance(uint256 token_id, uint256 l2account, uint256 amount) private {\n    _balances[token_id][l2account] = amount;\n  }\n\n  function _withdraw(uint256 tokenid, uint256 amount, uint256 l1recipent) public {\n    if (_is_local(tokenid) && _is_local(l1recipent)) {\n      address token = address(uint160(tokenid));\n      address recipent = address(uint160(l1recipent));\n\n      // Sanitity checks\n      require(recipent!= address(0), \"Withdraw to the zero address\");\n\n      // transfer amount back to recipent\n      IERC20 underlying_token = IERC20(token);\n      underlying_token.transfer(recipent, amount);\n    }\n  }\n\n\n  function nonceOf(uint256 l2account) public view returns(uint256) {\n    return _nonce[l2account];\n  }\n\n  function createPool(uint256 token1, uint256 token2) public returns (uint) {\n    PoolInfo memory pool = PoolInfo(token1, 0, token2, 0);\n    _pools.push(pool);\n    return (_pools.length - 1);\n  }\n\n  function deposit(address token, uint256 amount, uint256 l2account) public {\n    IERC20 underlying_token = IERC20(token);\n    uint256 balance = underlying_token.balanceOf(msg.sender);\n    require(balance >= amount, \"Insuffecient Balance\");\n    underlying_token.transferFrom(msg.sender, address(this), amount);\n    /*\n     * done via l2 broadcast\n     * uint256 token_id = _l1_address(token);\n     * _balances[token_id][l2account] += amount;\n     */\n    _nonce[l2account] += 1;\n    emit Deposit(_l1_address(token), l2account, amount , _nonce[l2account]);\n  }\n\n  function balanceOf(uint256 account, uint256 token_id) public view returns(uint256) {\n    return _balances[token_id][account];\n  }\n\n  /*\n   * @dev deltas encode the update function\n   * deltas = [| opcode; args |]\n   */\n  function _update_state(uint256[] memory deltas) private {\n    uint cursor = 0;\n    while (cursor < deltas.length) {\n      uint delta_code = deltas[cursor];\n      if (delta_code == _WITHDRAW) {\n        require(deltas.length >= cursor + 4, \"Withdraw: Insufficient arg number\");\n        _withdraw(deltas[cursor+1], deltas[cursor+2], deltas[cursor+3]);\n        cursor = cursor + 4;\n      } else if (delta_code == _SET_BALANCE) {\n        require(deltas.length >= cursor + 4, \"SetBalance: Insufficient arg number\");\n        _set_balance(deltas[cursor+1], deltas[cursor+2], deltas[cursor+3]);\n        cursor = cursor + 4;\n      } else if (delta_code == _SET_POOL) {\n        require(deltas.length >= cursor + 5, \"SetPool: Insufficient arg number\");\n        _set_pool(deltas[cursor+1], deltas[cursor+2], deltas[cursor+3], deltas[cursor+4]);\n        cursor = cursor + 5;\n      } else if (delta_code == _SET_SHARE) {\n        require(deltas.length >= cursor + 5, \"SetShare: Insufficient arg number\");\n        _set_share(deltas[cursor+1], deltas[cursor+2], deltas[cursor+3], deltas[cursor+4]);\n        cursor = cursor + 5;\n      } else {\n        require(1==2, \"Unknown delta_code\");\n      }\n    }\n  }\n\n  /*\n   * @dev Data encodes the delta functions with there verification in reverse order\n   * data = opcode args; opcode' args'; ....\n   */\n  function verify(uint256 account, uint256[] memory data,\n    uint256 nonce, uint256 rid) public {\n    //require(_nonce[account] == nonce, \"Verify: Nonce does not match!\");\n    require (data.length != 0, \"Verify: Insufficient delta operations\");\n    uint cursor = 0;\n    while (cursor < data.length) {\n      uint256 op_code = data[cursor];\n      cursor += 1;\n      Verifier verifier = _get_verifier(op_code);\n      uint256[] memory update = verifier.verify(data, cursor);\n      _update_state(update);\n      cursor += verifier.getVerifierInfo().nbArgs;\n    }\n    emit SwapAck(account, rid);\n  }\n\n  function getVerifierInfo(uint index) public view returns (VerifierInfo memory) {\n    Verifier verifier = verifiers[index];\n    return verifier.getVerifierInfo();\n  }\n\n\n  function chainID() public view returns(uint256) {\n    return _cid;\n  }\n\n}\n",
  "sourcePath": "/Users/leyingan/delphinus/playground/solidity/contracts/bridge.sol",
  "compiler": {
    "name": "solc",
    "version": "0.8.4+commit.c7e474f2.Darwin.appleclang"
  },
  "schemaVersion": "3.4.1",
  "updatedAt": "2021-07-25T09:15:33.059Z",
  "networkType": "ethereum",
  "devdoc": {
    "kind": "dev",
    "methods": {},
    "version": 1
  },
  "userdoc": {
    "kind": "user",
    "methods": {},
    "version": 1
  }
}