{
  "contractName": "Bridge",
  "abi": [
    {
      "inputs": [
        {
          "internalType": "uint32",
          "name": "chain_id",
          "type": "uint32"
        }
      ],
      "stateMutability": "nonpayable",
      "type": "constructor"
    },
    {
      "anonymous": false,
      "inputs": [
        {
          "indexed": false,
          "internalType": "uint256",
          "name": "l1token",
          "type": "uint256"
        },
        {
          "indexed": false,
          "internalType": "uint256",
          "name": "l2account",
          "type": "uint256"
        },
        {
          "indexed": false,
          "internalType": "uint256",
          "name": "amount",
          "type": "uint256"
        },
        {
          "indexed": false,
          "internalType": "uint256",
          "name": "nonce",
          "type": "uint256"
        }
      ],
      "name": "Deposit",
      "type": "event"
    },
    {
      "anonymous": false,
      "inputs": [
        {
          "indexed": false,
          "internalType": "uint256",
          "name": "l2account",
          "type": "uint256"
        },
        {
          "indexed": false,
          "internalType": "uint256",
          "name": "rid",
          "type": "uint256"
        }
      ],
      "name": "SwapAck",
      "type": "event"
    },
    {
      "anonymous": false,
      "inputs": [
        {
          "indexed": false,
          "internalType": "uint256",
          "name": "l1account",
          "type": "uint256"
        },
        {
          "indexed": false,
          "internalType": "uint256",
          "name": "l2account",
          "type": "uint256"
        },
        {
          "indexed": false,
          "internalType": "uint256",
          "name": "amount",
          "type": "uint256"
        },
        {
          "indexed": false,
          "internalType": "uint256",
          "name": "nonce",
          "type": "uint256"
        }
      ],
      "name": "WithDraw",
      "type": "event"
    },
    {
      "inputs": [
        {
          "internalType": "address",
          "name": "verifier",
          "type": "address"
        }
      ],
      "name": "add_verifier",
      "outputs": [
        {
          "internalType": "uint256",
          "name": "",
          "type": "uint256"
        }
      ],
      "stateMutability": "nonpayable",
      "type": "function"
    },
    {
      "inputs": [
        {
          "internalType": "uint256",
          "name": "tokenid",
          "type": "uint256"
        },
        {
          "internalType": "uint256",
          "name": "amount",
          "type": "uint256"
        },
        {
          "internalType": "uint256",
          "name": "l1recipent",
          "type": "uint256"
        }
      ],
      "name": "_withdraw",
      "outputs": [],
      "stateMutability": "nonpayable",
      "type": "function"
    },
    {
      "inputs": [
        {
          "internalType": "uint256",
          "name": "l2account",
          "type": "uint256"
        }
      ],
      "name": "nonceOf",
      "outputs": [
        {
          "internalType": "uint256",
          "name": "",
          "type": "uint256"
        }
      ],
      "stateMutability": "view",
      "type": "function",
      "constant": true
    },
    {
      "inputs": [
        {
          "internalType": "uint256",
          "name": "token1",
          "type": "uint256"
        },
        {
          "internalType": "uint256",
          "name": "token2",
          "type": "uint256"
        }
      ],
      "name": "createPool",
      "outputs": [
        {
          "internalType": "uint256",
          "name": "",
          "type": "uint256"
        }
      ],
      "stateMutability": "nonpayable",
      "type": "function"
    },
    {
      "inputs": [
        {
          "internalType": "address",
          "name": "token",
          "type": "address"
        },
        {
          "internalType": "uint256",
          "name": "amount",
          "type": "uint256"
        },
        {
          "internalType": "uint256",
          "name": "l2account",
          "type": "uint256"
        }
      ],
      "name": "deposit",
      "outputs": [],
      "stateMutability": "nonpayable",
      "type": "function"
    },
    {
      "inputs": [
        {
          "internalType": "uint256",
          "name": "account",
          "type": "uint256"
        },
        {
          "internalType": "uint256",
          "name": "token_id",
          "type": "uint256"
        }
      ],
      "name": "balanceOf",
      "outputs": [
        {
          "internalType": "uint256",
          "name": "",
          "type": "uint256"
        }
      ],
      "stateMutability": "view",
      "type": "function",
      "constant": true
    },
    {
      "inputs": [
        {
          "internalType": "uint256",
          "name": "account",
          "type": "uint256"
        },
        {
          "internalType": "uint256[]",
          "name": "data",
          "type": "uint256[]"
        },
        {
          "internalType": "uint256",
          "name": "nonce",
          "type": "uint256"
        },
        {
          "internalType": "uint256",
          "name": "rid",
          "type": "uint256"
        }
      ],
      "name": "verify",
      "outputs": [],
      "stateMutability": "nonpayable",
      "type": "function"
    },
    {
      "inputs": [
        {
          "internalType": "uint256",
          "name": "index",
          "type": "uint256"
        }
      ],
      "name": "getVerifierInfo",
      "outputs": [
        {
          "components": [
            {
              "internalType": "uint256",
              "name": "nbArgs",
              "type": "uint256"
            }
          ],
          "internalType": "struct VerifierInfo",
          "name": "",
          "type": "tuple"
        }
      ],
      "stateMutability": "view",
      "type": "function",
      "constant": true
    },
    {
      "inputs": [],
      "name": "chainID",
      "outputs": [
        {
          "internalType": "uint256",
          "name": "",
          "type": "uint256"
        }
      ],
      "stateMutability": "view",
      "type": "function",
      "constant": true
    }
  ],
  "bytecode": "0x60806040523480156200001157600080fd5b5060405162001b6538038062001b65833981810160405281019062000037919062000076565b80600260146101000a81548163ffffffff021916908363ffffffff16021790555050620000cc565b6000815190506200007081620000b2565b92915050565b6000602082840312156200008957600080fd5b600062000099848285016200005f565b91505092915050565b600063ffffffff82169050919050565b620000bd81620000a2565b8114620000c957600080fd5b50565b611a8980620000dc6000396000f3fe608060405234801561001057600080fd5b50600436106100935760003560e01c8063adc879e911610066578063adc879e914610130578063c9ed41dd1461014e578063e193b33d1461016a578063ea6996331461019a578063f5427838146101ca57610093565b80630efe6a8b146100985780636ccbae5f146100b457806372256620146100e457806374a110c214610100575b600080fd5b6100b260048036038101906100ad9190611181565b6101fa565b005b6100ce60048036038101906100c99190611263565b6103e9565b6040516100db919061167e565b60405180910390f35b6100fe60048036038101906100f9919061136c565b610406565b005b61011a60048036038101906101159190611330565b61053b565b604051610127919061167e565b60405180910390f35b6101386105d3565b604051610145919061167e565b60405180910390f35b610168600480360381019061016391906112b5565b6105f3565b005b610184600480360381019061017f9190611263565b61081b565b6040516101919190611663565b60405180910390f35b6101b460048036038101906101af9190611330565b610911565b6040516101c1919061167e565b60405180910390f35b6101e460048036038101906101df9190611158565b610940565b6040516101f1919061167e565b60405180910390f35b600083905060008173ffffffffffffffffffffffffffffffffffffffff166370a08231336040518263ffffffff1660e01b815260040161023a9190611538565b60206040518083038186803b15801561025257600080fd5b505afa158015610266573d6000803e3d6000fd5b505050506040513d601f19601f8201168201806040525081019061028a919061128c565b9050838110156102cf576040517f08c379a00000000000000000000000000000000000000000000000000000000081526004016102c6906115e3565b60405180910390fd5b8173ffffffffffffffffffffffffffffffffffffffff166323b872dd3330876040518463ffffffff1660e01b815260040161030c93929190611553565b602060405180830381600087803b15801561032657600080fd5b505af115801561033a573d6000803e3d6000fd5b505050506040513d601f19601f8201168201806040525081019061035e9190611211565b50600160046000858152602001908152602001600020600082825461038391906117a2565b925050819055507f9b776d199f09c774f5b205c9bc2ac6f40d508c347aaea919867eeaf06ebef0e96103b4866109b7565b848660046000888152602001908152602001600020546040516103da94939291906116c2565b60405180910390a15050505050565b600060046000838152602001908152602001600020549050919050565b61040f836109fe565b8015610420575061041f816109fe565b5b156105365760008390506000829050600073ffffffffffffffffffffffffffffffffffffffff168173ffffffffffffffffffffffffffffffffffffffff16141561049f576040517f08c379a000000000000000000000000000000000000000000000000000000000815260040161049690611603565b60405180910390fd5b60008290508073ffffffffffffffffffffffffffffffffffffffff1663a9059cbb83876040518363ffffffff1660e01b81526004016104df92919061158a565b602060405180830381600087803b1580156104f957600080fd5b505af115801561050d573d6000803e3d6000fd5b505050506040513d601f19601f820116820180604052508101906105319190611211565b505050505b505050565b600080604051806080016040528085815260200160008152602001848152602001600081525090506001819080600181540180825580915050600190039060005260206000209060040201600090919091909150600082015181600001556020820151816001015560408201518160020155606082015181600301555050600180805490506105ca91906117f8565b91505092915050565b6000600260149054906101000a900463ffffffff1663ffffffff16905090565b600083511415610638576040517f08c379a000000000000000000000000000000000000000000000000000000000815260040161062f90611643565b60405180910390fd5b60005b83518110156107db57600084828151811061067f577f4e487b7100000000000000000000000000000000000000000000000000000000600052603260045260246000fd5b6020026020010151905060018261069691906117a2565b915060006106a382610a26565b905060008173ffffffffffffffffffffffffffffffffffffffff16635b2759f288866040518363ffffffff1660e01b81526004016106e29291906115b3565b600060405180830381600087803b1580156106fc57600080fd5b505af1158015610710573d6000803e3d6000fd5b505050506040513d6000823e3d601f19601f8201168201806040525081019061073991906111d0565b905061074481610b02565b8173ffffffffffffffffffffffffffffffffffffffff1663e215abff6040518163ffffffff1660e01b815260040160206040518083038186803b15801561078a57600080fd5b505afa15801561079e573d6000803e3d6000fd5b505050506040513d601f19601f820116820180604052508101906107c2919061123a565b60000151846107d191906117a2565b935050505061063b565b7fbd839b7672235005c35f9c18d40fb67d8a10ebe332a815c4c2f1d1cd5a52b421858360405161080c929190611699565b60405180910390a15050505050565b610823610f8d565b600080838154811061085e577f4e487b7100000000000000000000000000000000000000000000000000000000600052603260045260246000fd5b9060005260206000200160009054906101000a900473ffffffffffffffffffffffffffffffffffffffff1690508073ffffffffffffffffffffffffffffffffffffffff1663e215abff6040518163ffffffff1660e01b815260040160206040518083038186803b1580156108d157600080fd5b505afa1580156108e5573d6000803e3d6000fd5b505050506040513d601f19601f82011682018060405250810190610909919061123a565b915050919050565b600060036000838152602001908152602001600020600084815260200190815260200160002054905092915050565b60008060008054905090506000839080600181540180825580915050600190039060005260206000200160009091909190916101000a81548173ffffffffffffffffffffffffffffffffffffffff021916908373ffffffffffffffffffffffffffffffffffffffff16021790555080915050919050565b600060a0600260149054906101000a900463ffffffff1663ffffffff16901b8273ffffffffffffffffffffffffffffffffffffffff166109f791906117a2565b9050919050565b6000600260149054906101000a900463ffffffff1663ffffffff1660a083901c149050919050565b60008082604051602001610a3a919061151d565b6040516020818303038152906040529050600081600081518110610a87577f4e487b7100000000000000000000000000000000000000000000000000000000600052603260045260246000fd5b602001015160f81c60f81b60f81c60ff1681548110610acf577f4e487b7100000000000000000000000000000000000000000000000000000000600052603260045260246000fd5b9060005260206000200160009054906101000a900473ffffffffffffffffffffffffffffffffffffffff16915050919050565b60005b8151811015610eb6576000828281518110610b49577f4e487b7100000000000000000000000000000000000000000000000000000000600052603260045260246000fd5b60200260200101519050600482610b6091906117a2565b83511015610ba3576040517f08c379a0000000000000000000000000000000000000000000000000000000008152600401610b9a90611623565b60405180910390fd5b600360ff16811415610ca357610c9e83600184610bc091906117a2565b81518110610bf7577f4e487b7100000000000000000000000000000000000000000000000000000000600052603260045260246000fd5b602002602001015184600285610c0d91906117a2565b81518110610c44577f4e487b7100000000000000000000000000000000000000000000000000000000600052603260045260246000fd5b602002602001015185600386610c5a91906117a2565b81518110610c91577f4e487b7100000000000000000000000000000000000000000000000000000000600052603260045260246000fd5b6020026020010151610406565b610ea1565b600160ff16811415610da357610d9e83600184610cc091906117a2565b81518110610cf7577f4e487b7100000000000000000000000000000000000000000000000000000000600052603260045260246000fd5b602002602001015184600285610d0d91906117a2565b81518110610d44577f4e487b7100000000000000000000000000000000000000000000000000000000600052603260045260246000fd5b602002602001015185600386610d5a91906117a2565b81518110610d91577f4e487b7100000000000000000000000000000000000000000000000000000000600052603260045260246000fd5b6020026020010151610eba565b610ea0565b600260ff16811415610e9f57610e9e83600184610dc091906117a2565b81518110610df7577f4e487b7100000000000000000000000000000000000000000000000000000000600052603260045260246000fd5b602002602001015184600285610e0d91906117a2565b81518110610e44577f4e487b7100000000000000000000000000000000000000000000000000000000600052603260045260246000fd5b602002602001015185600386610e5a91906117a2565b81518110610e91577f4e487b7100000000000000000000000000000000000000000000000000000000600052603260045260246000fd5b6020026020010151610ee8565b5b5b5b600482610eae91906117a2565b915050610b05565b5050565b8060036000858152602001908152602001600020600084815260200190815260200160002081905550505050565b8160018481548110610f23577f4e487b7100000000000000000000000000000000000000000000000000000000600052603260045260246000fd5b9060005260206000209060040201600101819055508060018481548110610f73577f4e487b7100000000000000000000000000000000000000000000000000000000600052603260045260246000fd5b906000526020600020906004020160030181905550505050565b6040518060200160405280600081525090565b6000610fb3610fae8461172c565b611707565b90508083825260208201905082856020860282011115610fd257600080fd5b60005b858110156110025781610fe8888261112e565b845260208401935060208301925050600181019050610fd5565b5050509392505050565b600061101f61101a8461172c565b611707565b9050808382526020820190508285602086028201111561103e57600080fd5b60005b8581101561106e57816110548882611143565b845260208401935060208301925050600181019050611041565b5050509392505050565b60008135905061108781611a0e565b92915050565b600082601f83011261109e57600080fd5b81356110ae848260208601610fa0565b91505092915050565b600082601f8301126110c857600080fd5b81516110d884826020860161100c565b91505092915050565b6000815190506110f081611a25565b92915050565b60006020828403121561110857600080fd5b6111126020611707565b9050600061112284828501611143565b60008301525092915050565b60008135905061113d81611a3c565b92915050565b60008151905061115281611a3c565b92915050565b60006020828403121561116a57600080fd5b600061117884828501611078565b91505092915050565b60008060006060848603121561119657600080fd5b60006111a486828701611078565b93505060206111b58682870161112e565b92505060406111c68682870161112e565b9150509250925092565b6000602082840312156111e257600080fd5b600082015167ffffffffffffffff8111156111fc57600080fd5b611208848285016110b7565b91505092915050565b60006020828403121561122357600080fd5b6000611231848285016110e1565b91505092915050565b60006020828403121561124c57600080fd5b600061125a848285016110f6565b91505092915050565b60006020828403121561127557600080fd5b60006112838482850161112e565b91505092915050565b60006020828403121561129e57600080fd5b60006112ac84828501611143565b91505092915050565b600080600080608085870312156112cb57600080fd5b60006112d98782880161112e565b945050602085013567ffffffffffffffff8111156112f657600080fd5b6113028782880161108d565b93505060406113138782880161112e565b92505060606113248782880161112e565b91505092959194509250565b6000806040838503121561134357600080fd5b60006113518582860161112e565b92505060206113628582860161112e565b9150509250929050565b60008060006060848603121561138157600080fd5b600061138f8682870161112e565b93505060206113a08682870161112e565b92505060406113b18682870161112e565b9150509250925092565b60006113c783836114e8565b60208301905092915050565b6113dc8161182c565b82525050565b60006113ed82611768565b6113f78185611780565b935061140283611758565b8060005b8381101561143357815161141a88826113bb565b975061142583611773565b925050600181019050611406565b5085935050505092915050565b600061144d601483611791565b91506114588261191e565b602082019050919050565b6000611470601c83611791565b915061147b82611947565b602082019050919050565b6000611493602183611791565b915061149e82611970565b604082019050919050565b60006114b6602583611791565b91506114c1826119bf565b604082019050919050565b6020820160008201516114e260008501826114e8565b50505050565b6114f18161186a565b82525050565b6115008161186a565b82525050565b6115176115128261186a565b6118a5565b82525050565b60006115298284611506565b60208201915081905092915050565b600060208201905061154d60008301846113d3565b92915050565b600060608201905061156860008301866113d3565b61157560208301856113d3565b61158260408301846114f7565b949350505050565b600060408201905061159f60008301856113d3565b6115ac60208301846114f7565b9392505050565b600060408201905081810360008301526115cd81856113e2565b90506115dc60208301846114f7565b9392505050565b600060208201905081810360008301526115fc81611440565b9050919050565b6000602082019050818103600083015261161c81611463565b9050919050565b6000602082019050818103600083015261163c81611486565b9050919050565b6000602082019050818103600083015261165c816114a9565b9050919050565b600060208201905061167860008301846114cc565b92915050565b600060208201905061169360008301846114f7565b92915050565b60006040820190506116ae60008301856114f7565b6116bb60208301846114f7565b9392505050565b60006080820190506116d760008301876114f7565b6116e460208301866114f7565b6116f160408301856114f7565b6116fe60608301846114f7565b95945050505050565b6000611711611722565b905061171d8282611874565b919050565b6000604051905090565b600067ffffffffffffffff821115611747576117466118de565b5b602082029050602081019050919050565b6000819050602082019050919050565b600081519050919050565b6000602082019050919050565b600082825260208201905092915050565b600082825260208201905092915050565b60006117ad8261186a565b91506117b88361186a565b9250827fffffffffffffffffffffffffffffffffffffffffffffffffffffffffffffffff038211156117ed576117ec6118af565b5b828201905092915050565b60006118038261186a565b915061180e8361186a565b925082821015611821576118206118af565b5b828203905092915050565b60006118378261184a565b9050919050565b60008115159050919050565b600073ffffffffffffffffffffffffffffffffffffffff82169050919050565b6000819050919050565b61187d8261190d565b810181811067ffffffffffffffff8211171561189c5761189b6118de565b5b80604052505050565b6000819050919050565b7f4e487b7100000000000000000000000000000000000000000000000000000000600052601160045260246000fd5b7f4e487b7100000000000000000000000000000000000000000000000000000000600052604160045260246000fd5b6000601f19601f8301169050919050565b7f496e73756666656369656e742042616c616e6365000000000000000000000000600082015250565b7f576974686472617720746f20746865207a65726f206164647265737300000000600082015250565b7f57697468647261773a20496e73756666696369656e7420617267206e756d626560008201527f7200000000000000000000000000000000000000000000000000000000000000602082015250565b7f5665726966793a20496e73756666696369656e742064656c7461206f7065726160008201527f74696f6e73000000000000000000000000000000000000000000000000000000602082015250565b611a178161182c565b8114611a2257600080fd5b50565b611a2e8161183e565b8114611a3957600080fd5b50565b611a458161186a565b8114611a5057600080fd5b5056fea2646970667358221220293cc3de95a4156908b1bace1ee996820ba2c0b7c9f8b1975e679c666a793e3f64736f6c63430008040033",
  "immutableReferences": {},
  "source": "// SPDX-License-Identifier: UNLICENSED\npragma solidity ^0.8.0;\nimport \"@openzeppelin/contracts/token/ERC20/ERC20.sol\";\nimport \"./Verifier.sol\";\ncontract Bridge {\n\n  event Deposit(uint256 l1token, uint256 l2account, uint256 amount, uint256 nonce);\n  event WithDraw(uint256 l1account, uint256 l2account, uint256 amount, uint256 nonce);\n  event SwapAck(uint256 l2account, uint256 rid);\n\n  Verifier[] private verifiers;\n\n  struct PoolInfo {\n    uint256 l1token0;\n    uint256 l0;\n    uint256 l1token1;\n    uint256 l1;\n  }\n\n  PoolInfo[] private _pools;\n\n  address private owner;\n  uint32 private _cid;\n\n  uint8 constant _SET_BALANCE = 0x1;\n  uint8 constant _SET_POOL = 0x2;\n  uint8 constant _WITHDRAW = 0x3;\n\n  mapping (uint256 => mapping(uint256 => uint256)) private _balances;\n  mapping (uint256 => uint256) private _nonce;\n\n\n  constructor(uint32 chain_id) {\n    _cid = chain_id;\n  }\n\n  function add_verifier(address verifier) public returns (uint) {\n    uint cursor = verifiers.length;\n    verifiers.push(Verifier(verifier));\n    return cursor;\n  }\n\n  function _l1_address(address account) private view returns (uint256) {\n    return (uint256(uint160(account))) + (uint256(_cid) << 160);\n  }\n\n  function _is_local(uint256 l1address) private view returns (bool) {\n    return ((l1address >> 160) == (uint256(_cid)));\n  }\n\n  function _get_verifier(uint256 call_info) private view returns(Verifier) {\n    bytes memory info = abi.encodePacked(call_info);\n    return verifiers[uint8(info[0])];\n  }\n\n  function _get_delta_code(uint256 call_info) private pure returns(uint8) {\n    bytes memory info = abi.encodePacked(call_info);\n    return uint8(info[0]);\n  }\n\n  function _set_balance(uint256 token_id, uint256 l2account, uint256 amount) private {\n    _balances[token_id][l2account] = amount;\n  }\n\n  function _set_pool(uint256 pool_id, uint256 amount0, uint256 amount1) private {\n    _pools[pool_id].l0 = amount0;\n    _pools[pool_id].l1 = amount1;\n  }\n\n  function _withdraw(uint256 tokenid, uint256 amount, uint256 l1recipent) public {\n    if (_is_local(tokenid) && _is_local(l1recipent)) {\n      address token = address(uint160(tokenid));\n      address recipent = address(uint160(l1recipent));\n\n      // Sanitity checks\n      require(recipent!= address(0), \"Withdraw to the zero address\");\n\n      // transfer amount back to recipent\n      IERC20 underlying_token = IERC20(token);\n      underlying_token.transfer(recipent, amount);\n    }\n  }\n\n\n  function nonceOf(uint256 l2account) public view returns(uint256) {\n    return _nonce[l2account];\n  }\n\n  function createPool(uint256 token1, uint256 token2) public returns (uint) {\n    PoolInfo memory pool = PoolInfo(token1, 0, token2, 0);\n    _pools.push(pool);\n    return (_pools.length - 1);\n  }\n\n  function deposit(address token, uint256 amount, uint256 l2account) public {\n    IERC20 underlying_token = IERC20(token);\n    uint256 balance = underlying_token.balanceOf(msg.sender);\n    require(balance >= amount, \"Insuffecient Balance\");\n    underlying_token.transferFrom(msg.sender, address(this), amount);\n    /*\n     * done via l2 broadcast\n     * uint256 token_id = _l1_address(token);\n     * _balances[token_id][l2account] += amount;\n     */\n    _nonce[l2account] += 1;\n    emit Deposit(_l1_address(token), l2account, amount , _nonce[l2account]);\n  }\n\n  function balanceOf(uint256 account, uint256 token_id) public view returns(uint256) {\n    return _balances[token_id][account];\n  }\n\n  /*\n   * @dev deltas encode the update function\n   * deltas = [| opcode; args |]\n   */\n  function _update_state(uint256[] memory deltas) private {\n    uint cursor = 0;\n    while (cursor < deltas.length) {\n      uint delta_code = deltas[cursor];\n      require(deltas.length >= cursor + 4, \"Withdraw: Insufficient arg number\");\n      if (delta_code == _WITHDRAW) {\n        _withdraw(deltas[cursor+1], deltas[cursor+2], deltas[cursor+3]);\n      } else if (delta_code == _SET_BALANCE) {\n        _set_balance(deltas[cursor+1], deltas[cursor+2], deltas[cursor+3]);\n      } else if (delta_code == _SET_POOL) {\n        _set_pool(deltas[cursor+1], deltas[cursor+2], deltas[cursor+3]);\n      }\n      cursor = cursor + 4;\n    }\n  }\n\n  /*\n   * @dev Data encodes the delta functions with there verification in reverse order\n   * data = opcode args; opcode' args'; ....\n   */\n  function verify(uint256 account, uint256[] memory data,\n    uint256 nonce, uint256 rid) public {\n    //require(_nonce[account] == nonce, \"Verify: Nonce does not match!\");\n    require (data.length != 0, \"Verify: Insufficient delta operations\");\n    uint cursor = 0;\n    while (cursor < data.length) {\n      uint256 op_code = data[cursor];\n      cursor += 1;\n      Verifier verifier = _get_verifier(op_code);\n      uint256[] memory update = verifier.verify(data, cursor);\n      _update_state(update);\n      cursor += verifier.getVerifierInfo().nbArgs;\n    }\n    emit SwapAck(account, rid);\n  }\n\n  function getVerifierInfo(uint index) public view returns (VerifierInfo memory) {\n    Verifier verifier = verifiers[index];\n    return verifier.getVerifierInfo();\n  }\n\n\n  function chainID() public view returns(uint256) {\n    return _cid;\n  }\n\n}\n",
  "sourcePath": "/Users/leyingan/delphinus/playground/solidity/contracts/bridge.sol",
  "compiler": {
    "name": "solc",
    "version": "0.8.4+commit.c7e474f2.Darwin.appleclang"
  },
  "schemaVersion": "3.4.1",
  "updatedAt": "2021-07-05T01:14:07.067Z",
  "networkType": "ethereum",
  "devdoc": {
    "kind": "dev",
    "methods": {},
    "version": 1
  },
  "userdoc": {
    "kind": "user",
    "methods": {},
    "version": 1
  }
}