{
  "contractName": "Check",
  "abi": [
    {
      "inputs": [],
      "stateMutability": "nonpayable",
      "type": "constructor"
    },
    {
      "anonymous": false,
      "inputs": [
        {
          "indexed": false,
          "internalType": "string",
          "name": "message",
          "type": "string"
        },
        {
          "indexed": false,
          "internalType": "bool",
          "name": "status",
          "type": "bool"
        }
      ],
      "name": "Tester",
      "type": "event"
    },
    {
      "inputs": [],
      "name": "name",
      "outputs": [
        {
          "internalType": "string",
          "name": "",
          "type": "string"
        }
      ],
      "stateMutability": "view",
      "type": "function",
      "constant": true
    },
    {
      "inputs": [
        {
          "internalType": "uint256",
          "name": "tokenId",
          "type": "uint256"
        }
      ],
      "name": "test_mint",
      "outputs": [
        {
          "internalType": "uint256",
          "name": "",
          "type": "uint256"
        }
      ],
      "stateMutability": "pure",
      "type": "function",
      "constant": true
    },
    {
      "inputs": [
        {
          "internalType": "string",
          "name": "n",
          "type": "string"
        }
      ],
      "name": "change_name",
      "outputs": [
        {
          "internalType": "string",
          "name": "",
          "type": "string"
        }
      ],
      "stateMutability": "nonpayable",
      "type": "function"
    },
    {
      "inputs": [],
      "name": "get_name",
      "outputs": [
        {
          "internalType": "string",
          "name": "",
          "type": "string"
        }
      ],
      "stateMutability": "view",
      "type": "function",
      "constant": true
    },
    {
      "inputs": [
        {
          "internalType": "uint256",
          "name": "c",
          "type": "uint256"
        }
      ],
      "name": "check_encode",
      "outputs": [
        {
          "internalType": "uint8",
          "name": "",
          "type": "uint8"
        }
      ],
      "stateMutability": "pure",
      "type": "function",
      "constant": true
    }
  ],
  "bytecode": "0x60806040526040518060400160405280600481526020017f6e616d65000000000000000000000000000000000000000000000000000000008152506000908051906020019061004f929190610062565b5034801561005c57600080fd5b50610166565b82805461006e90610105565b90600052602060002090601f01602090048101928261009057600085556100d7565b82601f106100a957805160ff19168380011785556100d7565b828001600101855582156100d7579182015b828111156100d65782518255916020019190600101906100bb565b5b5090506100e491906100e8565b5090565b5b808211156101015760008160009055506001016100e9565b5090565b6000600282049050600182168061011d57607f821691505b6020821081141561013157610130610137565b5b50919050565b7f4e487b7100000000000000000000000000000000000000000000000000000000600052602260045260246000fd5b61089e806101756000396000f3fe608060405234801561001057600080fd5b50600436106100575760003560e01c806306fdde031461005c578063310b466d1461007a5780633a525c29146100aa578063e349cb12146100c8578063f2e37212146100f8575b600080fd5b610064610128565b60405161007191906105ef565b60405180910390f35b610094600480360381019061008f919061050b565b6101b6565b6040516100a1919061063f565b60405180910390f35b6100b26101c0565b6040516100bf91906105ef565b60405180910390f35b6100e260048036038101906100dd91906104ca565b610252565b6040516100ef91906105ef565b60405180910390f35b610112600480360381019061010d919061050b565b610335565b60405161011f919061065a565b60405180910390f35b600080546101359061074c565b80601f01602080910402602001604051908101604052809291908181526020018280546101619061074c565b80156101ae5780601f10610183576101008083540402835291602001916101ae565b820191906000526020600020905b81548152906001019060200180831161019157829003601f168201915b505050505081565b6000819050919050565b6060600080546101cf9061074c565b80601f01602080910402602001604051908101604052809291908181526020018280546101fb9061074c565b80156102485780601f1061021d57610100808354040283529160200191610248565b820191906000526020600020905b81548152906001019060200180831161022b57829003601f168201915b5050505050905090565b6060816000908051906020019061026a9291906103aa565b507f68d037f38a28e3ad212343bc5a54854d6bdc47c83b8efbc6d15c1a7caa58ca0b600160405161029b9190610611565b60405180910390a1600080546102b09061074c565b80601f01602080910402602001604051908101604052809291908181526020018280546102dc9061074c565b80156103295780601f106102fe57610100808354040283529160200191610329565b820191906000526020600020905b81548152906001019060200180831161030c57829003601f168201915b50505050509050919050565b6000808260405160200161034991906105d4565b604051602081830303815290604052905080600081518110610394577f4e487b7100000000000000000000000000000000000000000000000000000000600052603260045260246000fd5b602001015160f81c60f81b60f81c915050919050565b8280546103b69061074c565b90600052602060002090601f0160209004810192826103d8576000855561041f565b82601f106103f157805160ff191683800117855561041f565b8280016001018555821561041f579182015b8281111561041e578251825591602001919060010190610403565b5b50905061042c9190610430565b5090565b5b80821115610449576000816000905550600101610431565b5090565b600061046061045b8461069a565b610675565b90508281526020810184848401111561047857600080fd5b61048384828561070a565b509392505050565b600082601f83011261049c57600080fd5b81356104ac84826020860161044d565b91505092915050565b6000813590506104c481610851565b92915050565b6000602082840312156104dc57600080fd5b600082013567ffffffffffffffff8111156104f657600080fd5b6105028482850161048b565b91505092915050565b60006020828403121561051d57600080fd5b600061052b848285016104b5565b91505092915050565b61053d816106e7565b82525050565b600061054e826106cb565b61055881856106d6565b9350610568818560208601610719565b61057181610817565b840191505092915050565b60006105896004836106d6565b915061059482610828565b602082019050919050565b6105a8816106f3565b82525050565b6105bf6105ba826106f3565b6107af565b82525050565b6105ce816106fd565b82525050565b60006105e082846105ae565b60208201915081905092915050565b600060208201905081810360008301526106098184610543565b905092915050565b6000604082019050818103600083015261062a8161057c565b90506106396020830184610534565b92915050565b6000602082019050610654600083018461059f565b92915050565b600060208201905061066f60008301846105c5565b92915050565b600061067f610690565b905061068b828261077e565b919050565b6000604051905090565b600067ffffffffffffffff8211156106b5576106b46107e8565b5b6106be82610817565b9050602081019050919050565b600081519050919050565b600082825260208201905092915050565b60008115159050919050565b6000819050919050565b600060ff82169050919050565b82818337600083830152505050565b60005b8381101561073757808201518184015260208101905061071c565b83811115610746576000848401525b50505050565b6000600282049050600182168061076457607f821691505b60208210811415610778576107776107b9565b5b50919050565b61078782610817565b810181811067ffffffffffffffff821117156107a6576107a56107e8565b5b80604052505050565b6000819050919050565b7f4e487b7100000000000000000000000000000000000000000000000000000000600052602260045260246000fd5b7f4e487b7100000000000000000000000000000000000000000000000000000000600052604160045260246000fd5b6000601f19601f8301169050919050565b7f4d494e5400000000000000000000000000000000000000000000000000000000600082015250565b61085a816106f3565b811461086557600080fd5b5056fea26469706673582212200a68dca8239c9bb4129eba4671b9bd2541b0bc90d3687c0767c517497c1693c864736f6c63430008040033",
  "immutableReferences": {},
  "source": "pragma solidity ^0.8.0;\ncontract Check{\n  event Tester(string message, bool status);\n  string public name = \"name\";\n  constructor() {}\n  function test_mint(uint256 tokenId) public pure returns (uint256) {\n    return tokenId;\n  }\n  function change_name(string memory n) public returns (string memory) {\n    name = n;\n    emit Tester(\"MINT\", true);\n    return name;\n  }\n  function get_name() public view returns (string memory) {\n    return name;\n  }\n  function check_encode(uint256 c) public pure returns (uint8) {\n    bytes memory info = abi.encodePacked(c);\n    return uint8(info[0]);\n  }\n}\n",
  "sourcePath": "/Users/leyingan/delphinus/playground/solidity/contracts/check.sol",
  "compiler": {
    "name": "solc",
    "version": "0.8.4+commit.c7e474f2.Darwin.appleclang"
  },
  "schemaVersion": "3.4.1",
  "updatedAt": "2021-07-05T01:18:09.524Z",
  "networkType": "ethereum",
  "devdoc": {
    "kind": "dev",
    "methods": {},
    "version": 1
  },
  "userdoc": {
    "kind": "user",
    "methods": {},
    "version": 1
  }
}