{
  "contractName": "Deposit",
  "abi": [
    {
      "inputs": [
        {
          "internalType": "uint256[]",
          "name": "witness",
          "type": "uint256[]"
        },
        {
          "internalType": "uint256",
          "name": "cursor",
          "type": "uint256"
        }
      ],
      "name": "verify",
      "outputs": [
        {
          "internalType": "uint256[]",
          "name": "",
          "type": "uint256[]"
        }
      ],
      "stateMutability": "nonpayable",
      "type": "function"
    },
    {
      "inputs": [],
      "name": "getVerifierInfo",
      "outputs": [
        {
          "components": [
            {
              "internalType": "uint256",
              "name": "nbArgs",
              "type": "uint256"
            }
          ],
          "internalType": "struct VerifierInfo",
          "name": "",
          "type": "tuple"
        }
      ],
      "stateMutability": "pure",
      "type": "function",
      "constant": true
    },
    {
      "inputs": [
        {
          "internalType": "uint256",
          "name": "cursor",
          "type": "uint256"
        },
        {
          "internalType": "uint256[]",
          "name": "witness",
          "type": "uint256[]"
        }
      ],
      "name": "testArgument",
      "outputs": [
        {
          "internalType": "uint256",
          "name": "",
          "type": "uint256"
        }
      ],
      "stateMutability": "pure",
      "type": "function",
      "constant": true
    }
  ],
  "bytecode": "0x608060405234801561001057600080fd5b50610744806100206000396000f3fe608060405234801561001057600080fd5b50600436106100415760003560e01c8063191bd436146100465780635b2759f214610076578063e215abff146100a6575b600080fd5b610060600480360381019061005b91906104cf565b6100c4565b60405161006d9190610614565b60405180910390f35b610090600480360381019061008b9190610477565b61010f565b60405161009d91906105d7565b60405180910390f35b6100ae6103e8565b6040516100bb91906105f9565b60405180910390f35b60008282858181106100ff577f4e487b7100000000000000000000000000000000000000000000000000000000600052603260045260246000fd5b9050602002013590509392505050565b60606000600467ffffffffffffffff811115610154577f4e487b7100000000000000000000000000000000000000000000000000000000600052604160045260246000fd5b6040519080825280602002602001820160405280156101825781602001602082028036833780820191505090505b50905060008585858181106101c0577f4e487b7100000000000000000000000000000000000000000000000000000000600052603260045260246000fd5b905060200201359050600086866001876101da9190610668565b818110610210577f4e487b7100000000000000000000000000000000000000000000000000000000600052603260045260246000fd5b9050602002013590506000878760028861022a9190610668565b818110610260577f4e487b7100000000000000000000000000000000000000000000000000000000600052603260045260246000fd5b9050602002013590506000888860038961027a9190610668565b8181106102b0577f4e487b7100000000000000000000000000000000000000000000000000000000600052603260045260246000fd5b905060200201359050600160ff16856000815181106102f8577f4e487b7100000000000000000000000000000000000000000000000000000000600052603260045260246000fd5b602002602001018181525050828560018151811061033f577f4e487b7100000000000000000000000000000000000000000000000000000000600052603260045260246000fd5b6020026020010181815250508385600281518110610386577f4e487b7100000000000000000000000000000000000000000000000000000000600052603260045260246000fd5b60200260200101818152505081856003815181106103cd577f4e487b7100000000000000000000000000000000000000000000000000000000600052603260045260246000fd5b60200260200101818152505084955050505050509392505050565b6103f0610405565b60405180602001604052806004815250905090565b6040518060200160405280600081525090565b60008083601f84011261042a57600080fd5b8235905067ffffffffffffffff81111561044357600080fd5b60208301915083602082028301111561045b57600080fd5b9250929050565b600081359050610471816106f7565b92915050565b60008060006040848603121561048c57600080fd5b600084013567ffffffffffffffff8111156104a657600080fd5b6104b286828701610418565b935093505060206104c586828701610462565b9150509250925092565b6000806000604084860312156104e457600080fd5b60006104f286828701610462565b935050602084013567ffffffffffffffff81111561050f57600080fd5b61051b86828701610418565b92509250509250925092565b600061053383836105b9565b60208301905092915050565b600061054a8261063f565b6105548185610657565b935061055f8361062f565b8060005b838110156105905781516105778882610527565b97506105828361064a565b925050600181019050610563565b5085935050505092915050565b6020820160008201516105b360008501826105b9565b50505050565b6105c2816106be565b82525050565b6105d1816106be565b82525050565b600060208201905081810360008301526105f1818461053f565b905092915050565b600060208201905061060e600083018461059d565b92915050565b600060208201905061062960008301846105c8565b92915050565b6000819050602082019050919050565b600081519050919050565b6000602082019050919050565b600082825260208201905092915050565b6000610673826106be565b915061067e836106be565b9250827fffffffffffffffffffffffffffffffffffffffffffffffffffffffffffffffff038211156106b3576106b26106c8565b5b828201905092915050565b6000819050919050565b7f4e487b7100000000000000000000000000000000000000000000000000000000600052601160045260246000fd5b610700816106be565b811461070b57600080fd5b5056fea2646970667358221220489c783bd7a4c3966ba9ca7c072a9255a0ac26db9f3645b851d81ed499dfd2ea64736f6c63430008040033",
  "immutableReferences": {},
  "source": "// SPDX-License-Identifier: UNLICENSED\npragma solidity ^0.8.0;\nimport \"./Verifier.sol\";\ncontract Deposit is Verifier{\n\n  uint8 constant _SET_BALANCE = 0x1;\n  uint8 constant _SET_POOL = 0x2;\n  uint8 constant _WITHDRAW = 0x3;\n\n  function verify(uint256[] calldata witness, uint cursor) public override returns (uint256[] memory) {\n    uint256[] memory ops = new uint256[](4);\n    uint256 l2account = witness[cursor];\n    uint256 tokenId = witness[cursor+1];\n    uint256 restAmount = witness[cursor+2];\n    uint256 transferAmount = witness[cursor+3];\n    /* We need to put snark verification here */\n    /* set u_1 */\n    ops[0] = _SET_BALANCE;\n    ops[1] = tokenId;\n    ops[2] = l2account;\n    ops[3] = restAmount;\n    return ops;\n  }\n  function getVerifierInfo() public override pure returns (VerifierInfo memory) {\n    return VerifierInfo(4);\n  }\n  function testArgument(uint cursor, uint256[] calldata witness) public pure returns (uint256) {\n    return witness[cursor];\n  }\n\n}\n",
  "sourcePath": "/Users/leyingan/delphinus/playground/solidity/contracts/Deposit.sol",
  "compiler": {
    "name": "solc",
    "version": "0.8.4+commit.c7e474f2.Darwin.appleclang"
  },
  "schemaVersion": "3.4.1",
  "updatedAt": "2021-07-05T01:14:07.078Z",
  "networkType": "ethereum",
  "devdoc": {
    "kind": "dev",
    "methods": {},
    "version": 1
  },
  "userdoc": {
    "kind": "user",
    "methods": {},
    "version": 1
  }
}