{
  "contractName": "Deposit",
  "abi": [
    {
      "inputs": [
        {
          "internalType": "uint256[]",
          "name": "",
          "type": "uint256[]"
        },
        {
          "internalType": "uint256",
          "name": "",
          "type": "uint256"
        }
      ],
      "name": "sideEffect",
      "outputs": [
        {
          "internalType": "uint256[]",
          "name": "",
          "type": "uint256[]"
        }
      ],
      "stateMutability": "pure",
      "type": "function",
      "constant": true
    }
  ],
  "bytecode": "0x608060405234801561001057600080fd5b50610304806100206000396000f3fe608060405234801561001057600080fd5b506004361061002b5760003560e01c8063d46e692714610030575b600080fd5b61004a6004803603810190610045919061015f565b610060565b604051610057919061027d565b60405180910390f35b606060008067ffffffffffffffff81111561007e5761007d61029f565b5b6040519080825280602002602001820160405280156100ac5781602001602082028036833780820191505090505b509050809150509392505050565b600080fd5b600080fd5b600080fd5b600080fd5b600080fd5b60008083601f8401126100e9576100e86100c4565b5b8235905067ffffffffffffffff811115610106576101056100c9565b5b602083019150836020820283011115610122576101216100ce565b5b9250929050565b6000819050919050565b61013c81610129565b811461014757600080fd5b50565b60008135905061015981610133565b92915050565b600080600060408486031215610178576101776100ba565b5b600084013567ffffffffffffffff811115610196576101956100bf565b5b6101a2868287016100d3565b935093505060206101b58682870161014a565b9150509250925092565b600081519050919050565b600082825260208201905092915050565b6000819050602082019050919050565b6101f481610129565b82525050565b600061020683836101eb565b60208301905092915050565b6000602082019050919050565b600061022a826101bf565b61023481856101ca565b935061023f836101db565b8060005b8381101561027057815161025788826101fa565b975061026283610212565b925050600181019050610243565b5085935050505092915050565b60006020820190508181036000830152610297818461021f565b905092915050565b7f4e487b7100000000000000000000000000000000000000000000000000000000600052604160045260246000fdfea26469706673582212202d991517dd79bd7cc67ecfcfda85dbe2aaa9a585b4cc2da8fc7c466352a52f5164736f6c63430008090033",
  "immutableReferences": {},
  "source": "// SPDX-License-Identifier: UNLICENSED\npragma solidity ^0.8.0;\nimport \"./Transaction.sol\";\ncontract Deposit is Transaction {\n\n  function sideEffect(uint256[] calldata, uint) public pure override\n    returns (uint256[] memory) {\n    uint256[] memory r = new uint256[](0);\n    return r;\n  }\n}\n",
  "sourcePath": "/home/xgao/delphinus-lerna/packages/solidity/contracts/Deposit.sol",
  "compiler": {
    "name": "solc",
    "version": "0.8.9+commit.e5eed63a.Linux.g++"
  },
  "schemaVersion": "3.4.3",
  "updatedAt": "2021-11-08T10:20:42.047Z",
  "networkType": "ethereum",
  "devdoc": {
    "kind": "dev",
    "methods": {},
    "version": 1
  },
  "userdoc": {
    "kind": "user",
    "methods": {},
    "version": 1
  }
}