{
  "contractName": "DummyVerifier",
  "abi": [
    {
      "inputs": [
        {
          "internalType": "uint256[]",
          "name": "",
          "type": "uint256[]"
        }
      ],
      "name": "verifyDelphinusTx",
      "outputs": [
        {
          "internalType": "bool",
          "name": "",
          "type": "bool"
        }
      ],
      "stateMutability": "pure",
      "type": "function"
    }
  ],
  "bytecode": "0x608060405234801561001057600080fd5b50610194806100206000396000f3fe608060405234801561001057600080fd5b506004361061002b5760003560e01c8063b91b0b8314610030575b600080fd5b61004a600480360381019061004591906100db565b610060565b6040516100579190610143565b60405180910390f35b60006001905092915050565b600080fd5b600080fd5b600080fd5b600080fd5b600080fd5b60008083601f84011261009b5761009a610076565b5b8235905067ffffffffffffffff8111156100b8576100b761007b565b5b6020830191508360208202830111156100d4576100d3610080565b5b9250929050565b600080602083850312156100f2576100f161006c565b5b600083013567ffffffffffffffff8111156101105761010f610071565b5b61011c85828601610085565b92509250509250929050565b60008115159050919050565b61013d81610128565b82525050565b60006020820190506101586000830184610134565b9291505056fea26469706673582212204db08766a9868c1e8c204167cb8a97c8c5a3ef366f9f9a73986601cf63f3b13c64736f6c63430008090033",
  "immutableReferences": {},
  "source": "// SPDX-License-Identifier: UNLICENSED\npragma solidity ^0.8.0;\nimport \"./Verifier.sol\";\ncontract DummyVerifier is DelphinusVerifier {\n  function verifyDelphinusTx(uint256[] calldata)\n    public pure override returns (bool) {\n    return true;\n  }\n}\n",
  "sourcePath": "/home/xgao/delphinus-lerna/packages/solidity/contracts/DummyVerifier.sol",
  "compiler": {
    "name": "solc",
    "version": "0.8.9+commit.e5eed63a.Linux.g++"
  },
  "schemaVersion": "3.4.4",
  "updatedAt": "2022-01-07T04:30:57.318Z",
  "networkType": "ethereum",
  "devdoc": {
    "kind": "dev",
    "methods": {},
    "version": 1
  },
  "userdoc": {
    "kind": "user",
    "methods": {},
    "version": 1
  }
}