{
  "contractName": "GrothVerifier",
  "abi": [
    {
      "inputs": [
        {
          "components": [
            {
              "components": [
                {
                  "internalType": "uint256",
                  "name": "X",
                  "type": "uint256"
                },
                {
                  "internalType": "uint256",
                  "name": "Y",
                  "type": "uint256"
                }
              ],
              "internalType": "struct Pairing.G1Point",
              "name": "a",
              "type": "tuple"
            },
            {
              "components": [
                {
                  "internalType": "uint256[2]",
                  "name": "X",
                  "type": "uint256[2]"
                },
                {
                  "internalType": "uint256[2]",
                  "name": "Y",
                  "type": "uint256[2]"
                }
              ],
              "internalType": "struct Pairing.G2Point",
              "name": "b",
              "type": "tuple"
            },
            {
              "components": [
                {
                  "internalType": "uint256",
                  "name": "X",
                  "type": "uint256"
                },
                {
                  "internalType": "uint256",
                  "name": "Y",
                  "type": "uint256"
                }
              ],
              "internalType": "struct Pairing.G1Point",
              "name": "c",
              "type": "tuple"
            }
          ],
          "internalType": "struct Verifier.Proof",
          "name": "proof",
          "type": "tuple"
        },
        {
          "internalType": "uint256[4]",
          "name": "input",
          "type": "uint256[4]"
        }
      ],
      "name": "verifyTx",
      "outputs": [
        {
          "internalType": "bool",
          "name": "r",
          "type": "bool"
        }
      ],
      "stateMutability": "view",
      "type": "function",
      "constant": true
    },
    {
      "inputs": [
        {
          "internalType": "uint256[]",
          "name": "input",
          "type": "uint256[]"
        }
      ],
      "name": "verifyDelphinusTx",
      "outputs": [
        {
          "internalType": "bool",
          "name": "",
          "type": "bool"
        }
      ],
      "stateMutability": "view",
      "type": "function",
      "constant": true
    }
  ],
  "bytecode": "0x608060405234801561001057600080fd5b50611a64806100206000396000f3fe608060405234801561001057600080fd5b50600436106100365760003560e01c8063799afa761461003b578063b91b0b831461006b575b600080fd5b61005560048036038101906100509190611680565b61009b565b60405161006291906116dd565b60405180910390f35b61008560048036038101906100809190611753565b610169565b60405161009291906116dd565b60405180910390f35b600080600467ffffffffffffffff8111156100b9576100b861135e565b5b6040519080825280602002602001820160405280156100e75781602001602082028036833780820191505090505b50905060005b600481101561014057838160048110610109576101086117a0565b5b6020020151828281518110610121576101206117a0565b5b6020026020010181815250508080610138906117fe565b9150506100ed565b50600061014d82866103e1565b141561015d576001915050610163565b60009150505b92915050565b6000600c83839050146101b1576040517f08c379a00000000000000000000000000000000000000000000000000000000081526004016101a8906118ca565b60405180910390fd5b600060405180606001604052806040518060400160405280878760008181106101dd576101dc6117a0565b5b905060200201358152602001878760018181106101fd576101fc6117a0565b5b9050602002013581525081526020016040518060400160405280604051806040016040528089896002818110610236576102356117a0565b5b90506020020135815260200189896003818110610256576102556117a0565b5b905060200201358152508152602001604051806040016040528089896004818110610284576102836117a0565b5b905060200201358152602001898960058181106102a4576102a36117a0565b5b9050602002013581525081525081526020016040518060400160405280878760068181106102d5576102d46117a0565b5b905060200201358152602001878760078181106102f5576102f46117a0565b5b9050602002013581525081525090506000600467ffffffffffffffff8111156103215761032061135e565b5b60405190808252806020026020018201604052801561034f5781602001602082028036833780820191505090505b50905060005b60048110156103b657858560088361036d91906118ea565b81811061037d5761037c6117a0565b5b90506020020135828281518110610397576103966117a0565b5b60200260200101818152505080806103ae906117fe565b915050610355565b5060006103c382846103e1565b14156103d4576001925050506103db565b6000925050505b92915050565b6000807f30644e72e131a029b85045b68181585d2833e84879b9709143e1f593f000000190506000610411610578565b90508060800151516001865161042791906118ea565b1461043157600080fd5b60006040518060400160405280600081526020016000815250905060005b86518110156104ea578387828151811061046c5761046b6117a0565b5b60200260200101511061047e57600080fd5b6104d5826104d0856080015160018561049791906118ea565b815181106104a8576104a76117a0565b5b60200260200101518a85815181106104c3576104c26117a0565b5b6020026020010151610ae4565b610b8b565b915080806104e2906117fe565b91505061044f565b50610514818360800151600081518110610507576105066117a0565b5b6020026020010151610b8b565b905061055a8560000151866020015161052c84610c58565b856040015161053e8a60400151610c58565b87606001516105508960000151610c58565b8960200151610cfd565b61056a5760019350505050610572565b600093505050505b92915050565b610580611225565b60405180604001604052807f0639739884e4cfd74a386c42e76b960d081587f0bd2eabed98bccc21acc409a781526020017f10fe219c041b6e705f9835bbed7bc07c9bdea9bdf06d462e6a173ca47b9c557e8152508160000181905250604051806040016040528060405180604001604052807f14e8700fb26712e75fc0639d9a0226129201d0e699f1273514ad712c70fd54b481526020017f267b6de76a96ce764a537f333b24181d5171ce6a3dfd4a28c508c6bcf5048f07815250815260200160405180604001604052807f150ec1a4d434225b2ed55032172db9da0ad4c9db86656fe3ba020fa9e7104df581526020017f114f7ceefa16742fefb6d6197d1ea70a768752b5cd12889ef0fa031ce063b5498152508152508160200181905250604051806040016040528060405180604001604052807f030ea50d8dae3852b44e8d356de9f7596ba6d2d4b190f4c3fb4d88ceb3364c6c81526020017f2cd3d78867f93a070095bd9204b0af65c6364e836922468272ec9ec26acff209815250815260200160405180604001604052807f171d6e71286984a8ff675b0f8db7b8019068ed725b8d71e7042e3cd08159e46c81526020017f0a2d58c40f259c3f95cae6d8f040d0f1dcf383f88ba3059802880efdc9f6d7728152508152508160400181905250604051806040016040528060405180604001604052807f0217b13c100baef2f3a6bdcd43396f7c93a1dbc57e69a29e9ec1565967d4bb0781526020017f0d241a7a8fa080926c6995ccba07f920c75ec5ccc7144bdd184a9e0ad4059638815250815260200160405180604001604052807f09e5e7d7f49ba6e9f3a91aa6148815d16923d9077eec309a15e8da64283dd46481526020017f2e6e6a6e7492a814215db2f49dd03dbb36fa7fa1b568df7654485ac1d595ff8a8152508152508160600181905250600567ffffffffffffffff8111156108475761084661135e565b5b60405190808252806020026020018201604052801561088057816020015b61086d61126c565b8152602001906001900390816108655790505b50816080018190525060405180604001604052807f22ed297695f3b1c7c571869a63890d8c416d0e9443e2f86c0300a8d3d5ce3ae781526020017f2ec1ba63a1cb5cdc75d8641d6d729b7d14840813144988ed6945786d3a25218481525081608001516000815181106108f6576108f56117a0565b5b602002602001018190525060405180604001604052807f116e059b045c39d03feceb099df6eddd49698bd144c7c75c48b66fa3e6c6f61281526020017f077cf68edd089784d925615419f9d6be7fdca43294eb9461c1e9ad24458b06f4815250816080015160018151811061096e5761096d6117a0565b5b602002602001018190525060405180604001604052807f049e16c51d48991786dbcaaadd0e374db8df85a330c77b24b8a0e7bfa4abca7d81526020017f142405684a986cd53b955dd739a33108f3fe31cae281ddd7e6c41a60ba768d6681525081608001516002815181106109e6576109e56117a0565b5b602002602001018190525060405180604001604052807f0d6a20d8a01b2d249e96abbbc7ec656d27b2562c14875b77b69b0be0e9becf2b81526020017f0279c564202d89a212ab26141d80844d51f0e620dc2e9f08a1cab4458879508d8152508160800151600381518110610a5e57610a5d6117a0565b5b602002602001018190525060405180604001604052807f23d084394339c745334badbf2944dac6604f139a21025954560202301645dd0781526020017f2d65b3c91c57c543a5fdd596fba1b5be2007a4d5ee92093493289f01be45ae088152508160800151600481518110610ad657610ad56117a0565b5b602002602001018190525090565b610aec61126c565b610af4611286565b836000015181600060038110610b0d57610b0c6117a0565b5b602002018181525050836020015181600160038110610b2f57610b2e6117a0565b5b6020020181815250508281600260038110610b4d57610b4c6117a0565b5b602002018181525050600060608360808460076107d05a03fa90508060008114610b7657610b78565bfe5b5080610b8357600080fd5b505092915050565b610b9361126c565b610b9b6112a8565b836000015181600060048110610bb457610bb36117a0565b5b602002018181525050836020015181600160048110610bd657610bd56117a0565b5b602002018181525050826000015181600260048110610bf857610bf76117a0565b5b602002018181525050826020015181600360048110610c1a57610c196117a0565b5b602002018181525050600060608360c08460066107d05a03fa90508060008114610c4357610c45565bfe5b5080610c5057600080fd5b505092915050565b610c6061126c565b60007f30644e72e131a029b85045b68181585d97816a916871ca8d3c208c16d87cfd47905060008360000151148015610c9d575060008360200151145b15610cc1576040518060400160405280600081526020016000815250915050610cf8565b604051806040016040528084600001518152602001828560200151610ce6919061196f565b83610cf191906119a0565b8152509150505b919050565b600080600467ffffffffffffffff811115610d1b57610d1a61135e565b5b604051908082528060200260200182016040528015610d5457816020015b610d4161126c565b815260200190600190039081610d395790505b5090506000600467ffffffffffffffff811115610d7457610d7361135e565b5b604051908082528060200260200182016040528015610dad57816020015b610d9a6112ca565b815260200190600190039081610d925790505b5090508a82600081518110610dc557610dc46117a0565b5b60200260200101819052508882600181518110610de557610de46117a0565b5b60200260200101819052508682600281518110610e0557610e046117a0565b5b60200260200101819052508482600381518110610e2557610e246117a0565b5b60200260200101819052508981600081518110610e4557610e446117a0565b5b60200260200101819052508781600181518110610e6557610e646117a0565b5b60200260200101819052508581600281518110610e8557610e846117a0565b5b60200260200101819052508381600381518110610ea557610ea46117a0565b5b6020026020010181905250610eba8282610eca565b9250505098975050505050505050565b60008151835114610eda57600080fd5b6000835190506000600682610eef91906119d4565b905060008167ffffffffffffffff811115610f0d57610f0c61135e565b5b604051908082528060200260200182016040528015610f3b5781602001602082028036833780820191505090505b50905060005b838110156111c057868181518110610f5c57610f5b6117a0565b5b602002602001015160000151826000600684610f7891906119d4565b610f8291906118ea565b81518110610f9357610f926117a0565b5b602002602001018181525050868181518110610fb257610fb16117a0565b5b602002602001015160200151826001600684610fce91906119d4565b610fd891906118ea565b81518110610fe957610fe86117a0565b5b602002602001018181525050858181518110611008576110076117a0565b5b602002602001015160000151600160028110611027576110266117a0565b5b602002015182600260068461103c91906119d4565b61104691906118ea565b81518110611057576110566117a0565b5b602002602001018181525050858181518110611076576110756117a0565b5b602002602001015160000151600060028110611095576110946117a0565b5b60200201518260036006846110aa91906119d4565b6110b491906118ea565b815181106110c5576110c46117a0565b5b6020026020010181815250508581815181106110e4576110e36117a0565b5b602002602001015160200151600160028110611103576111026117a0565b5b602002015182600460068461111891906119d4565b61112291906118ea565b81518110611133576111326117a0565b5b602002602001018181525050858181518110611152576111516117a0565b5b602002602001015160200151600060028110611171576111706117a0565b5b602002015182600560068461118691906119d4565b61119091906118ea565b815181106111a1576111a06117a0565b5b60200260200101818152505080806111b8906117fe565b915050610f41565b506111c96112f0565b6000602082602086026020860160086107d05a03fa905080600081146111ee576111f0565bfe5b50806111fb57600080fd5b600082600060018110611211576112106117a0565b5b602002015114159550505050505092915050565b6040518060a0016040528061123861126c565b81526020016112456112ca565b81526020016112526112ca565b815260200161125f6112ca565b8152602001606081525090565b604051806040016040528060008152602001600081525090565b6040518060600160405280600390602082028036833780820191505090505090565b6040518060800160405280600490602082028036833780820191505090505090565b60405180604001604052806112dd611312565b81526020016112ea611312565b81525090565b6040518060200160405280600190602082028036833780820191505090505090565b6040518060400160405280600290602082028036833780820191505090505090565b6000604051905090565b600080fd5b600080fd5b600080fd5b6000601f19601f8301169050919050565b7f4e487b7100000000000000000000000000000000000000000000000000000000600052604160045260246000fd5b6113968261134d565b810181811067ffffffffffffffff821117156113b5576113b461135e565b5b80604052505050565b60006113c8611334565b90506113d4828261138d565b919050565b6000819050919050565b6113ec816113d9565b81146113f757600080fd5b50565b600081359050611409816113e3565b92915050565b60006040828403121561142557611424611348565b5b61142f60406113be565b9050600061143f848285016113fa565b6000830152506020611453848285016113fa565b60208301525092915050565b600080fd5b600067ffffffffffffffff82111561147f5761147e61135e565b5b602082029050919050565b600080fd5b60006114a261149d84611464565b6113be565b905080602084028301858111156114bc576114bb61148a565b5b835b818110156114e557806114d188826113fa565b8452602084019350506020810190506114be565b5050509392505050565b600082601f8301126115045761150361145f565b5b600261151184828561148f565b91505092915050565b6000608082840312156115305761152f611348565b5b61153a60406113be565b9050600061154a848285016114ef565b600083015250604061155e848285016114ef565b60208301525092915050565b6000610100828403121561158157611580611348565b5b61158b60606113be565b9050600061159b8482850161140f565b60008301525060406115af8482850161151a565b60208301525060c06115c38482850161140f565b60408301525092915050565b600067ffffffffffffffff8211156115ea576115e961135e565b5b602082029050919050565b6000611608611603846115cf565b6113be565b905080602084028301858111156116225761162161148a565b5b835b8181101561164b578061163788826113fa565b845260208401935050602081019050611624565b5050509392505050565b600082601f83011261166a5761166961145f565b5b60046116778482856115f5565b91505092915050565b60008061018083850312156116985761169761133e565b5b60006116a68582860161156a565b9250506101006116b885828601611655565b9150509250929050565b60008115159050919050565b6116d7816116c2565b82525050565b60006020820190506116f260008301846116ce565b92915050565b600080fd5b60008083601f8401126117135761171261145f565b5b8235905067ffffffffffffffff8111156117305761172f6116f8565b5b60208301915083602082028301111561174c5761174b61148a565b5b9250929050565b6000806020838503121561176a5761176961133e565b5b600083013567ffffffffffffffff81111561178857611787611343565b5b611794858286016116fd565b92509250509250929050565b7f4e487b7100000000000000000000000000000000000000000000000000000000600052603260045260246000fd5b7f4e487b7100000000000000000000000000000000000000000000000000000000600052601160045260246000fd5b6000611809826113d9565b91507fffffffffffffffffffffffffffffffffffffffffffffffffffffffffffffffff82141561183c5761183b6117cf565b5b600182019050919050565b600082825260208201905092915050565b7f5a4b5056657269666965723a20696e707574206c656e67746820697320696e7660008201527f616c696400000000000000000000000000000000000000000000000000000000602082015250565b60006118b4602483611847565b91506118bf82611858565b604082019050919050565b600060208201905081810360008301526118e3816118a7565b9050919050565b60006118f5826113d9565b9150611900836113d9565b9250827fffffffffffffffffffffffffffffffffffffffffffffffffffffffffffffffff03821115611935576119346117cf565b5b828201905092915050565b7f4e487b7100000000000000000000000000000000000000000000000000000000600052601260045260246000fd5b600061197a826113d9565b9150611985836113d9565b92508261199557611994611940565b5b828206905092915050565b60006119ab826113d9565b91506119b6836113d9565b9250828210156119c9576119c86117cf565b5b828203905092915050565b60006119df826113d9565b91506119ea836113d9565b9250817fffffffffffffffffffffffffffffffffffffffffffffffffffffffffffffffff0483118215151615611a2357611a226117cf565b5b82820290509291505056fea2646970667358221220478512f4030615544c4b8128da7976dc599dd365d63c013b364c3bbd5b0e05f564736f6c63430008090033",
  "immutableReferences": {},
  "source": "// SPDX-License-Identifier: UNLICENSED\npragma solidity ^0.8.0;\nimport \"./ZKPVerifier.sol\";\ncontract GrothVerifier is Verifier {\n  function verifyDelphinusTx(uint256[] calldata input)\n      public view returns (bool)\n  {\n      require(input.length == 12, \"ZKPVerifier: input length is invalid\");\n\n      Proof memory proof = Proof(\n          Pairing.G1Point(input[0], input[1]),\n          Pairing.G2Point([input[2], input[3]], [input[4], input[5]]),\n          Pairing.G1Point(input[6], input[7])\n      );\n\n      uint256[] memory inputValues = new uint256[](4);\n      for (uint256 i = 0; i < 4; i++) {\n          inputValues[i] = input[i + 8];\n      }\n\n      if (verify(inputValues, proof) == 0) {\n          return true;\n      } else {\n          return false;\n      }\n  }\n}\n",
  "sourcePath": "/home/xgao/delphinus-lerna/packages/solidity/contracts/Groth.sol",
  "compiler": {
    "name": "solc",
    "version": "0.8.9+commit.e5eed63a.Linux.g++"
  },
  "schemaVersion": "3.4.3",
  "updatedAt": "2021-11-08T10:20:42.059Z",
  "networkType": "ethereum",
  "devdoc": {
    "kind": "dev",
    "methods": {},
    "version": 1
  },
  "userdoc": {
    "kind": "user",
    "methods": {},
    "version": 1
  }
}