{
  "contractName": "GrothVerifier",
  "abi": [
    {
      "inputs": [
        {
          "internalType": "uint256[2]",
          "name": "a",
          "type": "uint256[2]"
        },
        {
          "internalType": "uint256[2][2]",
          "name": "b",
          "type": "uint256[2][2]"
        },
        {
          "internalType": "uint256[2]",
          "name": "c",
          "type": "uint256[2]"
        },
        {
          "internalType": "uint256[4]",
          "name": "input",
          "type": "uint256[4]"
        }
      ],
      "name": "verifyProof",
      "outputs": [
        {
          "internalType": "bool",
          "name": "r",
          "type": "bool"
        }
      ],
      "stateMutability": "view",
      "type": "function",
      "constant": true
    },
    {
      "inputs": [
        {
          "internalType": "uint256[]",
          "name": "input",
          "type": "uint256[]"
        }
      ],
      "name": "verifyDelphinusTx",
      "outputs": [
        {
          "internalType": "bool",
          "name": "",
          "type": "bool"
        }
      ],
      "stateMutability": "view",
      "type": "function",
      "constant": true
    }
  ],
  "bytecode": "0x608060405234801561001057600080fd5b50611fba806100206000396000f3fe608060405234801561001057600080fd5b50600436106100365760003560e01c80635fe8c13b1461003b578063b91b0b831461006b575b600080fd5b61005560048036038101906100509190611928565b61009b565b60405161006291906119ac565b60405180910390f35b61008560048036038101906100809190611a22565b610314565b60405161009291906119ac565b60405180910390f35b60006100a56114f3565b6040518060400160405280876000600281106100c4576100c3611a6f565b5b60200201518152602001876001600281106100e2576100e1611a6f565b5b60200201518152508160000181905250604051806040016040528060405180604001604052808860006002811061011c5761011b611a6f565b5b602002015160006002811061013457610133611a6f565b5b602002015181526020018860006002811061015257610151611a6f565b5b602002015160016002811061016a57610169611a6f565b5b6020020151815250815260200160405180604001604052808860016002811061019657610195611a6f565b5b60200201516000600281106101ae576101ad611a6f565b5b60200201518152602001886001600281106101cc576101cb611a6f565b5b60200201516001600281106101e4576101e3611a6f565b5b6020020151815250815250816020018190525060405180604001604052808560006002811061021657610215611a6f565b5b602002015181526020018560016002811061023457610233611a6f565b5b602002015181525081604001819052506000600467ffffffffffffffff8111156102615761026061165f565b5b60405190808252806020026020018201604052801561028f5781602001602082028036833780820191505090505b50905060005b60048110156102e8578481600481106102b1576102b0611a6f565b5b60200201518282815181106102c9576102c8611a6f565b5b60200260200101818152505080806102e090611acd565b915050610295565b5060006102f5828461058b565b036103055760019250505061030c565b6000925050505b949350505050565b6000600c838390501461035c576040517f08c379a000000000000000000000000000000000000000000000000000000000815260040161035390611b98565b60405180910390fd5b6000604051806060016040528060405180604001604052808787600081811061038857610387611a6f565b5b905060200201358152602001878760018181106103a8576103a7611a6f565b5b90506020020135815250815260200160405180604001604052806040518060400160405280898960028181106103e1576103e0611a6f565b5b9050602002013581526020018989600381811061040157610400611a6f565b5b90506020020135815250815260200160405180604001604052808989600481811061042f5761042e611a6f565b5b9050602002013581526020018989600581811061044f5761044e611a6f565b5b9050602002013581525081525081526020016040518060400160405280878760068181106104805761047f611a6f565b5b905060200201358152602001878760078181106104a05761049f611a6f565b5b9050602002013581525081525090506000600467ffffffffffffffff8111156104cc576104cb61165f565b5b6040519080825280602002602001820160405280156104fa5781602001602082028036833780820191505090505b50905060005b60048110156105615785856008836105189190611bb8565b81811061052857610527611a6f565b5b9050602002013582828151811061054257610541611a6f565b5b602002602001018181525050808061055990611acd565b915050610500565b50600061056e828461058b565b0361057e57600192505050610585565b6000925050505b92915050565b6000807f30644e72e131a029b85045b68181585d2833e84879b9709143e1f593f0000001905060006105bb61077e565b9050806080015151600186516105d19190611bb8565b14610611576040517f08c379a000000000000000000000000000000000000000000000000000000000815260040161060890611c5a565b60405180910390fd5b60006040518060400160405280600081526020016000815250905060005b8651811015610700578387828151811061064c5761064b611a6f565b5b602002602001015110610694576040517f08c379a000000000000000000000000000000000000000000000000000000000815260040161068b90611cc6565b60405180910390fd5b6106eb826106e685608001516001856106ad9190611bb8565b815181106106be576106bd611a6f565b5b60200260200101518a85815181106106d9576106d8611a6f565b5b6020026020010151610ce9565b610dc1565b915080806106f890611acd565b91505061062f565b5061072a81836080015160008151811061071d5761071c611a6f565b5b6020026020010151610dc1565b905061076061073c8660000151610ebf565b8660200151846000015185602001518587604001518b604001518960600151610f64565b6107705760019350505050610778565b600093505050505b92915050565b610786611526565b60405180604001604052807f2cac2ae4a0d36f48627b2be7cb3d786742232ed24cf6d8f0909dc8d8860d2dd581526020017f25965b62b42a9f00fef747fe553d7cc7cf4594b7ba065d71a2e562dda71503f98152508160000181905250604051806040016040528060405180604001604052807f15bb5610e932448c93feb78429ba560dddbb14a3438fec4b545d1175fc1050f381526020017f0bc093e733904597dcea8c60fea25680b55f07a0f46937ac166e74a6f71b2cf5815250815260200160405180604001604052807f0c48b150b198276e72ae8db239e4d29cf5cbb0e4c4869698e7706f38037c297581526020017f183b80ecdcc13e34bb0e473758f1958ae06a3c921f639d81b0ae347486dab5638152508152508160200181905250604051806040016040528060405180604001604052807f198e9393920d483a7260bfb731fb5d25f1aa493335a9e71297e485b7aef312c281526020017f1800deef121f1e76426a00665e5c4479674322d4f75edadd46debd5cd992f6ed815250815260200160405180604001604052807f090689d0585ff075ec9e99ad690c3395bc4b313370b38ef355acdadcd122975b81526020017f12c85ea5db8c6deb4aab71808dcb408fe3d1e7690c43d37b4ce6cc0166fa7daa8152508152508160400181905250604051806040016040528060405180604001604052807f0219175b64e477f07fa01ad749dffd6dabb7656bcd982560b49676e10d25ec4081526020017ea911415ff743e2f8e52839eed3131922c36b20769df1b87fd86c3ebcad5a1e815250815260200160405180604001604052807f157627cbbb8f969899f3f25d11f5d352cb10713a3da9809a415d0575b2d3945881526020017f229cb4911ee5816b09fd6fa7b7c9e3c2a382d03bdbedb25a4f49d81c7f0334598152508152508160600181905250600567ffffffffffffffff811115610a4c57610a4b61165f565b5b604051908082528060200260200182016040528015610a8557816020015b610a7261156d565b815260200190600190039081610a6a5790505b50816080018190525060405180604001604052807f0175a754b953755bf9d556d6fe39cc5da22463809c0e009020677d92c76c636e81526020017f0d36eaf9524a881f13d83e7e71fd8d3a2ac6c5d8763d81a731f056f25a0a8f578152508160800151600081518110610afb57610afa611a6f565b5b602002602001018190525060405180604001604052807f06bc03cd3b372e8da1120adb08261a74d8b6c1e3e8ace881f35494ee9591750481526020017f16571f738b1ffefa918c36f9a96cc6676deddc019bab993e6eef5e6a49ed45d48152508160800151600181518110610b7357610b72611a6f565b5b602002602001018190525060405180604001604052807f2bdb5178d91447daf8627b2010428eeca325d198c8a18264e254e83120689d9081526020017f257d64c13dbb27f31a9f38da1963ec75fe282f925faacad5ebb952e18ed2d3e88152508160800151600281518110610beb57610bea611a6f565b5b602002602001018190525060405180604001604052807f1679ec6531bbfa6f3a41ad1f3ffc225dbf853a086a56173d1a907d57171869a981526020017f21c41a6b24f0cd5f1dc2872595678c0f75b4c2551fde478ed7f6b175c83301e88152508160800151600381518110610c6357610c62611a6f565b5b602002602001018190525060405180604001604052807f28a082e87d9a456e1adedec66fe1a10ee9749455d59b3496aaf070a0f0bb3cbd81526020017f0557ee3d4f0682485725366cb88397033a24e0f051a02ba50ccf5a5b3022fa7f8152508160800151600481518110610cdb57610cda611a6f565b5b602002602001018190525090565b610cf161156d565b610cf9611587565b836000015181600060038110610d1257610d11611a6f565b5b602002018181525050836020015181600160038110610d3457610d33611a6f565b5b6020020181815250508281600260038110610d5257610d51611a6f565b5b602002018181525050600060608360808460076107d05a03fa90508060008103610d7857fe5b5080610db9576040517f08c379a0000000000000000000000000000000000000000000000000000000008152600401610db090611d32565b60405180910390fd5b505092915050565b610dc961156d565b610dd16115a9565b836000015181600060048110610dea57610de9611a6f565b5b602002018181525050836020015181600160048110610e0c57610e0b611a6f565b5b602002018181525050826000015181600260048110610e2e57610e2d611a6f565b5b602002018181525050826020015181600360048110610e5057610e4f611a6f565b5b602002018181525050600060608360c08460066107d05a03fa90508060008103610e7657fe5b5080610eb7576040517f08c379a0000000000000000000000000000000000000000000000000000000008152600401610eae90611d9e565b60405180910390fd5b505092915050565b610ec761156d565b60007f30644e72e131a029b85045b68181585d97816a916871ca8d3c208c16d87cfd47905060008360000151148015610f04575060008360200151145b15610f28576040518060400160405280600081526020016000815250915050610f5f565b604051806040016040528084600001518152602001828560200151610f4d9190611ded565b83610f589190611e1e565b8152509150505b919050565b600080600467ffffffffffffffff811115610f8257610f8161165f565b5b604051908082528060200260200182016040528015610fbb57816020015b610fa861156d565b815260200190600190039081610fa05790505b5090506000600467ffffffffffffffff811115610fdb57610fda61165f565b5b60405190808252806020026020018201604052801561101457816020015b6110016115cb565b815260200190600190039081610ff95790505b5090508a8260008151811061102c5761102b611a6f565b5b6020026020010181905250888260018151811061104c5761104b611a6f565b5b6020026020010181905250868260028151811061106c5761106b611a6f565b5b6020026020010181905250848260038151811061108c5761108b611a6f565b5b602002602001018190525089816000815181106110ac576110ab611a6f565b5b602002602001018190525087816001815181106110cc576110cb611a6f565b5b602002602001018190525085816002815181106110ec576110eb611a6f565b5b6020026020010181905250838160038151811061110c5761110b611a6f565b5b60200260200101819052506111218282611131565b9250505098975050505050505050565b60008151835114611177576040517f08c379a000000000000000000000000000000000000000000000000000000000815260040161116e90611e9e565b60405180910390fd5b600083519050600060068261118c9190611ebe565b905060008167ffffffffffffffff8111156111aa576111a961165f565b5b6040519080825280602002602001820160405280156111d85781602001602082028036833780820191505090505b50905060005b8381101561145d578681815181106111f9576111f8611a6f565b5b6020026020010151600001518260006006846112159190611ebe565b61121f9190611bb8565b815181106112305761122f611a6f565b5b60200260200101818152505086818151811061124f5761124e611a6f565b5b60200260200101516020015182600160068461126b9190611ebe565b6112759190611bb8565b8151811061128657611285611a6f565b5b6020026020010181815250508581815181106112a5576112a4611a6f565b5b6020026020010151600001516000600281106112c4576112c3611a6f565b5b60200201518260026006846112d99190611ebe565b6112e39190611bb8565b815181106112f4576112f3611a6f565b5b60200260200101818152505085818151811061131357611312611a6f565b5b60200260200101516000015160016002811061133257611331611a6f565b5b60200201518260036006846113479190611ebe565b6113519190611bb8565b8151811061136257611361611a6f565b5b60200260200101818152505085818151811061138157611380611a6f565b5b6020026020010151602001516000600281106113a05761139f611a6f565b5b60200201518260046006846113b59190611ebe565b6113bf9190611bb8565b815181106113d0576113cf611a6f565b5b6020026020010181815250508581815181106113ef576113ee611a6f565b5b60200260200101516020015160016002811061140e5761140d611a6f565b5b60200201518260056006846114239190611ebe565b61142d9190611bb8565b8151811061143e5761143d611a6f565b5b602002602001018181525050808061145590611acd565b9150506111de565b506114666115f1565b6000602082602086026020860160086107d05a03fa9050806000810361148857fe5b50806114c9576040517f08c379a00000000000000000000000000000000000000000000000000000000081526004016114c090611f64565b60405180910390fd5b6000826000600181106114df576114de611a6f565b5b602002015114159550505050505092915050565b604051806060016040528061150661156d565b81526020016115136115cb565b815260200161152061156d565b81525090565b6040518060a0016040528061153961156d565b81526020016115466115cb565b81526020016115536115cb565b81526020016115606115cb565b8152602001606081525090565b604051806040016040528060008152602001600081525090565b6040518060600160405280600390602082028036833780820191505090505090565b6040518060800160405280600490602082028036833780820191505090505090565b60405180604001604052806115de611613565b81526020016115eb611613565b81525090565b6040518060200160405280600190602082028036833780820191505090505090565b6040518060400160405280600290602082028036833780820191505090505090565b6000604051905090565b600080fd5b600080fd5b600080fd5b6000601f19601f8301169050919050565b7f4e487b7100000000000000000000000000000000000000000000000000000000600052604160045260246000fd5b6116978261164e565b810181811067ffffffffffffffff821117156116b6576116b561165f565b5b80604052505050565b60006116c9611635565b90506116d5828261168e565b919050565b600067ffffffffffffffff8211156116f5576116f461165f565b5b602082029050919050565b600080fd5b6000819050919050565b61171881611705565b811461172357600080fd5b50565b6000813590506117358161170f565b92915050565b600061174e611749846116da565b6116bf565b9050806020840283018581111561176857611767611700565b5b835b81811015611791578061177d8882611726565b84526020840193505060208101905061176a565b5050509392505050565b600082601f8301126117b0576117af611649565b5b60026117bd84828561173b565b91505092915050565b600067ffffffffffffffff8211156117e1576117e061165f565b5b602082029050919050565b60006117ff6117fa846117c6565b6116bf565b9050806040840283018581111561181957611818611700565b5b835b81811015611842578061182e888261179b565b84526020840193505060408101905061181b565b5050509392505050565b600082601f83011261186157611860611649565b5b600261186e8482856117ec565b91505092915050565b600067ffffffffffffffff8211156118925761189161165f565b5b602082029050919050565b60006118b06118ab84611877565b6116bf565b905080602084028301858111156118ca576118c9611700565b5b835b818110156118f357806118df8882611726565b8452602084019350506020810190506118cc565b5050509392505050565b600082601f83011261191257611911611649565b5b600461191f84828561189d565b91505092915050565b60008060008061018085870312156119435761194261163f565b5b60006119518782880161179b565b94505060406119628782880161184c565b93505060c06119738782880161179b565b925050610100611985878288016118fd565b91505092959194509250565b60008115159050919050565b6119a681611991565b82525050565b60006020820190506119c1600083018461199d565b92915050565b600080fd5b60008083601f8401126119e2576119e1611649565b5b8235905067ffffffffffffffff8111156119ff576119fe6119c7565b5b602083019150836020820283011115611a1b57611a1a611700565b5b9250929050565b60008060208385031215611a3957611a3861163f565b5b600083013567ffffffffffffffff811115611a5757611a56611644565b5b611a63858286016119cc565b92509250509250929050565b7f4e487b7100000000000000000000000000000000000000000000000000000000600052603260045260246000fd5b7f4e487b7100000000000000000000000000000000000000000000000000000000600052601160045260246000fd5b6000611ad882611705565b91507fffffffffffffffffffffffffffffffffffffffffffffffffffffffffffffffff8203611b0a57611b09611a9e565b5b600182019050919050565b600082825260208201905092915050565b7f5a4b5056657269666965723a20696e707574206c656e67746820697320696e7660008201527f616c696400000000000000000000000000000000000000000000000000000000602082015250565b6000611b82602483611b15565b9150611b8d82611b26565b604082019050919050565b60006020820190508181036000830152611bb181611b75565b9050919050565b6000611bc382611705565b9150611bce83611705565b9250827fffffffffffffffffffffffffffffffffffffffffffffffffffffffffffffffff03821115611c0357611c02611a9e565b5b828201905092915050565b7f76657269666965722d6261642d696e7075740000000000000000000000000000600082015250565b6000611c44601283611b15565b9150611c4f82611c0e565b602082019050919050565b60006020820190508181036000830152611c7381611c37565b9050919050565b7f76657269666965722d6774652d736e61726b2d7363616c61722d6669656c6400600082015250565b6000611cb0601f83611b15565b9150611cbb82611c7a565b602082019050919050565b60006020820190508181036000830152611cdf81611ca3565b9050919050565b7f70616972696e672d6d756c2d6661696c65640000000000000000000000000000600082015250565b6000611d1c601283611b15565b9150611d2782611ce6565b602082019050919050565b60006020820190508181036000830152611d4b81611d0f565b9050919050565b7f70616972696e672d6164642d6661696c65640000000000000000000000000000600082015250565b6000611d88601283611b15565b9150611d9382611d52565b602082019050919050565b60006020820190508181036000830152611db781611d7b565b9050919050565b7f4e487b7100000000000000000000000000000000000000000000000000000000600052601260045260246000fd5b6000611df882611705565b9150611e0383611705565b925082611e1357611e12611dbe565b5b828206905092915050565b6000611e2982611705565b9150611e3483611705565b925082821015611e4757611e46611a9e565b5b828203905092915050565b7f70616972696e672d6c656e677468732d6661696c656400000000000000000000600082015250565b6000611e88601683611b15565b9150611e9382611e52565b602082019050919050565b60006020820190508181036000830152611eb781611e7b565b9050919050565b6000611ec982611705565b9150611ed483611705565b9250817fffffffffffffffffffffffffffffffffffffffffffffffffffffffffffffffff0483118215151615611f0d57611f0c611a9e565b5b828202905092915050565b7f70616972696e672d6f70636f64652d6661696c65640000000000000000000000600082015250565b6000611f4e601583611b15565b9150611f5982611f18565b602082019050919050565b60006020820190508181036000830152611f7d81611f41565b905091905056fea26469706673582212209881c824d5b2959bcaba088221a6236e4b0686f073698d110f99c5838592654964736f6c634300080f0033",
  "immutableReferences": {},
  "source": "// SPDX-License-Identifier: UNLICENSED\npragma solidity ^0.8.0;\nimport \"./ZKPVerifier.sol\";\ncontract GrothVerifier is Verifier {\n  function verifyDelphinusTx(uint256[] calldata input)\n      public view returns (bool)\n  {\n      require(input.length == 12, \"ZKPVerifier: input length is invalid\");\n\n      Proof memory proof = Proof(\n          Pairing.G1Point(input[0], input[1]),\n          Pairing.G2Point([input[2], input[3]], [input[4], input[5]]),\n          Pairing.G1Point(input[6], input[7])\n      );\n\n      uint256[] memory inputValues = new uint256[](4);\n      for (uint256 i = 0; i < 4; i++) {\n          inputValues[i] = input[i + 8];\n      }\n\n      if (verify(inputValues, proof) == 0) {\n          return true;\n      } else {\n          return false;\n      }\n  }\n}\n",
  "sourcePath": "/home/yymone/zkcross-backend-lerna/packages/solidity/contracts/Groth.sol",
  "compiler": {
    "name": "solc",
    "version": "0.8.15+commit.e14f2714.Linux.g++"
  },
  "schemaVersion": "3.4.12",
  "updatedAt": "2023-03-27T05:35:31.192Z",
  "networkType": "ethereum",
  "devdoc": {
    "kind": "dev",
    "methods": {
      "verifyProof(uint256[2],uint256[2][2],uint256[2],uint256[4])": {
        "returns": {
          "r": " bool true if proof is valid"
        }
      }
    },
    "version": 1
  },
  "userdoc": {
    "kind": "user",
    "methods": {},
    "version": 1
  }
}