{
  "contractName": "GrothVerifier",
  "abi": [
    {
      "inputs": [
        {
          "internalType": "uint256[2]",
          "name": "a",
          "type": "uint256[2]"
        },
        {
          "internalType": "uint256[2][2]",
          "name": "b",
          "type": "uint256[2][2]"
        },
        {
          "internalType": "uint256[2]",
          "name": "c",
          "type": "uint256[2]"
        },
        {
          "internalType": "uint256[4]",
          "name": "input",
          "type": "uint256[4]"
        }
      ],
      "name": "verifyProof",
      "outputs": [
        {
          "internalType": "bool",
          "name": "r",
          "type": "bool"
        }
      ],
      "stateMutability": "view",
      "type": "function",
      "constant": true
    },
    {
      "inputs": [
        {
          "internalType": "uint256[]",
          "name": "input",
          "type": "uint256[]"
        }
      ],
      "name": "verifyDelphinusTx",
      "outputs": [
        {
          "internalType": "bool",
          "name": "",
          "type": "bool"
        }
      ],
      "stateMutability": "view",
      "type": "function",
      "constant": true
    }
  ],
  "bytecode": "0x608060405234801561001057600080fd5b50611f81806100206000396000f3fe608060405234801561001057600080fd5b50600436106100365760003560e01c80635fe8c13b1461003b578063b91b0b831461006b575b600080fd5b61005560048036038101906100509190611929565b61009b565b60405161006291906119ad565b60405180910390f35b61008560048036038101906100809190611a23565b610314565b60405161009291906119ad565b60405180910390f35b60006100a56114f4565b6040518060400160405280876000600281106100c4576100c3611a70565b5b60200201518152602001876001600281106100e2576100e1611a70565b5b60200201518152508160000181905250604051806040016040528060405180604001604052808860006002811061011c5761011b611a70565b5b602002015160006002811061013457610133611a70565b5b602002015181526020018860006002811061015257610151611a70565b5b602002015160016002811061016a57610169611a70565b5b6020020151815250815260200160405180604001604052808860016002811061019657610195611a70565b5b60200201516000600281106101ae576101ad611a70565b5b60200201518152602001886001600281106101cc576101cb611a70565b5b60200201516001600281106101e4576101e3611a70565b5b6020020151815250815250816020018190525060405180604001604052808560006002811061021657610215611a70565b5b602002015181526020018560016002811061023457610233611a70565b5b602002015181525081604001819052506000600467ffffffffffffffff81111561026157610260611660565b5b60405190808252806020026020018201604052801561028f5781602001602082028036833780820191505090505b50905060005b60048110156102e8578481600481106102b1576102b0611a70565b5b60200201518282815181106102c9576102c8611a70565b5b60200260200101818152505080806102e090611ace565b915050610295565b5060006102f5828461058b565b036103055760019250505061030c565b6000925050505b949350505050565b6000600c838390501461035c576040517f08c379a000000000000000000000000000000000000000000000000000000000815260040161035390611b99565b60405180910390fd5b6000604051806060016040528060405180604001604052808787600081811061038857610387611a70565b5b905060200201358152602001878760018181106103a8576103a7611a70565b5b90506020020135815250815260200160405180604001604052806040518060400160405280898960028181106103e1576103e0611a70565b5b9050602002013581526020018989600381811061040157610400611a70565b5b90506020020135815250815260200160405180604001604052808989600481811061042f5761042e611a70565b5b9050602002013581526020018989600581811061044f5761044e611a70565b5b9050602002013581525081525081526020016040518060400160405280878760068181106104805761047f611a70565b5b905060200201358152602001878760078181106104a05761049f611a70565b5b9050602002013581525081525090506000600467ffffffffffffffff8111156104cc576104cb611660565b5b6040519080825280602002602001820160405280156104fa5781602001602082028036833780820191505090505b50905060005b60048110156105615785856008836105189190611bb9565b81811061052857610527611a70565b5b9050602002013582828151811061054257610541611a70565b5b602002602001018181525050808061055990611ace565b915050610500565b50600061056e828461058b565b0361057e57600192505050610585565b6000925050505b92915050565b6000807f30644e72e131a029b85045b68181585d2833e84879b9709143e1f593f0000001905060006105bb61077e565b9050806080015151600186516105d19190611bb9565b14610611576040517f08c379a000000000000000000000000000000000000000000000000000000000815260040161060890611c39565b60405180910390fd5b60006040518060400160405280600081526020016000815250905060005b8651811015610700578387828151811061064c5761064b611a70565b5b602002602001015110610694576040517f08c379a000000000000000000000000000000000000000000000000000000000815260040161068b90611ca5565b60405180910390fd5b6106eb826106e685608001516001856106ad9190611bb9565b815181106106be576106bd611a70565b5b60200260200101518a85815181106106d9576106d8611a70565b5b6020026020010151610cea565b610dc2565b915080806106f890611ace565b91505061062f565b5061072a81836080015160008151811061071d5761071c611a70565b5b6020026020010151610dc2565b905061076061073c8660000151610ec0565b8660200151846000015185602001518587604001518b604001518960600151610f65565b6107705760019350505050610778565b600093505050505b92915050565b610786611527565b60405180604001604052807f1585de95cbef5c355caa7f3b2ec4402328c21e069d10aa2140ef923882c46f6d81526020017f1898b26e10a92c06ed317497f922dc3b8aba6163dc9eb499a93b8c03c30ff9ba8152508160000181905250604051806040016040528060405180604001604052807f110414ab44d561f8a5f989c43bbd44b830730ec2231e1e111ffa058731d0aabb81526020017f073396290f87a449a2aa9d1e9b74b33694553cecfa3eb7f61fe6941f40ebe69f815250815260200160405180604001604052807f25bd3d0a84f1fa09316698f1f4b988fc028c568bb20c01a193a943635c3f939a81526020017f2cea9d66de3c8da0b7b91c37b83dce38c0c186935adc473cab8e7092cd1c5cdd8152508152508160200181905250604051806040016040528060405180604001604052807f198e9393920d483a7260bfb731fb5d25f1aa493335a9e71297e485b7aef312c281526020017f1800deef121f1e76426a00665e5c4479674322d4f75edadd46debd5cd992f6ed815250815260200160405180604001604052807f090689d0585ff075ec9e99ad690c3395bc4b313370b38ef355acdadcd122975b81526020017f12c85ea5db8c6deb4aab71808dcb408fe3d1e7690c43d37b4ce6cc0166fa7daa8152508152508160400181905250604051806040016040528060405180604001604052807f2dc86849e82074d581d07ce44a3042a90b174edfce22c624718920fd7bee7ebd81526020017f05644821691850f3ad3889bb9cb4f93a5b8e640f4b67c6d880abb8d4ea653fdf815250815260200160405180604001604052807f0bcd5fa1b91ef36af6635d8f2f204c1bd97d1e59eac91b7c28aefc21a80bc15d81526020017f2ffdc9d8a910a41b4b18b8a98e164b6c831a00567aeefd7621ed28c65399c8b08152508152508160600181905250600567ffffffffffffffff811115610a4d57610a4c611660565b5b604051908082528060200260200182016040528015610a8657816020015b610a7361156e565b815260200190600190039081610a6b5790505b50816080018190525060405180604001604052807f26783bf87ad0975878951ce95d6b093952db79981b233226d04d68ca2d12218581526020017f13f1a07059a2658d1b270258aa029d9c737a6f4c52a83bf09466afddfd15f3d08152508160800151600081518110610afc57610afb611a70565b5b602002602001018190525060405180604001604052807f0c09ea2a2fc741642bc12d62e57ac7fb4ecf28e55eaf6114cf7a279b519ac7d481526020017f1301a6e65f1bf3c682e163592562d274369c13c7b0c776d7f91e209faa37000e8152508160800151600181518110610b7457610b73611a70565b5b602002602001018190525060405180604001604052807f11fc80d3d7e46a10881d015d2ef50a6e172a92f5b7ee4773cc189d36037f1ece81526020017f28417a09dd178b9dc77ab1f3908daf24375e8eb049a16b6a9edabad31b3208818152508160800151600281518110610bec57610beb611a70565b5b602002602001018190525060405180604001604052807f165dffcd2e11e957ce9ec3f492015da7c554df26bfeddfe0dc0a08e87f7ff9a181526020017f24ebc0d97e056efed4928cc8f0f028208c583424465d0c9d79fbb620ead8b7948152508160800151600381518110610c6457610c63611a70565b5b602002602001018190525060405180604001604052807f23a1f0dab733ddf8bc0b8d8aed6244ebc45a084198f61ec2b652b1be3e0b229681526020017f06095e16e9f0ddfe28f5991d823faaa59a3a53aa427c783bc9bd28c92e42b6748152508160800151600481518110610cdc57610cdb611a70565b5b602002602001018190525090565b610cf261156e565b610cfa611588565b836000015181600060038110610d1357610d12611a70565b5b602002018181525050836020015181600160038110610d3557610d34611a70565b5b6020020181815250508281600260038110610d5357610d52611a70565b5b602002018181525050600060608360808460076107d05a03fa90508060008103610d7957fe5b5080610dba576040517f08c379a0000000000000000000000000000000000000000000000000000000008152600401610db190611d11565b60405180910390fd5b505092915050565b610dca61156e565b610dd26115aa565b836000015181600060048110610deb57610dea611a70565b5b602002018181525050836020015181600160048110610e0d57610e0c611a70565b5b602002018181525050826000015181600260048110610e2f57610e2e611a70565b5b602002018181525050826020015181600360048110610e5157610e50611a70565b5b602002018181525050600060608360c08460066107d05a03fa90508060008103610e7757fe5b5080610eb8576040517f08c379a0000000000000000000000000000000000000000000000000000000008152600401610eaf90611d7d565b60405180910390fd5b505092915050565b610ec861156e565b60007f30644e72e131a029b85045b68181585d97816a916871ca8d3c208c16d87cfd47905060008360000151148015610f05575060008360200151145b15610f29576040518060400160405280600081526020016000815250915050610f60565b604051806040016040528084600001518152602001828560200151610f4e9190611dcc565b83610f599190611dfd565b8152509150505b919050565b600080600467ffffffffffffffff811115610f8357610f82611660565b5b604051908082528060200260200182016040528015610fbc57816020015b610fa961156e565b815260200190600190039081610fa15790505b5090506000600467ffffffffffffffff811115610fdc57610fdb611660565b5b60405190808252806020026020018201604052801561101557816020015b6110026115cc565b815260200190600190039081610ffa5790505b5090508a8260008151811061102d5761102c611a70565b5b6020026020010181905250888260018151811061104d5761104c611a70565b5b6020026020010181905250868260028151811061106d5761106c611a70565b5b6020026020010181905250848260038151811061108d5761108c611a70565b5b602002602001018190525089816000815181106110ad576110ac611a70565b5b602002602001018190525087816001815181106110cd576110cc611a70565b5b602002602001018190525085816002815181106110ed576110ec611a70565b5b6020026020010181905250838160038151811061110d5761110c611a70565b5b60200260200101819052506111228282611132565b9250505098975050505050505050565b60008151835114611178576040517f08c379a000000000000000000000000000000000000000000000000000000000815260040161116f90611e7d565b60405180910390fd5b600083519050600060068261118d9190611e9d565b905060008167ffffffffffffffff8111156111ab576111aa611660565b5b6040519080825280602002602001820160405280156111d95781602001602082028036833780820191505090505b50905060005b8381101561145e578681815181106111fa576111f9611a70565b5b6020026020010151600001518260006006846112169190611e9d565b6112209190611bb9565b8151811061123157611230611a70565b5b6020026020010181815250508681815181106112505761124f611a70565b5b60200260200101516020015182600160068461126c9190611e9d565b6112769190611bb9565b8151811061128757611286611a70565b5b6020026020010181815250508581815181106112a6576112a5611a70565b5b6020026020010151600001516000600281106112c5576112c4611a70565b5b60200201518260026006846112da9190611e9d565b6112e49190611bb9565b815181106112f5576112f4611a70565b5b60200260200101818152505085818151811061131457611313611a70565b5b60200260200101516000015160016002811061133357611332611a70565b5b60200201518260036006846113489190611e9d565b6113529190611bb9565b8151811061136357611362611a70565b5b60200260200101818152505085818151811061138257611381611a70565b5b6020026020010151602001516000600281106113a1576113a0611a70565b5b60200201518260046006846113b69190611e9d565b6113c09190611bb9565b815181106113d1576113d0611a70565b5b6020026020010181815250508581815181106113f0576113ef611a70565b5b60200260200101516020015160016002811061140f5761140e611a70565b5b60200201518260056006846114249190611e9d565b61142e9190611bb9565b8151811061143f5761143e611a70565b5b602002602001018181525050808061145690611ace565b9150506111df565b506114676115f2565b6000602082602086026020860160086107d05a03fa9050806000810361148957fe5b50806114ca576040517f08c379a00000000000000000000000000000000000000000000000000000000081526004016114c190611f2b565b60405180910390fd5b6000826000600181106114e0576114df611a70565b5b602002015114159550505050505092915050565b604051806060016040528061150761156e565b81526020016115146115cc565b815260200161152161156e565b81525090565b6040518060a0016040528061153a61156e565b81526020016115476115cc565b81526020016115546115cc565b81526020016115616115cc565b8152602001606081525090565b604051806040016040528060008152602001600081525090565b6040518060600160405280600390602082028036833780820191505090505090565b6040518060800160405280600490602082028036833780820191505090505090565b60405180604001604052806115df611614565b81526020016115ec611614565b81525090565b6040518060200160405280600190602082028036833780820191505090505090565b6040518060400160405280600290602082028036833780820191505090505090565b6000604051905090565b600080fd5b600080fd5b600080fd5b6000601f19601f8301169050919050565b7f4e487b7100000000000000000000000000000000000000000000000000000000600052604160045260246000fd5b6116988261164f565b810181811067ffffffffffffffff821117156116b7576116b6611660565b5b80604052505050565b60006116ca611636565b90506116d6828261168f565b919050565b600067ffffffffffffffff8211156116f6576116f5611660565b5b602082029050919050565b600080fd5b6000819050919050565b61171981611706565b811461172457600080fd5b50565b60008135905061173681611710565b92915050565b600061174f61174a846116db565b6116c0565b9050806020840283018581111561176957611768611701565b5b835b81811015611792578061177e8882611727565b84526020840193505060208101905061176b565b5050509392505050565b600082601f8301126117b1576117b061164a565b5b60026117be84828561173c565b91505092915050565b600067ffffffffffffffff8211156117e2576117e1611660565b5b602082029050919050565b60006118006117fb846117c7565b6116c0565b9050806040840283018581111561181a57611819611701565b5b835b81811015611843578061182f888261179c565b84526020840193505060408101905061181c565b5050509392505050565b600082601f8301126118625761186161164a565b5b600261186f8482856117ed565b91505092915050565b600067ffffffffffffffff82111561189357611892611660565b5b602082029050919050565b60006118b16118ac84611878565b6116c0565b905080602084028301858111156118cb576118ca611701565b5b835b818110156118f457806118e08882611727565b8452602084019350506020810190506118cd565b5050509392505050565b600082601f8301126119135761191261164a565b5b600461192084828561189e565b91505092915050565b600080600080610180858703121561194457611943611640565b5b60006119528782880161179c565b94505060406119638782880161184d565b93505060c06119748782880161179c565b925050610100611986878288016118fe565b91505092959194509250565b60008115159050919050565b6119a781611992565b82525050565b60006020820190506119c2600083018461199e565b92915050565b600080fd5b60008083601f8401126119e3576119e261164a565b5b8235905067ffffffffffffffff811115611a00576119ff6119c8565b5b602083019150836020820283011115611a1c57611a1b611701565b5b9250929050565b60008060208385031215611a3a57611a39611640565b5b600083013567ffffffffffffffff811115611a5857611a57611645565b5b611a64858286016119cd565b92509250509250929050565b7f4e487b7100000000000000000000000000000000000000000000000000000000600052603260045260246000fd5b7f4e487b7100000000000000000000000000000000000000000000000000000000600052601160045260246000fd5b6000611ad982611706565b91507fffffffffffffffffffffffffffffffffffffffffffffffffffffffffffffffff8203611b0b57611b0a611a9f565b5b600182019050919050565b600082825260208201905092915050565b7f5a4b5056657269666965723a20696e707574206c656e67746820697320696e7660008201527f616c696400000000000000000000000000000000000000000000000000000000602082015250565b6000611b83602483611b16565b9150611b8e82611b27565b604082019050919050565b60006020820190508181036000830152611bb281611b76565b9050919050565b6000611bc482611706565b9150611bcf83611706565b9250828201905080821115611be757611be6611a9f565b5b92915050565b7f76657269666965722d6261642d696e7075740000000000000000000000000000600082015250565b6000611c23601283611b16565b9150611c2e82611bed565b602082019050919050565b60006020820190508181036000830152611c5281611c16565b9050919050565b7f76657269666965722d6774652d736e61726b2d7363616c61722d6669656c6400600082015250565b6000611c8f601f83611b16565b9150611c9a82611c59565b602082019050919050565b60006020820190508181036000830152611cbe81611c82565b9050919050565b7f70616972696e672d6d756c2d6661696c65640000000000000000000000000000600082015250565b6000611cfb601283611b16565b9150611d0682611cc5565b602082019050919050565b60006020820190508181036000830152611d2a81611cee565b9050919050565b7f70616972696e672d6164642d6661696c65640000000000000000000000000000600082015250565b6000611d67601283611b16565b9150611d7282611d31565b602082019050919050565b60006020820190508181036000830152611d9681611d5a565b9050919050565b7f4e487b7100000000000000000000000000000000000000000000000000000000600052601260045260246000fd5b6000611dd782611706565b9150611de283611706565b925082611df257611df1611d9d565b5b828206905092915050565b6000611e0882611706565b9150611e1383611706565b9250828203905081811115611e2b57611e2a611a9f565b5b92915050565b7f70616972696e672d6c656e677468732d6661696c656400000000000000000000600082015250565b6000611e67601683611b16565b9150611e7282611e31565b602082019050919050565b60006020820190508181036000830152611e9681611e5a565b9050919050565b6000611ea882611706565b9150611eb383611706565b9250828202611ec181611706565b91508282048414831517611ed857611ed7611a9f565b5b5092915050565b7f70616972696e672d6f70636f64652d6661696c65640000000000000000000000600082015250565b6000611f15601583611b16565b9150611f2082611edf565b602082019050919050565b60006020820190508181036000830152611f4481611f08565b905091905056fea26469706673582212209e948260f80bac66ab87c5218d8859cf015c5757d44340300fd59cab6dd86d2364736f6c63430008110033",
  "immutableReferences": {},
  "source": "// SPDX-License-Identifier: UNLICENSED\npragma solidity ^0.8.0;\nimport \"./ZKPVerifier.sol\";\ncontract GrothVerifier is Verifier {\n  function verifyDelphinusTx(uint256[] calldata input)\n      public view returns (bool)\n  {\n      require(input.length == 12, \"ZKPVerifier: input length is invalid\");\n\n      Proof memory proof = Proof(\n          Pairing.G1Point(input[0], input[1]),\n          Pairing.G2Point([input[2], input[3]], [input[4], input[5]]),\n          Pairing.G1Point(input[6], input[7])\n      );\n\n      uint256[] memory inputValues = new uint256[](4);\n      for (uint256 i = 0; i < 4; i++) {\n          inputValues[i] = input[i + 8];\n      }\n\n      if (verify(inputValues, proof) == 0) {\n          return true;\n      } else {\n          return false;\n      }\n  }\n}\n",
  "sourcePath": "/volume1/zkcross-backend-lerna/packages/solidity/contracts/Groth.sol",
  "compiler": {
    "name": "solc",
    "version": "0.8.17+commit.8df45f5f.Linux.g++"
  },
  "schemaVersion": "3.4.11",
  "updatedAt": "2022-12-07T12:05:25.714Z",
  "networkType": "ethereum",
  "devdoc": {
    "kind": "dev",
    "methods": {
      "verifyProof(uint256[2],uint256[2][2],uint256[2],uint256[4])": {
        "returns": {
          "r": " bool true if proof is valid"
        }
      }
    },
    "version": 1
  },
  "userdoc": {
    "kind": "user",
    "methods": {},
    "version": 1
  }
}