{
  "contractName": "NFT",
  "abi": [
    {
      "inputs": [],
      "stateMutability": "nonpayable",
      "type": "constructor"
    },
    {
      "anonymous": false,
      "inputs": [
        {
          "indexed": true,
          "internalType": "address",
          "name": "owner",
          "type": "address"
        },
        {
          "indexed": true,
          "internalType": "address",
          "name": "approved",
          "type": "address"
        },
        {
          "indexed": true,
          "internalType": "uint256",
          "name": "tokenId",
          "type": "uint256"
        }
      ],
      "name": "Approval",
      "type": "event"
    },
    {
      "anonymous": false,
      "inputs": [
        {
          "indexed": true,
          "internalType": "address",
          "name": "owner",
          "type": "address"
        },
        {
          "indexed": true,
          "internalType": "address",
          "name": "operator",
          "type": "address"
        },
        {
          "indexed": false,
          "internalType": "bool",
          "name": "approved",
          "type": "bool"
        }
      ],
      "name": "ApprovalForAll",
      "type": "event"
    },
    {
      "anonymous": false,
      "inputs": [
        {
          "indexed": false,
          "internalType": "uint256",
          "name": "tokenId",
          "type": "uint256"
        },
        {
          "indexed": false,
          "internalType": "bool",
          "name": "status",
          "type": "bool"
        }
      ],
      "name": "Mint",
      "type": "event"
    },
    {
      "anonymous": false,
      "inputs": [
        {
          "indexed": true,
          "internalType": "address",
          "name": "from",
          "type": "address"
        },
        {
          "indexed": true,
          "internalType": "address",
          "name": "to",
          "type": "address"
        },
        {
          "indexed": true,
          "internalType": "uint256",
          "name": "tokenId",
          "type": "uint256"
        }
      ],
      "name": "Transfer",
      "type": "event"
    },
    {
      "inputs": [
        {
          "internalType": "address",
          "name": "to",
          "type": "address"
        },
        {
          "internalType": "uint256",
          "name": "tokenId",
          "type": "uint256"
        }
      ],
      "name": "approve",
      "outputs": [],
      "stateMutability": "nonpayable",
      "type": "function"
    },
    {
      "inputs": [
        {
          "internalType": "address",
          "name": "owner",
          "type": "address"
        }
      ],
      "name": "balanceOf",
      "outputs": [
        {
          "internalType": "uint256",
          "name": "",
          "type": "uint256"
        }
      ],
      "stateMutability": "view",
      "type": "function"
    },
    {
      "inputs": [
        {
          "internalType": "uint256",
          "name": "tokenId",
          "type": "uint256"
        }
      ],
      "name": "getApproved",
      "outputs": [
        {
          "internalType": "address",
          "name": "",
          "type": "address"
        }
      ],
      "stateMutability": "view",
      "type": "function"
    },
    {
      "inputs": [
        {
          "internalType": "address",
          "name": "owner",
          "type": "address"
        },
        {
          "internalType": "address",
          "name": "operator",
          "type": "address"
        }
      ],
      "name": "isApprovedForAll",
      "outputs": [
        {
          "internalType": "bool",
          "name": "",
          "type": "bool"
        }
      ],
      "stateMutability": "view",
      "type": "function"
    },
    {
      "inputs": [],
      "name": "name",
      "outputs": [
        {
          "internalType": "string",
          "name": "",
          "type": "string"
        }
      ],
      "stateMutability": "view",
      "type": "function"
    },
    {
      "inputs": [
        {
          "internalType": "uint256",
          "name": "tokenId",
          "type": "uint256"
        }
      ],
      "name": "ownerOf",
      "outputs": [
        {
          "internalType": "address",
          "name": "",
          "type": "address"
        }
      ],
      "stateMutability": "view",
      "type": "function"
    },
    {
      "inputs": [
        {
          "internalType": "address",
          "name": "from",
          "type": "address"
        },
        {
          "internalType": "address",
          "name": "to",
          "type": "address"
        },
        {
          "internalType": "uint256",
          "name": "tokenId",
          "type": "uint256"
        }
      ],
      "name": "safeTransferFrom",
      "outputs": [],
      "stateMutability": "nonpayable",
      "type": "function"
    },
    {
      "inputs": [
        {
          "internalType": "address",
          "name": "from",
          "type": "address"
        },
        {
          "internalType": "address",
          "name": "to",
          "type": "address"
        },
        {
          "internalType": "uint256",
          "name": "tokenId",
          "type": "uint256"
        },
        {
          "internalType": "bytes",
          "name": "_data",
          "type": "bytes"
        }
      ],
      "name": "safeTransferFrom",
      "outputs": [],
      "stateMutability": "nonpayable",
      "type": "function"
    },
    {
      "inputs": [
        {
          "internalType": "address",
          "name": "operator",
          "type": "address"
        },
        {
          "internalType": "bool",
          "name": "approved",
          "type": "bool"
        }
      ],
      "name": "setApprovalForAll",
      "outputs": [],
      "stateMutability": "nonpayable",
      "type": "function"
    },
    {
      "inputs": [
        {
          "internalType": "bytes4",
          "name": "interfaceId",
          "type": "bytes4"
        }
      ],
      "name": "supportsInterface",
      "outputs": [
        {
          "internalType": "bool",
          "name": "",
          "type": "bool"
        }
      ],
      "stateMutability": "view",
      "type": "function"
    },
    {
      "inputs": [],
      "name": "symbol",
      "outputs": [
        {
          "internalType": "string",
          "name": "",
          "type": "string"
        }
      ],
      "stateMutability": "view",
      "type": "function"
    },
    {
      "inputs": [
        {
          "internalType": "uint256",
          "name": "tokenId",
          "type": "uint256"
        }
      ],
      "name": "tokenURI",
      "outputs": [
        {
          "internalType": "string",
          "name": "",
          "type": "string"
        }
      ],
      "stateMutability": "view",
      "type": "function"
    },
    {
      "inputs": [
        {
          "internalType": "address",
          "name": "from",
          "type": "address"
        },
        {
          "internalType": "address",
          "name": "to",
          "type": "address"
        },
        {
          "internalType": "uint256",
          "name": "tokenId",
          "type": "uint256"
        }
      ],
      "name": "transferFrom",
      "outputs": [],
      "stateMutability": "nonpayable",
      "type": "function"
    },
    {
      "inputs": [
        {
          "internalType": "uint256",
          "name": "tokenId",
          "type": "uint256"
        }
      ],
      "name": "mint",
      "outputs": [],
      "stateMutability": "nonpayable",
      "type": "function"
    },
    {
      "inputs": [
        {
          "internalType": "uint256",
          "name": "tokenId",
          "type": "uint256"
        }
      ],
      "name": "test_mint",
      "outputs": [],
      "stateMutability": "nonpayable",
      "type": "function"
    }
  ],
  "bytecode": "0x60806040523480156200001157600080fd5b506040518060400160405280600b81526020017f556e6971756541737365740000000000000000000000000000000000000000008152506040518060400160405280600381526020017f554e410000000000000000000000000000000000000000000000000000000000815250816000908051906020019062000096929190620000b8565b508060019080519060200190620000af929190620000b8565b505050620001cd565b828054620000c69062000197565b90600052602060002090601f016020900481019282620000ea576000855562000136565b82601f106200010557805160ff191683800117855562000136565b8280016001018555821562000136579182015b828111156200013557825182559160200191906001019062000118565b5b50905062000145919062000149565b5090565b5b80821115620001645760008160009055506001016200014a565b5090565b7f4e487b7100000000000000000000000000000000000000000000000000000000600052602260045260246000fd5b60006002820490506001821680620001b057607f821691505b60208210811415620001c757620001c662000168565b5b50919050565b6127ba80620001dd6000396000f3fe608060405234801561001057600080fd5b50600436106100f55760003560e01c80636352211e11610097578063a22cb46511610066578063a22cb46514610282578063b88d4fde1461029e578063c87b56dd146102ba578063e985e9c5146102ea576100f5565b80636352211e146101e857806370a082311461021857806395d89b4114610248578063a0712d6814610266576100f5565b8063095ea7b3116100d3578063095ea7b31461017857806323b872dd14610194578063310b466d146101b057806342842e0e146101cc576100f5565b806301ffc9a7146100fa57806306fdde031461012a578063081812fc14610148575b600080fd5b610114600480360381019061010f9190611714565b61031a565b604051610121919061175c565b60405180910390f35b6101326103fc565b60405161013f9190611810565b60405180910390f35b610162600480360381019061015d9190611868565b61048e565b60405161016f91906118d6565b60405180910390f35b610192600480360381019061018d919061191d565b610513565b005b6101ae60048036038101906101a9919061195d565b61062b565b005b6101ca60048036038101906101c59190611868565b61068b565b005b6101e660048036038101906101e1919061195d565b610698565b005b61020260048036038101906101fd9190611868565b6106b8565b60405161020f91906118d6565b60405180910390f35b610232600480360381019061022d91906119b0565b61076a565b60405161023f91906119ec565b60405180910390f35b610250610822565b60405161025d9190611810565b60405180910390f35b610280600480360381019061027b9190611868565b6108b4565b005b61029c60048036038101906102979190611a33565b61090b565b005b6102b860048036038101906102b39190611ba8565b610921565b005b6102d460048036038101906102cf9190611868565b610983565b6040516102e19190611810565b60405180910390f35b61030460048036038101906102ff9190611c2b565b610a2a565b604051610311919061175c565b60405180910390f35b60007f80ac58cd000000000000000000000000000000000000000000000000000000007bffffffffffffffffffffffffffffffffffffffffffffffffffffffff1916827bffffffffffffffffffffffffffffffffffffffffffffffffffffffff191614806103e557507f5b5e139f000000000000000000000000000000000000000000000000000000007bffffffffffffffffffffffffffffffffffffffffffffffffffffffff1916827bffffffffffffffffffffffffffffffffffffffffffffffffffffffff1916145b806103f557506103f482610abe565b5b9050919050565b60606000805461040b90611c9a565b80601f016020809104026020016040519081016040528092919081815260200182805461043790611c9a565b80156104845780601f1061045957610100808354040283529160200191610484565b820191906000526020600020905b81548152906001019060200180831161046757829003601f168201915b5050505050905090565b600061049982610b28565b6104d8576040517f08c379a00000000000000000000000000000000000000000000000000000000081526004016104cf90611d3e565b60405180910390fd5b6004600083815260200190815260200160002060009054906101000a900473ffffffffffffffffffffffffffffffffffffffff169050919050565b600061051e826106b8565b90508073ffffffffffffffffffffffffffffffffffffffff168373ffffffffffffffffffffffffffffffffffffffff16141561058f576040517f08c379a000000000000000000000000000000000000000000000000000000000815260040161058690611dd0565b60405180910390fd5b8073ffffffffffffffffffffffffffffffffffffffff166105ae610b94565b73ffffffffffffffffffffffffffffffffffffffff1614806105dd57506105dc816105d7610b94565b610a2a565b5b61061c576040517f08c379a000000000000000000000000000000000000000000000000000000000815260040161061390611e62565b60405180910390fd5b6106268383610b9c565b505050565b61063c610636610b94565b82610c55565b61067b576040517f08c379a000000000000000000000000000000000000000000000000000000000815260040161067290611ef4565b60405180910390fd5b610686838383610d33565b505050565b6106953382610f8f565b50565b6106b383838360405180602001604052806000815250610921565b505050565b6000806002600084815260200190815260200160002060009054906101000a900473ffffffffffffffffffffffffffffffffffffffff169050600073ffffffffffffffffffffffffffffffffffffffff168173ffffffffffffffffffffffffffffffffffffffff161415610761576040517f08c379a000000000000000000000000000000000000000000000000000000000815260040161075890611f86565b60405180910390fd5b80915050919050565b60008073ffffffffffffffffffffffffffffffffffffffff168273ffffffffffffffffffffffffffffffffffffffff1614156107db576040517f08c379a00000000000000000000000000000000000000000000000000000000081526004016107d290612018565b60405180910390fd5b600360008373ffffffffffffffffffffffffffffffffffffffff1673ffffffffffffffffffffffffffffffffffffffff168152602001908152602001600020549050919050565b60606001805461083190611c9a565b80601f016020809104026020016040519081016040528092919081815260200182805461085d90611c9a565b80156108aa5780601f1061087f576101008083540402835291602001916108aa565b820191906000526020600020905b81548152906001019060200180831161088d57829003601f168201915b5050505050905090565b7fdca3b34e6c9d5f86272dbca88ab5572823f1c041d4deba565154c22e1b812a418160016040516108e6929190612038565b60405180910390a161090833826040518060200160405280600081525061115d565b50565b61091d610916610b94565b83836111b8565b5050565b61093261092c610b94565b83610c55565b610971576040517f08c379a000000000000000000000000000000000000000000000000000000000815260040161096890611ef4565b60405180910390fd5b61097d84848484611325565b50505050565b606061098e82610b28565b6109cd576040517f08c379a00000000000000000000000000000000000000000000000000000000081526004016109c4906120d3565b60405180910390fd5b60006109d7611381565b905060008151116109f75760405180602001604052806000815250610a22565b80610a0184611398565b604051602001610a1292919061212f565b6040516020818303038152906040525b915050919050565b6000600560008473ffffffffffffffffffffffffffffffffffffffff1673ffffffffffffffffffffffffffffffffffffffff16815260200190815260200160002060008373ffffffffffffffffffffffffffffffffffffffff1673ffffffffffffffffffffffffffffffffffffffff16815260200190815260200160002060009054906101000a900460ff16905092915050565b60007f01ffc9a7000000000000000000000000000000000000000000000000000000007bffffffffffffffffffffffffffffffffffffffffffffffffffffffff1916827bffffffffffffffffffffffffffffffffffffffffffffffffffffffff1916149050919050565b60008073ffffffffffffffffffffffffffffffffffffffff166002600084815260200190815260200160002060009054906101000a900473ffffffffffffffffffffffffffffffffffffffff1673ffffffffffffffffffffffffffffffffffffffff1614159050919050565b600033905090565b816004600083815260200190815260200160002060006101000a81548173ffffffffffffffffffffffffffffffffffffffff021916908373ffffffffffffffffffffffffffffffffffffffff160217905550808273ffffffffffffffffffffffffffffffffffffffff16610c0f836106b8565b73ffffffffffffffffffffffffffffffffffffffff167f8c5be1e5ebec7d5bd14f71427d1e84f3dd0314c0f7b2291e5b200ac8c7c3b92560405160405180910390a45050565b6000610c6082610b28565b610c9f576040517f08c379a0000000000000000000000000000000000000000000000000000000008152600401610c96906121c5565b60405180910390fd5b6000610caa836106b8565b90508073ffffffffffffffffffffffffffffffffffffffff168473ffffffffffffffffffffffffffffffffffffffff161480610d1957508373ffffffffffffffffffffffffffffffffffffffff16610d018461048e565b73ffffffffffffffffffffffffffffffffffffffff16145b80610d2a5750610d298185610a2a565b5b91505092915050565b8273ffffffffffffffffffffffffffffffffffffffff16610d53826106b8565b73ffffffffffffffffffffffffffffffffffffffff1614610da9576040517f08c379a0000000000000000000000000000000000000000000000000000000008152600401610da090612257565b60405180910390fd5b600073ffffffffffffffffffffffffffffffffffffffff168273ffffffffffffffffffffffffffffffffffffffff161415610e19576040517f08c379a0000000000000000000000000000000000000000000000000000000008152600401610e10906122e9565b60405180910390fd5b610e248383836114f9565b610e2f600082610b9c565b6001600360008573ffffffffffffffffffffffffffffffffffffffff1673ffffffffffffffffffffffffffffffffffffffff1681526020019081526020016000206000828254610e7f9190612338565b925050819055506001600360008473ffffffffffffffffffffffffffffffffffffffff1673ffffffffffffffffffffffffffffffffffffffff1681526020019081526020016000206000828254610ed6919061236c565b92505081905550816002600083815260200190815260200160002060006101000a81548173ffffffffffffffffffffffffffffffffffffffff021916908373ffffffffffffffffffffffffffffffffffffffff160217905550808273ffffffffffffffffffffffffffffffffffffffff168473ffffffffffffffffffffffffffffffffffffffff167fddf252ad1be2c89b69c2b068fc378daa952ba7f163c4a11628f55a4df523b3ef60405160405180910390a4505050565b600073ffffffffffffffffffffffffffffffffffffffff168273ffffffffffffffffffffffffffffffffffffffff161415610fff576040517f08c379a0000000000000000000000000000000000000000000000000000000008152600401610ff69061240e565b60405180910390fd5b61100881610b28565b15611048576040517f08c379a000000000000000000000000000000000000000000000000000000000815260040161103f9061247a565b60405180910390fd5b611054600083836114f9565b6001600360008473ffffffffffffffffffffffffffffffffffffffff1673ffffffffffffffffffffffffffffffffffffffff16815260200190815260200160002060008282546110a4919061236c565b92505081905550816002600083815260200190815260200160002060006101000a81548173ffffffffffffffffffffffffffffffffffffffff021916908373ffffffffffffffffffffffffffffffffffffffff160217905550808273ffffffffffffffffffffffffffffffffffffffff16600073ffffffffffffffffffffffffffffffffffffffff167fddf252ad1be2c89b69c2b068fc378daa952ba7f163c4a11628f55a4df523b3ef60405160405180910390a45050565b6111678383610f8f565b61117460008484846114fe565b6111b3576040517f08c379a00000000000000000000000000000000000000000000000000000000081526004016111aa9061250c565b60405180910390fd5b505050565b8173ffffffffffffffffffffffffffffffffffffffff168373ffffffffffffffffffffffffffffffffffffffff161415611227576040517f08c379a000000000000000000000000000000000000000000000000000000000815260040161121e90612578565b60405180910390fd5b80600560008573ffffffffffffffffffffffffffffffffffffffff1673ffffffffffffffffffffffffffffffffffffffff16815260200190815260200160002060008473ffffffffffffffffffffffffffffffffffffffff1673ffffffffffffffffffffffffffffffffffffffff16815260200190815260200160002060006101000a81548160ff0219169083151502179055508173ffffffffffffffffffffffffffffffffffffffff168373ffffffffffffffffffffffffffffffffffffffff167f17307eab39ab6107e8899845ad3d59bd9653f200f220920489ca2b5937696c3183604051611318919061175c565b60405180910390a3505050565b611330848484610d33565b61133c848484846114fe565b61137b576040517f08c379a00000000000000000000000000000000000000000000000000000000081526004016113729061250c565b60405180910390fd5b50505050565b606060405180602001604052806000815250905090565b606060008214156113e0576040518060400160405280600181526020017f300000000000000000000000000000000000000000000000000000000000000081525090506114f4565b600082905060005b600082146114125780806113fb90612598565b915050600a8261140b9190612610565b91506113e8565b60008167ffffffffffffffff81111561142e5761142d611a7d565b5b6040519080825280601f01601f1916602001820160405280156114605781602001600182028036833780820191505090505b5090505b600085146114ed576001826114799190612338565b9150600a856114889190612641565b6030611494919061236c565b60f81b8183815181106114aa576114a9612672565b5b60200101907effffffffffffffffffffffffffffffffffffffffffffffffffffffffffffff1916908160001a905350600a856114e69190612610565b9450611464565b8093505050505b919050565b505050565b600061151f8473ffffffffffffffffffffffffffffffffffffffff16611695565b15611688578373ffffffffffffffffffffffffffffffffffffffff1663150b7a02611548610b94565b8786866040518563ffffffff1660e01b815260040161156a94939291906126f6565b602060405180830381600087803b15801561158457600080fd5b505af19250505080156115b557506040513d601f19601f820116820180604052508101906115b29190612757565b60015b611638573d80600081146115e5576040519150601f19603f3d011682016040523d82523d6000602084013e6115ea565b606091505b50600081511415611630576040517f08c379a00000000000000000000000000000000000000000000000000000000081526004016116279061250c565b60405180910390fd5b805181602001fd5b63150b7a0260e01b7bffffffffffffffffffffffffffffffffffffffffffffffffffffffff1916817bffffffffffffffffffffffffffffffffffffffffffffffffffffffff19161491505061168d565b600190505b949350505050565b600080823b905060008111915050919050565b6000604051905090565b600080fd5b600080fd5b60007fffffffff0000000000000000000000000000000000000000000000000000000082169050919050565b6116f1816116bc565b81146116fc57600080fd5b50565b60008135905061170e816116e8565b92915050565b60006020828403121561172a576117296116b2565b5b6000611738848285016116ff565b91505092915050565b60008115159050919050565b61175681611741565b82525050565b6000602082019050611771600083018461174d565b92915050565b600081519050919050565b600082825260208201905092915050565b60005b838110156117b1578082015181840152602081019050611796565b838111156117c0576000848401525b50505050565b6000601f19601f8301169050919050565b60006117e282611777565b6117ec8185611782565b93506117fc818560208601611793565b611805816117c6565b840191505092915050565b6000602082019050818103600083015261182a81846117d7565b905092915050565b6000819050919050565b61184581611832565b811461185057600080fd5b50565b6000813590506118628161183c565b92915050565b60006020828403121561187e5761187d6116b2565b5b600061188c84828501611853565b91505092915050565b600073ffffffffffffffffffffffffffffffffffffffff82169050919050565b60006118c082611895565b9050919050565b6118d0816118b5565b82525050565b60006020820190506118eb60008301846118c7565b92915050565b6118fa816118b5565b811461190557600080fd5b50565b600081359050611917816118f1565b92915050565b60008060408385031215611934576119336116b2565b5b600061194285828601611908565b925050602061195385828601611853565b9150509250929050565b600080600060608486031215611976576119756116b2565b5b600061198486828701611908565b935050602061199586828701611908565b92505060406119a686828701611853565b9150509250925092565b6000602082840312156119c6576119c56116b2565b5b60006119d484828501611908565b91505092915050565b6119e681611832565b82525050565b6000602082019050611a0160008301846119dd565b92915050565b611a1081611741565b8114611a1b57600080fd5b50565b600081359050611a2d81611a07565b92915050565b60008060408385031215611a4a57611a496116b2565b5b6000611a5885828601611908565b9250506020611a6985828601611a1e565b9150509250929050565b600080fd5b600080fd5b7f4e487b7100000000000000000000000000000000000000000000000000000000600052604160045260246000fd5b611ab5826117c6565b810181811067ffffffffffffffff82111715611ad457611ad3611a7d565b5b80604052505050565b6000611ae76116a8565b9050611af38282611aac565b919050565b600067ffffffffffffffff821115611b1357611b12611a7d565b5b611b1c826117c6565b9050602081019050919050565b82818337600083830152505050565b6000611b4b611b4684611af8565b611add565b905082815260208101848484011115611b6757611b66611a78565b5b611b72848285611b29565b509392505050565b600082601f830112611b8f57611b8e611a73565b5b8135611b9f848260208601611b38565b91505092915050565b60008060008060808587031215611bc257611bc16116b2565b5b6000611bd087828801611908565b9450506020611be187828801611908565b9350506040611bf287828801611853565b925050606085013567ffffffffffffffff811115611c1357611c126116b7565b5b611c1f87828801611b7a565b91505092959194509250565b60008060408385031215611c4257611c416116b2565b5b6000611c5085828601611908565b9250506020611c6185828601611908565b9150509250929050565b7f4e487b7100000000000000000000000000000000000000000000000000000000600052602260045260246000fd5b60006002820490506001821680611cb257607f821691505b60208210811415611cc657611cc5611c6b565b5b50919050565b7f4552433732313a20617070726f76656420717565727920666f72206e6f6e657860008201527f697374656e7420746f6b656e0000000000000000000000000000000000000000602082015250565b6000611d28602c83611782565b9150611d3382611ccc565b604082019050919050565b60006020820190508181036000830152611d5781611d1b565b9050919050565b7f4552433732313a20617070726f76616c20746f2063757272656e74206f776e6560008201527f7200000000000000000000000000000000000000000000000000000000000000602082015250565b6000611dba602183611782565b9150611dc582611d5e565b604082019050919050565b60006020820190508181036000830152611de981611dad565b9050919050565b7f4552433732313a20617070726f76652063616c6c6572206973206e6f74206f7760008201527f6e6572206e6f7220617070726f76656420666f7220616c6c0000000000000000602082015250565b6000611e4c603883611782565b9150611e5782611df0565b604082019050919050565b60006020820190508181036000830152611e7b81611e3f565b9050919050565b7f4552433732313a207472616e736665722063616c6c6572206973206e6f74206f60008201527f776e6572206e6f7220617070726f766564000000000000000000000000000000602082015250565b6000611ede603183611782565b9150611ee982611e82565b604082019050919050565b60006020820190508181036000830152611f0d81611ed1565b9050919050565b7f4552433732313a206f776e657220717565727920666f72206e6f6e657869737460008201527f656e7420746f6b656e0000000000000000000000000000000000000000000000602082015250565b6000611f70602983611782565b9150611f7b82611f14565b604082019050919050565b60006020820190508181036000830152611f9f81611f63565b9050919050565b7f4552433732313a2062616c616e636520717565727920666f7220746865207a6560008201527f726f206164647265737300000000000000000000000000000000000000000000602082015250565b6000612002602a83611782565b915061200d82611fa6565b604082019050919050565b6000602082019050818103600083015261203181611ff5565b9050919050565b600060408201905061204d60008301856119dd565b61205a602083018461174d565b9392505050565b7f4552433732314d657461646174613a2055524920717565727920666f72206e6f60008201527f6e6578697374656e7420746f6b656e0000000000000000000000000000000000602082015250565b60006120bd602f83611782565b91506120c882612061565b604082019050919050565b600060208201905081810360008301526120ec816120b0565b9050919050565b600081905092915050565b600061210982611777565b61211381856120f3565b9350612123818560208601611793565b80840191505092915050565b600061213b82856120fe565b915061214782846120fe565b91508190509392505050565b7f4552433732313a206f70657261746f7220717565727920666f72206e6f6e657860008201527f697374656e7420746f6b656e0000000000000000000000000000000000000000602082015250565b60006121af602c83611782565b91506121ba82612153565b604082019050919050565b600060208201905081810360008301526121de816121a2565b9050919050565b7f4552433732313a207472616e73666572206f6620746f6b656e2074686174206960008201527f73206e6f74206f776e0000000000000000000000000000000000000000000000602082015250565b6000612241602983611782565b915061224c826121e5565b604082019050919050565b6000602082019050818103600083015261227081612234565b9050919050565b7f4552433732313a207472616e7366657220746f20746865207a65726f2061646460008201527f7265737300000000000000000000000000000000000000000000000000000000602082015250565b60006122d3602483611782565b91506122de82612277565b604082019050919050565b60006020820190508181036000830152612302816122c6565b9050919050565b7f4e487b7100000000000000000000000000000000000000000000000000000000600052601160045260246000fd5b600061234382611832565b915061234e83611832565b92508282101561236157612360612309565b5b828203905092915050565b600061237782611832565b915061238283611832565b9250827fffffffffffffffffffffffffffffffffffffffffffffffffffffffffffffffff038211156123b7576123b6612309565b5b828201905092915050565b7f4552433732313a206d696e7420746f20746865207a65726f2061646472657373600082015250565b60006123f8602083611782565b9150612403826123c2565b602082019050919050565b60006020820190508181036000830152612427816123eb565b9050919050565b7f4552433732313a20746f6b656e20616c7265616479206d696e74656400000000600082015250565b6000612464601c83611782565b915061246f8261242e565b602082019050919050565b6000602082019050818103600083015261249381612457565b9050919050565b7f4552433732313a207472616e7366657220746f206e6f6e20455243373231526560008201527f63656976657220696d706c656d656e7465720000000000000000000000000000602082015250565b60006124f6603283611782565b91506125018261249a565b604082019050919050565b60006020820190508181036000830152612525816124e9565b9050919050565b7f4552433732313a20617070726f766520746f2063616c6c657200000000000000600082015250565b6000612562601983611782565b915061256d8261252c565b602082019050919050565b6000602082019050818103600083015261259181612555565b9050919050565b60006125a382611832565b91507fffffffffffffffffffffffffffffffffffffffffffffffffffffffffffffffff8214156125d6576125d5612309565b5b600182019050919050565b7f4e487b7100000000000000000000000000000000000000000000000000000000600052601260045260246000fd5b600061261b82611832565b915061262683611832565b925082612636576126356125e1565b5b828204905092915050565b600061264c82611832565b915061265783611832565b925082612667576126666125e1565b5b828206905092915050565b7f4e487b7100000000000000000000000000000000000000000000000000000000600052603260045260246000fd5b600081519050919050565b600082825260208201905092915050565b60006126c8826126a1565b6126d281856126ac565b93506126e2818560208601611793565b6126eb816117c6565b840191505092915050565b600060808201905061270b60008301876118c7565b61271860208301866118c7565b61272560408301856119dd565b818103606083015261273781846126bd565b905095945050505050565b600081519050612751816116e8565b92915050565b60006020828403121561276d5761276c6116b2565b5b600061277b84828501612742565b9150509291505056fea26469706673582212205cebd6318b1b3e2b39543f0fee982f6c2e385b6af1c3f2a5f0d80ed2b43bc83b64736f6c63430008090033",
  "immutableReferences": {},
  "source": "pragma solidity ^0.8.0;\nimport \"@openzeppelin/contracts/token/ERC721/ERC721.sol\";\nimport \"@openzeppelin/contracts/utils/Counters.sol\";\ncontract NFT is ERC721{\n  event Mint(uint256 tokenId, bool status);\n  constructor() ERC721(\"UniqueAsset\", \"UNA\") {}\n  function mint(uint256 tokenId) public {\n    emit Mint(tokenId, true);\n    _safeMint(msg.sender, tokenId, \"\");\n  }\n  function test_mint(uint256 tokenId) public {\n    _mint(msg.sender, tokenId);\n  }\n}\n",
  "sourcePath": "/home/xgao/delphinus-lerna/packages/solidity/contracts/Nft.sol",
  "compiler": {
    "name": "solc",
    "version": "0.8.9+commit.e5eed63a.Linux.g++"
  },
  "schemaVersion": "3.4.4",
  "updatedAt": "2022-01-05T10:57:29.331Z",
  "devdoc": {
    "kind": "dev",
    "methods": {
      "approve(address,uint256)": {
        "details": "See {IERC721-approve}."
      },
      "balanceOf(address)": {
        "details": "See {IERC721-balanceOf}."
      },
      "getApproved(uint256)": {
        "details": "See {IERC721-getApproved}."
      },
      "isApprovedForAll(address,address)": {
        "details": "See {IERC721-isApprovedForAll}."
      },
      "name()": {
        "details": "See {IERC721Metadata-name}."
      },
      "ownerOf(uint256)": {
        "details": "See {IERC721-ownerOf}."
      },
      "safeTransferFrom(address,address,uint256)": {
        "details": "See {IERC721-safeTransferFrom}."
      },
      "safeTransferFrom(address,address,uint256,bytes)": {
        "details": "See {IERC721-safeTransferFrom}."
      },
      "setApprovalForAll(address,bool)": {
        "details": "See {IERC721-setApprovalForAll}."
      },
      "supportsInterface(bytes4)": {
        "details": "See {IERC165-supportsInterface}."
      },
      "symbol()": {
        "details": "See {IERC721Metadata-symbol}."
      },
      "tokenURI(uint256)": {
        "details": "See {IERC721Metadata-tokenURI}."
      },
      "transferFrom(address,address,uint256)": {
        "details": "See {IERC721-transferFrom}."
      }
    },
    "version": 1
  },
  "userdoc": {
    "kind": "user",
    "methods": {},
    "version": 1
  }
}