{
  "contractName": "NFT",
  "abi": [
    {
      "inputs": [],
      "stateMutability": "nonpayable",
      "type": "constructor"
    },
    {
      "anonymous": false,
      "inputs": [
        {
          "indexed": true,
          "internalType": "address",
          "name": "owner",
          "type": "address"
        },
        {
          "indexed": true,
          "internalType": "address",
          "name": "approved",
          "type": "address"
        },
        {
          "indexed": true,
          "internalType": "uint256",
          "name": "tokenId",
          "type": "uint256"
        }
      ],
      "name": "Approval",
      "type": "event"
    },
    {
      "anonymous": false,
      "inputs": [
        {
          "indexed": true,
          "internalType": "address",
          "name": "owner",
          "type": "address"
        },
        {
          "indexed": true,
          "internalType": "address",
          "name": "operator",
          "type": "address"
        },
        {
          "indexed": false,
          "internalType": "bool",
          "name": "approved",
          "type": "bool"
        }
      ],
      "name": "ApprovalForAll",
      "type": "event"
    },
    {
      "anonymous": false,
      "inputs": [
        {
          "indexed": false,
          "internalType": "uint256",
          "name": "tokenId",
          "type": "uint256"
        },
        {
          "indexed": false,
          "internalType": "bool",
          "name": "status",
          "type": "bool"
        }
      ],
      "name": "Mint",
      "type": "event"
    },
    {
      "anonymous": false,
      "inputs": [
        {
          "indexed": true,
          "internalType": "address",
          "name": "from",
          "type": "address"
        },
        {
          "indexed": true,
          "internalType": "address",
          "name": "to",
          "type": "address"
        },
        {
          "indexed": true,
          "internalType": "uint256",
          "name": "tokenId",
          "type": "uint256"
        }
      ],
      "name": "Transfer",
      "type": "event"
    },
    {
      "inputs": [
        {
          "internalType": "address",
          "name": "to",
          "type": "address"
        },
        {
          "internalType": "uint256",
          "name": "tokenId",
          "type": "uint256"
        }
      ],
      "name": "approve",
      "outputs": [],
      "stateMutability": "nonpayable",
      "type": "function"
    },
    {
      "inputs": [
        {
          "internalType": "address",
          "name": "owner",
          "type": "address"
        }
      ],
      "name": "balanceOf",
      "outputs": [
        {
          "internalType": "uint256",
          "name": "",
          "type": "uint256"
        }
      ],
      "stateMutability": "view",
      "type": "function",
      "constant": true
    },
    {
      "inputs": [
        {
          "internalType": "uint256",
          "name": "tokenId",
          "type": "uint256"
        }
      ],
      "name": "getApproved",
      "outputs": [
        {
          "internalType": "address",
          "name": "",
          "type": "address"
        }
      ],
      "stateMutability": "view",
      "type": "function",
      "constant": true
    },
    {
      "inputs": [
        {
          "internalType": "address",
          "name": "owner",
          "type": "address"
        },
        {
          "internalType": "address",
          "name": "operator",
          "type": "address"
        }
      ],
      "name": "isApprovedForAll",
      "outputs": [
        {
          "internalType": "bool",
          "name": "",
          "type": "bool"
        }
      ],
      "stateMutability": "view",
      "type": "function",
      "constant": true
    },
    {
      "inputs": [],
      "name": "name",
      "outputs": [
        {
          "internalType": "string",
          "name": "",
          "type": "string"
        }
      ],
      "stateMutability": "view",
      "type": "function",
      "constant": true
    },
    {
      "inputs": [
        {
          "internalType": "uint256",
          "name": "tokenId",
          "type": "uint256"
        }
      ],
      "name": "ownerOf",
      "outputs": [
        {
          "internalType": "address",
          "name": "",
          "type": "address"
        }
      ],
      "stateMutability": "view",
      "type": "function",
      "constant": true
    },
    {
      "inputs": [
        {
          "internalType": "address",
          "name": "from",
          "type": "address"
        },
        {
          "internalType": "address",
          "name": "to",
          "type": "address"
        },
        {
          "internalType": "uint256",
          "name": "tokenId",
          "type": "uint256"
        }
      ],
      "name": "safeTransferFrom",
      "outputs": [],
      "stateMutability": "nonpayable",
      "type": "function"
    },
    {
      "inputs": [
        {
          "internalType": "address",
          "name": "from",
          "type": "address"
        },
        {
          "internalType": "address",
          "name": "to",
          "type": "address"
        },
        {
          "internalType": "uint256",
          "name": "tokenId",
          "type": "uint256"
        },
        {
          "internalType": "bytes",
          "name": "_data",
          "type": "bytes"
        }
      ],
      "name": "safeTransferFrom",
      "outputs": [],
      "stateMutability": "nonpayable",
      "type": "function"
    },
    {
      "inputs": [
        {
          "internalType": "address",
          "name": "operator",
          "type": "address"
        },
        {
          "internalType": "bool",
          "name": "approved",
          "type": "bool"
        }
      ],
      "name": "setApprovalForAll",
      "outputs": [],
      "stateMutability": "nonpayable",
      "type": "function"
    },
    {
      "inputs": [
        {
          "internalType": "bytes4",
          "name": "interfaceId",
          "type": "bytes4"
        }
      ],
      "name": "supportsInterface",
      "outputs": [
        {
          "internalType": "bool",
          "name": "",
          "type": "bool"
        }
      ],
      "stateMutability": "view",
      "type": "function",
      "constant": true
    },
    {
      "inputs": [],
      "name": "symbol",
      "outputs": [
        {
          "internalType": "string",
          "name": "",
          "type": "string"
        }
      ],
      "stateMutability": "view",
      "type": "function",
      "constant": true
    },
    {
      "inputs": [
        {
          "internalType": "uint256",
          "name": "tokenId",
          "type": "uint256"
        }
      ],
      "name": "tokenURI",
      "outputs": [
        {
          "internalType": "string",
          "name": "",
          "type": "string"
        }
      ],
      "stateMutability": "view",
      "type": "function",
      "constant": true
    },
    {
      "inputs": [
        {
          "internalType": "address",
          "name": "from",
          "type": "address"
        },
        {
          "internalType": "address",
          "name": "to",
          "type": "address"
        },
        {
          "internalType": "uint256",
          "name": "tokenId",
          "type": "uint256"
        }
      ],
      "name": "transferFrom",
      "outputs": [],
      "stateMutability": "nonpayable",
      "type": "function"
    },
    {
      "inputs": [
        {
          "internalType": "uint256",
          "name": "tokenId",
          "type": "uint256"
        }
      ],
      "name": "mint",
      "outputs": [],
      "stateMutability": "nonpayable",
      "type": "function"
    },
    {
      "inputs": [
        {
          "internalType": "uint256",
          "name": "tokenId",
          "type": "uint256"
        }
      ],
      "name": "test_mint",
      "outputs": [],
      "stateMutability": "nonpayable",
      "type": "function"
    }
  ],
  "bytecode": "0x60806040523480156200001157600080fd5b506040518060400160405280600b81526020017f556e6971756541737365740000000000000000000000000000000000000000008152506040518060400160405280600381526020017f554e410000000000000000000000000000000000000000000000000000000000815250816000908051906020019062000096929190620000b8565b508060019080519060200190620000af929190620000b8565b505050620001cd565b828054620000c69062000168565b90600052602060002090601f016020900481019282620000ea576000855562000136565b82601f106200010557805160ff191683800117855562000136565b8280016001018555821562000136579182015b828111156200013557825182559160200191906001019062000118565b5b50905062000145919062000149565b5090565b5b80821115620001645760008160009055506001016200014a565b5090565b600060028204905060018216806200018157607f821691505b602082108114156200019857620001976200019e565b5b50919050565b7f4e487b7100000000000000000000000000000000000000000000000000000000600052602260045260246000fd5b61279180620001dd6000396000f3fe608060405234801561001057600080fd5b50600436106100f55760003560e01c80636352211e11610097578063a22cb46511610066578063a22cb46514610282578063b88d4fde1461029e578063c87b56dd146102ba578063e985e9c5146102ea576100f5565b80636352211e146101e857806370a082311461021857806395d89b4114610248578063a0712d6814610266576100f5565b8063095ea7b3116100d3578063095ea7b31461017857806323b872dd14610194578063310b466d146101b057806342842e0e146101cc576100f5565b806301ffc9a7146100fa57806306fdde031461012a578063081812fc14610148575b600080fd5b610114600480360381019061010f919061196a565b61031a565b6040516101219190611d2a565b60405180910390f35b6101326103fc565b60405161013f9190611d45565b60405180910390f35b610162600480360381019061015d91906119bc565b61048e565b60405161016f9190611cc3565b60405180910390f35b610192600480360381019061018d919061192e565b610513565b005b6101ae60048036038101906101a99190611828565b61062b565b005b6101ca60048036038101906101c591906119bc565b61068b565b005b6101e660048036038101906101e19190611828565b610698565b005b61020260048036038101906101fd91906119bc565b6106b8565b60405161020f9190611cc3565b60405180910390f35b610232600480360381019061022d91906117c3565b61076a565b60405161023f9190611f27565b60405180910390f35b610250610822565b60405161025d9190611d45565b60405180910390f35b610280600480360381019061027b91906119bc565b6108b4565b005b61029c600480360381019061029791906118f2565b61090b565b005b6102b860048036038101906102b39190611877565b610a8c565b005b6102d460048036038101906102cf91906119bc565b610aee565b6040516102e19190611d45565b60405180910390f35b61030460048036038101906102ff91906117ec565b610b95565b6040516103119190611d2a565b60405180910390f35b60007f80ac58cd000000000000000000000000000000000000000000000000000000007bffffffffffffffffffffffffffffffffffffffffffffffffffffffff1916827bffffffffffffffffffffffffffffffffffffffffffffffffffffffff191614806103e557507f5b5e139f000000000000000000000000000000000000000000000000000000007bffffffffffffffffffffffffffffffffffffffffffffffffffffffff1916827bffffffffffffffffffffffffffffffffffffffffffffffffffffffff1916145b806103f557506103f482610c29565b5b9050919050565b60606000805461040b90612175565b80601f016020809104026020016040519081016040528092919081815260200182805461043790612175565b80156104845780601f1061045957610100808354040283529160200191610484565b820191906000526020600020905b81548152906001019060200180831161046757829003601f168201915b5050505050905090565b600061049982610c93565b6104d8576040517f08c379a00000000000000000000000000000000000000000000000000000000081526004016104cf90611e87565b60405180910390fd5b6004600083815260200190815260200160002060009054906101000a900473ffffffffffffffffffffffffffffffffffffffff169050919050565b600061051e826106b8565b90508073ffffffffffffffffffffffffffffffffffffffff168373ffffffffffffffffffffffffffffffffffffffff16141561058f576040517f08c379a000000000000000000000000000000000000000000000000000000000815260040161058690611ee7565b60405180910390fd5b8073ffffffffffffffffffffffffffffffffffffffff166105ae610cff565b73ffffffffffffffffffffffffffffffffffffffff1614806105dd57506105dc816105d7610cff565b610b95565b5b61061c576040517f08c379a000000000000000000000000000000000000000000000000000000000815260040161061390611e07565b60405180910390fd5b6106268383610d07565b505050565b61063c610636610cff565b82610dc0565b61067b576040517f08c379a000000000000000000000000000000000000000000000000000000000815260040161067290611f07565b60405180910390fd5b610686838383610e9e565b505050565b61069533826110fa565b50565b6106b383838360405180602001604052806000815250610a8c565b505050565b6000806002600084815260200190815260200160002060009054906101000a900473ffffffffffffffffffffffffffffffffffffffff169050600073ffffffffffffffffffffffffffffffffffffffff168173ffffffffffffffffffffffffffffffffffffffff161415610761576040517f08c379a000000000000000000000000000000000000000000000000000000000815260040161075890611e47565b60405180910390fd5b80915050919050565b60008073ffffffffffffffffffffffffffffffffffffffff168273ffffffffffffffffffffffffffffffffffffffff1614156107db576040517f08c379a00000000000000000000000000000000000000000000000000000000081526004016107d290611e27565b60405180910390fd5b600360008373ffffffffffffffffffffffffffffffffffffffff1673ffffffffffffffffffffffffffffffffffffffff168152602001908152602001600020549050919050565b60606001805461083190612175565b80601f016020809104026020016040519081016040528092919081815260200182805461085d90612175565b80156108aa5780601f1061087f576101008083540402835291602001916108aa565b820191906000526020600020905b81548152906001019060200180831161088d57829003601f168201915b5050505050905090565b7fdca3b34e6c9d5f86272dbca88ab5572823f1c041d4deba565154c22e1b812a418160016040516108e6929190611f42565b60405180910390a16109083382604051806020016040528060008152506112c8565b50565b610913610cff565b73ffffffffffffffffffffffffffffffffffffffff168273ffffffffffffffffffffffffffffffffffffffff161415610981576040517f08c379a000000000000000000000000000000000000000000000000000000000815260040161097890611dc7565b60405180910390fd5b806005600061098e610cff565b73ffffffffffffffffffffffffffffffffffffffff1673ffffffffffffffffffffffffffffffffffffffff16815260200190815260200160002060008473ffffffffffffffffffffffffffffffffffffffff1673ffffffffffffffffffffffffffffffffffffffff16815260200190815260200160002060006101000a81548160ff0219169083151502179055508173ffffffffffffffffffffffffffffffffffffffff16610a3b610cff565b73ffffffffffffffffffffffffffffffffffffffff167f17307eab39ab6107e8899845ad3d59bd9653f200f220920489ca2b5937696c3183604051610a809190611d2a565b60405180910390a35050565b610a9d610a97610cff565b83610dc0565b610adc576040517f08c379a0000000000000000000000000000000000000000000000000000000008152600401610ad390611f07565b60405180910390fd5b610ae884848484611323565b50505050565b6060610af982610c93565b610b38576040517f08c379a0000000000000000000000000000000000000000000000000000000008152600401610b2f90611ec7565b60405180910390fd5b6000610b4261137f565b90506000815111610b625760405180602001604052806000815250610b8d565b80610b6c84611396565b604051602001610b7d929190611c9f565b6040516020818303038152906040525b915050919050565b6000600560008473ffffffffffffffffffffffffffffffffffffffff1673ffffffffffffffffffffffffffffffffffffffff16815260200190815260200160002060008373ffffffffffffffffffffffffffffffffffffffff1673ffffffffffffffffffffffffffffffffffffffff16815260200190815260200160002060009054906101000a900460ff16905092915050565b60007f01ffc9a7000000000000000000000000000000000000000000000000000000007bffffffffffffffffffffffffffffffffffffffffffffffffffffffff1916827bffffffffffffffffffffffffffffffffffffffffffffffffffffffff1916149050919050565b60008073ffffffffffffffffffffffffffffffffffffffff166002600084815260200190815260200160002060009054906101000a900473ffffffffffffffffffffffffffffffffffffffff1673ffffffffffffffffffffffffffffffffffffffff1614159050919050565b600033905090565b816004600083815260200190815260200160002060006101000a81548173ffffffffffffffffffffffffffffffffffffffff021916908373ffffffffffffffffffffffffffffffffffffffff160217905550808273ffffffffffffffffffffffffffffffffffffffff16610d7a836106b8565b73ffffffffffffffffffffffffffffffffffffffff167f8c5be1e5ebec7d5bd14f71427d1e84f3dd0314c0f7b2291e5b200ac8c7c3b92560405160405180910390a45050565b6000610dcb82610c93565b610e0a576040517f08c379a0000000000000000000000000000000000000000000000000000000008152600401610e0190611de7565b60405180910390fd5b6000610e15836106b8565b90508073ffffffffffffffffffffffffffffffffffffffff168473ffffffffffffffffffffffffffffffffffffffff161480610e8457508373ffffffffffffffffffffffffffffffffffffffff16610e6c8461048e565b73ffffffffffffffffffffffffffffffffffffffff16145b80610e955750610e948185610b95565b5b91505092915050565b8273ffffffffffffffffffffffffffffffffffffffff16610ebe826106b8565b73ffffffffffffffffffffffffffffffffffffffff1614610f14576040517f08c379a0000000000000000000000000000000000000000000000000000000008152600401610f0b90611ea7565b60405180910390fd5b600073ffffffffffffffffffffffffffffffffffffffff168273ffffffffffffffffffffffffffffffffffffffff161415610f84576040517f08c379a0000000000000000000000000000000000000000000000000000000008152600401610f7b90611da7565b60405180910390fd5b610f8f838383611543565b610f9a600082610d07565b6001600360008573ffffffffffffffffffffffffffffffffffffffff1673ffffffffffffffffffffffffffffffffffffffff1681526020019081526020016000206000828254610fea919061208b565b925050819055506001600360008473ffffffffffffffffffffffffffffffffffffffff1673ffffffffffffffffffffffffffffffffffffffff16815260200190815260200160002060008282546110419190612004565b92505081905550816002600083815260200190815260200160002060006101000a81548173ffffffffffffffffffffffffffffffffffffffff021916908373ffffffffffffffffffffffffffffffffffffffff160217905550808273ffffffffffffffffffffffffffffffffffffffff168473ffffffffffffffffffffffffffffffffffffffff167fddf252ad1be2c89b69c2b068fc378daa952ba7f163c4a11628f55a4df523b3ef60405160405180910390a4505050565b600073ffffffffffffffffffffffffffffffffffffffff168273ffffffffffffffffffffffffffffffffffffffff16141561116a576040517f08c379a000000000000000000000000000000000000000000000000000000000815260040161116190611e67565b60405180910390fd5b61117381610c93565b156111b3576040517f08c379a00000000000000000000000000000000000000000000000000000000081526004016111aa90611d87565b60405180910390fd5b6111bf60008383611543565b6001600360008473ffffffffffffffffffffffffffffffffffffffff1673ffffffffffffffffffffffffffffffffffffffff168152602001908152602001600020600082825461120f9190612004565b92505081905550816002600083815260200190815260200160002060006101000a81548173ffffffffffffffffffffffffffffffffffffffff021916908373ffffffffffffffffffffffffffffffffffffffff160217905550808273ffffffffffffffffffffffffffffffffffffffff16600073ffffffffffffffffffffffffffffffffffffffff167fddf252ad1be2c89b69c2b068fc378daa952ba7f163c4a11628f55a4df523b3ef60405160405180910390a45050565b6112d283836110fa565b6112df6000848484611548565b61131e576040517f08c379a000000000000000000000000000000000000000000000000000000000815260040161131590611d67565b60405180910390fd5b505050565b61132e848484610e9e565b61133a84848484611548565b611379576040517f08c379a000000000000000000000000000000000000000000000000000000000815260040161137090611d67565b60405180910390fd5b50505050565b606060405180602001604052806000815250905090565b606060008214156113de576040518060400160405280600181526020017f3000000000000000000000000000000000000000000000000000000000000000815250905061153e565b600082905060005b600082146114105780806113f9906121d8565b915050600a82611409919061205a565b91506113e6565b60008167ffffffffffffffff811115611452577f4e487b7100000000000000000000000000000000000000000000000000000000600052604160045260246000fd5b6040519080825280601f01601f1916602001820160405280156114845781602001600182028036833780820191505090505b5090505b600085146115375760018261149d919061208b565b9150600a856114ac9190612221565b60306114b89190612004565b60f81b8183815181106114f4577f4e487b7100000000000000000000000000000000000000000000000000000000600052603260045260246000fd5b60200101907effffffffffffffffffffffffffffffffffffffffffffffffffffffffffffff1916908160001a905350600a85611530919061205a565b9450611488565b8093505050505b919050565b505050565b60006115698473ffffffffffffffffffffffffffffffffffffffff166116df565b156116d2578373ffffffffffffffffffffffffffffffffffffffff1663150b7a02611592610cff565b8786866040518563ffffffff1660e01b81526004016115b49493929190611cde565b602060405180830381600087803b1580156115ce57600080fd5b505af19250505080156115ff57506040513d601f19601f820116820180604052508101906115fc9190611993565b60015b611682573d806000811461162f576040519150601f19603f3d011682016040523d82523d6000602084013e611634565b606091505b5060008151141561167a576040517f08c379a000000000000000000000000000000000000000000000000000000000815260040161167190611d67565b60405180910390fd5b805181602001fd5b63150b7a0260e01b7bffffffffffffffffffffffffffffffffffffffffffffffffffffffff1916817bffffffffffffffffffffffffffffffffffffffffffffffffffffffff1916149150506116d7565b600190505b949350505050565b600080823b905060008111915050919050565b600061170561170084611f90565b611f6b565b90508281526020810184848401111561171d57600080fd5b611728848285612133565b509392505050565b60008135905061173f816126ff565b92915050565b60008135905061175481612716565b92915050565b6000813590506117698161272d565b92915050565b60008151905061177e8161272d565b92915050565b600082601f83011261179557600080fd5b81356117a58482602086016116f2565b91505092915050565b6000813590506117bd81612744565b92915050565b6000602082840312156117d557600080fd5b60006117e384828501611730565b91505092915050565b600080604083850312156117ff57600080fd5b600061180d85828601611730565b925050602061181e85828601611730565b9150509250929050565b60008060006060848603121561183d57600080fd5b600061184b86828701611730565b935050602061185c86828701611730565b925050604061186d868287016117ae565b9150509250925092565b6000806000806080858703121561188d57600080fd5b600061189b87828801611730565b94505060206118ac87828801611730565b93505060406118bd878288016117ae565b925050606085013567ffffffffffffffff8111156118da57600080fd5b6118e687828801611784565b91505092959194509250565b6000806040838503121561190557600080fd5b600061191385828601611730565b925050602061192485828601611745565b9150509250929050565b6000806040838503121561194157600080fd5b600061194f85828601611730565b9250506020611960858286016117ae565b9150509250929050565b60006020828403121561197c57600080fd5b600061198a8482850161175a565b91505092915050565b6000602082840312156119a557600080fd5b60006119b38482850161176f565b91505092915050565b6000602082840312156119ce57600080fd5b60006119dc848285016117ae565b91505092915050565b6119ee816120bf565b82525050565b6119fd816120d1565b82525050565b6000611a0e82611fc1565b611a188185611fd7565b9350611a28818560208601612142565b611a318161230e565b840191505092915050565b6000611a4782611fcc565b611a518185611fe8565b9350611a61818560208601612142565b611a6a8161230e565b840191505092915050565b6000611a8082611fcc565b611a8a8185611ff9565b9350611a9a818560208601612142565b80840191505092915050565b6000611ab3603283611fe8565b9150611abe8261231f565b604082019050919050565b6000611ad6601c83611fe8565b9150611ae18261236e565b602082019050919050565b6000611af9602483611fe8565b9150611b0482612397565b604082019050919050565b6000611b1c601983611fe8565b9150611b27826123e6565b602082019050919050565b6000611b3f602c83611fe8565b9150611b4a8261240f565b604082019050919050565b6000611b62603883611fe8565b9150611b6d8261245e565b604082019050919050565b6000611b85602a83611fe8565b9150611b90826124ad565b604082019050919050565b6000611ba8602983611fe8565b9150611bb3826124fc565b604082019050919050565b6000611bcb602083611fe8565b9150611bd68261254b565b602082019050919050565b6000611bee602c83611fe8565b9150611bf982612574565b604082019050919050565b6000611c11602983611fe8565b9150611c1c826125c3565b604082019050919050565b6000611c34602f83611fe8565b9150611c3f82612612565b604082019050919050565b6000611c57602183611fe8565b9150611c6282612661565b604082019050919050565b6000611c7a603183611fe8565b9150611c85826126b0565b604082019050919050565b611c9981612129565b82525050565b6000611cab8285611a75565b9150611cb78284611a75565b91508190509392505050565b6000602082019050611cd860008301846119e5565b92915050565b6000608082019050611cf360008301876119e5565b611d0060208301866119e5565b611d0d6040830185611c90565b8181036060830152611d1f8184611a03565b905095945050505050565b6000602082019050611d3f60008301846119f4565b92915050565b60006020820190508181036000830152611d5f8184611a3c565b905092915050565b60006020820190508181036000830152611d8081611aa6565b9050919050565b60006020820190508181036000830152611da081611ac9565b9050919050565b60006020820190508181036000830152611dc081611aec565b9050919050565b60006020820190508181036000830152611de081611b0f565b9050919050565b60006020820190508181036000830152611e0081611b32565b9050919050565b60006020820190508181036000830152611e2081611b55565b9050919050565b60006020820190508181036000830152611e4081611b78565b9050919050565b60006020820190508181036000830152611e6081611b9b565b9050919050565b60006020820190508181036000830152611e8081611bbe565b9050919050565b60006020820190508181036000830152611ea081611be1565b9050919050565b60006020820190508181036000830152611ec081611c04565b9050919050565b60006020820190508181036000830152611ee081611c27565b9050919050565b60006020820190508181036000830152611f0081611c4a565b9050919050565b60006020820190508181036000830152611f2081611c6d565b9050919050565b6000602082019050611f3c6000830184611c90565b92915050565b6000604082019050611f576000830185611c90565b611f6460208301846119f4565b9392505050565b6000611f75611f86565b9050611f8182826121a7565b919050565b6000604051905090565b600067ffffffffffffffff821115611fab57611faa6122df565b5b611fb48261230e565b9050602081019050919050565b600081519050919050565b600081519050919050565b600082825260208201905092915050565b600082825260208201905092915050565b600081905092915050565b600061200f82612129565b915061201a83612129565b9250827fffffffffffffffffffffffffffffffffffffffffffffffffffffffffffffffff0382111561204f5761204e612252565b5b828201905092915050565b600061206582612129565b915061207083612129565b9250826120805761207f612281565b5b828204905092915050565b600061209682612129565b91506120a183612129565b9250828210156120b4576120b3612252565b5b828203905092915050565b60006120ca82612109565b9050919050565b60008115159050919050565b60007fffffffff0000000000000000000000000000000000000000000000000000000082169050919050565b600073ffffffffffffffffffffffffffffffffffffffff82169050919050565b6000819050919050565b82818337600083830152505050565b60005b83811015612160578082015181840152602081019050612145565b8381111561216f576000848401525b50505050565b6000600282049050600182168061218d57607f821691505b602082108114156121a1576121a06122b0565b5b50919050565b6121b08261230e565b810181811067ffffffffffffffff821117156121cf576121ce6122df565b5b80604052505050565b60006121e382612129565b91507fffffffffffffffffffffffffffffffffffffffffffffffffffffffffffffffff82141561221657612215612252565b5b600182019050919050565b600061222c82612129565b915061223783612129565b92508261224757612246612281565b5b828206905092915050565b7f4e487b7100000000000000000000000000000000000000000000000000000000600052601160045260246000fd5b7f4e487b7100000000000000000000000000000000000000000000000000000000600052601260045260246000fd5b7f4e487b7100000000000000000000000000000000000000000000000000000000600052602260045260246000fd5b7f4e487b7100000000000000000000000000000000000000000000000000000000600052604160045260246000fd5b6000601f19601f8301169050919050565b7f4552433732313a207472616e7366657220746f206e6f6e20455243373231526560008201527f63656976657220696d706c656d656e7465720000000000000000000000000000602082015250565b7f4552433732313a20746f6b656e20616c7265616479206d696e74656400000000600082015250565b7f4552433732313a207472616e7366657220746f20746865207a65726f2061646460008201527f7265737300000000000000000000000000000000000000000000000000000000602082015250565b7f4552433732313a20617070726f766520746f2063616c6c657200000000000000600082015250565b7f4552433732313a206f70657261746f7220717565727920666f72206e6f6e657860008201527f697374656e7420746f6b656e0000000000000000000000000000000000000000602082015250565b7f4552433732313a20617070726f76652063616c6c6572206973206e6f74206f7760008201527f6e6572206e6f7220617070726f76656420666f7220616c6c0000000000000000602082015250565b7f4552433732313a2062616c616e636520717565727920666f7220746865207a6560008201527f726f206164647265737300000000000000000000000000000000000000000000602082015250565b7f4552433732313a206f776e657220717565727920666f72206e6f6e657869737460008201527f656e7420746f6b656e0000000000000000000000000000000000000000000000602082015250565b7f4552433732313a206d696e7420746f20746865207a65726f2061646472657373600082015250565b7f4552433732313a20617070726f76656420717565727920666f72206e6f6e657860008201527f697374656e7420746f6b656e0000000000000000000000000000000000000000602082015250565b7f4552433732313a207472616e73666572206f6620746f6b656e2074686174206960008201527f73206e6f74206f776e0000000000000000000000000000000000000000000000602082015250565b7f4552433732314d657461646174613a2055524920717565727920666f72206e6f60008201527f6e6578697374656e7420746f6b656e0000000000000000000000000000000000602082015250565b7f4552433732313a20617070726f76616c20746f2063757272656e74206f776e6560008201527f7200000000000000000000000000000000000000000000000000000000000000602082015250565b7f4552433732313a207472616e736665722063616c6c6572206973206e6f74206f60008201527f776e6572206e6f7220617070726f766564000000000000000000000000000000602082015250565b612708816120bf565b811461271357600080fd5b50565b61271f816120d1565b811461272a57600080fd5b50565b612736816120dd565b811461274157600080fd5b50565b61274d81612129565b811461275857600080fd5b5056fea2646970667358221220b4f1fb4f0f0607ee89ff89a593358fcdb992179122b3ad8f99287916a96e25d964736f6c63430008040033",
  "immutableReferences": {},
  "source": "pragma solidity ^0.8.0;\nimport \"@openzeppelin/contracts/token/ERC721/ERC721.sol\";\nimport \"@openzeppelin/contracts/utils/Counters.sol\";\ncontract NFT is ERC721{\n  event Mint(uint256 tokenId, bool status);\n  constructor() ERC721(\"UniqueAsset\", \"UNA\") {}\n  function mint(uint256 tokenId) public {\n    emit Mint(tokenId, true);\n    _safeMint(msg.sender, tokenId, \"\");\n  }\n  function test_mint(uint256 tokenId) public {\n    _mint(msg.sender, tokenId);\n  }\n}\n",
  "sourcePath": "/Users/leyingan/delphinus/playground/solidity/contracts/nft.sol",
  "compiler": {
    "name": "solc",
    "version": "0.8.4+commit.c7e474f2.Darwin.appleclang"
  },
  "schemaVersion": "3.4.1",
  "updatedAt": "2021-07-05T01:17:02.421Z",
  "networkType": "ethereum",
  "devdoc": {
    "kind": "dev",
    "methods": {
      "approve(address,uint256)": {
        "details": "See {IERC721-approve}."
      },
      "balanceOf(address)": {
        "details": "See {IERC721-balanceOf}."
      },
      "getApproved(uint256)": {
        "details": "See {IERC721-getApproved}."
      },
      "isApprovedForAll(address,address)": {
        "details": "See {IERC721-isApprovedForAll}."
      },
      "name()": {
        "details": "See {IERC721Metadata-name}."
      },
      "ownerOf(uint256)": {
        "details": "See {IERC721-ownerOf}."
      },
      "safeTransferFrom(address,address,uint256)": {
        "details": "See {IERC721-safeTransferFrom}."
      },
      "safeTransferFrom(address,address,uint256,bytes)": {
        "details": "See {IERC721-safeTransferFrom}."
      },
      "setApprovalForAll(address,bool)": {
        "details": "See {IERC721-setApprovalForAll}."
      },
      "supportsInterface(bytes4)": {
        "details": "See {IERC165-supportsInterface}."
      },
      "symbol()": {
        "details": "See {IERC721Metadata-symbol}."
      },
      "tokenURI(uint256)": {
        "details": "See {IERC721Metadata-tokenURI}."
      },
      "transferFrom(address,address,uint256)": {
        "details": "See {IERC721-transferFrom}."
      }
    },
    "version": 1
  },
  "userdoc": {
    "kind": "user",
    "methods": {},
    "version": 1
  }
}