{
  "contractName": "Supply",
  "abi": [
    {
      "inputs": [
        {
          "internalType": "uint256[]",
          "name": "witness",
          "type": "uint256[]"
        },
        {
          "internalType": "uint256",
          "name": "cursor",
          "type": "uint256"
        }
      ],
      "name": "verify",
      "outputs": [
        {
          "internalType": "uint256[]",
          "name": "",
          "type": "uint256[]"
        }
      ],
      "stateMutability": "pure",
      "type": "function",
      "constant": true
    },
    {
      "inputs": [],
      "name": "getVerifierInfo",
      "outputs": [
        {
          "components": [
            {
              "internalType": "uint256",
              "name": "nbArgs",
              "type": "uint256"
            }
          ],
          "internalType": "struct VerifierInfo",
          "name": "",
          "type": "tuple"
        }
      ],
      "stateMutability": "pure",
      "type": "function",
      "constant": true
    },
    {
      "inputs": [
        {
          "internalType": "uint256",
          "name": "cursor",
          "type": "uint256"
        },
        {
          "internalType": "uint256[]",
          "name": "witness",
          "type": "uint256[]"
        }
      ],
      "name": "testArgument",
      "outputs": [
        {
          "internalType": "uint256",
          "name": "",
          "type": "uint256"
        }
      ],
      "stateMutability": "pure",
      "type": "function",
      "constant": true
    }
  ],
  "bytecode": "0x608060405234801561001057600080fd5b50610d45806100206000396000f3fe608060405234801561001057600080fd5b50600436106100415760003560e01c8063191bd436146100465780635b2759f214610076578063e215abff146100a6575b600080fd5b610060600480360381019061005b9190610a53565b6100c4565b60405161006d9190610bdb565b60405180910390f35b610090600480360381019061008b91906109fb565b61010f565b60405161009d9190610b7e565b60405180910390f35b6100ae61096c565b6040516100bb9190610bc0565b60405180910390f35b60008282858181106100ff577f4e487b7100000000000000000000000000000000000000000000000000000000600052603260045260246000fd5b9050602002013590509392505050565b606060088261011e9190610c40565b848490501015610163576040517f08c379a000000000000000000000000000000000000000000000000000000000815260040161015a90610ba0565b60405180910390fd5b600084848481811061019e577f4e487b7100000000000000000000000000000000000000000000000000000000600052603260045260246000fd5b905060200201359050600085856001866101b89190610c40565b8181106101ee577f4e487b7100000000000000000000000000000000000000000000000000000000600052603260045260246000fd5b905060200201359050600086866002876102089190610c40565b81811061023e577f4e487b7100000000000000000000000000000000000000000000000000000000600052603260045260246000fd5b905060200201359050600087876003886102589190610c40565b81811061028e577f4e487b7100000000000000000000000000000000000000000000000000000000600052603260045260246000fd5b905060200201359050600088886004896102a89190610c40565b8181106102de577f4e487b7100000000000000000000000000000000000000000000000000000000600052603260045260246000fd5b9050602002013590506000898960058a6102f89190610c40565b81811061032e577f4e487b7100000000000000000000000000000000000000000000000000000000600052603260045260246000fd5b90506020020135905060008a8a60068b6103489190610c40565b81811061037e577f4e487b7100000000000000000000000000000000000000000000000000000000600052603260045260246000fd5b90506020020135905060008b8b60078c6103989190610c40565b8181106103ce577f4e487b7100000000000000000000000000000000000000000000000000000000600052603260045260246000fd5b9050602002013590506000601267ffffffffffffffff81111561041a577f4e487b7100000000000000000000000000000000000000000000000000000000600052604160045260246000fd5b6040519080825280602002602001820160405280156104485781602001602082028036833780820191505090505b509050600260ff168160008151811061048a577f4e487b7100000000000000000000000000000000000000000000000000000000600052603260045260246000fd5b60200260200101818152505086816001815181106104d1577f4e487b7100000000000000000000000000000000000000000000000000000000600052603260045260246000fd5b6020026020010181815250508581600281518110610518577f4e487b7100000000000000000000000000000000000000000000000000000000600052603260045260246000fd5b602002602001018181525050848160038151811061055f577f4e487b7100000000000000000000000000000000000000000000000000000000600052603260045260246000fd5b60200260200101818152505083816004815181106105a6577f4e487b7100000000000000000000000000000000000000000000000000000000600052603260045260246000fd5b602002602001018181525050600160ff16816005815181106105f1577f4e487b7100000000000000000000000000000000000000000000000000000000600052603260045260246000fd5b6020026020010181815250508681600681518110610638577f4e487b7100000000000000000000000000000000000000000000000000000000600052603260045260246000fd5b602002602001018181525050888160078151811061067f577f4e487b7100000000000000000000000000000000000000000000000000000000600052603260045260246000fd5b60200260200101818152505082816008815181106106c6577f4e487b7100000000000000000000000000000000000000000000000000000000600052603260045260246000fd5b602002602001018181525050600160ff1681600981518110610711577f4e487b7100000000000000000000000000000000000000000000000000000000600052603260045260246000fd5b6020026020010181815250508581600a81518110610758577f4e487b7100000000000000000000000000000000000000000000000000000000600052603260045260246000fd5b6020026020010181815250508881600b8151811061079f577f4e487b7100000000000000000000000000000000000000000000000000000000600052603260045260246000fd5b6020026020010181815250508181600c815181106107e6577f4e487b7100000000000000000000000000000000000000000000000000000000600052603260045260246000fd5b602002602001018181525050600460ff1681600d81518110610831577f4e487b7100000000000000000000000000000000000000000000000000000000600052603260045260246000fd5b6020026020010181815250508681600e81518110610878577f4e487b7100000000000000000000000000000000000000000000000000000000600052603260045260246000fd5b6020026020010181815250508581600f815181106108bf577f4e487b7100000000000000000000000000000000000000000000000000000000600052603260045260246000fd5b6020026020010181815250508881601081518110610906577f4e487b7100000000000000000000000000000000000000000000000000000000600052603260045260246000fd5b602002602001018181525050878160118151811061094d577f4e487b7100000000000000000000000000000000000000000000000000000000600052603260045260246000fd5b6020026020010181815250508099505050505050505050509392505050565b610974610989565b60405180602001604052806008815250905090565b6040518060200160405280600081525090565b60008083601f8401126109ae57600080fd5b8235905067ffffffffffffffff8111156109c757600080fd5b6020830191508360208202830111156109df57600080fd5b9250929050565b6000813590506109f581610cf8565b92915050565b600080600060408486031215610a1057600080fd5b600084013567ffffffffffffffff811115610a2a57600080fd5b610a368682870161099c565b93509350506020610a49868287016109e6565b9150509250925092565b600080600060408486031215610a6857600080fd5b6000610a76868287016109e6565b935050602084013567ffffffffffffffff811115610a9357600080fd5b610a9f8682870161099c565b92509250509250925092565b6000610ab78383610b60565b60208301905092915050565b6000610ace82610c06565b610ad88185610c1e565b9350610ae383610bf6565b8060005b83811015610b14578151610afb8882610aab565b9750610b0683610c11565b925050600181019050610ae7565b5085935050505092915050565b6000610b2e600d83610c2f565b9150610b3982610ccf565b602082019050919050565b602082016000820151610b5a6000850182610b60565b50505050565b610b6981610c96565b82525050565b610b7881610c96565b82525050565b60006020820190508181036000830152610b988184610ac3565b905092915050565b60006020820190508181036000830152610bb981610b21565b9050919050565b6000602082019050610bd56000830184610b44565b92915050565b6000602082019050610bf06000830184610b6f565b92915050565b6000819050602082019050919050565b600081519050919050565b6000602082019050919050565b600082825260208201905092915050565b600082825260208201905092915050565b6000610c4b82610c96565b9150610c5683610c96565b9250827fffffffffffffffffffffffffffffffffffffffffffffffffffffffffffffffff03821115610c8b57610c8a610ca0565b5b828201905092915050565b6000819050919050565b7f4e487b7100000000000000000000000000000000000000000000000000000000600052601160045260246000fd5b7f506f6f6c204f70204572726f7200000000000000000000000000000000000000600082015250565b610d0181610c96565b8114610d0c57600080fd5b5056fea2646970667358221220954e76e806d2f64ed4befcc4e338a8cc2ea3717ad5d192a71bdbddbfbd97200864736f6c63430008040033",
  "immutableReferences": {},
  "source": "// SPDX-License-Identifier: UNLICENSED\npragma solidity ^0.8.0;\nimport \"./Verifier.sol\";\ncontract Supply is Verifier{\n\n  uint8 constant _SET_BALANCE = 0x1;\n  uint8 constant _SET_POOL = 0x2;\n  uint8 constant _WITHDRAW = 0x3;\n  uint8 constant _SET_SHARE = 0x4;\n\n  function verify(uint256[] calldata witness, uint cursor) public pure override\n    returns (uint256[] memory) {\n    require (witness.length >= cursor + 8, \"Pool Op Error\");\n    uint256 l2account = witness[cursor];\n    uint256 share = witness[cursor+1];\n    uint256 tokenId0 = witness[cursor+2];\n    uint256 tokenId1 = witness[cursor+3];\n    uint256 amount0 = witness[cursor+4];\n    uint256 amount1 = witness[cursor+5];\n    uint256 balance0 = witness[cursor+6];\n    uint256 balance1 = witness[cursor+7];\n    /* We need to put snark verification here */\n    /* set u_1 */\n\n    uint256[] memory ops = new uint256[](18);\n    ops[0] = _SET_POOL;\n    ops[1] = tokenId0;\n    ops[2] = tokenId1;\n    ops[3] = amount0;\n    ops[4] = amount1;\n    ops[5] = _SET_BALANCE;\n    ops[6] = tokenId0;\n    ops[7] = l2account;\n    ops[8] = balance0;\n    ops[9] = _SET_BALANCE;\n    ops[10] = tokenId1;\n    ops[11] = l2account;\n    ops[12] = balance1;\n    ops[13] = _SET_SHARE;\n    ops[14] = tokenId0;\n    ops[15] = tokenId1;\n    ops[16] = l2account;\n    ops[17] = share;\n    return ops;\n  }\n  function getVerifierInfo() public override pure returns (VerifierInfo memory) {\n    return VerifierInfo(8);\n  }\n  function testArgument(uint cursor, uint256[] calldata witness) public pure returns (uint256) {\n    return witness[cursor];\n  }\n}\n",
  "sourcePath": "/Users/leyingan/delphinus/playground/solidity/contracts/Supply.sol",
  "compiler": {
    "name": "solc",
    "version": "0.8.4+commit.c7e474f2.Darwin.appleclang"
  },
  "schemaVersion": "3.4.1",
  "updatedAt": "2021-07-25T09:15:33.081Z",
  "networkType": "ethereum",
  "devdoc": {
    "kind": "dev",
    "methods": {},
    "version": 1
  },
  "userdoc": {
    "kind": "user",
    "methods": {},
    "version": 1
  }
}