{
  "contractName": "Withdraw",
  "abi": [
    {
      "inputs": [
        {
          "internalType": "uint256[]",
          "name": "witness",
          "type": "uint256[]"
        },
        {
          "internalType": "uint256",
          "name": "cursor",
          "type": "uint256"
        }
      ],
      "name": "sideEffect",
      "outputs": [
        {
          "internalType": "uint256[]",
          "name": "",
          "type": "uint256[]"
        }
      ],
      "stateMutability": "pure",
      "type": "function",
      "constant": true
    }
  ],
  "bytecode": "0x608060405234801561001057600080fd5b506104c2806100206000396000f3fe608060405234801561001057600080fd5b506004361061002b5760003560e01c8063d46e692714610030575b600080fd5b61004a60048036038101906100459190610269565b610060565b6040516100579190610387565b60405180910390f35b60606000600467ffffffffffffffff81111561007f5761007e6103a9565b5b6040519080825280602002602001820160405280156100ad5781602001602082028036833780820191505090505b509050600085856004866100c19190610407565b8181106100d1576100d061045d565b5b905060200201359050600086866005876100eb9190610407565b8181106100fb576100fa61045d565b5b905060200201359050600087876006886101159190610407565b8181106101255761012461045d565b5b905060200201359050600160ff16846000815181106101475761014661045d565b5b60200260200101818152505082846001815181106101685761016761045d565b5b60200260200101818152505081846002815181106101895761018861045d565b5b60200260200101818152505080846003815181106101aa576101a961045d565b5b602002602001018181525050839450505050509392505050565b600080fd5b600080fd5b600080fd5b600080fd5b600080fd5b60008083601f8401126101f3576101f26101ce565b5b8235905067ffffffffffffffff8111156102105761020f6101d3565b5b60208301915083602082028301111561022c5761022b6101d8565b5b9250929050565b6000819050919050565b61024681610233565b811461025157600080fd5b50565b6000813590506102638161023d565b92915050565b600080600060408486031215610282576102816101c4565b5b600084013567ffffffffffffffff8111156102a05761029f6101c9565b5b6102ac868287016101dd565b935093505060206102bf86828701610254565b9150509250925092565b600081519050919050565b600082825260208201905092915050565b6000819050602082019050919050565b6102fe81610233565b82525050565b600061031083836102f5565b60208301905092915050565b6000602082019050919050565b6000610334826102c9565b61033e81856102d4565b9350610349836102e5565b8060005b8381101561037a5781516103618882610304565b975061036c8361031c565b92505060018101905061034d565b5085935050505092915050565b600060208201905081810360008301526103a18184610329565b905092915050565b7f4e487b7100000000000000000000000000000000000000000000000000000000600052604160045260246000fd5b7f4e487b7100000000000000000000000000000000000000000000000000000000600052601160045260246000fd5b600061041282610233565b915061041d83610233565b9250827fffffffffffffffffffffffffffffffffffffffffffffffffffffffffffffffff03821115610452576104516103d8565b5b828201905092915050565b7f4e487b7100000000000000000000000000000000000000000000000000000000600052603260045260246000fdfea2646970667358221220801da8e19ab8c3268802d9fd14d7ed6f53d957b3f4ae8651ce5dc57b6856328464736f6c63430008090033",
  "immutableReferences": {},
  "source": "// SPDX-License-Identifier: UNLICENSED\npragma solidity ^0.8.0;\nimport \"./Transaction.sol\";\ncontract Withdraw is Transaction {\n\n  function sideEffect(uint256[] calldata witness, uint cursor) public pure override returns (uint256[] memory) {\n    uint256[] memory ops = new uint256[](4);\n    // uint256 l2account = witness[cursor];\n    uint256 tokenIdx = witness[cursor+4];\n    uint256 transferAmount = witness[cursor+5];\n    uint256 l1recipent = witness[cursor+6];\n    /* We need to put snark verification here */\n    ops[0] = _WITHDRAW;\n    ops[1] = tokenIdx;\n    ops[2] = transferAmount;\n    ops[3] = l1recipent;\n    return ops;\n  }\n}\n",
  "sourcePath": "/home/xgao/delphinus-lerna/packages/solidity/contracts/Withdraw.sol",
  "compiler": {
    "name": "solc",
    "version": "0.8.9+commit.e5eed63a.Linux.g++"
  },
  "schemaVersion": "3.4.3",
  "updatedAt": "2021-11-08T10:20:42.044Z",
  "networkType": "ethereum",
  "devdoc": {
    "kind": "dev",
    "methods": {},
    "version": 1
  },
  "userdoc": {
    "kind": "user",
    "methods": {},
    "version": 1
  }
}