{
  "contractName": "Withdraw",
  "abi": [
    {
      "inputs": [
        {
          "internalType": "bytes",
          "name": "witness",
          "type": "bytes"
        },
        {
          "internalType": "uint256",
          "name": "cursor",
          "type": "uint256"
        }
      ],
      "name": "sideEffect",
      "outputs": [
        {
          "internalType": "uint256[]",
          "name": "",
          "type": "uint256[]"
        }
      ],
      "stateMutability": "pure",
      "type": "function",
      "constant": true
    }
  ],
  "bytecode": "0x608060405234801561001057600080fd5b506106a3806100206000396000f3fe608060405234801561001057600080fd5b506004361061002b5760003560e01c80634ab51c0314610030575b600080fd5b61004a600480360381019061004591906103ac565b610060565b60405161005791906104c6565b60405180910390f35b60606000600467ffffffffffffffff81111561007f5761007e61024b565b5b6040519080825280602002602001820160405280156100ad5781602001602082028036833780820191505090505b50905060006100ca85600e866100c39190610517565b6002610199565b905060006100e6866010876100df9190610517565b6020610199565b90506000610102876030886100fb9190610517565b6020610199565b9050600160ff168460008151811061011d5761011c61054b565b5b602002602001018181525050828460018151811061013e5761013d61054b565b5b602002602001018181525050818460028151811061015f5761015e61054b565b5b60200260200101818152505080846003815181106101805761017f61054b565b5b6020026020010181815250508394505050505092915050565b60006020836101a89190610517565b845110156101eb576040517f08c379a00000000000000000000000000000000000000000000000000000000081526004016101e2906105d7565b60405180910390fd5b6000602084018501519050600883602061020591906105f7565b61020f919061062b565b81901c9150509392505050565b6000604051905090565b600080fd5b600080fd5b600080fd5b600080fd5b6000601f19601f8301169050919050565b7f4e487b7100000000000000000000000000000000000000000000000000000000600052604160045260246000fd5b6102838261023a565b810181811067ffffffffffffffff821117156102a2576102a161024b565b5b80604052505050565b60006102b561021c565b90506102c1828261027a565b919050565b600067ffffffffffffffff8211156102e1576102e061024b565b5b6102ea8261023a565b9050602081019050919050565b82818337600083830152505050565b6000610319610314846102c6565b6102ab565b90508281526020810184848401111561033557610334610235565b5b6103408482856102f7565b509392505050565b600082601f83011261035d5761035c610230565b5b813561036d848260208601610306565b91505092915050565b6000819050919050565b61038981610376565b811461039457600080fd5b50565b6000813590506103a681610380565b92915050565b600080604083850312156103c3576103c2610226565b5b600083013567ffffffffffffffff8111156103e1576103e061022b565b5b6103ed85828601610348565b92505060206103fe85828601610397565b9150509250929050565b600081519050919050565b600082825260208201905092915050565b6000819050602082019050919050565b61043d81610376565b82525050565b600061044f8383610434565b60208301905092915050565b6000602082019050919050565b600061047382610408565b61047d8185610413565b935061048883610424565b8060005b838110156104b95781516104a08882610443565b97506104ab8361045b565b92505060018101905061048c565b5085935050505092915050565b600060208201905081810360008301526104e08184610468565b905092915050565b7f4e487b7100000000000000000000000000000000000000000000000000000000600052601160045260246000fd5b600061052282610376565b915061052d83610376565b9250828201905080821115610545576105446104e8565b5b92915050565b7f4e487b7100000000000000000000000000000000000000000000000000000000600052603260045260246000fd5b600082825260208201905092915050565b7f736c6963696e67206f7574206f662072616e6765000000000000000000000000600082015250565b60006105c160148361057a565b91506105cc8261058b565b602082019050919050565b600060208201905081810360008301526105f0816105b4565b9050919050565b600061060282610376565b915061060d83610376565b9250828203905081811115610625576106246104e8565b5b92915050565b600061063682610376565b915061064183610376565b925082820261064f81610376565b91508282048414831517610666576106656104e8565b5b509291505056fea26469706673582212209db51579003860a96dc2dfa131a78ce8f4be90134b9ddf2b0990e0b3afa34a5764736f6c63430008110033",
  "immutableReferences": {},
  "source": "// SPDX-License-Identifier: UNLICENSED\npragma solidity ^0.8.0;\nimport \"./Transaction.sol\";\n\ncontract Withdraw is Transaction {\n    function bytesToUint(bytes memory bs, uint256 start, uint256 len)\n        internal\n        pure\n        returns (uint256)\n    {\n        require(bs.length >= start + 32, \"slicing out of range\");\n        uint256 x;\n        assembly {\n            x := mload(add(bs, add(start, 0x20)))\n        }\n        return x >> (32 - len) * 8;\n    }\n\n    function sideEffect(bytes memory witness, uint256 cursor)\n        public\n        pure\n        override\n        returns (uint256[] memory)\n    {\n        uint256[] memory ops = new uint256[](4);\n        uint256 tokenIdx = bytesToUint(witness, cursor + 14, 2);\n        uint256 transferAmount = bytesToUint(witness, cursor + 16, 32);\n        uint256 l1recipent = bytesToUint(witness, cursor + 48, 32);\n\n        ops[0] = _WITHDRAW;\n        ops[1] = tokenIdx;\n        ops[2] = transferAmount;\n        ops[3] = l1recipent;\n        return ops;\n    }\n}\n",
  "sourcePath": "/volume1/zkcross-backend-lerna/packages/solidity/contracts/Withdraw.sol",
  "compiler": {
    "name": "solc",
    "version": "0.8.17+commit.8df45f5f.Linux.g++"
  },
  "schemaVersion": "3.4.11",
  "updatedAt": "2022-12-07T12:05:25.697Z",
  "networkType": "ethereum",
  "devdoc": {
    "kind": "dev",
    "methods": {},
    "version": 1
  },
  "userdoc": {
    "kind": "user",
    "methods": {},
    "version": 1
  }
}