{
  "contractName": "Withdraw",
  "abi": [
    {
      "inputs": [
        {
          "internalType": "uint256[]",
          "name": "witness",
          "type": "uint256[]"
        },
        {
          "internalType": "uint256",
          "name": "cursor",
          "type": "uint256"
        }
      ],
      "name": "verify",
      "outputs": [
        {
          "internalType": "uint256[]",
          "name": "",
          "type": "uint256[]"
        }
      ],
      "stateMutability": "nonpayable",
      "type": "function"
    },
    {
      "inputs": [],
      "name": "getVerifierInfo",
      "outputs": [
        {
          "components": [
            {
              "internalType": "uint256",
              "name": "nbArgs",
              "type": "uint256"
            }
          ],
          "internalType": "struct VerifierInfo",
          "name": "",
          "type": "tuple"
        }
      ],
      "stateMutability": "pure",
      "type": "function",
      "constant": true
    }
  ],
  "bytecode": "0x608060405234801561001057600080fd5b506107ad806100206000396000f3fe608060405234801561001057600080fd5b50600436106100365760003560e01c80635b2759f21461003b578063e215abff1461006b575b600080fd5b61005560048036038101906100509190610562565b610089565b604051610062919061065b565b60405180910390f35b6100736104d3565b604051610080919061067d565b60405180910390f35b60606000600867ffffffffffffffff8111156100ce577f4e487b7100000000000000000000000000000000000000000000000000000000600052604160045260246000fd5b6040519080825280602002602001820160405280156100fc5781602001602082028036833780820191505090505b509050600085858581811061013a577f4e487b7100000000000000000000000000000000000000000000000000000000600052603260045260246000fd5b9050602002013590506000868660018761015491906106d1565b81811061018a577f4e487b7100000000000000000000000000000000000000000000000000000000600052603260045260246000fd5b905060200201359050600087876002886101a491906106d1565b8181106101da577f4e487b7100000000000000000000000000000000000000000000000000000000600052603260045260246000fd5b905060200201359050600088886003896101f491906106d1565b81811061022a577f4e487b7100000000000000000000000000000000000000000000000000000000600052603260045260246000fd5b9050602002013590506000898960048a61024491906106d1565b81811061027a577f4e487b7100000000000000000000000000000000000000000000000000000000600052603260045260246000fd5b905060200201359050600160ff16866000815181106102c2577f4e487b7100000000000000000000000000000000000000000000000000000000600052603260045260246000fd5b6020026020010181815250508386600181518110610309577f4e487b7100000000000000000000000000000000000000000000000000000000600052603260045260246000fd5b6020026020010181815250508486600281518110610350577f4e487b7100000000000000000000000000000000000000000000000000000000600052603260045260246000fd5b6020026020010181815250508286600381518110610397577f4e487b7100000000000000000000000000000000000000000000000000000000600052603260045260246000fd5b602002602001018181525050600360ff16866004815181106103e2577f4e487b7100000000000000000000000000000000000000000000000000000000600052603260045260246000fd5b6020026020010181815250508386600581518110610429577f4e487b7100000000000000000000000000000000000000000000000000000000600052603260045260246000fd5b6020026020010181815250508086600681518110610470577f4e487b7100000000000000000000000000000000000000000000000000000000600052603260045260246000fd5b60200260200101818152505081866007815181106104b7577f4e487b7100000000000000000000000000000000000000000000000000000000600052603260045260246000fd5b6020026020010181815250508596505050505050509392505050565b6104db6104f0565b60405180602001604052806005815250905090565b6040518060200160405280600081525090565b60008083601f84011261051557600080fd5b8235905067ffffffffffffffff81111561052e57600080fd5b60208301915083602082028301111561054657600080fd5b9250929050565b60008135905061055c81610760565b92915050565b60008060006040848603121561057757600080fd5b600084013567ffffffffffffffff81111561059157600080fd5b61059d86828701610503565b935093505060206105b08682870161054d565b9150509250925092565b60006105c6838361064c565b60208301905092915050565b60006105dd826106a8565b6105e781856106c0565b93506105f283610698565b8060005b8381101561062357815161060a88826105ba565b9750610615836106b3565b9250506001810190506105f6565b5085935050505092915050565b602082016000820151610646600085018261064c565b50505050565b61065581610727565b82525050565b6000602082019050818103600083015261067581846105d2565b905092915050565b60006020820190506106926000830184610630565b92915050565b6000819050602082019050919050565b600081519050919050565b6000602082019050919050565b600082825260208201905092915050565b60006106dc82610727565b91506106e783610727565b9250827fffffffffffffffffffffffffffffffffffffffffffffffffffffffffffffffff0382111561071c5761071b610731565b5b828201905092915050565b6000819050919050565b7f4e487b7100000000000000000000000000000000000000000000000000000000600052601160045260246000fd5b61076981610727565b811461077457600080fd5b5056fea2646970667358221220e977a0f3f3814eb58c18d9f096d7134ae30caa49a3607ead655d928b92d206b264736f6c63430008040033",
  "immutableReferences": {},
  "source": "// SPDX-License-Identifier: UNLICENSED\npragma solidity ^0.8.0;\nimport \"./Verifier.sol\";\ncontract Withdraw is Verifier{\n\n  uint8 constant _SET_BALANCE = 0x1;\n  uint8 constant _SET_POOL = 0x2;\n  uint8 constant _WITHDRAW = 0x3;\n\n  function verify(uint256[] calldata witness, uint cursor) public override returns (uint256[] memory) {\n    uint256[] memory ops = new uint256[](8);\n    uint256 l2account = witness[cursor];\n    uint256 tokenId = witness[cursor+1];\n    uint256 restAmount = witness[cursor+2];\n    uint256 l1recipent = witness[cursor+3];\n    uint256 transferAmount = witness[cursor+4];\n    /* We need to put snark verification here */\n    /* set u_1 */\n    ops[0] = _SET_BALANCE;\n    ops[1] = tokenId;\n    ops[2] = l2account;\n    ops[3] = restAmount;\n    /* set u_3 */\n    ops[4] = _WITHDRAW;\n    ops[5] = tokenId;\n    ops[6] = transferAmount;\n    ops[7] = l1recipent;\n    return ops;\n  }\n  function getVerifierInfo() public override pure returns (VerifierInfo memory) {\n    return VerifierInfo(5);\n  }\n}\n",
  "sourcePath": "/Users/leyingan/delphinus/playground/solidity/contracts/Withdraw.sol",
  "compiler": {
    "name": "solc",
    "version": "0.8.4+commit.c7e474f2.Darwin.appleclang"
  },
  "schemaVersion": "3.4.1",
  "updatedAt": "2021-07-05T01:14:07.075Z",
  "networkType": "ethereum",
  "devdoc": {
    "kind": "dev",
    "methods": {},
    "version": 1
  },
  "userdoc": {
    "kind": "user",
    "methods": {},
    "version": 1
  }
}